:0200000460009A
:1000000000000120910100007F0300008103000037
:100010008303000085030000870300000000000048
:10002000000000000000000000000000915C0000E3
:100030008B03000000000000215D0000655D0000F2
:100040009103000093030000811B00009D1B000032
:100050003D1F00009B0300009D030000591F00008E
:10006000A1030000A3030000D5150000F115000056
:1000700015520000AB030000AD030000AF03000009
:10008000B1030000B3030000B5030000AD1600008B
:1000900015090000B10B0000BD030000BF03000004
:1000A000C1030000C3030000C503000001200000DD
:1000B00041200000CB030000CD030000CF0300006F
:1000C000D1030000D3030000D5030000D7030000D4
:1000D000D9030000DB030000DD030000DF030000A4
:1000E000E1030000E3030000E5030000E703000074
:1000F000E9030000EB030000ED030000EF03000044
:10010000F1030000F3030000F5030000F703000013
:10011000F9030000FB030000FD030000FF030000E3
:1001200001040000030400000504000007040000AF
:10013000090400000B0400000D0400000F0400007F
:10014000110400001304000015040000170400004F
:10015000190400001B0400001D0400001F0400001F
:1001600021040000230400002504000027040000EF
:10017000290400002B0400002D0400002F040000BF
:100180003104000033040000000000000000000003
:100190004FF0000BDFF8BE020068DFF8B612096806
:1001A00001F0030100F01C00142801D14BF0020BF8
:1001B000002901D04BF0010BBBF1000F05D0A7487F
:1001C000A749DFF8722200F09FF8A64880470BF09D
:1001D000020ABAF1000F0CD0DFF86E02DFF86E12DF
:1001E00002680B680FB44FF000024FF0FF0302608B
:1001F0000B609D484FF000024FF00103022808D128
:10020000DFF83A120A60DFF83E120A60DFF83212B5
:100210000B60012808D1DFF82A120A60DFF82612E5
:100220000A60DFF81A120B609048002809D1904844
:100230009049914A00F030F890489149914A00F075
:100240002BF891489149924A00F026F8914892493A
:10025000DFF8E22100F058F8BBF1000F10D08F4812
:100260008F49DFF8D62100F04FF80BF0020ABAF1FF
:10027000000F05D00FBC02600B6000BFAFF3008021
:10028000DFF820020FF2030E00474FF000004FF09E
:100290000001DFF814F2FEE72DE9F841884225D08D
:1002A000B2EB010200D5FEE740EA010313F00303BD
:1002B00002D000F01DF819E04FF000039046121133
:1002C000F7D09A421CBFF0C8F0C103F10103F8D186
:1002D00008F00F08B8F1000F08D004780C7000F196
:1002E000010001F10101B8F10108F6D1BDE8F88182
:1002F00008B54FF0000303780B7000F1010001F125
:100300000101013AF7D108BD884237D000F0030659
:10031000002E14D04FF00405A5EB06044FF008079B
:1003200007FB06F8914669FA08F9002C07D080F817
:10033000009069FA07F900F10100013CF5E74FF080
:1003400000060F46091A88460911914614461546BB
:10035000B14206D018BFA0E8340206F10106B1424E
:10036000F8D108F00F08B8F1000F07D002704FEA7B
:10037000322200F10100B8F10108F4E77047FEE70E
:10038000FEE7FEE7FEE7FEE7FEE7FEE7FEE7FEE745
:10039000FEE7FEE7FEE7FEE7FEE7FEE7FEE7FEE735
:1003A000FEE7FEE7FEE7FEE7FEE7FEE7FEE7FEE725
:1003B000FEE7FEE7FEE7FEE7FEE7FEE7FEE7FEE715
:1003C000FEE7FEE7FEE7FEE7FEE7FEE7FEE7FEE705
:1003D000FEE7FEE7FEE7FEE7FEE7FEE7FEE7FEE7F5
:1003E000FEE7FEE7FEE7FEE7FEE7FEE7FEE7FEE7E5
:1003F000FEE7FEE7FEE7FEE7FEE7FEE7FEE7FEE7D5
:10040000FEE7FEE7FEE7FEE7FEE7FEE7FEE7FEE7C4
:10041000FEE7FEE7FEE7FEE7FEE7FEE7FEE7FEE7B4
:10042000FEE7FEE7FEE7FEE7FEE7FEE7FEE7FEE7A4
:10043000FEE7FEE7704700000000A2A2A2A2008033
:100440000340088003401080034030800340348024
:1004500003403880034018080240000000F00020EC
:1004600000000120ED040000000000000100000079
:100470000000006000000000900100000006006025
:1004800000060000607C0000607C0060000000202E
:10049000B0040020B0040020707D0020707D00209A
:1004A00000F000206D060000E1220000074B084A22
:1004B0001860084B1860084B1860084B1A60084B0E
:1004C0001860084B1860084B186070475C040020E7
:1004D000E0AF1D026C0400207004002074040020B2
:1004E0006004002064040020680400204FF602022B
:1004F0000C4BD3F84C11914206D00B4A536943F48C
:1005000000735361FFF796BFD3F8982042F48072CE
:10051000C3F89820D3F8982022F08062C3F898207E
:10052000EBE700BF0080034000ED00E0254B82B008
:10053000D3F8982012F080623BD1D3F89810C90408
:1005400012D4214B214A22491360224A22480A60D0
:1005500022490A602249086022490A60224A13603F
:10056000224A136002B070478DF800208DF80220F7
:10057000022201218DF804208DF8052003228DF838
:1005800001108DF803108DF806208DF80720D3F8A0
:100590009C2002A9C2F382120A4412F8082C012AF4
:1005A00002D006D3124801E04FF4004002B0FFF73A
:1005B0007DBFD3F850310F4813F0040F0E4B18BF16
:1005C0001846F3E70080034080BF76085C040020F3
:1005D0006C040020C05F3B04E0AF1D0270040020EB
:1005E00074040020600400206404002068040020DB
:1005F00040420F0040787D0180F0FA0200000000C8
:1006000010B5054C237833B9044B13B10448AFF34C
:1006100000800123237010BDB00400200000000002
:10062000307C00000C4B43B10C4810B50C49AFF3C3
:1006300000800C48036823B910BD0A48036833B929
:100640007047094B002BF7D0BDE810401847064B08
:10065000002BF5D0184700BF00000000307C0000E0
:10066000B4040020000000200000000070B50F4E10
:100670000F4D761BB61018BF002405D0013455F875
:10068000043B9847A642F9D10A4E0B4D07F0D0FA29
:10069000761BB61018BF002406D0013455F8043B71
:1006A0009847A642F9D170BD70BD00BF487C0000DC
:1006B000487C0000507C0000487C000070B4860735
:1006C00046D0541E002A41D0CAB2034602E014F1BB
:1006D000FF343BD303F8012B9D07F8D1032C2ED90F
:1006E000CDB245EA05250F2C45EA054519D9264620
:1006F00003F11002103E0F2E42F8105C42F80C5C21
:1007000042F8085C42F8045C02F11002F2D8A4F14D
:10071000100222F00F0204F00F041032032C1344D5
:100720000DD91E462246043A032A46F8045BFAD83D
:10073000221F22F003020432134404F003042CB1FC
:10074000C9B21C4403F8011B9C42FBD170BC70472A
:1007500014460346C2E700BF024B13B1024800F043
:1007600005B870470000000079070000002301462B
:100770001A46184600F01EB838B50A4C0A4D641BDC
:10078000A4100AD004F18043013B05EB8305013C32
:1007900055F804399847002CF9D1BDE8384007F0E6
:1007A0004DBA00BF547C0000507C0000704700BF71
:1007B000704700BF2DE9F8432C4D0646286898463F
:1007C0000F469146FFF7F2FF294B1C68D4F84831D9
:1007D000002B3ED05A681F2A1CDC02F1010E76B1B4
:1007E000012103EB8204C4F88890D3F8880191407A
:1007F0000843022EC3F88801C4F8088123D00232CE
:10080000C3F804E0286843F82270FFF7D1FF002006
:10081000BDE8F883174B0BB34FF4C870AFF30080FB
:100820000346D8B10020D4F848114FF0010E5860AB
:1008300019600246C4F84831C3F88801C3F88C0136
:10084000002EDCD0CCE7D3F88C010143C3F88C1127
:10085000D5E704F5A673C4F84831BBE72868FFF76D
:10086000A7FF4FF0FF30BDE8F88300BF3004002041
:10087000487A00000000000020F0030110F003009F
:10088000C0F1000051F8043B00F1040C4FEACC0C1D
:100890006FF000021CBF22FA0CF213434FF0010C60
:1008A0004CEA0C2C4CEA0C4CA3EB0C0222EA03029F
:1008B00012EACC1204BF51F8043B0430F4D0C2F168
:1008C000000102EA0102B2FA82F2C2F11F0200EB59
:1008D000D20070470023F0B50D4DC2F38F0400F134
:1008E0000806A34208D322F00303094D0B44083045
:1008F0005C1AA24206D8F0BD51F82370013345F8C6
:100900002670EEE713F8014B05F82040F0E700BF32
:1009100000300440684620F007018D462DE9F14380
:10092000A14B82B09A7AD2B28DF802205A8892B244
:10093000ADF804209A8892B2ADF806209DF8022006
:10094000940616D593F86020D2098DF803209DF8FF
:10095000032072B993F86020D00742BF93F860205B
:1009600002F0FE0283F8602000F0CCFB8F4B5B6945
:1009700098478D4B93F86020510719D593F8603054
:10098000DB098DF803309DF802309DF803303BB948
:100990009DF802309DF802301A0601D500F0B2FB36
:1009A0009DF80230DB0601D500F0BEFB9DF8023059
:1009B000BDF80430DF071DD500227B4B9A7393F8F6
:1009C0006020560716D5B3F8020110F0040040F07D
:1009D0009A80B3F80221D50600F19F80724AB2F8DE
:1009E00002311C0600F1A580002808BF0A206F4BC9
:1009F0009B689847BDF8043023F001031B041B0CCF
:100A0000ABB9BDF8063023F001031B041B0C4BB13E
:100A10000124A046BDF80650634EDFF89091ADB2B8
:100A2000002D42D102B0BDE8F14385467047012454
:100A3000A046BDF804305C4E23F001031B041B0CE0
:100A4000ADF80430BDF80450DFF86091ADB2002D70
:100A5000D7D06D08E80725D5F38808FA04F79BB2CC
:100A6000BFB223EA0703F38096F86030590715D523
:100A7000230103F1804303F58623B3F8021111F03B
:100A8000040162D1B3F80221920668D4B3F80231AE
:100A900018066ED42046D9F800309847F3889BB2E8
:100AA0001F43F7800134E4B2D1E76D08EA0727D588
:100AB000338908FA04F79BB2BFB223EA07033381F4
:100AC00096F860305B0717D5230103F1804303F5E7
:100AD0008623B3F80621B3F8061111F040014BD17B
:100AE000B3F80621100751D4B3F80621520750D4A9
:100AF0002046D9F80430984733899BB21F43378189
:100B00000134E4B28CE7B3F802210D2022F0040294
:100B10001204120CA3F802215BE7B3F8022140F0A3
:100B20000C0022F010021204120CC0B2A3F8022131
:100B300054E7B2F8023140F00B0023F080031B04AD
:100B40001B0CC0B2A2F8023151E7B3F802210C210C
:100B500022F004021204120CA3F8022192E7B3F867
:100B600002210D2122F020021204120CA3F802210E
:100B70008CE741F00B018DE7B3F806210D2122F03F
:100B800040021204120CA3F80621A9E741F00B0160
:100B9000AAE7B3F8062141F00C0122F00402120486
:100BA000120CA3F80621A3E700300440340400200F
:100BB000684620F007018D462DE9F1430026B04636
:100BC0002D4DDFF8B890D5F8004282B0E4B224B9D8
:100BD00002B0BDE8F14385467047E3073FD5F2B266
:100BE000120102F1804303F58623D3F8041221F0A9
:100BF0000101C3F80412D3F8041201F0F0018DF8DA
:100C000007109DF80700D3F80412D3F80472C0B29D
:100C1000FF0508D5D3F804224FF0400822F4807273
:100C2000C3F804221BE02A4411F002014FEA10101D
:100C3000D2F8083208D0020102F1804202F5862281
:100C4000B2F80271FF040DD495F86020520706D562
:100C50000031424618BF0121D9F82470B847640812
:100C60000136B4E7B2F8027127F480573F043F0C15
:100C7000A2F80271E8E700BF00300440340400200D
:100C800070B515460E46069A002842D0002940D07D
:100C9000012D4FEA00142FD1B10700D500BE1B0172
:100CA0009DF8101003F1804505F5862504F180407C
:100CB0000229C5F8086200F5862014D1B0F8022197
:100CC00092B242F48052A0F80221059A03F18043C7
:100CD000C5F80C2203F58623D3F8042242F0010262
:100CE000C3F8042270BDB0F8021121F48051090448
:100CF000090CA0F80211E9E7FFF7ECFD04F18040D0
:100D000000F58620B0F802319BB243F00103A0F851
:100D1000023170BD0023F0B50D4DC2F38F0400F118
:100D20000806A34208D322F00303094D0B44083000
:100D30005C1AA24206D8F0BD55F8267041F823701F
:100D40000133EEE715F8204003F8014BF0E700BF50
:100D500000300440014B1870704700BFD8040020D9
:100D6000704700000122024B5870024B1A70704706
:100D7000CC040020D90400200122014B1A707047D6
:100D8000DA040020704770472DE9FF414423434DAA
:100D9000044603FB0053DA7A0F2A72D0586A1E6A9F
:100DA00093F840E0064498621E6200296ED193F8E1
:100DB0000680B8F1010F20D10E22DA72DA79986933
:100DC000120102F1804202F58622D2F80822121A9C
:100DD0001A62DB699A4200D000BE0C2303FB0EF3BB
:100DE0002F4FFA18926816692EB1442000FB045464
:100DF000226A002A4CD100BE43E01F7B022F0BD198
:100E0000DA69964208D33FD11A69012AE5D1002850
:100E1000E3D01B899842E0D34423002003FB045114
:100E20008862C9698E4200D900BE634305EB030E98
:100E3000BEF808C0881B844594BFCEF824C0CEF805
:100E40002400E85CDFF85CE003019E44BEF8023059
:100E500013F00203FAD14FF0440E0EFB04546588E0
:100E6000AC45C8D8D4F824E0AE45C4D8E372E379E1
:100E7000A46942460191CDF808E00097A119FFF757
:100E8000FFFE04B0BDE8F08100BEC5E7D972A4E75B
:100E9000F85C334604B0BDE8F0411847486C0020C8
:100EA000CC04002000310440704700002DE9F047D9
:100EB0004424474B11F00F0F04FB003407468A46C9
:100EC00094F8409098463CD1020102F1804505F526
:100ED0008625B5F80631D90777D53E4B1A44B2F8C6
:100EE0000861A279B6B2012A3CD1B5F806211205F3
:100EF0006BD5E279120102F1804101F58621D1F82A
:100F000004E213442EF0010EC1F804E2B5F8061114
:100F1000C1F30E01A5F80611D3F80832A1695B1AD6
:100F2000236276B132461944FFF7F4FE236A1E4469
:100F3000B5F80631266223F001031B041B0CA5F84B
:100F40000631442303FB07870C2303FB09F92248DE
:100F500087F80BA000EB09039B685B6973BB00BEBD
:100F6000BDE8F0878EB1236AA16932461944FFF7C4
:100F7000D1FE236AA6621E44B5F80631266223F02C
:100F800001031B041B0CA5F80631442303FB078354
:100F9000196ADA699142D4D0E1D20020521A198933
:100FA0009862914294BF59625A62B5F806319BB279
:100FB00043F02003A5F80631BDE8F0873A6A5146B0
:100FC00010F80900BDE8F0471847BDE8F08700BFFA
:100FD0009C6D002000300440CC040020402A70B4F6
:100FE0000C46114602D100BE70BC7047012C35D1B1
:100FF0004424404E04FB0064256915BBE56905B334
:101000002489B5FBF4F204FB1252D2B93A4A040126
:1010100022445488E407FCD4442404FB0060826921
:1010200090F840509A1A0E230262C3720C20684353
:10103000324C23189B681B69002BD5D0205C70BCF8
:101040001847000100F1804000F58620B0F8023119
:101050009BB243F00103A0F80231C5E7002CC3D1D5
:101060004425274A05FB00252A69002ABCD1EC69E2
:10107000002CB9D02E89B4FBF6F206FB1242002AEE
:10108000B2D1EC790001240104F1804404F58624F6
:10109000D4F8042200F1804022F00102C4F80422B6
:1010A00000F58620B0F8064195F8406024F0200451
:1010B0002404240CA0F80641B0F80621C2F30E0265
:1010C000A0F80621AA699A1A0E23EB72B0F806312D
:1010D0002A621B0507D4B0F8064124F00104240459
:1010E000240CA0F806410C207043044C23189B6884
:1010F0005B69A1E7486C002000310440CC0400206B
:101100009C6D0020064B93F8603003F01803083BF9
:10111000DBB2102B9ABF034AD05C0020704700BF9F
:10112000003004404C7A0000104B93F86020910688
:1011300012D502205A78920712D40D4B1A690B4B24
:1011400093F8603003F01803083BDBB2102B96BF16
:1011500008490021C95C104793F860200120E9E7A5
:101160005A7802F0FD025A70E7E700BF00300440F1
:10117000340400204C7A00000123420900F01F00D3
:1011800003FA00F0014B43F82200704700E100E051
:101190000122430900F01F0002FA00F0024A603306
:1011A00042F82300704700BF00E100E0054B8900D2
:1011B00003EA401300F070401843012301F100716D
:1011C00043507047E0FFFF01054B890003EA4013DD
:1011D00000F070401843002301F100714350704744
:1011E000E0FFFF01054B890003EA401300F0704067
:1011F000184301F100714058C0B27047E0FFFF0191
:101200001B4BF0B4984203D01A4A904200D000BE63
:10121000066906B900BE426902B900BE984202D012
:10122000144B984222D10EB302B30468417B237D54
:10123000DBB219439B06417309D483699A4215D1E5
:10124000002301214361201DF0BCFFF7BDBF83696E
:101250000025D31A102B28BF10239D42EDD08169A1
:101260000135775C013127708161F6E7F0BC70478A
:10127000306F0020F06E00202DE9F0416A4F0446E7
:10128000B8420D461646694B14D0694A904200D0C8
:1012900000BE684A4FF4006122600B2222719A6CF2
:1012A00042F480729A64644AC2F880119A6C22F403
:1012B000807210E04FF0804202600A224FF4806199
:1012C00002719A6C42F080029A645B4AC2F8801103
:1012D0009A6C22F080029A64002220680121027137
:1012E00000F8082FFFF762FF206802210830FFF79F
:1012F0005DFF206811460830FFF758FF2068042181
:101300001030FFF761FF206805211030FFF75CFF08
:10131000206801213430FFF757FF20681146343030
:10132000FFF752FF206801213830FFF74DFF20689A
:1013300005213030FFF748FF206806213030FFF7E5
:1013400043FF206807213030FFF73EFF206803216C
:101350003830FFF739FF2368BC4283F8442083F814
:10136000482083F84C2017D0314B9C4214D000BE4B
:1013700023681E73002326736373A5606361236172
:10138000A36123626362E361A362E3622363636335
:10139000A363E363BDE8F081A560FFF7C7F8BC4233
:1013A0000CBF264B264B1A68D200B2FBF5F2D309CC
:1013B000B3F5803FDBD2012B2068DFB222D99B013D
:1013C000C3EB520302F07F0807210C30A8EB03089F
:1013D000FFF7ECFE2068C2F3C7320271072100F864
:1013E0000C7BFFF7F1FE206807213030FFF7DEFEAF
:1013F000B8F1FF0F00D900BE22685FFA88F382F8C7
:101400003C30B5E707210C30FFF7D0FE0023206801
:101410000721037100F80C7BFFF7D6FE2068072137
:101420003030FFF7D1FEA3E7306F0020008003408B
:10143000F06E00200000014000E100E06C0400209C
:101440007004002010B504460068037A03F00F030F
:101450000C2B0BD8DFE803F0070A0C120E0A100A57
:101460000A0A0A0A0E00A36A002B3FD100BE10BD73
:10147000636AF9E7236AF7E7E369F5E700212830B3
:10148000FFF7B0FE10B1E36A23BB00BE2068012164
:101490002830FFF7A7FE10B1236BF3B900BE206818
:1014A00002212830FFF79EFE10B1636BC3B900BE66
:1014B000206803212830FFF795FE10B1A36B93B984
:1014C00000BE206804212830FFF78CFE0028CED013
:1014D000E36BC9E720469847D8E720469847DEE700
:1014E00020469847E4E720469847EAE72046BDE8CB
:1014F000104018470E4B10B59842044603D00D4BD0
:10150000984200D000BE2046FFF7B6FE20680321B7
:101510003030FFF759FE206802213430FFF754FEC7
:10152000206800213830FFF74FFE034B636210BD87
:10153000306F0020F06E002001120000154B10B536
:101540009842044603D01448844200D000BE19B922
:1015500000BEEAB900BE10BD002AFBD09C4202D0FA
:101560000D4B9C4214D1002321616261A36194F967
:101570000400FFF70DFE2068084B04306362012170
:10158000FFF714FE94F90400BDE81040FFF7F4BD26
:1015900010BD00BF306F0020F06E0020011200006F
:1015A0000A4B984205D00A4B984202D000BE002058
:1015B00070470368427B1B7DDBB21A43427342696A
:1015C000002AF4D1C3F38010704700BF306F0020B1
:1015D000F06E0020684620F007018D4601B50348F3
:1015E000FFF730FFBDE8014085467047306F0020AF
:1015F000684620F007018D4601B50348FFF722FF3A
:10160000BDE8014085467047F06E002010B5064CDD
:101610000146236833B1054A106898470023044AFD
:101620002360137010BD00BFE4040020F404002008
:10163000010500200C4B13B51A6822F004021A6051
:101640005A6802F0010201920022019C0CB18A4208
:1016500002D1104602B010BD845C01321C615C688E
:1016600004F001040194F0E700600140024B1B68A4
:1016700003B11847704700BFDC04002008B5084BD1
:101680001B7863B1074B188880B2FFF7BFFF064B8A
:101690001A6842F001021A601A68D207FCD408BD29
:1016A00001050020FC04002000600140F8B5684BF3
:1016B0005D689A68EDB21540AA0748D5654C18696F
:1016C0002378052B65D8DFE803F040404003193943
:1016D00007043CD5604BC0B21B78984211D100235F
:1016E0005E4A5F491380138809689BB2C854138807
:1016F00001339BB213800423237028E0060403D532
:10170000C0B2FFF7B3FF22E0544B56491A8809884C
:1017100092B28A4208D2524E1A88366892B2B054B7
:101720001A88013292B21A801A8892B291420ED16E
:10173000188880B2FFF76AFF0023DDE7010406D4B2
:10174000474B1B6858700220F4E70204D8D4EB071B
:1017500028D5404C23782646022B24D0052B40D098
:10176000012B6AD1404D2B889BB2002B34D03F4EC9
:101770002988376889B23846FFF75CFF2B889BB20F
:10178000984208D22B881B1A9BB238442B803060B9
:10179000F8BD0020CEE700232B80354B1B68CBB172
:1017A00002232370F8BD324D2B68ABB1314E29684E
:1017B0003068FFF73FFF2B68984206D22B681B1A50
:1017C0002B60336803443360F8BD214A936823F0EB
:1017D000010393600323E4E700BEBDE8F840FFF790
:1017E0004DBF234D2B6873B9234B1B68ABB1214808
:1017F000984728602B6833B9154A936823F0010392
:101800009360032323702B685BB9114A936823F01C
:101810000103936003233370F8BD00BEFFF72EFF72
:10182000F1E7144C29682068FFF704FF2A68236851
:10183000121A03442A602360F8BD054A0020936809
:1018400023F001039360FFF7E1FE0023A9E700BF47
:101850000060014000050020E0040020FC0400209E
:10186000F4040020FE040020E2040020EC04002028
:10187000E8040020F0040020F804002003682DE9AB
:10188000F0431A68D3F818C0D3F804E09F6A1E6BBF
:101890005D6BDC69244B9842244B2DD14FF002083C
:1018A0004FF0040980F80480D3F84880204948F4B8
:1018B00000780160C3F84880DFF87C80C8F8809128
:1018C000D3F8488028F40078C3F848800B6822F0E9
:1018D000010223F000430B6003681A60C3F818C0CC
:1018E000C3F804E01A6842F001021A609F621E63A6
:1018F0005D63DC61BDE8F0834FF003084FF0080939
:1019000080F80480D3F848800A4948F48068016070
:10191000C3F84880DFF82080C8F88091D3F8488069
:1019200028F48068D0E700BFF46F002000800340F7
:10193000001000400010014000E100E030B50268F6
:101940009368C46813F4807F036904D0A3420FD264
:10195000416AA9B930BDA342F8D28168C95C01339C
:1019600051610361ECE745696D5C01315561C1610D
:101970009168C905ECD4C1698569A942F3D3E7E749
:10198000A3420AD3C1698369994206D3212193688E
:1019900013F4807301D1013900D130BD5361F6E7F2
:1019A00090F8803013B5022B04460DD123689A6855
:1019B000500601D502B010BD1A690092626F002A6C
:1019C000F5D000989047F1E7012B12D003689A6890
:1019D0005206EFD41A690092F9E71B69E26A019393
:1019E000236B93423EBF0199A26AD154236B01330A
:1019F000236323689A685106EFD5DBE75E4B73B526
:101A000098420446056803D05C4B984200D000BE63
:101A10002B6A98070BD594F88030022B40F0858014
:101A200023689A68510677D502222368DA602B6A08
:101A3000DE070AD594F88030022B40F090802368AE
:101A4000A26F5A6101222368DA602B6AD80613D587
:101A50002046FFF7A5FF236A2BB1A06A216B9847A8
:101A60002046FFF76BFF0123636223689A6A22F026
:101A700010029A621022DA602B6A59070AD522688E
:101A80002046D36A43F00403D362FFF7F7FE042233
:101A90002368DA602B6A1A0715D52268D36A43F0E7
:101AA0000803D36294F88030022B5CD1136823F4CE
:101AB0007F0323F47F4343F480731360A36F536168
:101AC00008222368DA602B6A9B0623D52046FFF79D
:101AD00067FF226A266B236852B10022626262614C
:101AE000A261E2611022DA609A6A42F010029A6200
:101AF0000025DA6A256142F00C02DA622046FFF71F
:101B00001DFFE36F256313B13146A06A9847202279
:101B10002368DA6002B070BD1A690192626F002A10
:101B20003FF47FAF019890477AE7012B13D12368E8
:101B30009A6852063FF578AF1B69E26A0193236BFE
:101B400093423EBF0199A26AD154236B01332363B0
:101B5000EDE72B690193AB685B06FAD564E7204695
:101B6000FFF7ECFE6EE7012BAAD10023204623618C
:101B7000FFF7E4FEA4E700BFF46F0020706F0020C1
:101B8000684620F007018D4601B50348FFF736FF90
:101B9000BDE8014085467047F46F0020684620F09C
:101BA00007018D4601B50348FFF728FFBDE8014056
:101BB00085467047706F002090F8683013B101229D
:101BC00083699A6070470000AC4B37B59842044671
:101BD00003D0AB4B984200D000BE626913798DF8F8
:101BE00007309DF80730DBB2682B67D05AD8302B0E
:101BF00000F024812FD8182B1FD019D8082B00F003
:101C0000C580102B00F0C2800023A26953612372AB
:101C1000E36494F83C30012B04BF022384F83C3089
:101C200094F85C30012B12D1022384F85C300EE072
:101C3000202B00F00381282BE6D1A36A616A8B4236
:101C400080F0C380216A581CA062CB5C1372002212
:101C5000A369DA60D4E0482B00F0F0800CD8382B70
:101C6000A26900F0AF80402BCED1636B012B40F214
:101C7000DB8001239360EAE7582B00F0EB80602BB8
:101C80001FD0502BC0D1A36B216B581CA063127ABC
:101C9000CA54636BA26B013B9A42D8D30022A3695A
:101CA0009A60D4E7A02B00F00F812DD8802B00F094
:101CB000F98015D8702B04D0782BA5D1012384F896
:101CC0007130042323720023A169A3654869E3608E
:101CD000012210B14B6184F8712084F85C20B6E7D2
:101CE000902B00F0DF80982B01D0882B8CD1012223
:101CF0000021A3699A60217284F85C1094F8711035
:101D00000029A4D05A61A2E7B82B05D029D8A82B66
:101D100002D0B02B7FF478AF9DF80730A82B0CD100
:101D20000523237201230020A16984F85C304D69EA
:101D3000E06015B1486184F87130E36CA16C8B42AE
:101D40002FBFFF235D1C606CE56438BFC35C13725A
:101D5000E36C99423FF67BAF0023A2699360E36492
:101D600075E7C82B05D0D82B00F0DB80C02B7FF4A3
:101D70004BAF00210122A369E1649A6084F85C10F2
:101D800094F87110002900F0C480C1E00021A0691E
:101D9000237941611372E36AC0F8003173B9A36219
:101DA00094F8713013B1002384F8713094F87230D4
:101DB000227A9A423FF44BAF237248E7012B08BFC7
:101DC000A163EDE70123536141E7237A032B03D19C
:101DD0000123A269E362F6E70023227C237202F06A
:101DE000010284F870208AB90121A3692046196193
:101DF000FFF7E2FE002284F83C2000297FF427AFA1
:101E000063691B798DF8073003B030BD012094F968
:101E10001120510902F01F0200FA02F21948203184
:101E200040F821201946E5E701D1002322E70123EC
:101E300093601361002384F83C30BDE70122A3695D
:101E40001A61022384F83C30002323722046FFF7F6
:101E5000B3FEFCE6117AA36B226BD154237C03F012
:101E6000010384F870307BB90121A3692046196110
:101E7000FFF7A2FE00222272BDE700BF78700020AB
:101E8000EC70002000E100E0012194F911305A09C2
:101E900003F01F0301FA03F32749203241F82230EF
:101EA0000021E7E7206D60B1A16D636D994208D212
:101EB000137A4A1CDBB2A2654354E26803EB0223A7
:101EC000E360A26D636DE7E6237A042B23D1236ED2
:101ED000A26D9A4204BFE368E364636E3BB192B2C1
:101EE000216D2046984730B92046FFF765FE012254
:101EF000A3699A6004E00023A269936084F86830C3
:101F0000002384F85C3094F8713013B10122A36986
:101F10005A61002350E700232046E364FFF74CFE9C
:101F2000EEE700232372E36494F85C30012B04BFD6
:101F3000022384F85C3089E700E100E0684620F085
:101F400007018D4601B50348FFF73EFEBDE801409D
:101F50008546704778700020684620F007018D465E
:101F600001B50348FFF730FEBDE8014085467047E4
:101F7000EC70002070B501241D4EB2F5803FC6F80C
:101F8000CC411C4CE56825F4E005E560C6F8C43199
:101F90004FF000066060A160E5684FEA15454FEA22
:101FA0000545E560144D2E7017D8E36892B21A43C8
:101FB000E2602E614FF00062E36843F4E003E36007
:101FC0000E4B1A604FF080521A600122084BC3F882
:101FD000C0210022C3F8CC2170BDA2F5803201F5EA
:101FE000803100F580302A61E960A8602B75E1E757
:101FF00000002842004001400405002000E100E00C
:10200000684620F007018D4619B501200A4B0B4C9C
:10201000C3F8800A226942B1237DE168A068FFF716
:10202000A9FFBDE819408546704763682070002B02
:10203000F7D09847F5E700BF0000284204050020CC
:10204000684620F007018D46174B31B51B68DA054D
:1020500016D5164C62686AB1154DD5F8081211B143
:10206000022020709047D5F80C321BB10320636822
:102070002070984701220E4BC3F8C821C3F8802A6C
:10208000094B1B68DB040BD50420084B18705B68F8
:1020900003B198470122064BC3F8C821C3F8902A20
:1020A000BDE83140854670470040014004050020EE
:1020B00000002842144B10B59A6C012042F48012A3
:1020C0009A649A6C114C42F0F0729A640022135791
:1020D000013203F01F015B099B0003F1604300FA2A
:1020E00001F103F56143202AC3F88010C3F8801181
:1020F000EDD1054B9A6C22F0F0729A649A6C22F43E
:1021000080129A6410BD00BF00800340E07A000096
:102110001F2801D900BE7047024B53F820301960C8
:10212000704700BF607A00007047000007B50346A3
:10213000ADF8061030B905480A220DF10601006815
:1021400004F0A8F803B05DF804FB00BF1C050020F4
:10215000002337B50546ADF8063000F0AFFF044662
:10216000104800F05BF9284600F058F90E4800F0DE
:1021700055F920466422082100F0D6FA84B214B939
:10218000002003B030BD094BC8220DF106011868CC
:1021900004F0AAF90128F3D1BDF80600031B584248
:1021A0005841EEE7417B00009F7B00001C050020AA
:1021B00010B5044678B90B4800F030F922460221E8
:1021C000052004F025F8084B186048B1BDE8104020
:1021D0000648FFF7BDBF0648BDE8104000F01EB935
:1021E00010BD00BF237B00001C0500202C7B0000DD
:1021F000367B00000120704737B50A4C0A4D214656
:1022000004220A4800F0ACF829460622084800F0EB
:10221000A7F80095074B084A0849204600F0B2F994
:1022200003B030BD1B7B000078040020007B000061
:10223000097B0000137B0000177B00001F7B000060
:1022400007B504F0B9FC4FF0FF35094C019001A827
:10225000C4F888504FF47A7104F0BEFD00234FF4A7
:102260007A71C4F8883001A804F0B6FDEFE700BF2A
:102270000030014007B5FFF71DFF05210020FFF7E3
:1022800047FF05210120FFF743FF05210220FFF74B
:102290003FFF05210320FFF73BFF00230C4A0D49B8
:1022A000C2F888300122019300920B48502204F0BA
:1022B00051FB012808D04FF0A00383F31188BFF32E
:1022C0006F8FBFF34F8FFEE703B05DF804FB00BFD5
:1022D00000300140477B00004122000070477047FA
:1022E00008B5FFF7C7FF00F0AFF8FFF785FF034819
:1022F00000F094F8BDE8084004F014BC527B0000E4
:10230000094B0A4918680A680860094882EAC2222B
:102310000168196007490B68036083EAD3405040A5
:1023200080EA12200860704788040020840400209E
:102330008C0400208004002010B50446FEF79CFAAF
:10234000024648B121460548FFF7F8F8034C2046FD
:10235000FFF726F90028FAD010BD00BF306F00202B
:102360002DE9F0432C4D8FB00446884628680021A3
:10237000164604F05DF9002846D014B12046FFF758
:10238000DBFF374600244FF02009102E3FD93022C2
:102390008DF801203A22631CE4B2092C94BF30343A
:1023A000373464B28DF800408DF802201C468DF859
:1023B000039001AB02330DF1320E18F8012B013FEF
:1023C0001109092902F00F0294BF30313731092A6F
:1023D00094BF30323732BFB2981E03F8021C03F8A4
:1023E000012C0FB1734514D90A2383700023C370E5
:1023F0006846FFF7A1FF0FB10F2CC6D9002328684C
:102400001A46194603F046FF0FB0BDE8F0836B464D
:10241000D0E703F8039BD0E72005002070B5094CF6
:1024200005460021206804F003F950B12846FFF763
:1024300083FF002320681A46BDE87040194603F068
:1024400029BF70BD20050020F0B591B008AA16463E
:102450001D4B03F11805144618685968083303C466
:10246000AB422246F7D16A466D4618689B882060C9
:10247000A380164B03F118071446186859680833EF
:1024800003C4BB422246F7D118681B792060237130
:1024900003224FF4E1310E48FFF72CF8012003F03E
:1024A000AFFF0C4B032218604FF4E1310A48FFF7ED
:1024B00021F8012003F0A4FF3046FFF7AFFF2846C4
:1024C000FFF7ACFF11B0F0BD667B0000847B00001D
:1024D000306F002020050020F06E0020037870B5DA
:1024E000DA07044601D4002070BD13F0020F00F19A
:1024F00004050FD02669284604F0D8FDE66023784D
:1025000086B943F0020323702378012043F00103CE
:10251000237070BD00F10C01284604F0EFFD002887
:10252000E8D1E0E76FF34103EDE7000008B504F000
:1025300027FE034B1B681B1A5842584108BD00BFB9
:102540005405002038B505460846002102F0FCFA83
:10255000044650B16B69EA6943612B8CA969038415
:102560006B8C4384806905F013F9204638BD38B17F
:10257000A0F136039B0702D150F8360C70470020BB
:10258000704700002DE9F74F1D46414B83461B68FD
:102590008A469146DDF8308043B14FF0A00383F3C3
:1025A0001188BFF36F8FBFF34F8FFEE7394E33684B
:1025B00043B14FF0A00383F31188BFF36F8FBFF3D4
:1025C0004F8FFEE7344F3C6844B14FF0A00383F3D4
:1025D0001188BFF36F8FBFF34F8FFEE722460821AC
:1025E000142003F015FE306040B94FF0A00383F3D0
:1025F0001188BFF36F8FBFF34F8FFEE702F040FAF1
:1026000001283ED1DBF80060244C2660DAF800E0B7
:10261000C4F804E0D9F800C066EA0E09C4F808C09E
:102620002B681F4DE360C4F810900FCC0FC51D4BF5
:10263000C5F800905E61BCF1000F0DD086EA0C0673
:1026400016EA0E0F08D04FF0A00383F31188BFF3F2
:102650006F8FBFF34F8FFEE7D8F800001860B8F80F
:1026600004209A8000F0B0FB0323019700934FF4FD
:10267000026200230C490D4804F06CF903B0BDE878
:10268000F08F306804F0A7F834602046F6E700BF0A
:102690005805002074050020540500205C0500202A
:1026A0004005002090040020A17B0000D1290000FB
:1026B00070B50546114B0E46186895F9003000B903
:1026C000DBB9052B0E4C0AD10E4A2068137843F073
:1026D0000203137004F06CF808B1012070BDFFF71D
:1026E00025FF0023012818BF32462946206808BF6D
:1026F0001A46BDE8704003F0CDBD70BD58050020FE
:10270000740500208405002008B500210448FFF767
:10271000CFFF012814BF01220022024B1A6008BD1E
:10272000B07B00007005002003232DE9F7438DF8EE
:1027300000300023019340F2BE5390464A1E9A4255
:1027400081460F4603D9002003B0BDE8F08302F0B4
:1027500041FA0228F7D9414607F12A0002F0F4F9BC
:1027600004460028EFD0164E8069338801339BB2AF
:102770000BB333800823002580F8223033883A4693
:10278000C384038580F8235078212A30FDF796FF13
:102790000222A36908379A714146C4F8149025842F
:1027A000E76168460194FFF783FF012805D02046C2
:1027B00002F0A6F9C7E70123DBE73088C4E700BFD2
:1027C0002605002007B500218DF80000684601911C
:1027D000FFF76EFF03B05DF804FB0000012238B57F
:1027E0004FF47A75084C094B00201A60FFF7E0FCA3
:1027F000201D256104F05AFC2378E56003F0FD03F9
:1028000043F00103237038BD28050020780500201F
:10281000030A43EA0020F0B580B211F00107034635
:102820004FF0000501F0030405D022B111F8016B4F
:10283000013A66F30F25013C012C05D8012A82BF1D
:1028400031F8023B023A1B184FF0000C1846644660
:1028500022F0030EAEF10C0E8E448E450E462BD8A0
:10286000BCF1000F18BF034698B200EB134323449A
:102870001946002402F00E003044B04230D8002C3B
:1028800018BF0B46D20744BF327862F307052B44CA
:102890009AB202EB134398B200EB134327B118022C
:1028A00080B2C3F307230343104800EA0320C3F3B5
:1028B0000723184380B2F0BD0E684FF0010C801959
:1028C0004E6828BF013480198E6828BF01348019F2
:1028D000CE6828BF0134801928BF01341031BCE70D
:1028E00036F8024B21440124C7E700BF00FFFF0078
:1028F000F8B5837BC67D03F00F039B000D46112EB8
:10290000A3F1140101442BD101F12804002D32D090
:1029100000222280078A3A0A42EA072292B2D21A99
:10292000072A3CD9C3F5BB6304339A4237D8022E39
:1029300087BF931900F11A012231002084BF0832A9
:1029400098B2FFF765FFC04380B2E5B94FF6FF7359
:10295000002808BF184643BA98B215B32380F8BDC3
:10296000062E02D101F13204D0E7721E012A13D8DB
:1029700001F12404CAE72288002ACBD1112EC9D143
:102980004FF6FF70F8BD0028E5D1112E4FF0FF3053
:1029900018BF002080B2DEE744F22130F8BD41F2DA
:1029A0003420F8BD826930B41346044653F8060F4C
:1029B000064D1060988890802868C2F80600AA88A2
:1029C00020469A8030BC02F047B800BF9004002037
:1029D0002DE9F04F4FF47A75B24C89B0FFF794FEB1
:1029E000DFF8F082201D256104F060FB0122C24661
:1029F0002378E56003F0FD0343F001032370AA4B45
:102A00001A605046FFF76AFD10B10220FFF7DAFEA8
:102A1000A64B186803F0CCFE054604F0CDF8A44997
:102A20000B682BB1A34EC31A326802EB0323336049
:102A3000A14F08609B48FFF751FD3B6803B105B10A
:102A4000A0B1B5FA85F0400900F088FB05469B4827
:102A500004F02CFBE56023788DBB43F00203237068
:102A6000237843F00103237000233B6098F8003083
:102A7000D80727D542F20F73D8F80C209A4221D8F4
:102A8000D8F81030FF20E26808A99A4228BF1A46F9
:102A9000864B01F8100D186803F026FD9DF91030E3
:102AA0000A2B2DD8DFE813F0110037002B01490164
:102AB0002C00510156012C002E0145014D016FF3F0
:102AC0004103CCE742F21073DCE700227C4B7D4DE2
:102AD0001A6028689AF80030012862F300038AF827
:102AE000003001D1FFF764FB01232B6001F040FFB0
:102AF00001280DD040F6B83004F0BAF9FFF704FE13
:102B0000714B1B68002B3FF47CAFFFF7FDFD78E7AE
:102B1000FFF764FEF4E7059D45B94FF0A00383F38A
:102B20001188BFF36F8FBFF34F8FFEE701238DF83E
:102B30000F309DF80F30012B0CD1AE69B389082BF3
:102B400014D0B3F5C16F40F08A80304602F062FCC9
:102B50008DF80F009DF80F30DBB2022B00F0CA8019
:102B6000032BCDD0284601F0CBFFC9E7B38A23F071
:102B7000F0039BB2002B72D1B07BA0F145020A2A70
:102B80005AD8DFF854B1D6F81E30DBF8142093423F
:102B90000AD0591C08D04D4909698B4204D04C49D0
:102BA0008B4201D0002A5AD1800000F03C0014284A
:102BB00096F8179010D9EA69A0F11403223A06F1A9
:102BC0000E01D21A014406F12200019304F056FED0
:102BD000EA69019BD31AEB61B9F1110F47D0D6F81E
:102BE0001A10B01D02F098FBB9F1010F04D0B9F131
:102BF000060F73D001231FE0D6F81E10DBF8143047
:102C0000AA699942F6D192F82230C3B1082B4FF04D
:102C1000000311D182F82230D2F81A30C2F81A100B
:102C20004FF6F671C2F81E30938C8B428CBF03F5C1
:102C300084730833938402238DF80F308AE7118A56
:102C40000B0A43EA01231C3B9BB2293302F1290101
:102C500013448B4205D10020D18CFFF767FA002383
:102C6000EAE711F8010F7828F3D00220F4E7AA6907
:102C70002846D18C0B0A43EA01239BB2083BEB6147
:102C800092F8231092F8223043EA01232B84D2F8E1
:102C90001A306B61918C01F0DFFD0128AAD103236A
:102CA000CAE700BF840500205805002074050020F5
:102CB00080050020A00500207C050020880500205C
:102CC000780500203C050020700500205C050020F0
:102CD000E00000FC2805002090040020284601F0B8
:102CE000C5F83A68012802F1010214BF0123032349
:102CF0003A60A1E701212846FFF754FE00E702F001
:102D000051FCFDE60023059D0793A98C28460A0A7D
:102D100042EA0122ADF81A20AB84082206A900F08D
:102D2000F7F82B6843F010032B60284600F0FBF9FE
:102D3000E6E6059800F066F9E2E6059801F016FD72
:102D4000DEE6059800F0FCFADAE6237843F00203A9
:102D50002370D5E6059D284601F030FC00283FF49D
:102D6000CFAE2B6843F00403DEE700BF014B1868C9
:102D7000704700BF580500200269836801689818F1
:102D8000401A824298BF801A704738B504460D46F3
:102D9000FFF7ECFF68B15CB1E06804F1080398420A
:102DA00001D1002038BD0268AA4202D04068F6E78F
:102DB000204638BD81680269036898180138401AB6
:102DC000824298BF801A704738B510484FF4785443
:102DD00003F011F9FFF794FAB0FBF4F303FB1400CE
:102DE0000B4D00F540402880FFF78AFA094B186028
:102DF000FFF786FAB0FBF4F303FB140000F5404044
:102E000068800548BDE8384003F0F5B874710020CB
:102E100098050020A005002060710020F8B5064646
:102E20000C461546FFF7A2FF10B94FF0FF30F8BD72
:102E3000022E08D04FF0A00383F31188BFF36F8FE9
:102E4000BFF34F8FFEE7304B9B68013308D04FF044
:102E5000A00383F31188BFF36F8FBFF34F8FFEE79B
:102E60002A4B9B68013308D04FF0A00383F31188ED
:102E7000BFF36F8FBFF34F8FFEE7112D10D1022CE0
:102E8000D3D14C26304602F0FBFD04460028CCD0BE
:102E900003F020F8074650B9204602F07FFEC4E751
:102EA000062DC2D1012CC0D14FF4A076EAE73246FC
:102EB00000212046FDF702FC112D676003D104F1CB
:102EC000380003F098F804F1080003F09FF841F28D
:102ED0008833E36123620223062D646184F826307F
:102EE00084F827500ED140F2B4534FF47A72A4F80C
:102EF0004A30A4F84C3023670123E266C4F8D4308A
:102F0000C4F8D8302046F8BD7471002060710020EC
:102F10002DE9F04F85B02D4A019390F827502C4BA6
:102F20000646062D0CBF90469846421C0C4608D11A
:102F30004FF0A00383F31188BFF36F8FBFF34F8F60
:102F4000FEE711B9ADF80A1002AC6388FBB9DFF8EF
:102F500084904FF4414ACB46AB1F5D425D4139F846
:102F600015204046013292B2B2F57F4F34BF29F8A6
:102F7000152029F815A03BF81520170A47EA022763
:102F8000BFB23946FFF701FF0028E8D16780019BF7
:102F900093B196F82730062B0ED162884046130A6B
:102FA00043EA0223B260B38406F1080103F031F86A
:102FB000002005B0BDE8F08F61884046FFF7E5FED0
:102FC0000028EAD06FF06F00F3E700BF60710020C7
:102FD0007471002098050020092307B5019001387D
:102FE00003308DF800300BD800216846FFF760FBF6
:102FF00000280CBF4FF0FF30012003B05DF804FB48
:103000000020FAE738B590F827300446062B1BD18C
:10301000406F08B102F0C2FDA06F08B102F0BEFD22
:103020001B4BA58CDA6808339A420DD0D16891F811
:103030005300012815D1888CA84212D1B1F84E0056
:1030400078B10138A1F84E00A369DBB994F82730B4
:10305000112B10D0606890B9204602F09FFD00202F
:1030600038BD5268E0E7636CDD68284602F0F4FF83
:10307000284601F045FDA36B002BF4D1EAE702F0EE
:103080009AFFE9E704F1080002F0E6FFDEE700BF7F
:103090006071002008B501460748FFF776FE50B181
:1030A000C06840B94FF0A00383F31188BFF36F8F5E
:1030B000BFF34F8FFEE708BD74710020F7B5002302
:1030C0000A270DF1040E0446002202E007FB02521B
:1030D000303A214614F9015BA5F13006F6B2092E0B
:1030E000F4D9FF2A09D8032B03F80E2016D02E2D71
:1030F00003D1814222460CD11146002291F90000F1
:1031000050B9042B01D102B1019803B0F0BD0246C1
:10311000F2E701332046D6E70020F6E78142F6D0F9
:1031200004230122EAE7826A10B504464AB1016825
:10313000C1F3032129B1036B0B430363106802F051
:10314000F9FE2168606801F07F01216010B109B1CA
:1031500002F0F0FE0023236010BD00002DE9F047CF
:10316000804603F029FD1D4B4FF47A761C684FF022
:103170000009041B08BF0124194F1860D7F80CA0E0
:103180000837BA4502D13046BDE8F087DAF80C506E
:10319000DAF804A0B5F84830002BF2D0A34212D9D7
:1031A0001B1BA5F848302B682BB1B8F1000F12D0CB
:1031B0002846FFF7B8FFB5F84830002BE1D09E4213
:1031C00028BF1E46DDE7A5F84890284600F002FD1E
:1031D0000028E8DAD5E74646EDE700BF9C05002069
:1031E00060710020F0B500260D4C89B2E5689BB2F5
:1031F0000834A54201D13046F0BDE868878C8F4283
:103200000BD190F85370012F06D0878F9F4204D1C5
:10321000876B974201D1F0BD06466D68E9E700BFB4
:10322000607100202DE9F843466F04460F46904632
:1032300099469EBB426EC36E5AB90522B3FBF2F2A9
:10324000B0F84A1042668A4203D2B3EB410F28BF5E
:103250004166A26E22B905219A00B2FBF1F2A26684
:10326000043323F0030505F1140002F009FC0646BF
:1032700070B994F84230082143F0080384F84230D2
:10328000204600F00CFB4FF0FF352846BDE8F883E0
:1032900014220021FDF712FA356166674B4642465B
:1032A0003946304600F0DAF80546002FEDD194F9A2
:1032B0004030002B1EDB626FD16813681269134423
:1032C000013B5B1A9A4298BF9B1A626E9A4211D3D5
:1032D00094F84030052043F0800384F8403094F89F
:1032E000413043F0010384F841300123A4F8483011
:1032F000FFF768FA236843F001022260E26AD2070E
:1033000042BF43F4807343F001032360BDE790F8AC
:1033100027200346062A05D1806F08B1FFF74ABD72
:10332000186F70476FF01500704790F82730062B24
:1033300003D1406F18B1FFF71FBD6FF01500704744
:103340002DE9F74F002506462F46DFF808B1DFF8D4
:1033500008818560DBF804A0DA4517D1C3469FB128
:103360000021306802F0C3FD00F00F0030EA0501D3
:1033700002D0306802F0BBFD306845F0100103B0A8
:10338000BDE8F04F02F0D6BD0127E3E7DAF80C9074
:10339000D9F828309E4259D199F82730D9F82C40D5
:1033A000062B48D199F8402014F0010402F00603DE
:1033B0000AD099F8531001292AD1D9F854401CB1E8
:1033C00094F84040C4F34004D9F82C20510706D5A6
:1033D00099F8531011F0F70F08BF44F00404900758
:1033E00031D523B94846FFF792FF00280DDC99F844
:1033F00041301A0727D599F85320042A23D9D90632
:1034000021D443F0100389F8413044F002041AE05B
:1034100002F00A020A2A0AD05BB948460193FFF774
:1034200084FF0028D4BF00240124019BCCE70124A1
:10343000CAE70024C8E714F0010404D0D9F83840E2
:10344000003418BF0124C9F830402543DAF804A03D
:1034500082E700BF7C710020687100202DE9F047F1
:1034600005468468174600682A690E4610440138EC
:10347000001B824298BF801A81422CBF0024441A4C
:103480009C4228BF1C46002C3CD0D5F8088059B17E
:103490008844904501D3A8EB02082FB305E090457E
:1034A00030D3C5F80C802DE0B7B1A2EB0809A145D7
:1034B00028BFA14605F1140A4A4639460AEB08001E
:1034C00004F066F9A14506D2A4EB090207EB090155
:1034D000504604F05DF93EB92B69A044984528BFD9
:1034E000A8EB0308C5F80880EA682B689A422CBF4D
:1034F0000020012098452CBF002101218842CED018
:103500009845CED32046BDE8F0872DE9F04D0E4614
:103510000769816804683944091B8F4298BFC91B39
:103520008E422CBF00248C1B9C4228BF1C46804628
:1035300092463CB305681EB13544BD4228BFED1B21
:10354000BAF1000F13D07F1BA74228BF274608F10E
:10355000140B3A460BEB0501504604F019F9A7424B
:1035600005D2E21B59460AEB070004F011F9089B4B
:1035700043B93EB9D8F8103025449D4228BFED1A12
:10358000C8F800502046BDE8F08D0000084A836B63
:1035900052691BBA5340074A5268134240F2B4536F
:1035A00018BF4FF4AF63A0F84A30A0F84C30704712
:1035B000900400205C05002013B540F2B451B0F82F
:1035C0004C30D0F8D820D0F8D4400193D0F808314E
:1035D0004A430093D0F8EC306143DC3001F034F81A
:1035E00002B010BD37B544F6206590F8533004465C
:1035F000022B019522D190F841301B071BD590F882
:103600005230022B97BF40F6B83242F6F82303F14E
:10361000FF3302FA03F301934FF47A72019B534391
:1036200093422CBFB3FBF2F30123A4F84830B4F863
:10363000480003B030BD4FF4FA73ECE7B0F84830FF
:10364000002BF4D1D0F8CC1001AADC3001F05BF8EB
:10365000019B002BE0D108B10123DCE70195DBE7FA
:103660002DE9F04105468AB017460E4649B9242295
:1036700001A8FDF723F805F184030793422301AE67
:103680000893B469002D00F0C1806A6F002A00F031
:10369000A480D168136812691344013B5B1A9A42F3
:1036A00000D89B1A5D492A6CD5F8D0001140D5F896
:1036B000E0E0002940F093808645724628BF02462C
:1036C000B5F84A10914202D9994298BF0A464FF67E
:1036D000FC73934228BF1346514901EA0321C3F307
:1036E00007230B43238695F84130D5F8EC106FF390
:1036F000000385F84130DBB20A4499076A6470D54B
:1037000003F0FD0343F0040385F84130D5F8083198
:10371000013B1BBAC4F82630D5F8EC301BBAC4F80C
:103720002A308023A3753B0A43EA07232382DFF86C
:10373000F88015B1D8F814300BB9D4F81E30002039
:10374000D4F81A203749C4F81A30638CC4F81E2004
:10375000A28CA3840B8862841A0A42EA03220133F2
:103760000B80628204F10E011422207560752076B0
:103770006076FFF74DF840BAC04301212083204610
:10378000FFF7B6F8638E2BB94FF0FF3384F8323071
:1037900084F8333025460E37F76155F8063F00218F
:1037A0002360AB88A380D8F80000C4F80600B8F8FE
:1037B00004303046AB8001F04FF9638CA28CA384B7
:1037C000D4F81E306284C4F81A302368C4F8063076
:1037D000A388AB800AB0BDE8F081EB6E62E70022FF
:1037E0006EE7D5F808110BBAC4F8263094F82F30DC
:1037F000DA0791D5A7F128020A44D5F800118A42C8
:103800001CBF23F0010384F82F3085E7D4F82A2069
:10381000D4F82630C4F8262081E700BF80000400D9
:1038200000FFFF002405002090040020142208B5AA
:103830008369014683F82F205022002083F82E2030
:103840002822FFF70DFF002008BD10B5826F044647
:103850001369916850681944091A8B4298BFC91AB4
:1038600000291BDD526804F1DC0000F004FF002891
:1038700014DDA36F9A6819695C680A44121B9142AF
:103880005C6898BF521A904294BF2218A2185A60DE
:103890005A688A4222BF5A68511A596010BD70B5E1
:1038A00090F853200446042A0E462FD9B2F1080599
:1038B00018BF0125042E01D9082E66D1002D59D13B
:1038C00056B994F8403013F0060F04D01B0702D409
:1038D0002046FFF781FB002584F8536003F06CF964
:1038E00094F84130206603F0FB036FF3410384F842
:1038F0004130002384F8583003F05EF9E065002D74
:1039000057D02846BDE87040FFF70DBC0025D1E731
:1039100025466B6D03B96C652B6843F00401296083
:10392000E96AC90744BF43F482732B6000236365CF
:1039300094F8403003F0FB0343F0020384F8403076
:103940000B2AC9D8012303FA02F240F681331A4246
:10395000C2D00023A4F84830BEE7236843F0080132
:103960002160E16A880701D40025E9E743F4027386
:103970002360E5E7236843F020012160E16A4907FD
:1039800044BF43F484632360EEE7002DA3D194F891
:1039900040305907E1D51807BAD4656D002DB8D16C
:1039A0004FF0A00383F31188BFF36F8FBFF34F8FE6
:1039B000FEE770BD2DE9F04F0B6885B004468B46DD
:1039C000904633B39D69002695F82F3004F1DC0949
:1039D00043F0100385F82F30A36F0396002B00F0FF
:1039E000B780B4F84A30012B6CD903AAD4F8CC10B4
:1039F000484600F059FE061E40F3A180744BDBF8E8
:103A000000701B6843B1002F40F0938040F2F250E9
:103A10000DE000F18405D6E708F136003044422875
:103A2000B8BF42201FB1FB69834280F08280002131
:103A300001F08AF88246002872D08069002F72D087
:103A4000FA69B96903F0A4FE384601F059F8CBF8D9
:103A500000A0A06F0399036902681944891A8B4278
:103A600000D8C91A0123DAF8185008F13602009379
:103A70002A443346FFF749FDB4F8403023F47E531F
:103A800023F03F035B045B0C402B1BD1A26F039917
:103A90009368126913445B1A9A4298BF9B1A984222
:103AA00010D195F82F3043F0010385F82F30D4F86A
:103AB00008313344C4F8003194F8413043F04003F6
:103AC00084F8413094F85330052B6AD194F8403093
:103AD00099061DD5484600F011FEC8B194F8403053
:103AE00006216FF3451384F8403095F82F302046B7
:103AF00043F0010385F82F3094F8413043F041033F
:103B000084F84130D4F8FC30C4F80031FFF7C7FE28
:103B100094F85830032B1DD908212046FFF7BFFE2B
:103B20004FF0FF360CE0422204F1840103F030FE36
:103B30008DE708F136033344FB61BA4687E7C1D00D
:103B400094F841309B072ED1304605B0BDE8F08F88
:103B50001E46B7E73EBB94F84130DA07F0D403F0D5
:103B60002BF8E36D44F62062C01A40F6B83394F89F
:103B70005810002908BF13468342E1D203F01CF815
:103B800094F84130E06543F0020384F8413040F698
:103B9000C413A4F8483094F85830013384F85830EE
:103BA000CEE7002ECCD095F82F3008F11402920009
:103BB00003F0F70385F82E203EB943F0100308F117
:103BC000280885F82F304644BEE743F01803F6E78F
:103BD000E07B00007FB590F853300446042B03D9F6
:103BE000836F0BB1FFF731FE94F85360042E0AD8AF
:103BF000022E16D194F85230022B3CD908212046CF
:103C0000FFF74DFE0DE00023082504AE46F8083D01
:103C1000002231462046FFF7CDFE021E21DC02982D
:103C200030BB2046FFF7DEFC94F85320082A05D865
:103C30000123934040F2231213423BD102F0BCFF18
:103C4000236EC01A47F23053984207D90821204604
:103C5000FFF725FE94F840305A0723D4012004B022
:103C600070BD02992046FFF7FBFC013DD0D1D6E79D
:103C700000F046FFD5E794F8415015F008056FD1E4
:103C8000A36B02A91BBA01A8019301F011FC012842
:103C900012D094F852300198013384F8523001F078
:103CA0006FFCBEE71B0702D42046FFF7ABF94FF0CD
:103CB000FF30D4E70020D2E794F84130422243F0AD
:103CC000080384F84130294684F8525004F18400F6
:103CD000FCF7F4FCBDF80C30A28FA4F88E3008235A
:103CE00084F89030452384F89230342384F895305A
:103CF000802384F89A30062384F89B30264B029860
:103D00005B69C4F88A00C4F8A230A36B20461BBAD2
:103D1000C4F89E30130A43EA0223A28CA4F8A6300A
:103D2000130A43EA02231D4AA4F8A830136884F852
:103D30009150C4F8083103F581731360502384F85F
:103D4000945084F8B230C4F8EC5084F8B360FFF7B4
:103D50001DFCB4F84C302046C4F8D030FFF72CFCE2
:103D6000022284F8BA200422B4F84C3084F8BB2034
:103D700084F8BD301A0A602384F8B23094F85230C7
:103D800084F8BC20013384F852302C2200212046D4
:103D9000FFF766FC45E700BF90040020A005002067
:103DA00038B5044691F82F20D1F82A30D00748BF03
:103DB000D4F8F0200D4644BF0132C4F8EC2094F84A
:103DC0004120510618D4D4F8FC3042F04002C4F827
:103DD000003184F8412094F84220D4F8003112F0E8
:103DE000010F20D1C4F8FC3011230A2185F82F30AF
:103DF0002046FFF754FD20E01A0E190242EA036242
:103E000001F47F011B0A0A4303F47F431343D4F8F0
:103E100000210132934202BF94F8423043F0010383
:103E200084F84230D7E70133C4F8FC3094F94130CC
:103E3000002B12DB002385F82F30D4F8FC30C4F8B7
:103E4000083195F82F0094F8183108B103F12800D3
:103E500014339B0085F82E3038BD930754BF1023D0
:103E60000023082185F82F30C2E700002DE9F04F2C
:103E7000876987B003907B8CD7F81A401A0A42EA08
:103E80000323220E42EA0465B98C2202D7F81E00F1
:103E900002F47F022A430D0A45EA01214FEA002E6F
:103EA000050E45EA00650EF47F0E240A000A45EA75
:103EB0000E0504F47F4400F47F4028439BB2224364
:103EC00089B297F82F60FFF78DF9054658B190F841
:103ED00053100B2900F24783012340F681328B40B7
:103EE000134200F0408306F01F03102B40F046837E
:103EF00000244AE395F84030DDF80C8013F0080602
:103F0000D8F8189070D02C4643F0040385F8403060
:103F10006D65B9F82220CA4D130A43EA0223A3872C
:103F2000D9F81A3020461A0E190242EA036201F447
:103F30007F011B0A0A4303F47F431343A3632B68E7
:103F4000C4F80831D9F826301A0E190201F47F019D
:103F500042EA03621B0A0A4303F47F431343C4F893
:103F6000EC30FFF713FB2046FFF726FB2B680321FD
:103F700003F5817320462B60FFF791FC4222D8F8AD
:103F8000181004F1840003F003FC02F015FE94F80D
:103F90004130206603F0FB036FF3410384F84130A6
:103FA000002384F8583002F007FEE06597F82E30C1
:103FB000DDF80CA003F0F003502B40F2A880DAF8F3
:103FC000182002F1360392F82E201209053A03EB6D
:103FD00082029A4240F29B801978002900F0978073
:103FE000012970D10133F4E7B5F84E20B5F850300F
:103FF0009A4203D34046FFF719FC79E70622FEF701
:104000000DFF431E03330446F4D8EB69C3612B6AEA
:10401000036295F8263080F82630EB6EC3662B6F6E
:1040200003676B6E4366AB6E8366D5F8D430C0F819
:10403000D430D5F8D830C0F8D830AB6A23B1836219
:10404000EB6A43F00503C3627E4BAA8C5B6965652E
:104050000593130A43EA0223ADF8123094F8403076
:10406000082243F0040384F84030B5F84E3004A928
:104070000133A5F84E3020460123FEF749FF002802
:104080003FF447AF2046FEF7BDFF31E7700704D588
:1040900021462846FFF703FC77E206F01F04022CB6
:1040A00002D104293FF624AF039B05F1A6019B69C9
:1040B00003F12202363352F8040B9A4241F8040B02
:1040C000F9D12C4661E70229597840F09F800429F4
:1040D00040F09C809A78DB7843EA0223B4F84C20C5
:1040E000934214D294F84020A4F83A3142F00102ED
:1040F00084F84020D4F8E020A4F83831B2FBF3F281
:104100005A43A4F84C30C4F8E020A4F84A30DAF856
:104110001870DAF81C50D7F82630A5F10E011E0EE3
:104120001A0246EA036602F47F021B0A164303F4EE
:104130007F431E4397F82E303D8A9B0803F03C02D4
:104140002B0A43EA05239DB28D42A8BF0D4602F11A
:10415000140397F82FB09D4202F12209CCBFED1A4B
:1041600000251BF0200FB94409D0BA8E130A43EA88
:1041700002239BB2AB429944D4BFED1A6D1B94F855
:104180005320042A0AD9D4F8EC10731C994202BFB8
:1041900094F8413043F0010384F8413073190293DD
:1041A000D4F8F4307119CB1A002BC8BF0B4604F1B8
:1041B000DC08C8BFC4F8F4307DB3032A2DD9626F80
:1041C0004AB39168136812691344013B5B1A9A421F
:1041D00000D89B1A31462A46404600F03FFA011E9D
:1041E0001EDB2B464A462046FFF71CF8854217D0B7
:1041F0005046FFF71BFB039818B100F081FC002329
:1042000003932046FFF7EEF90124BEE100293FF4B5
:104210007EAF0B44DDE6E36EDCE7002384F8183163
:1042200094F8533094F81891042B0DD827D10BF043
:104230001F03022B23D103212046FFF730FB1EE092
:10424000A00500209004002094F84030DA0716D52D
:10425000039A6FF3000392694FF0040984F8403029
:10426000022382F8379082F83630B4F84A30190ABF
:1042700082F83930602382F8381082F82E301BF033
:10428000010F14D094F94130002B10DB7319C4F8DE
:10429000F03094F8413043F0800384F841305B06FD
:1042A0005EBF94F8423043F0020384F8423094F841
:1042B0005320931E082B9ED801A151F823F000BF74
:1042C0006D430000E54200006D43000057440000CC
:1042D0002D4500002D450000F7410000F74100008A
:1042E0002D4500000222B4F84C3087F8362087F8BC
:1042F00039301A0A1223042187F82F3060232C2525
:1043000087F82E3087F8371087F838202046FFF7D7
:10431000C6FAD4F8F83001360133C4F8F460C4F8B2
:10432000EC60C4F81031C4F8FC30D4F8EC20D4F8B8
:10433000E030616F1344D4F8F4209A1A002900F099
:104340001081C8680B6809690B44013B1B1A99422C
:1043500000D85B1A9A4294BFC4F8D020C4F8D03079
:1043600003992A462046FFF77BF944E7022A14BF47
:1043700010211221039B9F6997F82F3003F0170338
:104380008B4212D008212046FFF789FA97F82F3088
:1043900009F1280509F1140943F004034FEA8909DA
:1043A00087F82F3087F82E90BFE7D7F82630022AFB
:1043B0004FEA13664FEA032146EA036601F47F01E0
:1043C0004FEA132303F47F4346EA010646EA030655
:1043D000A38FA4F83631A38CA4F8343136D110233E
:1043E000314684F8B330D4F80821B4F84A30404656
:1043F00000F004F9D4F8FC3001360133C4F8FC3085
:10440000D4F81031C4F8F4600133C4F8EC60C4F897
:104410001031D4F8F8300133C4F8083194F853302F
:10442000022B00D055B1102309F1280509F1140918
:104430004FEA890987F82F3087F82E90052120460A
:10444000FFF72DFA002D3FF770AFD4E6002DE0D135
:10445000C4F8EC60DDE7039B9E69328E96F82FA0CE
:10446000130A43EA02239BB21AF0100FD6F8267003
:10447000C4F8CC3025D0D6F82A304046190E1A029E
:1044800041EA036102F47F021B0A03F47F431143F4
:10449000194300F058F90346A06FB8B19BB1002250
:1044A00000921146FFF731F858B1236843F0020239
:1044B0002260E26A900742BF43F4007343F00203B4
:1044C0002360A36F13B12046FFF7BFF9D4F8FC3087
:1044D000C4F8083194F84130990602D41AF0010F5B
:1044E00057D05A061CD4404600F03AF9824640465E
:1044F00000F004F9BAF1000F4BD0002849D03B0E70
:104500003A0243EA076302F47F023F0A134307F4C7
:104510007F47D4F8EC203B439B1A2B44012B38DC1B
:1045200094F8413043F0200384F84130039B204647
:104530009969FFF735FC054684E709F114039B00F0
:1045400086F82E3094F8413009F128055B0603D532
:10455000D4F80031C4F8FC30B9F1000F7FF4E5AEB7
:1045600021E0E36EF6E60024012985F852407FF44D
:104570008DAD06F01F0002283FF4BCAC16F0040419
:104580007FF4B6AC0398FFF751F9204607B0BDE8B9
:10459000F08F102386F82F30002DCED1B9F1000F07
:1045A0007FF429AE4D46002203A92046FFF702FA08
:1045B00000287FF747AF0546B7E600BF838C30B5CC
:1045C0001A0A0D4942EA032292B2CB6808318B42A3
:1045D00001D1002030BD1C68A2420BD1DC6894F8E8
:1045E0002750062D06D194F84050AD0702D54465FA
:1045F000012030BD5B68EAE76071002010B500243F
:1046000004600124047083B1B0F85E400CB1A0F8DE
:104610005E30B0F85C40A34200D334B94468A0F8DF
:104620005C30B4FBF3F45C434460B0F85C30C160D0
:1046300043644FF4FA73016183638161C261026272
:1046400042638262C26210BD30B41D464160826026
:10465000039B029A294630BCFFF7D0BF10B504690E
:104660008C4205D1934203D314440461002010BD51
:104670004FF0FF3010BD38B5836C0446002B11DCC1
:10468000456C436B8D4228BF0D460364002385644F
:104690004365C26402F090FA636B20652B44636348
:1046A000284638BD0025FBE7F8B5856C044616465C
:1046B00015B900252846F8BD90F85630DB070AD515
:1046C000836B90F8547003FA07F702F075FA236DC4
:1046D000C01A8742EDD894F8563043F0010384F8AD
:1046E000563094F85430013384F8543002F064FAB0
:1046F000236C2065E362E36C3360DBE7806CB0FA27
:1047000080F04009704738B5002313600446806C80
:10471000154680B194F85630DB070DD502F04CFAFF
:10472000236D94F85420C01AA36B9340834201D99F
:104730001B1A2B60012038BDB4F85E00814234BFE3
:104740000020012038BD836C43B1026A1A448A42BA
:104750004FF000018EBF0B4602628164184670471D
:1047600003698069181AC043C00F7047F7B5054642
:104770004369AC6902A840F8043D214600F098FE68
:10478000022860D0012854D12B8C5BB1A3846B8CA0
:104790006384EB6908335BBAE384002384F8283030
:1047A00084F82930AB692A4F9E79A21D07F1180EB3
:1047B0003B4603CB7345106051601F4602F108026F
:1047C000F6D12B8C6BBB0123E375EB691433238289
:1047D000228A002002F10E03EB61130A43EA02234E
:1047E00023821C4A6B6904F10E019342C4F81E3007
:1047F00008BF0123207608BFA37560761422FEF758
:1048000007F840BAC04316F0020620830CD00121FD
:104810002046FEF76DF80121284600F01DF903B08F
:10482000F0BDEB691C33D2E784F8286084F8296076
:10483000F1E740B9019900F06FFD019B28466B61DB
:1048400000F07AFEE7E7284600F05AF9E7E700BFF4
:1048500090040020E00000FCF8B585690646084693
:104860000F46FEF717FC044608B3D5F81A10A81D2A
:1048700000F052FD02F098F901F01CFA314604F103
:10488000380001F0C6FB01F037FA02F02DFA60683B
:1048900010B1012101F04EFBA36A33B1E26AD207E5
:1048A00003D50121186801F045FB0120F8BD6A8C91
:1048B000130A43EA02231BB2352B09D1A81DD5F8F0
:1048C0001A1000F029FD3046BDE8F84001F01CB890
:1048D0004EF614339F42F1D09A42EFD0F8BD00005B
:1048E00007B5014688B10023094802AA42F8043DF1
:1048F000006801F097FD019B3BB14FF08052054BE2
:104900001A60BFF34F8FBFF36F8F03B05DF804FBE6
:10491000A805002004ED00E010B50446FDF704FCF6
:104920002046BDE81040002100F0D4BB08B542F29B
:10493000107002F09DFAFAE707B50B4D0B4C4FF0E3
:10494000FF3201A9286801F0CFFD0128F7D1019BB2
:10495000002BF4D020469A8B9969FDF701FD019850
:1049600000F0CEF8EBE700BFA8050020B87B000000
:1049700010B58EB003A800F033F900240A2303A871
:1049800003938DF8164000F0ABF9284800F0BEFC08
:104990002146274800F09EFB2146264800F09AFB5E
:1049A000254800F0ADFC224604210F2001F030FC28
:1049B000224B186040B94FF0A00383F31188BFF376
:1049C0006F8FBFF34F8FFEE71D4C23689BB9042206
:1049D000019400921B494FF411721B4801F0BAFF79
:1049E000236843B94FF0A00383F31188BFF36F8F9F
:1049F000BFF34F8FFEE7154C23689BB90422019447
:104A0000009213494FF4A072124801F0A3FF2368EB
:104A100043B94FF0A00383F31188BFF36F8FBFF347
:104A20004F8FFEE701200EB010BD00BF19490000F6
:104A30008871002076770020E1480000A80500205A
:104A4000AC050020C17B000039490000A40500200E
:104A5000CA7B00002D490000002938B5044614BF68
:104A600005460025828B81690448FDF779FC2A46BA
:104A7000E169A06900F07CFB38BD00BFD27B00007B
:104A80002DE9F041174C256826462DBB0F2108461D
:104A900001F0E2FB206040B94FF0A00383F31188DE
:104AA000BFF36F8FBFF34F8FFEE70F4801F0A3FAFC
:104AB0000E4CDFF8348004F50777A561204601F03D
:104AC000A5FAE46021464046243401F0AEFABC4227
:104AD000F3D10F22064B1A603068003018BF012056
:104AE000BDE8F081E4070020B4050020C8050020DF
:104AF000B005002010B10C3801F050B8704700002C
:104B000070B505468069FFF7F5FF0023AB6101F042
:104B1000D1F80B4C2E69A64203D02946204601F05D
:104B200078FA01F0E9F8A64208D0BDE87040002309
:104B300004481A461946006801F0ACBB70BD00BFBE
:104B4000B4050020E4070020431E402B98BF4220FC
:104B500070B5841CA3071C4B18BF44F003041868ED
:104B600018BF013401F064FD012825D1174E01F072
:104B7000A1F8F368DD68284601F06EFA01F0BCF890
:104B8000134B326819688A4238BF1A60AB6943B167
:104B90004FF0A00383F31188BFF36F8FBFF34F8FE4
:104BA000FEE77CB104F10C0000F06AFF0646A86144
:104BB00020B92846FFF7A4FF002503E046F80C5B68
:104BC000AE61EC61284670BDE4070020B40500200A
:104BD000B0050020014B1868704700BFB4050020E5
:104BE00008B900BE704701223F23C2720273C2732C
:104BF0000274427402754275502203608275FF236D
:104C000060228372C27500230F228373C3740276FD
:104C100043760A228376C3760377C3778362C02301
:104C2000427703714FF4C062B1230284437144F2AE
:104C300060023C2307214284837137228823417319
:104C400081778284C3710372437270471F2810B545
:104C500003D900BE1F2902D810BD1F2901D900BEEB
:104C600010BD054B5C6BE407FCD400029862986AA7
:104C700001439962DA6210BD001004401F2807D971
:104C800000BE1F2906D800200022124B1A60704770
:104C90001F2901D900BEF6E70F4B5A6BD207FCD48F
:104CA000000298629A6A0D48114301229962094BE9
:104CB0001A60094B596B5A6B013802F0010206D099
:104CC000002AF7D14A07F5D4186B80B2DCE700BEA2
:104CD000DAE700BF8004824200100440A086010091
:104CE0002DE9F04F04468DB018B900BE0DB0BDE8F7
:104CF000F08F4FF480509D499D4BC1F880009A6C15
:104D000042F010029A64C1F880019A6C01F1C54129
:104D100022F010029A640123964A01F5943113603F
:104D200053609360D360C2F83C370B604B608B607C
:104D3000CB600B61E07A02F23C729842099200D992
:104D400000BE217B012900D900BE637B0F2B00939D
:104D500000D900BEA37B012B019300D900BEE37BE9
:104D6000012B029300D900BE237C012B039300D9B1
:104D700000BE637C012B049300D900BE94F813900D
:104D8000B9F1010F00D900BE94F81480B8F1010FF9
:104D900000D900BE94F815C0BCF1010F00D900BEC7
:104DA000E37D05931B0600D500BE237E1F2B0693D3
:104DB00000D900BE637E012B079300D900BE94F892
:104DC0001AB0BBF1010F00D900BE94F81BE0BEF190
:104DD000010F00D900BE277F012F00D900BE667FDA
:104DE0000F2E00D900BEA27F072A00D900BE94F87A
:104DF0001FA0BAF1010F00D900BE258CB5F5C06F18
:104E000000D900BEA38CB3F5806F089300D300BE19
:104E1000012818BF0020012918BF0021564B02F0BD
:104E2000070218605548BAF1010F0160544908BFE4
:104E300042F010020A620A68099B22F0004222F442
:104E400070220A6000221A608A6CB9F1010F22F008
:104E50001F028A640CBF4FF480720022049BB8F1D9
:104E6000010F08BF42F02002BCF1010F08BF42F061
:104E70001002012B0A600CBF03220122039B404950
:104E8000012B029B08BF42F00402012B019B08BFCB
:104E900042F01002012B009B08BF42F0200242EAC0
:104EA000033242F480724A60628CA07D059B12043A
:104EB00042EA00221A43089B8A6023F48073069A10
:104EC0009B059B0D43EA0233079A0C20012A08BF79
:104ED00043F48033BBF1010F08BF43F40033BEF14C
:104EE000010F08BF43F48023012F254A08BF43F474
:104EF000002343EA0653D3604FF4F8534FF6FF768E
:104F0000156193641F4BD3641F4B13651F4B53658F
:104F10001F4B9665D365164BC3F88C00D4F806304A
:104F20001364237960791B0443EA006353644FF0F0
:104F30000042184B00205A609A6101221A629A645A
:104F4000022203F114059D6003F13C051D6303F18A
:104F50002805D862D8605861DB6198625863D863CD
:104F600018645D64A3F85A6016E000BF00E100E039
:104F700000800340400082420C07704210077042DC
:104F8000001004400000FF0F80010004FFFF5802E2
:104F9000EFEF0700E8070020A3F85C60A3F85E00CD
:104FA000A3F85820A3F86020A3F86200A3F8646077
:104FB000186558651860A37AFF2B0BD105460221AE
:104FC0002846FFF75BFEB04203D1681CC5B2202D16
:104FD000F5D1A572A07A00F09FFC206800F0A2FC39
:104FE00000F0CCFC0DF12F010DF12E0000F0E8FCDB
:104FF000002838D09DF82E20304B012A996B0FD114
:1050000041F480319963596821F4407159605968BD
:1050100041F48071596082B901238DF82E300CE083
:1050200021F48031022A9963EDD15A6822F440724A
:105030005A605A6842F400725A60214A9DF82E1054
:10504000D2F88C3023F003030B43C2F88C309DF868
:105050002F201A4B52BB5A6822F001025A60DA6DB7
:1050600042F48002DA6501220021154BC3F8AC102E
:10507000C3F8AC21C3F8AC11A021124B1A609A609E
:10508000114B83F80C1383F81B1383F81C130F497F
:10509000CB6823F4E0631B041B0C43F0BF6343F4B1
:1050A0000033CB600A4B1A601A611FE65A6842F05F
:1050B00001025A60DA6D22F48002D3E70010044046
:1050C000008003400000824200E100E000ED00E0CB
:1050D000003382424FF480521F4B30B5C3F880201A
:1050E00000B900BE830700D000BE1C4BB3F960209E
:1050F000002A2FDD1424013AA3F86020B3F96220BE
:1051000054431D19A963E96AA86241F00041E962AC
:105110001349086810F0FF0F0AD1124828341C44C4
:10512000A3F86420C0F8904101200F4C2060086073
:10513000013212B2012AC8BF0022A3F862200B4B31
:105140001868C0B2B0FA80F040094FF48052024BA8
:105150001A6030BD0020F8E700E100E0E807002019
:105160008031824200100440883282428C32824276
:1051700070B54FF48054234BC3F88040002838D1D9
:1051800000BE002936D0204BB3F95840002C36DD44
:105190001425013CA3F85840B3F95A40013404BF28
:1051A000B3F85E40A3F85A40B3F95E4065435E1918
:1051B0003261164A58517160D2F88011A3F85C40F0
:1051C00009B9C2F8846101218C42C2F880110BBF79
:1051D00000220134A3F85E20A3F85E400C4B18684F
:1051E000C0B2B0FA80F040094FF48052054B1A600B
:1051F00070BD01B900BE8307C5D000BEC3E7002063
:10520000F2E700BF00E100E0E807002000100440E2
:105210000C318242364B2DE9F047D3F89C6116F0F1
:10522000010A2ED1F2062AD5324C4FF0010825464C
:10523000314FB4F96430D5F854905A1C12B2012A97
:10524000C8BF0022A4F86420294AC7F80080D2F819
:105250009461B5F86020C6F307460132A5F86020D6
:10526000B9F1000F09D0142202FB0353D96A9A6BDB
:10527000C1F30B010439986AC847002ED9D1BDE8A3
:10528000F0871C4CB4F95A506B1C00D100BEB4F925
:105290005C30013300D100BE14274FF6FF78DFF8F1
:1052A0005C90B4F858300133A4F85830236D1BB12A
:1052B00007FB054210699847B4F95C30AB420AD14C
:1052C0005346A4F85A80A4F85C800122C9F8002053
:1052D000002BE6D0A6E701352DB2022DA8BF002590
:1052E00007FB05435B68A4F85A50DB43DB0FECE790
:1052F00000100440E80700208032824200318242E0
:10530000014B1865704700BFE8070020014B586546
:10531000704700BFE80700202DE9F84F394B3A4AA3
:105320005B6952688A4659401142064601D0002BFB
:1053300066D14FF000084FF0FF374FF0FF0B3D46AE
:105340004446DFF8CC9059F8043C9A4511D1002E20
:1053500052D006223146484602F0EAF938BB0C2307
:105360002A4A03FB04249623A3720123E372BDE8B7
:10537000F88F2EB106223146484602F0D9F9C0B165
:1053800099F806305B4516D30134082C09F10C0955
:10539000D9D1781C12D0691C07D00C2300226B4392
:1053A0001A48C118C2504A608A60B84609E02546CA
:1053B000EAE72746E8E79B46A046E5E76A1C00D0F7
:1053C000A8460C2303FB08F31049CA1841F803A0B0
:1053D0005EB130680433C850CC18B388A3809623DC
:1053E00093720123D372BDE8F88F013508D10523EC
:1053F000D6729372BDE8F88F7B1C2546CDD1DFE7CE
:10540000BDE8F88F900400205C05002050080020C3
:10541000540800202DE9F041234D0446686940B14D
:10542000A38AE669B3F5807F05D0B3F5007F35D058
:105430000020BDE8F081D4F826808045F8D104F141
:10544000160731463846FFF767FF0222002346451C
:105450006275237504F1200219D11449236208688A
:105460008988C4F806006181938084F8263084F826
:10547000273084F8283084F829302868C4F81600CA
:10548000AB880220BB806B69E361BDE8F0813B68BB
:105490002362BB889380C4F82660EEE7314604F1AE
:1054A0001600FFF739FFC3E790040020A97B000036
:1054B00003681B4AF0B5934206D11A4B1A689B88C1
:1054C0000A608B800120F0BD5A1C03D0164C226963
:1054D000934201D1154BF1E7154A5269F2B1656863
:1054E0005A402A4201D0A2680AB9BBB11A46002428
:1054F0000C26104D06FB04F35F59974208D1EA18B9
:10550000D27A5AB10433E858EA1808609388D8E789
:105510000134082CEED102600020F0BD0220F0BD65
:10552000E00000FC0A7C00005C050020A97B000074
:1055300090040020500800208369014618460E4A56
:1055400030B502F1240452F8045BA24240F8045B37
:10555000F9D112880280094A1068C3F806009488BD
:10556000C3F816005C8152695C83DA614A69C3F84A
:1055700026202A23CB6130BDE47B0000900400206C
:1055800038B5002105462A20FFF7DEFA044640B16F
:105590004561FFF7D1FF2046BDE838400121FFF704
:1055A0005BBA38BD38B5134C04F16005A37A6BB112
:1055B000013BE27ADBB2A3721AB92068FFF7E0FF81
:1055C00001E0032BF9D9A37A03B923600C34AC4270
:1055D000ECD101F0F1FA084C0546226822B144F6FC
:1055E0002063821A9A4204D9044B5869FFF7C8FF16
:1055F000256038BD50080020B0080020900400202D
:10560000037803F0C003C02B03D10230704701338D
:1056100018440378002BFAD1013070472DE9F04F80
:10562000002506460C46A1B07C22294601A800951B
:10563000FBF744F83388A4B2A34204D000252846DF
:1056400021B0BDE8F08FB38829464FEA132848EA15
:1056500003282A462B462F462E2506F10C041FFA56
:1056600088F842450DD1F088050A45EA0025708882
:10567000ADB200F478608028F58040F08780002289
:1056800060E0002A40F02F81237803F0C003C02B94
:1056900002D0214613461EE0A01C2746017843781D
:1056A00090F802E043EA0123C1780132041D92B26E
:1056B00041EA0E21D5E733B17E2BDFBF20AFFF18C3
:1056C00007F8805C01330EF1010739440746B942FF
:1056D00008D100EB0E01084610F801EBBEF1000FF7
:1056E000E9D1DAE77E2B07DC0DF1800C97F800900A
:1056F0009C440CF8809C01330137E8E70134042C0A
:1057000006F1180632D11826794FDFF8EC813C6893
:1057100010226643301D69464044013402F062F9AC
:10572000042C48F8065001D03C6088E700233B6019
:1057300085E704890132230A43EA04239BB20A3332
:10574000C41892B2AA423FF479AF2046FFF758FF3F
:105750000178437843EA0123012BEAD1437A042BF1
:105760007FF46CAF0024D0F80A50624E96F90030F6
:10577000002BC8D010226946304602F0E3F800281A
:10578000BCD118235C435C4B1D5158E7002A3FF401
:1057900055AF012B7FF452AF01297FF44FAF781C36
:1057A000FCF728FD00283FF449AF3046FCF7DFFE48
:1057B000524B80461B68002B40F08F8000283FF43E
:1057C0003DAFC16901F12A03C3613A31FCF7BAFE6A
:1057D000824600283FF432AF334680468669E41A99
:1057E0002A36FF1A3444374400254FF0010B80223B
:1057F0009321C023B270F570B57186F807B0357289
:105800007572B572F5722172E02123700423617202
:10581000BF1B3B496770A57084F803B0257184F8FD
:1058200005B0A571E371A572E3724B691BBA1B0E3B
:1058300023734B691BBA1B0C63734B691BBA1B0A9E
:10584000A373CB7DE373A41BA4B204F110090FFA78
:1058500089F909F11C03D8F8187004F12C001B0A0F
:1058600043EA00233B82D7F81A301834C7F81E30B9
:105870004B692449C7F81A300B88BA751A0A42EAEC
:1058800003225B440B8009F108031B0A7A8243EA76
:105890000424BA8C7B8C07F10E01BB847A84FC84CF
:1058A00014223D767D762846FCF7B2FF40BAC0430D
:1058B000594638833846FDF71BF809F12A03C8F822
:1058C0001C3029464046FDF76DF8BAF1000F3FF451
:1058D000B5AE5046FFF714F9B1E600283FF4AEAE7E
:1058E0004FF0000A80E72046FFF78AFED6E600BFA9
:1058F00014090020B8080020B4080020E07B000054
:10590000900400202405002008B5806930F82A1F83
:10591000FFF784FE002008BD014B1870704700BFE0
:1059200018090020402337B5ADF800302023ADF82A
:1059300002304FF48073ADF8043080230E4C042104
:1059400005462078ADF80630FFF798F9002120F4DD
:10595000F07292B2EB0748BF3DF8113001F101013E
:1059600048BF1A4304294FEA5505F3D1207803B004
:10597000BDE83040FFF76AB91809002037B50E4C72
:105980000E4B4FF498520021207801934FF6FF758B
:10599000FFF75CF901212078FFF770F9019B013BCB
:1059A0000193830604D4019B002BF3D103B030BDD7
:1059B000A842EFD0FAE700BF1809002040420F00CC
:1059C00073B51B4E04460D4630780121FFF756F99A
:1059D00002A921F8020D02221648FCF7C1FCBDF80D
:1059E000060010F0040011D01E213078FFF746F9B0
:1059F00000F007000138052817D8DFE800F0030998
:105A000016160E13002301202B70237002B070BDF8
:105A1000002301202B702070F8E70120002328705C
:105A20002370F3E701202870F5E70020EEE700BFC0
:105A300018090020107C000010B50F4B1A68824234
:105A400018D35C681919884201BF416818460919C2
:105A50005960446801198A4207D1084909688A4295
:105A60001FBF51681268091941609842026018BF4F
:105A7000186010BD1346E1E7D46A00201C0900201D
:105A80002DE9F041044601F08FF83D493D4D0B688A
:105A9000FBB93D4A002056070FBF46F2A813073254
:105AA0003A4B22F0070218BF9B1A1344384E083BAA
:105AB00023F0070370603260586018600B60981A1A
:105AC0001360344B50601860334B18604FF0004344
:105AD0002B602F68274216D1002C40D004F1080318
