:1000000000000120910100007F0300008103000037
:100010008303000085030000870300000000000048
:100020000000000000000000000000008903000044
:100030008B030000000000008D0300008F03000010
:100040009103000093030000950300009703000054
:10005000990300009B0300009D0300009F03000024
:10006000A1030000A30300002D2500000D250000C2
:10007000A9030000AB030000AD030000AF030000C4
:10008000B1030000B3030000B5030000B703000094
:10009000B9030000BB030000BD030000BF03000064
:1000A000C1030000C3030000C5030000C703000034
:1000B000C9030000CB030000CD030000CF03000004
:1000C000D1030000D3030000D5030000D7030000D4
:1000D000D9030000DB030000DD030000DF030000A4
:1000E000E1030000E3030000E5030000E703000074
:1000F000E9030000EB030000ED030000EF03000044
:10010000F1030000F3030000F5030000F703000013
:10011000F9030000FB030000FD030000FF030000E3
:1001200001040000030400000504000007040000AF
:10013000090400000B0400000D0400000F0400007F
:10014000110400001304000015040000170400004F
:10015000190400001B0400001D0400001F0400001F
:1001600021040000230400002504000027040000EF
:10017000290400002B0400002D0400002F040000BF
:100180003104000033040000000000000000000003
:100190004FF0000BDFF8BE020068DFF8B612096806
:1001A00001F0030100F01C00142801D14BF0020BF8
:1001B000002901D04BF0010BBBF1000F05D0A7487F
:1001C000A749DFF8722200F09FF8A64880470BF09D
:1001D000020ABAF1000F0CD0DFF86E02DFF86E12DF
:1001E00002680B680FB44FF000024FF0FF0302608B
:1001F0000B609D489D4A9E4B022808D1DFF83E12B5
:100200000A60DFF842120A60DFF836120B6001283C
:1002100008D1DFF82E120A60DFF82A120A60DFF830
:100220001E120B609348002809D193489349944AC1
:1002300000F032F893489449944A00F02DF894481D
:100240009449954A00F028F894489549DFF8E6214A
:1002500000F05AF8BBF1000F12D092489249DFF833
:10026000DA2100F051F80BF0020ABAF1000F07D0C2
:100270000FBC02600B6000BFAFF30080AFF30080E3
:10028000DFF828020FF2030E00474FF000004FF096
:100290000001DFF81CF2FEE72DE9F841884225D085
:1002A000B2EB010200D5FEE740EA010313F00303BD
:1002B00002D000F01DF819E04FF000039046121133
:1002C000F7D09A421CBFF0C8F0C103F10103F8D186
:1002D00008F00F08B8F1000F08D004780C7000F196
:1002E000010001F10101B8F10108F6D1BDE8F88182
:1002F00008B54FF0000303780B7000F1010001F125
:100300000101013AF7D108BD884237D000F0030659
:10031000002E14D04FF00405A5EB06044FF008079B
:1003200007FB06F8914669FA08F9002C07D080F817
:10033000009069FA07F900F10100013CF5E74FF080
:1003400000060F46091A88460911914614461546BB
:10035000B14206D018BFA0E8340206F10106B1424E
:10036000F8D108F00F08B8F1000F07D002704FEA7B
:10037000322200F10100B8F10108F4E77047FEE70E
:10038000FEE7FEE7FEE7FEE7FEE7FEE7FEE7FEE745
:10039000FEE7FEE7FEE7FEE7FEE7FEE7FEE7FEE735
:1003A000FEE7FEE7FEE7FEE7FEE7FEE7FEE7FEE725
:1003B000FEE7FEE7FEE7FEE7FEE7FEE7FEE7FEE715
:1003C000FEE7FEE7FEE7FEE7FEE7FEE7FEE7FEE705
:1003D000FEE7FEE7FEE7FEE7FEE7FEE7FEE7FEE7F5
:1003E000FEE7FEE7FEE7FEE7FEE7FEE7FEE7FEE7E5
:1003F000FEE7FEE7FEE7FEE7FEE7FEE7FEE7FEE7D5
:10040000FEE7FEE7FEE7FEE7FEE7FEE7FEE7FEE7C4
:10041000FEE7FEE7FEE7FEE7FEE7FEE7FEE7FEE7B4
:10042000FEE7FEE7FEE7FEE7FEE7FEE7FEE7FEE7A4
:10043000FEE7FEE7704700000000A2A2A2A2008033
:100440000340088003401080034030800340348024
:1004500003403880034018080240000000F00020EC
:1004600000000120A92B0000000000000000000097
:10047000010000000000000000000000000000007B
:1004800090010000C0040000C004000070360000AD
:100490007036000000000020200000202000002016
:1004A000B0000020B000002000F00020E92B000088
:1004B0000D100000AFF30080AFF30080AFF30080B9
:1004C00040F22003C2F200031A780AB90120187022
:1004D000704700BF40F20000C2F2000008B5036898
:1004E0002BB140F20003C0F2000303B1984708BDEE
:1004F0002DE9F84F40F23005C5F20005022640F222
:1005000034042E60C5F20004A92540F208032560DA
:10051000C5F20003070AAA254AF64024B0F1050CEB
:100520001D6092461C601F6018601ED001220638B4
:10053000002762451F6000F0030016D258B1012861
:1005400005D002281CBF1A6032461A6001321A60B8
:100550000132624509D2551C1A60D61C04326C1C4B
:1005600062451D601C601E60F5D3012974D040F205
:1005700010030229C5F2000375D02020186040F254
:10058000140540F21007C5F20005C5F200074FF050
:10059000200B10264FF001094FF080080DE014F0F9
:1005A000100F1ED114F0010F2AD114F0800F18BFC4
:1005B000C5F8008014F0B10F36D12C6814F0200F6C
:1005C000EDD040F2640042F63841C2F20000C0F2C1
:1005D0000001C5F800B001F073FE14F0100F3E608A
:1005E000E0D040F2640042F65841C2F20000C0F28E
:1005F00000012E6001F064FE14F0010F3E60D4D0C3
:1006000040F2640042F67841C5F80090C2F2000062
:10061000C0F2000101F054FE14F0800F18BFC5F8BD
:10062000008014F0B10FC8D0BAF1000F12D140F21F
:1006300014034FF6FF72C5F20003C0F203020AF181
:10064000070A9245196819681968196819681968BC
:100650001968F4D1BDE8F88F40F21003C5F2000329
:1006600030221A608BE72221196088E710B540F22A
:10067000640042F6E04182B0C2F20000C0F2000124
:1006800001F01EFE4FF0A0431B684FF03032019284
:1006900000926C4673B1072104E030321B096254AA
:1006A00008D0013903F00F02092AF6D937321B09A5
:1006B0006254F6D140F26400C2F20000694608229A
:1006C00001F0A8FD40F2640042F60851C2F20000B9
:1006D000C0F2000101F0F4FD40F20401C5F2000196
:1006E0000B684FF030306060206073B1072104E088
:1006F00030321B09625408D0013903F00F02092A75
:10070000F6D937321B096254F6D140F26400082250
:10071000C2F20000694601F07DFD40F2640042F63D
:100720003051C2F20000C0F2000101F0C9FD40F2F8
:100730001003C5F200031B684FF030326260226084
:1007400073B1072104E030321B09625408D001392B
:1007500003F00F02092AF6D937321B096254F6D189
:1007600040F26400C2F200006946082201F052FD26
:1007700040F2640042F65851C2F20000C0F200019B
:1007800001F09EFD40F21401C5F200010B684FF02C
:1007900030306060206073B1072104E030321B0903
:1007A000625408D0013903F00F02092AF6D9373212
:1007B0001B096254F6D140F264000822C2F2000024
:1007C000694601F027FD40F2640042F68051C2F212
:1007D0000000C0F2000101F073FD40F21803C5F201
:1007E00000031B684FF030326260226073B1072152
:1007F00004E030321B09625408D0013903F00F02C3
:10080000092AF6D937321B096254F6D140F2640046
:10081000C2F200006946082201F0FCFC40F26400CC
:1008200042F6A851C2F20000C0F2000101F048FDFA
:1008300040F21C01C5F200010B684FF030306060DF
:10084000206073B1072104E030321B09625408D0E4
:10085000013903F00F02092AF6D937321B09625415
:10086000F6D140F264000822C2F20000694601F0AD
:10087000D1FC40F2640042F6D051C2F20000C0F256
:10088000000101F01DFD40F23003C5F200031B68BA
:100890004FF030326260226073B1072104E03032E1
:1008A0001B09625408D0013903F00F02092AF6D956
:1008B00037321B096254F6D140F26400C2F20000E4
:1008C0006946082201F0A6FC40F2640042F6F851A5
:1008D000C2F20000C0F2000101F0F2FC40F234016B
:1008E000C5F200010B684FF030306060206073B1DA
:1008F000072104E030321B09625408D0013903F0AB
:100900000F02092AF6D937321B096254F6D140F298
:100910006400C2F200006946082201F07BFC02B0CC
:1009200010BD00BF2DE9F04F8FB005AA019242F62D
:10093000944B019CC0F2000B80468946BBE80F0037
:100940000FC49BE80700234603C44FEA88174FEA09
:10095000124C039783F80AC0204640F2140140F27B
:10096000300640F2340540F21004DDF80CC002807D
:10097000C5F20006C5F20005C5F200044FEA182AC8
:1009800008F0FF0BC5F2000140F21C07FF20002316
:100990000860C5F20007C6F800A04FEA9808C5F83D
:1009A00000B00CF0FF0623604FEA192509F0FF04A0
:1009B000396811F0100FFBD040F2140A4023C5F241
:1009C000000A40F20C00CAF80030C5F200000768C7
:1009D000474508BF4FF0000B00F0908040F26400E4
:1009E00042F62061C2F20000C0F2000101F068FC92
:1009F00040F2640042F63861C2F20000C0F2000129
:100A000001F05EFCDAF800304FF030320D920C92BB
:100A10000DF1300A83B1072105E030321B090AF8D5
:100A2000012009D0013903F00F02092AF5D9373224
:100A30001B090AF80120F5D140F26400C2F200005F
:100A40005146082201F0E6FB40F2640042F658618C
:100A5000C0F20001C2F2000001F032FC4FF0303170
:100A6000CAF80410CAF80010B8F1000F12D007221B
:100A700006E030335FEA18180AF802300AD0013A6B
:100A800008F00F03092BF4D937335FEA18180AF876
:100A90000230F4D140F26400C2F200005146082254
:100AA00001F0B8FB40F2640042F66C61C2F2000053
:100AB000C0F2000101F004FC4FF03030CAF804002D
:100AC000CAF8000087B1072205E030333F090AF871
:100AD000023009D0013A07F00F03092BF5D937335B
:100AE0003F090AF80230F5D140F26400C2F200007A
:100AF0005146082201F08EFB4FF0010B40F20C032F
:100B0000C5F200031F68B74200F08F8040F2640016
:100B100042F68061C2F20000C0F2000101F0D0FB99
:100B200040F2640042F63861C0F20001C2F20000F7
:100B300001F0C6FB40F21401C5F200010B684FF052
:100B400030320D920C920DF1300883B1072105E08F
:100B500030321B0908F8012009D0013903F00F02D7
:100B6000092AF5D937321B0908F80120F5D140F2DE
:100B70006400C2F200004146082201F04BFB40F243
:100B8000640042F65861C2F20000C0F2000101F0B8
:100B900097FB4FF03030C8F80400C8F8000086B169
:100BA000072205E03033360908F8023009D0013A4F
:100BB00006F00F03092BF5D93733360908F8023050
:100BC000F5D140F26400C2F200004146082201F073
:100BD00021FB40F2640042F66C614FF03036C2F205
:100BE0000000C0F2000101F06BFBC8F80460C8F817
:100BF000006087B1072205E030333F0908F8023072
:100C000009D0013A07F00F03092BF5D937333F0913
:100C100008F80230F5D140F26400C2F2000041460B
:100C2000082201F0F7FA4FF0010B40F20C03C5F275
:100C300000031E68AE4200F0848040F2640042F679
:100C40009861C2F20000C0F2000101F039FB40F2ED
:100C5000640042F63861C2F20000C0F2000101F007
:100C60002FFB40F21402C5F2000213684FF0303738
:100C70000D970C970CAF73B1072104E030321B09BC
:100C80007A5408D0013903F00F02092AF6D9373215
:100C90001B097A54F6D140F26400C2F200003946D2
:100CA000082201F0B7FA40F2640042F65861C0F23F
:100CB0000001C2F2000001F003FB4FF03031796017
:100CC000396075B1072204E030332D09BB5408D0D8
:100CD000013A05F00F03092BF6D937332D09BB5420
:100CE000F6D140F26400C2F200003946082201F059
:100CF00091FA40F2640042F66C614FF03035C2F276
:100D00000000C0F2000101F0DBFA7D603D6076B1C9
:100D1000072204E030333609BB5408D0013A06F00C
:100D20000F03092BF6D937333609BB54F6D140F2FD
:100D30006400C2F200003946082201F06BFA4FF05D
:100D4000010B40F20C00C5F200000568A54200F05E
:100D5000848040F2640042F6B061C2F20000C0F24A
:100D6000000101F0ADFA40F2640042F63861C2F2CF
:100D70000000C0F2000101F0A3FA40F21403C5F232
:100D800000031B684FF030360D960C960CAE73B115
:100D9000072104E030321B09725408D0013903F0F6
:100DA0000F02092AF6D937321B097254F6D140F2E4
:100DB00064000822C2F20000314601F02BFA40F232
:100DC000640042F65861C2F20000C0F2000101F076
:100DD00077FA4FF030327260326074B1072204E06B
:100DE00030332409B35408D0013A04F00F03092B1F
:100DF000F6D937332409B354F6D140F26400C2F275
:100E000000003146082201F005FA40F2640042F683
:100E10006C61C0F20001C2F2000001F051FA4FF023
:100E200030317160316075B1072204E030332D0933
:100E3000B35408D0013A05F00F03092BF6D9373324
:100E40002D09B354F6D140F26400C2F200003146DD
:100E5000082201F0DFF94FF0010BB9F1050900F0AC
:100E6000BF8040F2140C40F20C0AC5F2000C30278F
:100E70005B46C5F2000A4FF000080DEB0706E3469B
:100E8000DAF8004008F0FF05AC4200F0A38040F221
:100E9000640042F6C861C2F20000C0F2000101F035
:100EA0000FFA40F2640042F63861C2F20000C0F26C
:100EB000000101F005FADBF800308DF830708DF894
:100EC00031708DF832708DF833708DF834708DF884
:100ED00035708DF836708DF8377073B1072104E0E6
:100EE00030321B09725408D0013903F00F02092A6D
:100EF000F6D937321B097254F6D140F26400C2F2BF
:100F000000003146082201F085F940F2640042F603
:100F10005861C2F20000C0F2000101F0D1F98DF871
:100F200030708DF831708DF832708DF833708DF827
:100F300034708DF835708DF836708DF8377075B166
:100F4000072204E030332D09B35408D0013A05F0EC
:100F50000F03092BF6D937332D09B354F6D140F2DC
:100F60006400C2F200003146082201F053F940F259
:100F7000640042F66C61C2F20000C0F2000101F0B0
:100F80009FF98DF830708DF831708DF832708DF8D2
:100F900033708DF834708DF835708DF836708DF8AB
:100FA000377074B1072204E030332409B35408D0F9
:100FB000013A04F00F03092BF6D937332409B3544F
:100FC000F6D140F26400C2F200003146082201F07E
:100FD00021F9012308F10108C845FFF451AF9B46F0
:100FE00040F20C01C5F200010A680B68BBF1000F6A
:100FF00002D10FB0BDE8F08F40F26400C2F20000F1
:1010000005A91B2201F006F95846F2E72DE9F04F39
:10101000ADF5906D83B00DF58E620C320192019B9F
:1010200043F29C54C0F2000494E8070083E80700F0
:1010300001F09AFC0020032101F0E2FC01200521CF
:1010400001F0DEFC0220014601F0DAFC032001463B
:1010500001F0D6FC0420032101F0D2FC052001465A
:1010600001F0CEFC0620052101F0CAFC0720052175
:1010700001F0C6FC0820052101F0C2FC0920022174
:1010800001F0BEFC0A20022101F0BAFC0B20052170
:1010900001F0B6FC0C20032101F0B2FC0D2005216B
:1010A00001F0AEFC0E20032101F0AAFC0F20032169
:1010B00001F0A6FC1020032101F0A2FC1120032165
:1010C00001F09EFC1220032101F09AFC1320022162
:1010D00001F096FC1420052101F092FC1520052159
:1010E00001F08EFC1620052101F08AFC1820052154
:1010F00001F086FC1920032101F082FC1A20032153
:1011000001F07EFC1C20052101F07AFC1F20032148
:1011100001F076FC40F264000322C2F200004FF4BA
:10112000614101F0F1FB40F2640042F6E061C2F27D
:101130000000C0F2000101F0C3F843F2000540F2E4
:1011400064000DF58E610C310C22C4F20105C2F26F
:10115000000001F05FF8D5F8881040F6000321F098
:10116000805BC4F20203C5F888B0002242F2DE754B
:101170001A609D6040F20F35DD604FF0020AC12514
:10118000C3F810A05A619D6140F69F15DD6143F2DE
:1011900033351A625D624FF6FF759D6247F27775CF
:1011A000DD6240F6FF751D63012144F2422559635B
:1011B0009D630825DD634FF033091835C3F840906F
:1011C0005D64A0359A64DA641D659D3D5D6540F2FD
:1011D00035259D656425DD6540200324A4351D6605
:1011E00070355D6641F64715C3F86890DD661025D9
:1011F0001D674FF44C555A679D6740F214554FF4E4
:10120000007CDA67C3F88020C3F884501225C3F845
:101210008820C3F88CC0C3F89000C3F894504FF4F2
:101220008045C3F898A048F2F808C3F89C504FF0E6
:10123000070E40F20935C3F8A080C3F8A4E0C3F854
:10124000A880C3F8ACE0C3F8B0C0C3F8B410C3F8CA
:10125000B820C3F8BC40C3F8C040C3F8C400C3F80A
:10126000C820C3F8CC20C3F8D020C3F8D420C3F8DA
:10127000D8508025C3F8E02040F20147C3F8402150
:1012800044F21006C3F81C22C3F82452753DC3F87B
:101290003042C3F83822C3F84022C3F84852C3F89A
:1012A0005C02C3F86072C3F86462C3F8682221323A
:1012B000C3F88012C3F89802C3F89C72C3F8A06206
:1012C000C3F8D802C3F8DC72C3F8E062C3F8FC22AA
:1012D000183AC3F804439B46C3F80813C3F80C1329
:1012E000C3F81423C3F81C131960DBF8E460002E64
:1012F000FBD040F21003C5F20003102740F21400A7
:1013000040F230011F6042F6B044022640F234023F
:10131000C5F20000C5F2000142F6B04E0068049428
:101320000E600025C5F2000242F6944740F20C041C
:10133000A920C0F2000E0DF588660DF58D6C1060C9
:10134000C0F200071D60CDF810E0C5F200044FF0B8
:10135000080A0C36CDF800C013AD40F264004FF41B
:101360008062C2F20000294600F0E8FF95F8008094
:1013700002460028F0D040F26400C2F20000294684
:10138000A8F1310800F046FFB8F1390F00F24084AF
:10139000DFE818F02D0424040F04FB036803CE02D9
:1013A000BA025905CE043E043E043E043E043E0407
:1013B0003E043E043E043E043E043E043E043E041D
:1013C0003E043E043E043E043E043E043E043E040D
:1013D0003E043E043E043E043E043E043E043E04FD
:1013E0003E043E043E043E043E043E043E043E04ED
:1013F0003E043E04710449041806DF0582069D027E
:1014000081013E0415013A0040F2640043F2585154
:10141000C2F20000C0F2000100F052FF40F23001C1
:1014200040F23402C5F20002022340F21005C5F278
:101430000001A920C5F200050B60DDF810A01060C6
:101440009A1E2A6090460325BB46B146BBE80F00B2
:10145000A9E80F004B469BE8070003C3DDF800C076
:101460001A80D6464FEA124BBEE80F00ACE80F00D8
:10147000BEF800906046A0F8009086F81AB0206888
:101480002368691D402B00F07986012023682268BB
:10149000002B0CBF84464FF0010C01F0FF0E2068BA
:1014A00096450CBF624601220123691E002818BF21
:1014B0001A46AB4201F003013FD2C1B101290DD060
:1014C000022904D02168994218BF01220223206812
:1014D00003F0FF0B584518BF01220133206803F0C9
:1014E000FF090133484518BF0122AB4225D2D4F889
:1014F00000E0591CD4F800B003F0FF0CE64518BF1B
:101500000122481C01F0FF09D4F800E0CB450CBFD4
:1015100094464FF0010C00F0FF01DA1C20688E4564
:101520000CBFE1464FF0010902F0FF0B04335845B0
:101530000CBF4A460122AB42D9D340F26400012AD3
:101540002368C2F20000236800F042860DF58D6129
:10155000122200F05FFE0135122D7FF475AFB8F155
:10156000000F09D140F2640042F6C441C2F200000B
:10157000C0F2000100F0A4FE40F2640042F6E06117
:10158000C2F20000C0F2000100F09AFE40F26400D6
:101590000DF58E61C2F200000C220C3100F03AFE13
:1015A00040F2300240F23403C5F20002C5F20003FB
:1015B0000220A92510604FF0080A1D60CCE640F219
:1015C000640043F23451C2F20000C0F2000100F0A6
:1015D00077FE082000210122FEF78AFF0920002162
:1015E0000122FEF785FF0A2000210122FEF780FF7D
:1015F0000B2000210122FEF77BFF0C20002101229D
:10160000FEF776FF0D2000210122FEF771FF0E206C
:1016100000210122FEF76CFF002101220F20FEF7BE
:1016200067FF102000210122FEF762FF1120002138
:101630000122FEF75DFF122000210122FEF758FF74
:10164000132000210122FEF753FF14200021012264
:10165000FEF74EFF152000210122FEF749FF01226F
:1016600016200021FEF744FF40F2640042F6E061DC
:10167000C2F20000C0F2000100F022FE40F264005D
:101680000DF58E61C2F200000C310C2200F0C2FD9B
:101690004FF0080A60E640F2640043F21451C2F2CF
:1016A0000000C0F2000100F00BFE0AF105050AF18E
:1016B000010C0AF1020E0AF103030AF104020AF115
:1016C000070B0AF108084FF00009CDF840C0CDF82B
:1016D0003CE00E930D920C950AF106000AF1090107
:1016E0000AF10B030AF10C020AF10D050AF10E0CC6
:1016F000AAF1050ECDF820B0CDF81C800B900A9110
:101700000AF10A08059306920395CDF824C0CB464A
:10171000CDF844E0022101225046FEF7E9FE022105
:1017200001221098FEF7E4FE022101220F98FEF735
:10173000DFFE022101220E98FEF7DAFE02210122CD
:101740000D98FEF7D5FE022101220C98FEF7D0FE7F
:10175000022101220B98FEF7CBFE022101220898FC
:10176000FEF7C6FE022101220798FEF7C1FE022104
:1017700001220A98FEF7BCFE012240460221FEF734
:10178000B7FE022105980122FEF7B2FE069802215B
:101790000122FEF7ADFE039802210122FEF7A8FE0A
:1017A000099802210122FEF7A3FE119DBC46B64610
:1017B000BCE80F00AEE80F0073469CE8070003C3C7
:1017C000100C1A80B076226821686B1D402900F049
:1017D000C484012220682168B0EB132F18BF0122B6
:1017E00003F0FF00884218BF0122002D48D0206876
:1017F0000123691E002818BF1A46AB4201F00301FD
:101800003ED2C1B101290DD0022904D021689942EC
:1018100018BF01220223206803F0FF0C604518BFA7
:1018200001220133206803F0FF0E0133704518BF19
:101830000122AB4224D2D4F800E0591C206803F006
:10184000FF0CE6450CBF94464FF0010C01F1010E70
:10185000226801F0FF0188420CBF614601210EF0B1
:10186000FF0E03F1030C206872450CBF0A460122EB
:101870000CF0FF0C0433604518BF0122AB42DAD3F1
:10188000012A2368236800F06D84013545458DD118
:1018900009F10109B9F5FA6F7FF43CAFBBF1000F14
:1018A00000F0D58040F2640042F6E061C2F2000030
:1018B000C0F2000100F004FD0DF58E6140F26400FD
:1018C000C2F200000C310C2200F0A4FC44E540F20E
:1018D000640043F2F841C2F20000C0F2000100F0DF
:1018E000EFFC43F20003C4F201034FF08050C3F851
:1018F0008800D3F8881040F2640021F08052C3F8C9
:10190000882042F6E061D1E740F2640043F22C31D6
:10191000C0F20001C2F2000000F0D2FC50460221E9
:101920000122FEF7E5FD40F2640042F6E061BDE70A
:1019300040F2640043F2CC21C2F20000C0F2000188
:1019400000F0BEFC0AF5F86303F10B09AAF10505E6
:101950004FF0000BB84601216F1D38460A46FEF7CE
:10196000C7FDC446B646BCE80F00AEE80F0073469C
:101970009CE8070003C3100C1A80B0762268216827
:10198000402900F00584012320682268B0EB172F5E
:1019900018BF012307F0FF0797420CBF1A46012228
:1019A000002D47D027680123691E002F18BF1A4653
:1019B000AB4201F003013DD2C1B101290DD0022992
:1019C00004D027689F4218BF01220223206803F039
:1019D000FF01884218BF01220133276803F0FF0C82
:1019E0000133674518BF0122AB4223D22768591C37
:1019F000D4F800E003F0FF0C674518BF0122481C33
:101A0000276801F0FF018E450CBF94464FF0010C92
:101A1000DA1C00F0FF0120688F420CBFE6464FF051
:101A2000010E043302F0FF0C60450CBF7246012228
:101A3000AB42DBD3012A2368236800F0AF83013572
:101A40004D4588D14746BBF1000F7FF42BAF40F2E4
:101A5000640042F6C441C2F20000C0F2000100F08E
:101A60002FFC1FE740F2640043F28C21C2F2000019
:101A7000C0F20001BB46B14600F022FCBBE80F00FB
:101A8000A9E80F00C8469BE80700A8E80300049DEA
:101A90004046DDF800C002804FEA12490FCDACE8A5
:101AA0000F00B5F800B06146A1F800B086F81A90B2
:101AB00023682268402A00F0A48301232168226859
:101AC000B1EB1A2F18BF01230AF0FF0E96450CBF89
:101AD0001A460122BAF1050148D025680123AAF16E
:101AE000060C002D18BF1A468B420CF003003DD2A5
:101AF000C0B101280DD0022804D025680223012D91
:101B000018BF0122206803F0FF08404518BF0122DA
:101B10000133256803F0FF0B01335D4518BF012237
:101B20008B4223D22568581CD4F800C003F0FF0B69
:101B30005D4518BF012200F0FF08451CD4F800E005
:101B4000C4450CBF91464FF0010905F0FF0BDA1CAC
:101B50002568DE450CBF4846012002F0FF0804332B
:101B600045450CBF024601228B42DBD340F26400A4
:101B7000012A2368C2F20000236800F03C830DF5BF
:101B80008D61122200F046FB8CE640F2640043F2C5
:101B90005021C0F20001C2F2000000F091FB50465B
:101BA00001210022FEF7A4FC40F2640042F6E0614D
:101BB0007CE640F2640043F23021C2F20000C0F241
:101BC000000100F07DFB40F21003C5F20003102578
:101BD00040F2640042F6E0611D6067E640F2640096
:101BE00043F21021C2F20000C0F20001E9E7FEF763
:101BF0003DFD40F2640043F20821C2F20000C0F251
:101C0000000100F05DFB40F2640042F6E0614DE649
:101C100040F2640043F27C51C2F20000C0F20001C5
:101C200000F04EFB3EE640F2640043F22841C2F26F
:101C30000000C0F2000100F043FB40F2F9314FF424
:101C40002A70FEF76FFE40F2640042F6E061C2F2D5
:101C50000000C0F2000100F033FB40F264000DF51B
:101C60008E61C2F200000C310C2200F0D3FA40F277
:101C7000F93AFFF771BB40F2640043F2F431C2F26B
:101C80000000C0F2000100F01BFB40F2300540F202
:101C9000140C4FF0020AC5F20005FF2040F20801C3
:101CA00040F23408C5F2000CCCF80000C5F2000187
:101CB000C5F800A05538A825C5F20008C8F800509E
:101CC00008604FF42A4503200D600123086040F2AC
:101CD000F93500200D6008600B6053465D1C0A4614
:101CE000C2F800A06B1C0D60591C1360D81C043393
:101CF0004D1CB3F57D7F116015601060F4D140F28A
:101D00001003C5F2000340F2140120221A60C5F24C
:101D10000001086840F2140310F0800FC5F20003C0
:101D2000F7D0802540F2640042F6E0611D608EE746
:101D300040F2640043F2A831C2F20000C0F2000198
:101D400000F0BEFA0AF5F86303F10B09AAF10505E4
:101D50004FF0000BB8466F1D022101223846FEF7F6
:101D6000C7FBC446B646BCE80F00AEE80F0073469A
:101D70009CE8070003C3100C1A80B0762268216823
:101D8000402900F00082012320682268B0EB172F61
:101D900018BF012307F0FF0797420CBF1A46012224
:101DA000002D47D027680123691E002F18BF1A464F
:101DB000AB4201F003013DD2C1B101290DD002298E
:101DC00004D02168994218BF01220223276803F03A
:101DD000FF0C674518BF01220133206803F0FF0E96
:101DE0000133704518BF0122AB4223D22768591C2A
:101DF000D4F800E003F0FF0C674518BF0122481C2F
:101E0000276801F0FF018E450CBF94464FF0010C8E
:101E1000DA1C00F0FF0120688F420CBFE6464FF04D
:101E2000010E043302F0FF0C60450CBF7246012224
:101E3000AB42DBD3012A2368236800F0D18101354E
:101E40004D4588D1FEE540F2640043F26831C2F2AC
:101E50000000C0F2000100F033FAB146BC46BCE815
:101E60000F00A9E80F004B469CE8070003C3049D40
:101E7000DDF800B01A804FEA12490FCDABE80F0031
:101E8000B5F800805B46A3F8008086F81A902368B6
:101E90002568402D00F0B981012321682268B1EB4B
:101EA0001A2F18BF01230AF0FF0E96450CBF1A46E1
:101EB0000122BAF105013FF459AE25680123AAF1C8
:101EC0000608002D18BF1A468B4208F00300BFF425
:101ED0004DAEC8B101280DD0022804D025680223D8
:101EE000012D18BF0122206803F0FF09484518BFE3
:101EF00001220133256803F0FF0E0133754518BF39
:101F000001228B42BFF432AE2568581CD4F8008001
:101F100003F0FF094D4518BF012200F0FF0B451CDF
:101F2000D4F800E0D8450CBF94464FF0010C05F002
:101F3000FF09DA1C2568CE450CBF6046012002F07F
:101F4000FF0B04335D450CBF024601228B42DBD3FD
:101F50000CE640F2640043F29C41C2F20000C0F281
:101F6000000100F0ADF94FF00808002517E00AF174
:101F700001014FF42A70FEF7D5FC0AF10201012895
:101F80004FF42A7008BF0135FEF7CCFC0AF10308B4
:101F9000012808BF0135B8F5FB6F00F00A81414602
:101FA0004FF42A70FEF7BEFC08F1010A01285146E1
:101FB0004FF42A7008BF0135FEF7B4FC0128D6D1D2
:101FC0000135D4E740F2640043F26441C2F20000FC
:101FD000C0F2000100F074F940F2300B40F214013D
:101FE00040F2340940F2080240F2100AC5F2000142
:101FF000C5F2000BC5F20009C5F20002C5F2000AE5
:1020000003204FF00208BC46A646FF270F60441D80
:10201000A827CBF80080230AC9F80070AA27176008
:1020200003934FF42A471760039F0123451E17604F
:1020300014600024834205F00305146016D25DB1DC
:10204000012D05D0022D1CBF1360434613600133E0
:1020500013600133834209D25C1C1360DD1C04331E
:10206000671C8342146017601560F5D32023CAF8FB
:1020700000300D6815F0800FFBD0013040F21403E2
:1020800040F2D3778024C5F20003B8421C60BCD173
:1020900067467446FFF7E8BA40F2640043F2D44161
:1020A000C2F20000C0F2000100F00AF940F2300B69
:1020B00040F21000C5F2000B40F2140140F2340966
:1020C00040F20802C5F20000BC46C5F200015F46BE
:1020D000C5F20009C5F2000203904FF0000E4FF068
:1020E000800A40F2F738A346FF20022508604FF42B
:1020F00000433D600025C9F800500324C2F800A049
:102100001360012314604FF47F70DC1810601560B9
:102110001360631C4345146009D0581C1360DC1C19
:102120000433451C4345106015601460F5D1039BD2
:1021300020241C600D6840F2140315F0800FC5F2D6
:102140000003F7D00EF1010EBEF5803FC3F800A0EA
:10215000CAD167465C46FFF787BAAA3A18BF012280
:10216000FFF738BB40F26400C2F2000031461B2288
:1021700000F050F80BF1010BFFF787BBAA3818BF2E
:102180000120FFF783B9B2F1AA0318BF0123FBE5D1
:10219000B2F1AA0318BF0123FFF7F6BB40F26400B7
:1021A000C2F2000031461A3200F034F80BF1010B94
:1021B00045E4002D7FF458AA40F2640042F6C44181
:1021C000C2F20000C0F2000100F07AF8FFF74CBA4A
:1021D00031461A3200F01EF808F10108FFF7BBB9CA
:1021E00040F26400C2F2000031461A3200F012F8E8
:1021F0000BF1010B23E631461A3200F00BF8FFF722
:1022000051BBAA3B18BF012358E4AA3B18BF0123C6
:1022100043E600BF40F26403C2F2000398422DE996
:10222000F00508D040F2240CC2F2000C604502D048
:10223000BDE8F00570470B1E18BF0123002A0CBF34
:10224000002303F00103002BF2D090F80D80D0F8AA
:1022500000A000259AF814C048EA0C081CF0200FD2
:1022600080F80D8023D00F2A24D910274E5D0468F2
:10227000012307F1FF3C26700CEA030605EB030C73
:102280004D19BB4211D236B1EE5C0223BB4226701F
:102290000CF1010C09D2EE5C01332670EE5C0133C7
:1022A000BB4226700CF1020CF5D36546D21A002A07
:1022B000D0D1BDE70AB11746D8E71346D21AF6E7E0
:1022C00040F26403C2F2000398422DE9F00508D001
:1022D00040F22402C2F20002904202D0BDE8F005B2
:1022E00070470029FAD00D78002DF7D0427B0468A2
:1022F0004FF0000C237D1A4313F0200FFAD04273E5
:1023000025B96346002DE9D09C46F3E7D0F800A03C
:10231000002601EB0C0801368AF8005018F8065028
:1023200006EB0C032F1E18BF01270F2E8CBF0027B2
:1023300007F00107002FE5D0EDE700BF40F264038E
:10234000C2F20003984270B409D040F2240CC2F2E9
:10235000000C604503D00023184670BC70470B1E6C
:1023600018BF0123002A0CBF002303F00103002B38
:10237000F1D0046890F80DC0237D43EA0C0C13F0F3
:10238000010F80F80DC0E6D000232578CD540468F5
:10239000467B94F814C001334CEA06069A4294BF77
:1023A00000250CF001054673002DEED1D4E700BFE7
:1023B00040F26403C2F20003984210B5044606D00E
:1023C00040F22400C2F20000844200D010BD226816
:1023D000117A01F00F0CBCF10C0FF7D801A151F8E4
:1023E0002CF000BF35240000CD2300002D24000078
:1023F0003D24000025240000CD2300001924000006
:10240000CD230000CD230000CD230000CD2300000C
:10241000CD23000025240000E369002BD6D0204600
:10242000984710BD236A002BF9D1CFE7636A002BD0
:10243000F5D1CBE7A36A002BF1D1C7E7283222F010
:102440007F4020F4700302F07041580101F1007CDC
:102450005CF8003013F0FF0F05D0E36A1BB1204693
:1024600098472268283202F0704022F07F4C00F139
:1024700000732CF47001181D4901435813F0FF0F2D
:1024800005D0236B1BB1204698472268283202F002
:10249000704322F07F4C03F100702CF4700108307F
:1024A0004901435813F0FF0F05D0636B1BB1204661
:1024B00098472268283202F0704322F07F4C2CF4B7
:1024C000700003F100730C334101585810F0FF0FF6
:1024D00005D0A36B1BB1204698472268283222F012
:1024E0007F4C02F0704101F100722CF47003103245
:1024F0005801115811F0FF0F3FF468AFE36B002B48
:102500003FF464AF2046984760E700BF684620F07C
:1025100007018D4601B540F22400C2F20000FFF72A
:1025200047FFBDE801408546704700BF684620F080
:1025300007018D4601B540F26400C2F20000FFF7CA
:1025400037FFBDE801408546704700BF40F2640395
:10255000C2F20003984270B407D040F22401C2F2E4
:102560000001884201D070BC70470469002CFAD089
:102570004369002BF7D0016890F80DC00A7D42EA4C
:102580000C0C12F0200F80F80DC0826929D09D1A22
:102590000F2D38D91025A41826786B1E0E7003F065
:1025A0000106012301329D42826119D946B194F896
:1025B00001C0022301329D4281F800C082610FD91F
:1025C00014F803C0013281F800C00133826114F8AD
:1025D00003C0013301329D4281F800C08261EFD80F
:1025E00043699A42BFD102680021131D23F07F4C3A
:1025F00003F0704202F100732CF4700204335201B4
:1026000099504161AFE7002DC5D1EAE72DE9F04FC0
:1026100040F264038FB0C2F200030B9248F2000252
:102620009842C4F2030204460D91906C4EF20011E0
:1026300000F0298140F48077CEF200014FF400666B
:102640009764C1F88061956C40F2000125F48070B8
:10265000C4F2010190640B222271216000220D4618
:102660000A7101F1100605F8082F01F1380A2AF065
:102670007F4B01F1340925F07F4726F07F4805F0B4
:10268000704506F070460AF0704ACDF810A0069525
:1026900029F07F4006F100750390019509F070491B
:1026A000049DCDF81C90DDF80C9005F1007529F41F
:1026B000700A0A952BF47009079DDDF818B0CDF863
:1026C00014900BF1007905F1007B049D01F1300CB1
:1026D0002CF07F4005F100750CF0704CCDF80CA08B
:1026E00004950CF100750CF1007AAC46039DCDF811
:1026F00024A06D010395059D28F470086D010595D2
:10270000069DCA4605F100750695019D4FEA4818D9
:1027100014350195079D27F4700705F1007507959D
:10272000049D7F0104350495654614350895099D7F
:10273000CDF830801C3509950A9D4FF001080C3505
:102740000AF1080A09F104090A9506F1007649F828
:1027500007800C9D4AF80780DDF818A010364AF86B
:1027600007807251DDF80CA0019E0BF1040B725131
:102770004BF80A20DDF81CB0059D4BF80A20049E9A
:10278000DDF820A020F4700040010CF1180C72510B
:10279000DDF824B04AF800204CF80020DDF828C00D
:1027A0009C424BF800204CF8052081F8442081F829
:1027B000482081F84C2079D040F22403C2F2000373
:1027C0009C4215D00B9D00200D7360730D9E6061BF
:1027D000A66025732061A06120626062E061A06252
:1027E000E06220636063A063E0630FB0BDE8F08F38
:1027F0000D9FA76000F00EF940F21801C2F200012F
:102800000A680D9ED700B7FBF6F2D3095708B3F557
:10281000803F28BF2168D5D2012B216850D901F112
:102820000C0020F07F4C00F0704606F100702CF494
:10283000700A4FEA4A1E0D465FFA83F8A7EB83172A
:102840001C300126C2F3C73A40F80E60A7EBC31351
:1028500081F804A005F8308B9A1825F07F4305F025
:10286000704523F47008A2EB470705F100751C358D
:102870004FEA4818FFB2002340F80E3045F80860D0
:1028800081F83C709EE740F08007CEF200014FF4E3
:1028900080669764C1F88061956C4FF0804125F0A7
:1028A000800090640A2222712160D7E60D9AA2600E
:1028B00000F0B0F840F21401C2F200010A68A0E78B
:1028C00001F10C0C2CF07F4E0CF070422EF47005D0
:1028D00002F100724FEA451E08460025DBB21C32A9
:1028E000012642F80E600D7100F8303B20F07F4C5D
:1028F00000F0704000F100762CF470031C365B0190
:1029000042F80E50F5505DE7F8B50446FFF77EFE3D
:1029100022684FF6FF7302F1340002F13005C0F275
:102920000F0305F07047383200F0704102EA0306E9
:1029300007F1007C1D4000EA030702F0704201F13C
:10294000007142F24D507B010CF10C0C02F100774A
:102950006D01002208317601C0F200004CF805201C
:102960006062CA50BA51F8BD48F20002C4F20302D4
:102970002DE9F005946C43F2A85644F48013936457
:10298000906C4EF2001340F0F0719164C0F20006BA
:10299000CEF2000300220127551CB45C16F805A0F6
:1029A00004F01F000AF01F0117FA00F017FA01F1F6
:1029B0004FFA8AF862B254094FEA581C6A1C04F1B3
:1029C000600A0CF1600820340CF1200C202A43F836
:1029D000240043F82A0043F82C1043F82810DBD1D8
:1029E00048F20003C4F203039A6C22F0F07098647A
:1029F000996C21F480129A64BDE8F005704700BF1D
:102A00001F289FBF43F2C853C0F2000353F8203081
:102A1000196070472DE9F00148F20003C4F2030386
:102A2000D3F8982083B012F0806F19D1D3F89800B2
:102A300010F4805F4ED043F2486CC0F2000C6A463E
:102A40009CE8030082E80300D3F89C1002AFC1F3B6
:102A50008216BD1915F8084C012C00F081806AD24D
:102A6000D3F8500147F640084FF2800310F0040FEE
:102A7000C0F27D18C0F2FA2340F21C0540F21404A3
:102A800040F2180040F208074AF6E07C40F20C01E0
:102A900040F2100240F2040608BF4346C2F20005AD
:102AA000C2F20004C2F20000C2F20007C0F21D2C04
:102AB000C2F20001C2F20002C2F20006C7F800C072
:102AC00033602B60236003600B60136003B0BDE8CC
:102AD000F001704740F21C054BF6807340F214047D
:102AE00045F6C07240F2180040F2080C4AF6E07851
:102AF00040F20C0740F2100140F20406C0F67603E3
:102B0000C0F23B42C2F20005C2F20004C2F2000071
:102B1000C2F2000CC0F21D28C2F20007C2F200018E
:102B2000C2F20006CCF800803A6033602B6022606D
:102B300002600B60CAE744F2402340F21C0540F2F9
:102B4000140440F2180040F208074AF6E07C40F214
:102B50000C0140F2100240F20406C0F20F039DE7A0
:102B600040F21C0540F2140440F2180040F208073D
:102B70004AF6E07C40F20C0140F2100240F20406FA
:102B8000C2F20005C2F20004C2F20000C2F2000765
:102B9000C0F21D2CC2F20001C2F20002C2F2000615
:102BA0004FF400438AE700BF48F20003C4F2030376
:102BB000D3F84C114FF6020291420BD1D3F8980092
:102BC00040F48072C3F89820D3F8981021F0806008
:102BD000C3F898004EF60053CEF200035A6942F44F
:102BE00000715961FDF726BC70B543F2686643F287
:102BF0006865C0F20006C0F20005761BB61006D06C
:102C0000002455F8243001349847A642F9D843F2FD
:102C1000686543F26C66C0F20005C0F20006761BE0
:102C200000F016FDB61006D0002455F8243001340B
:102C30009847A642F9D870BD0A0D20205458204666
:102C400049464F20554E44455252554E20494E5408
:102C500045525255505400000A0D20205458204629
:102C600049464F204F564552464C4F5720494E54E7
:102C700045525255505400000A0D2020545820430C
:102C80004F4C4C4953494F4E20494E544552525592
:102C9000505400000A0D20212121212121204641EC
:102CA000494C4544205258205041434B4554000064
:102CB0000A0D2050415353205258205041434B4558
:102CC000540000000A0D20414C4C205041434B451C
:102CD0005453205041535345442E2E2E200A0D00AC
:102CE0000A0D0A0D2020465047412052657669732F
:102CF000696F6E2052656769737465723A2020208F
:102D000020202020307800000A0D20204650474126
:102D10002053637261746368205061642052656758
:102D200069737465723A202020203078000000001A
:102D30000A0D20204650474120436F6E74726F6C1D
:102D40002052656769737465723A20202020202024
:102D500020203078000000000A0D20204650474116
:102D600020496E746572727570742052656769735C
:102D70007465723A20202020202030780000000066
:102D80000A0D20204650474120496E7465727275C5
:102D90007074204D61736B2052656769737465723E
:102DA0003A203078000000000A0D202046504741AC
:102DB000205374617475732052656769737465720A
:102DC0003A20202020202020202030780000000001
:102DD0000A0D202046504741204869676820416419
:102DE00064726573732052656769737465723A2003
:102DF00020203078000000000A0D20204650474176
:102E0000204C6F772041646472657373205265674C
:102E100069737465723A2020202030780000000029
:102E20000A0D2048696768204164647265737320E5
:102E30004661696C2020000020204650474120490F
:102E40006E7465727275707420526567697374650B
:102E5000723A2020203078002020202045787065AC
:102E6000637465643A202020307800002020202000
:102E700041637475616C3A202020307800000000B6
:102E80000A0D204C6F77204164647265737320468D
:102E900061696C20202000000A0D204869676820C5
:102EA0004C656E677468204661696C2020200000C4
:102EB0000A0D204C6F77204C656E67746820466160
:102EC000696C2020202000000A0D204461746120DC
:102ED0004661696C20202020202020202020000036
:102EE0000A0D0A0D205072657373206E756D626550
:102EF0007220666F7220416374696F6E200A0D0A3A
:102F00000D203120205265616420465047412052F7
:102F10006567697374657273200A0D203220205230
:102F20006573657420526563656976652046494618
:102F30004F200A0D2033202052657365742054728F
:102F4000616E736D6974204649464F200A0D203426
:102F500020205472616E736D69742053696E676CC2
:102F600065205061636B6574202D20494E54455295
:102F70004E414C204C6F6F706261636B200A0D20D4
:102F8000352020526563656976652053696E676CEC
:102F900065205061636B657420616E6420436865D1
:102FA000636B202D20494E5445524E414C204C6FAE
:102FB0006F706261636B200A0D203620204C6F6FAA
:102FC000706261636B205061636B6574732066721D
:102FD0006F6D203820746F20313032332042797485
:102FE0006573202620436865636B202D20494E546D
:102FF00045524E414C204C6F6F706261636B200AEA
:103000000D203720205472616E736D6974205369EE
:103010006E676C65205061636B6574202D20455888
:103020005445524E414C204C6F6F706261636B206F
:103030000A0D203820205265636569766520536942
:103040006E676C65205061636B657420616E6420EF
:10305000436865636B202D2045585445524E414CC2
:10306000204C6F6F706261636B200A0D2039202045
:103070005472616E736D6974205061636B65747313
:103080002066726F6D203820746F2031303233200B
:103090004279746573202620436865636B202D2078
:1030A00045585445524E414C204C6F6F70626163DD
:1030B0006B200A0D206120205472616E736D69745B
:1030C00020426F617264203220426F61726420532B
:1030D000696E676C65205061636B6574200A0D2012
:1030E0006220205265636569766520426F61726473
:1030F000203220426F6172642053696E676C6520D4
:103100005061636B657420616E6420436865636B16
:10311000200A0D206320205472616E736D69742043
:10312000426F617264203220426F617264204D757B
:103130006C7469706C65205061636B657473200AF0
:103140000D206420205265636569766520426F61B9
:103150007264203220426F617264204D756C746914
:10316000706C65205061636B657473200A0D206577
:1031700020205472616E736D6974205061636B65B9
:103180007420426C61737465722E200A0D206620D3
:103190002052657365742046504741204C6F676923
:1031A000632E200A0D20672020426C6173746572C3
:1031B000205061636B6574204C6F6F706261636B4C
:1031C000200A0D206920205472616E736D6974208D
:1031D00042324220426C6173746572205061636BAD
:1031E0006574200A0D206A20205265636569766542
:1031F0002042324220426C617374657220506163D8
:103200006B6574200A0D00000A0D0A0D0000000015
:103210000A0D0A0D20526573657420526563656955
:103220007665204649464F2E2E2E200A0D000000BE
:103230000A0D0A0D205265736574205472616E7315
:103240006D6974204649464F2E2E2E200A0D00002F
:103250000A0D0A0D205472616E736D697474696E83
:10326000672053696E676C65205061636B657420DD
:103270002D20496E7465726E616C204C6F6F7062A8
:1032800061636B2E2E2E200A0D0000000A0D0A0D20
:103290002052656365697665205369676E6C6520A9
:1032A0005061636B657420616E6420436865636B75
:1032B000202D20496E7465726E616C204C6F6F70AA
:1032C0006261636B2E2E2E200A0D00000A0D0A0D7E
:1032D000204C6F6F70696E67204261636B20506194
:1032E000636B6574732052616E67696E6720696EE7
:1032F0002053697A652066726F6D20382042797498
:10330000657320746F2032303038204279746573D1
:10331000202D20496E7465726E616C204C6F6F7049
:103320006261636B2E2E2E20200A0D000A0D0A0DFD
:10333000205472616E736D697474696E672053698D
:103340006E676C65205061636B6574202D20455855
:103350005445524E414C204C6F6F706261636B2E2E
:103360002E2E200A0D0000000A0D0A0D2052656362
:10337000656976652053696E676C65205061636B83
:10338000657420616E6420436865636B202D204561
:10339000585445524E414C204C6F6F706261636BC4
:1033A0002E2E2E200A0D00000A0D0A0D204C6F6FE4
:1033B00070696E67204261636B205061636B657456
:1033C000732052616E6765203820746F2032303070
:1033D00038204279746573202D2045585445524E4B
:1033E000414C204C6F6F706261636B2E2E2E20203B
:1033F0000A0D00000A0D0A0D205472616E736D698A
:1034000074696E6720426F61726420746F20426F2E
:103410006172642053696E676C65205061636B65EF
:10342000742E2E2E200A0D000A0D0A0D20526563FF
:10343000656976696E6720426F61726420746F20DF
:10344000426F6172642053696E676C6520506163DE
:103450006B657420616E6420436865636B2E2E2E4D
:10346000200A0D000A0D0A0D205472616E736D69F9
:103470007474696E6720426F61726420746F2042B9
:103480006F617264204D756C7469706C6520506159
:10349000636B6574732E2E2E200A0D000A0D0A0D23
:1034A00020526563656976696E6720426F61726458
:1034B00020746F20426F617264204D756C74697066
:1034C0006C65205061636B6574732E2E2E200A0D7F
:1034D000000000000A0D0A0D205472616E736D69C0
:1034E00074205061636B657420426C617374657203
:1034F0002E200A0D000000000A0D0A0D20526573EF
:1035000065742046504741204C6F6769632E200A3E
:103510000D0000000A0D0A0D20426C617374657283
:10352000205061636B6574204C6F6F706261636BD8
:10353000200A0D000A0D0A0D205472616E736D6928
:10354000742042324220426C617374657220506173
:10355000636B6574200A0D000A0D0A0D2052656325
:10356000656976652042324220426C6173746572EF
:10357000205061636B6574200A0D00000A0D0A0D6E
:1035800020507265737320616E79206E756D62656F
:10359000722E2E2E200A0D0A0D0000000A0D204565
:1035A0006E7465723A20200032333435363738393C
:1035B0003A3B3C3D3E3F40414243444546474849F3
:1035C0004A4B4C4D4E4F50510030014004300140A9
:1035D000083001400C3001401030014014300140EF
:1035E000183001401C30014020300140243001409F
:1035F000283001402C30014030300140343001404F
:10360000383001403C3001404030014044300140FE
:10361000483001404C3001405030014054300140AE
:10362000583001405C30014060300140643001405E
:10363000683001406C30014070300140743001400E
:10364000783001407C300140000100010202030398
:10365000F8B500BFF8BC08BC9E467047F8B500BF7F
:10366000F8BC08BC9E467047D5040000C1040000A9
:103670000000000080BF7608E0AF1D02C05F3B0481
:1036800080BF7608C05F3B04C05F3B0480BF760804
:040000030000019167
:00000001FF
