S02100006D32733031305F736F6D5F73625F4D53535F434D335F6170702E737265636A
S3152000000000000120910100207F03002081030020B1
S3152000001083030020850300208703002000000000C2
S3152000002000000000000000000000000089030020FE
S315200000308B030020000000008D0300208F0300208A
S3152000004091030020930300209503002097030020AE
S31520000050990300209B0300209D0300209F0300207E
S31520000060A1030020A3030020912B0020B52B002004
S31520000070A9030020AB030020AD030020AF0300201E
S31520000080B1030020B3030020B5030020B7030020EE
S31520000090B9030020BB030020BD030020BF030020BE
S315200000A0C1030020C3030020C5030020C70300208E
S315200000B0C9030020CB030020CD030020CF0300205E
S315200000C0D1030020D3030020D5030020D70300202E
S315200000D0D9030020DB030020DD030020DF030020FE
S315200000E0E1030020E3030020E5030020E7030020CE
S315200000F0E9030020EB030020ED030020EF0300209E
S31520000100F1030020F3030020F5030020F70300206D
S31520000110F9030020FB030020FD030020FF0300203D
S315200001200104002003040020050400200704002009
S31520000130090400200B0400200D0400200F040020D9
S3152000014011040020130400201504002017040020A9
S31520000150190400201B0400201D0400201F04002079
S315200001602104002023040020250400202704002049
S31520000170290400202B0400202D0400202F04002019
S31520000180310400203304002000000000000000009D
S315200001904FF0000BDFF8BE020068DFF8B6120968E0
S315200001A001F0030100F01C00142801D14BF0020BD2
S315200001B0002901D04BF0010BBBF1000F05D0A74859
S315200001C0A749DFF8722200F09FF8A64880470BF077
S315200001D0020ABAF1000F0CD0DFF86E02DFF86E12B9
S315200001E002680B680FB44FF000024FF0FF03026065
S315200001F00B609D489D4A9E4B022808D1DFF83E128F
S315200002000A60DFF842120A60DFF836120B60012816
S3152000021008D1DFF82E120A60DFF82A120A60DFF80A
S315200002201E120B609348002809D193489349944A9B
S3152000023000F032F893489449944A00F02DF89448F7
S315200002409449954A00F028F894489549DFF8E62124
S3152000025000F05AF8BBF1000F12D092489249DFF80D
S31520000260DA2100F051F80BF0020ABAF1000F07D09C
S315200002700FBC02600B6000BFAFF30080AFF30080BD
S31520000280DFF828020FF2030E00474FF000004FF070
S315200002900001DFF81CF2FEE72DE9F841884225D05F
S315200002A0B2EB010200D5FEE740EA010313F0030397
S315200002B002D000F01DF819E04FF00003904612110D
S315200002C0F7D09A421CBFF0C8F0C103F10103F8D160
S315200002D008F00F08B8F1000F08D004780C7000F170
S315200002E0010001F10101B8F10108F6D1BDE8F8815C
S315200002F008B54FF0000303780B7000F1010001F1FF
S315200003000101013AF7D108BD884237D000F0030633
S31520000310002E14D04FF00405A5EB06044FF0080775
S3152000032007FB06F8914669FA08F9002C07D080F8F1
S31520000330009069FA07F900F10100013CF5E74FF05A
S3152000034000060F46091A8846091191461446154695
S31520000350B14206D018BFA0E8340206F10106B14228
S31520000360F8D108F00F08B8F1000F07D002704FEA55
S31520000370322200F10100B8F10108F4E77047FEE7E8
S31520000380FEE7FEE7FEE7FEE7FEE7FEE7FEE7FEE71F
S31520000390FEE7FEE7FEE7FEE7FEE7FEE7FEE7FEE70F
S315200003A0FEE7FEE7FEE7FEE7FEE7FEE7FEE7FEE7FF
S315200003B0FEE7FEE7FEE7FEE7FEE7FEE7FEE7FEE7EF
S315200003C0FEE7FEE7FEE7FEE7FEE7FEE7FEE7FEE7DF
S315200003D0FEE7FEE7FEE7FEE7FEE7FEE7FEE7FEE7CF
S315200003E0FEE7FEE7FEE7FEE7FEE7FEE7FEE7FEE7BF
S315200003F0FEE7FEE7FEE7FEE7FEE7FEE7FEE7FEE7AF
S31520000400FEE7FEE7FEE7FEE7FEE7FEE7FEE7FEE79E
S31520000410FEE7FEE7FEE7FEE7FEE7FEE7FEE7FEE78E
S31520000420FEE7FEE7FEE7FEE7FEE7FEE7FEE7FEE77E
S31520000430FEE7FEE7704700000000A2A2A2A200800D
S3152000044003400880034010800340308003403480FE
S3152000045003403880034018080240000000F00020C6
S31520000460000001207534002000000000000000007C
S315200004700100000000000000000000200000002015
S3152000048090010020C0040020C0040020304200203B
S3152000049030420020304200205042002050420020AE
S315200004A0E0420020E042002000F000204D370020EE
S315200004B0050A0020AFF30080AFF30080AFF3008081
S315200004C044F25023C2F200031A780AB901201870A8
S315200004D0704700BF44F23020C2F2000008B503681E
S315200004E02BB140F20003C0F2000303B1984708BDC8
S315200004F080B483B000AF786043F20003C4F20103F6
S315200005007A68C3F8882007F10C07BD4680BC70477F
S3152000051080B400AF43F20003C4F20103D3F888305D
S315200005201846BD4680BC704780B400AF40F6000335
S31520000530C4F202034FF000021A6040F60003C4F230
S31520000540020342F2DE729A6040F60003C4F202030E
S3152000055040F20F32DA6040F60003C4F202034FF095
S3152000056002021A6140F60003C4F202034FF00002B1
S315200005705A6140F60003C4F202034FF0C1029A61A9
S3152000058040F60003C4F2020340F69F12DA6140F6F9
S315200005900003C4F202034FF000021A6240F6000381
S315200005A0C4F2020343F233325A6240F60003C4F225
S315200005B002034FF6FF729A6240F60003C4F202036A
S315200005C047F27772DA6240F60003C4F2020340F67D
S315200005D0FF721A6340F60003C4F202034FF00102D1
S315200005E05A6340F60003C4F2020344F242229A639D
S315200005F040F60003C4F202034FF00802DA6340F625
S315200006000003C4F202034FF033021A6440F60003DB
S31520000610C4F202034FF020025A6440F60003C4F2EB
S3152000062002034FF000029A6440F60003C4F202036C
S315200006304FF00002DA6440F60003C4F202034FF0E2
S31520000640C0021A6540F60003C4F202034FF02302EB
S315200006505A6540F60003C4F2020340F235229A6539
S3152000066040F60003C4F202034FF06402DA6540F656
S315200006700003C4F202034FF484721A6640F60003A4
S31520000680C4F202034FF4BC725A6640F60003C4F269
S3152000069002034FF033029A6640F60003C4F20203C7
S315200006A041F64712DA6640F60003C4F202034FF021
S315200006B010021A6740F60003C4F202034FF000024C
S315200006C05A6740F60003C4F202034FF44C529A676D
S315200006D040F60003C4F202034FF00002DA6740F648
S315200006E00003C4F202034FF00002C3F8802040F654
S315200006F00003C4F2020340F21452C3F8842040F6E9
S315200007000003C4F202034FF00002C3F8882040F62B
S315200007100003C4F202034FF40072C3F88C2040F6A3
S315200007200003C4F202034FF04002C3F8902040F6C3
S315200007300003C4F202034FF01202C3F8942040F6DD
S315200007400003C4F202034FF00202C3F8982040F6D9
S315200007500003C4F202034FF48042C3F89C2040F603
S315200007600003C4F2020348F2F802C3F8A02040F6C0
S315200007700003C4F202034FF00702C3F8A42040F698
S315200007800003C4F2020348F2F802C3F8A82040F698
S315200007900003C4F202034FF00702C3F8AC2040F670
S315200007A00003C4F202034FF40072C3F8B02040F6EF
S315200007B00003C4F202034FF00102C3F8B42040F64E
S315200007C00003C4F202034FF00002C3F8B82040F63B
S315200007D00003C4F202034FF00302C3F8BC2040F624
S315200007E00003C4F202034FF00302C3F8C02040F610
S315200007F00003C4F202034FF04002C3F8C42040F6BF
S315200008000003C4F202034FF00002C3F8C82040F6EA
S315200008100003C4F202034FF00002C3F8CC2040F6D6
S315200008200003C4F202034FF00002C3F8D02040F6C2
S315200008300003C4F202034FF00002C3F8D42040F6AE
S315200008400003C4F2020340F20932C3F8D82040F66E
S315200008500003C4F202034FF00002C3F8E02040F682
S315200008600003C4F202034FF00002C3F8402140F611
S315200008700003C4F202034FF00002C3F81C2240F624
S315200008800003C4F202034FF08002C3F8242240F68C
S315200008900003C4F202034FF00302C3F8302240F6ED
S315200008A00003C4F202034FF00002C3F8382240F6D8
S315200008B00003C4F202034FF00002C3F8402240F6C0
S315200008C00003C4F202034FF00B02C3F8482240F69D
S315200008D00003C4F202034FF04002C3F85C2240F644
S315200008E00003C4F2020340F20142C3F8602240F63C
S315200008F00003C4F2020344F21002C3F8642240F655
S315200009000003C4F202034FF00002C3F8682240F647
S315200009100003C4F202034FF00102C3F8802240F61E
S315200009200003C4F202034FF04002C3F8982240F6B7
S315200009300003C4F2020340F20142C3F89C2240F6AF
S315200009400003C4F2020344F21002C3F8A02240F6C8
S315200009500003C4F202034FF04002C3F8D82240F647
S315200009600003C4F2020340F20142C3F8DC2240F63F
S315200009700003C4F2020344F21002C3F8E02240F658
S315200009800003C4F202034FF02102C3F8FC2240F612
S315200009900003C4F202034FF00302C3F8042340F617
S315200009A00003C4F202034FF00102C3F8082340F605
S315200009B00003C4F202034FF00102C3F80C2340F6F1
S315200009C00003C4F202034FF00902C3F8142340F6D1
S315200009D00003C4F202034FF00102C3F81C2340F6C1
S315200009E00003C4F202034FF001021A6040F600032E
S315200009F0C4F20203D3F8E430002BF7D0BD4680BC06
S31520000A00704700BF80B5ADF58A6D02AF4FF0204329
S31520000A10C7F844343A4643F65863C2F20003944674
S31520000A2093E807008CE8070040F21403C5F20003A0
S31520000A30C7F80C3440F21003C5F20003C7F810348F
S31520000A4040F23003C5F20003C7F8143440F23403F1
S31520000A50C5F20003C7F8183402F098FC4FF00000E6
S31520000A604FF0030102F0E8FC4FF001004FF00501C2
S31520000A7002F0E2FC4FF002004FF0020102F0DCFC33
S31520000A804FF003004FF0030102F0D6FC4FF00400B4
S31520000A904FF0030102F0D0FC4FF005004FF00501A6
S31520000AA002F0CAFC4FF006004FF0050102F0C4FC2C
S31520000AB04FF007004FF0050102F0BEFC4FF0080092
S31520000AC04FF0050102F0B8FC4FF009004FF002018B
S31520000AD002F0B2FC4FF00A004FF0020102F0ACFC2B
S31520000AE04FF00B004FF0050102F0A6FC4FF00C0072
S31520000AF04FF0030102F0A0FC4FF00D004FF005016E
S31520000B0002F09AFC4FF00E004FF0030102F094FC25
S31520000B104FF00F004FF0030102F08EFC4FF0100053
S31520000B204FF0030102F088FC4FF011004FF0030153
S31520000B3002F082FC4FF012004FF0030102F07CFC21
S31520000B404FF013004FF0020102F076FC4FF0140034
S31520000B504FF0050102F070FC4FF015004FF0050133
S31520000B6002F06AFC4FF016004FF0050102F064FC1B
S31520000B704FF018004FF0050102F05EFC4FF019000F
S31520000B804FF0030102F058FC4FF01A004FF003011A
S31520000B9002F052FC4FF01C004FF0050102F04CFC15
S31520000BA04FF01F004FF0030102F046FC44F2942060
S31520000BB0C2F200004FF461414FF0030201F060FEE3
S31520000BC044F29420C2F2000043F29C71C2F200016A
S31520000BD001F00AFF3B4644F29420C2F20000194677
S31520000BE04FF00C0201F08EFEFFF792FC0346C7F889
S31520000BF04034D7F8403423F08053C7F84034D7F830
S31520000C004004FFF775FCFFF78FFC00F0A7FE00F00D
S31520000C10CBFED7F80C341B68C7F83434D7F8143415
S31520000C204FF002021A60D7F818344FF0A9021A6062
S31520000C30D7F810344FF000021A604FF00103C7F8BE
S31520000C403C344FF00803C7F824344FF4FA63C7F84E
S31520000C503034D7F83034C7F82C3440F2A923C7F8FB
S31520000C60283400E000BF07F11803A3F10C0344F277
S31520000C709420C2F2000019464FF4806201F01AFF58
S31520000C800346C7F8203407F11803A3F10C031B7899
S31520000C9087F81F34D7F82034002BE3D007F1180348
S31520000CA0A3F10C0344F29420C2F200001946D7F8AF
S31520000CB0202401F027FE97F81F34A3F13103392BA6
S31520000CC000F2118401A252F823F000BFB50D0020D6
S31520000CD0F70D0020390E00207B0E0020DD0E0020AF
S31520000CE02B0F00209B0F0020FD0F00204B10002013
S31520000CF0E7140020E7140020E7140020E714002062
S31520000D00E7140020E7140020E7140020E714002051
S31520000D10E7140020E7140020E7140020E714002041
S31520000D20E7140020E7140020E7140020E714002031
S31520000D30E7140020E7140020E7140020E714002021
S31520000D40E7140020E7140020E7140020E714002011
S31520000D50E7140020E7140020E7140020E714002001
S31520000D60E7140020E7140020E7140020E7140020F1
S31520000D70E7140020E7140020E7140020E7140020E1
S31520000D80E7140020E7140020E7140020BB10002001
S31520000D90291100208B11002005120020731200203B
S31520000DA00513002047130020E7140020BF1300205E
S31520000DB04714002000F0BAFB44F29420C2F200004F
S31520000DC043F6C421C2F2000101F00EFE44F2942043
S31520000DD0C2F2000043F29C71C2F2000101F004FE4F
S31520000DE03B4644F29420C2F2000019464FF00C0212
S31520000DF001F088FD97E344F29420C2F2000043F606
S31520000E00CC21C2F2000101F0EFFD00F0CDFD44F24D
S31520000E109420C2F2000043F29C71C2F2000101F05C
S31520000E20E3FD3B4644F29420C2F2000019464FF0FF
S31520000E300C0201F067FD76E344F29420C2F2000032
S31520000E4043F6EC21C2F2000101F0CEFD00F086FD52
S31520000E5044F29420C2F2000043F29C71C2F20001D7
S31520000E6001F0C2FD3B4644F29420C2F2000019462E
S31520000E704FF00C0201F046FD55E344F29420C2F2F5
S31520000E80000043F60C31C2F2000101F0ADFD4FF037
S31520000E900103C7F838344FF00003C7F83C34D7F8BD
S31520000EA02804D7F82414D7F83824D7F83C3400F08F
S31520000EB063FC44F29420C2F2000043F29C71C2F219
S31520000EC0000101F091FD3B4644F29420C2F200005D
S31520000ED019464FF00C0201F015FD24E344F294204C
S31520000EE0C2F2000043F64831C2F2000101F07CFD57
S31520000EF0D7F82804D7F824144FF0000200F09AFD02
S31520000F0044F29420C2F2000043F29C71C2F2000126
S31520000F1001F06AFD3B4644F29420C2F200001946D5
S31520000F204FF00C0201F0EEFCFDE244F29420C2F2F6
S31520000F30000043F68831C2F2000101F055FD4FF062
S31520000F400103C7F838344FF00103C7F83C34D7F80B
S31520000F503034C7F82C34D7F83C340093D7F828041B
S31520000F60D7F82414D7F82C24D7F8383400F0B4FE58
S31520000F7044F29420C2F2000043F29C71C2F20001B6
S31520000F8001F032FD3B4644F29420C2F2000019469D
S31520000F904FF00C0201F0B6FCC5E244F29420C2F2F6
S31520000FA0000043F6E831C2F2000101F01DFD4FF0CA
S31520000FB00203C7F838344FF00103C7F83C34D7F89A
S31520000FC02804D7F82414D7F83824D7F83C3400F06E
S31520000FD0D3FB44F29420C2F2000043F29C71C2F289
S31520000FE0000101F001FD3B4644F29420C2F20000CC
S31520000FF019464FF00C0201F085FC94E244F294204D
S31520001000C2F2000043F62441C2F2000101F0ECFCDA
S31520001010D7F82804D7F824144FF0000200F00AFD70
S3152000102044F29420C2F2000043F29C71C2F2000105
S3152000103001F0DAFC3B4644F29420C2F20000194645
S315200010404FF00C0201F05EFC6DE244F29420C2F2F5
S31520001050000043F66441C2F2000101F0C5FC4FF0E6
S315200010600203C7F838344FF00103C7F83C34D7F8E9
S315200010703034C7F82C34D7F83C340093D7F82804FA
S31520001080D7F82414D7F82C24D7F8383400F024FEC7
S3152000109044F29420C2F2000043F29C71C2F2000195
S315200010A001F0A2FC3B4644F29420C2F2000019460D
S315200010B04FF00C0201F026FC35E244F29420C2F2F5
S315200010C0000043F6B041C2F2000101F08DFC40F26F
S315200010D0F933C7F824344FF42A73C7F828344FF06D
S315200010E00103C7F83C34D7F82804D7F82414D7F8D6
S315200010F03C2400F031FE44F29420C2F2000043F278
S315200011009C71C2F2000101F06FFC3B4644F2942030
S31520001110C2F2000019464FF00C0201F0F3FB40F238
S31520001120A923C7F82834FEE144F29420C2F2000035
S3152000113043F6E441C2F2000101F056FC40F2F933D5
S31520001140C7F824344FF42A73C7F82834D7F828046C
S31520001150D7F8241400F092FE44F29420C2F2000044
S3152000116043F29C71C2F2000101F03EFC3B4644F280
S315200011709420C2F2000019464FF00C0201F0C2FB87
S3152000118040F2A923C7F82834CDE144F29420C2F2D4
S31520001190000043F62051C2F2000101F025FC4FF079
S315200011A00803C7F824344FF42A73C7F828344FF0BD
S315200011B00103C7F83C34D7F83034C7F82C34D7F8B5
S315200011C02804D7F82414D7F82C24D7F83C3401F077
S315200011D04DF944F29420C2F2000043F29C71C2F20F
S315200011E0000101F001FC3B4644F29420C2F20000CB
S315200011F019464FF00C0201F085FB40F2A923C7F8EF
S31520001200283490E144F29420C2F2000043F658516B
S31520001210C2F2000101F0E8FB4FF00803C7F82434BE
S315200012204FF42A73C7F82834D7F83034C7F82C344B
S31520001230D7F82804D7F82414D7F82C2401F062F91B
S3152000124044F29420C2F2000043F29C71C2F20001E3
S3152000125001F0CAFB3B4644F29420C2F20000194634
S315200012604FF00C0201F04EFB40F2A923C7F82834B8
S3152000127059E144F29420C2F2000043F69051C2F2A2
S31520001280000101F0B1FB4FF40073C7F828344FF486
S315200012907A73C7F824344FF48033C7F82C344FF0D0
S315200012A00103C7F83C34D7F82804D7F82414D7F814
S315200012B02C24D7F83C3401F05DF944F29420C2F294
S315200012C0000043F29C71C2F2000101F08DFB3B4607
S315200012D044F29420C2F2000019464FF00C0201F0AD
S315200012E011FB40F2A923C7F828344FF00803C7F8AA
S315200012F02434D7F83034C7F82C344FF00103C7F81C
S315200013003C3410E144F29420C2F2000043F6B4517A
S31520001310C2F2000101F068FB00F068FB44F2942061
S31520001320C2F2000043F29C71C2F2000101F05CFBA4
S315200013303B4644F29420C2F2000019464FF00C02BC
S3152000134001F0E0FAEFE044F29420C2F2000043F606
S31520001350D051C2F2000101F047FB4FF00203C7F85B
S3152000136038344FF00103C7F83C3440F2A923C7F8BC
S315200013702834D7F83034C7F82C34D7F83C340093C7
S31520001380D7F82804D7F82414D7F82C24D7F83834DB
S3152000139001F038F944F29420C2F2000043F29C7125
S315200013A0C2F2000101F020FB3B4644F29420C2F237
S315200013B0000019464FF00C0201F0A4FAB3E044F203
S315200013C09420C2F2000043F6F051C2F2000101F06F
S315200013D00BFB4FF00003C7F838344FF00103C7F872
S315200013E03C3440F2A923C7F828344FF00803C7F845
S315200013F024344FF00F03C7F82C34D7F83C3400932D
S31520001400D7F82804D7F82414D7F82C24D7F838345A
S3152000141001F05AF944F29420C2F2000043F29C7182
S31520001420C2F2000101F0E0FA3B4644F29420C2F2F7
S31520001430000019464FF00C0201F064FA40F2A9238D
S31520001440C7F828346FE044F29420C2F2000043F635
S315200014501461C2F2000101F0C7FA40F2A923C7F8CD
S315200014602834D7F814344FF002021A60D7F818340B
S315200014704FF0A9021A60D7F810344FF000021A6014
S315200014804FF00803C7F824344FF00F03C7F82C3465
S31520001490D7F82804D7F82414D7F82C2401F038F9E3
S315200014A044F29420C2F2000043F29C71C2F2000181
S315200014B001F09AFA3B4644F29420C2F20000194603
S315200014C04FF00C0201F01EFA40F2A923C7F8283487
S315200014D0D7F814344FF002021A60D7F818344FF0B8
S315200014E0A9021A601FE044F29420C2F2000043F6DB
S315200014F03861C2F2000101F077FA44F29420C2F278
S31520001500000043F29C71C2F2000101F06DFA3B46E5
S3152000151044F29420C2F2000019464FF00C0201F06A
S31520001520F1F9FFF7A0BBFFF79EBB00BF80B590B0D7
S3152000153000AF4FF0A043FB6040F20403C5F2000366
S315200015403B6140F21003C5F200037B6140F21403B5
S31520001550C5F20003BB6140F21803C5F20003FB612C
S3152000156040F21C03C5F200033B6240F23003C5F291
S315200015700003FB6240F23403C5F200033B6344F2EE
S315200015809420C2F2000043F66461C2F2000101F029
S315200015902BFAFB681B687B637B6B07F10402104602
S315200015A0194600F051FB07F1040344F29420C2F2DD
S315200015B0000019464FF0080201F0A4F944F29420E5
S315200015C0C2F2000043F68C61C2F2000101F00CFA6F
S315200015D03B691B687B637B6B07F104021046194647
S315200015E000F032FB07F1040344F29420C2F200001B
S315200015F019464FF0080201F085F944F29420C2F210
S31520001600000043F6B461C2F2000101F0EDF97B69F6
S315200016101B687B637B6B07F104021046194600F0BA
S3152000162013FB07F1040344F29420C2F2000019468A
S315200016304FF0080201F066F944F29420C2F200004D
S3152000164043F6DC61C2F2000101F0CEF9BB691B68EA
S315200016507B637B6B07F104021046194600F0F4FA0F
S3152000166007F1040344F29420C2F2000019464FF019
S31520001670080201F047F944F29420C2F2000043F632
S315200016800471C2F2000101F0AFF9FB691B687B63AC
S315200016907B6B07F104021046194600F0D5FA07F1D4
S315200016A0040344F29420C2F2000019464FF00802C7
S315200016B001F028F944F29420C2F2000043F62C717E
S315200016C0C2F2000101F090F93B6A1B687B637B6BD9
S315200016D007F104021046194600F0B6FA07F1040392
S315200016E044F29420C2F2000019464FF0080201F09D
S315200016F009F944F29420C2F2000043F65471C2F272
S31520001700000101F071F9FB6A1B687B637B6B07F1B3
S3152000171004021046194600F097FA07F1040344F232
S315200017209420C2F2000019464FF0080201F0EAF8B0
S3152000173044F29420C2F2000043F67C71C2F200010A
S3152000174001F052F93B6B1B687B637B6B07F104024C
S315200017501046194600F078FA07F1040344F2942063
S31520001760C2F2000019464FF0080201F0CBF807F14B
S315200017704007BD4680BD00BF80B598B000AFF86079
S31520001780B9607A603B604FF0A0437B6140F204036E
S31520001790C5F20003BB6140F20803C5F20003FB61FA
S315200017A040F20C03C5F200033B6240F21003C5F27F
S315200017B000037B6240F21403C5F20003BB6240F2D1
S315200017C01803C5F20003FB6240F21C03C5F20003B6
S315200017D03B6340F23003C5F200037B6340F23403DF
S315200017E0C5F20003BB63BB68A3F10603FB63FB687A
S315200017F04FEA1323BB64FB6803F0FF03FB647B6B98
S31520001800BA6C1A60BB6BFA6C1A60BB684FEA13237A
S315200018103B65FB684FEA93033B64FB684FEA8313FF
S315200018207B64FB693A6C1A60FB697A6C1A60FB6907
S315200018303A6D1A60FB69BA681A604FF000037B653F
S3152000184006E0FB697A6D1A607B6D03F101037B6507
S31520001850FB6B03F101027B6D9A42F2D87B68012B68
S3152000186004D17B6A4FF030021A600BE07B68022BB2
S3152000187004D17B6A4FF022021A6003E07B6A4FF0A4
S3152000188020021A604FF00003BB6549E0BB6A1B6863
S31520001890BB65BB6D03F02003002B0FD0BB6A4FF056
S315200018A020021A6044F29420C2F2000043F6A4718A
S315200018B0C2F2000101F098F800F050F8BB6D03F079
S315200018C01003002B0FD0BB6A4FF010021A6044F2AF
S315200018D09420C2F2000043F6C471C2F2000101F066
S315200018E083F800F03BF8BB6D03F00103DBB2002B5D
S315200018F00DD0BB6A4FF001021A6044F29420C2F266
S31520001900000043F6E471C2F2000101F06DF8BB6DF0
S3152000191003F08003002B03D0BB6A4FF080021A60CD
S31520001920BB6D03F0B103002BB0D03B68002B11D167
S315200019304FF000037B6506E0BB6A1B68FB657B6D89
S3152000194003F101037B657A6D4FF6FE73C0F2030344
S315200019509A42F1D907F16007BD4680BD80B485B0B3
S3152000196000AF40F21003C5F200037B607B684FF0A6
S3152000197090021A607B681B68BB604FF00003FB6017
S3152000198003E0FB6803F10103FB60FA6840F2FF43C2
S315200019909A42F6D97B684FF010021A6007F11407B5
S315200019A0BD4680BC704700BF80B483B000AF40F214
S315200019B01003C5F200033B603B684FF050021A60EB
S315200019C04FF000037B6003E07B6803F101037B603B
S315200019D07A6840F2FF139A42F6D93B684FF010021C
S315200019E01A6007F10C07BD4680BC704780B582B0EF
S315200019F000AF4FF08050FEF77BFD4FF000037B6079
S31520001A0003E07B6803F101037B607A6840F2FF43C1
S31520001A109A42F6D9FEF77CFD03463B603B6823F0ED
S31520001A2080533B603868FEF763FD07F10807BD4623
S31520001A3080BD00BF90B5A1B000AFF860B9607A60F4
S31520001A4044F25C03C2F2000307F1280C1C460FCCBB
S31520001A50ACE80F0094E80700ACE80300ACF80020DF
S31520001A600CF1020C4FEA12438CF8003044F2780352
S31520001A70C2F2000307F1140C1C460FCCACE80F0091
S31520001A802368ACF8003040F20C03C5F200037B64F7
S31520001A9040F21C03C5F20003BB6440F21403C5F2F6
S31520001AA00003FB64BB68A3F106033B65FB684FEAB2
S31520001AB093037B65FB684FEA831303F0FF03BB6543
S31520001AC0BB684FEA1323FB65BB6803F0FF033B6645
S31520001AD04FF00003BB674FF000037B677B6F03F07B
S31520001AE00803002B0DD0FB6C4FF008021A6044F25D
S31520001AF09420C2F2000044F20001C2F2000100F07C
S31520001B0073FF7B6F03F00403002B0DD0FB6C4FF0AB
S31520001B1004021A6044F29420C2F2000044F220012A
S31520001B20C2F2000100F060FF7B6F03F00203002B7E
S31520001B300DD0FB6C4FF002021A6044F29420C2F2E0
S31520001B40000044F24001C2F2000100F04DFFBB6FDD
S31520001B5003F01003002B03D0FB6C4FF040021A60F9
S31520001B604FF00003FB667B6C1B683B673A6F7B6D0F
S31520001B709A4202D04FF00103FB667B6C1B683B67E1
S31520001B803A6FBB6D9A4202D04FF00103FB667B6C25
S31520001B901B683B673A6FFB6D9A4202D04FF00103F8
S31520001BA0FB667B6C1B683B673A6F3B6E9A4202D0A2
S31520001BB04FF00103FB664FF000037B6611E07B6C60
S31520001BC01B683B677B6E03F0FF03BB663A6FBB6EF9
S31520001BD09A4202D04FF00103FB667B6E03F10103AC
S31520001BE07B663B6D03F101027B6E9A42E7D87B6CE4
S31520001BF01B683B677B6C1B683B67FB6E012B0DD11B
S31520001C0007F1280344F29420C2F2000019464FF04F
S31520001C101B0200F077FE4FF001030FE07B68002BDC
S31520001C200AD107F1140344F29420C2F200001946A7
S31520001C304FF0120200F066FE4FF00003184607F13F
S31520001C408407BD4690BD00BF80B487B000AF7860E2
S31520001C5039604FF00703FB604FF000033B614FF004
S31520001C600003FB753B68BB604FF000033B6109E056
S31520001C703A697B6813444FF030021A703B6903F1CE
S31520001C8001033B613B69072BF2DD1DE0BB68DBB23C
S31520001C9003F00F03FB75FB7D092B04D8FB7D03F1B5
S31520001CA03003FB7503E0FB7D03F13703FB75FA6810
S31520001CB07B681344FA7D1A70FB6803F1FF33FB60DF
S31520001CC0BB684FEA1313BB60BB68002BDED107F15C
S31520001CD01C07BD4680BC704780B588B000AFF86051
S31520001CE0B9607A603B604FF00003BB617B683B6163
S31520001CF04FF000033B611AE0BA683B6913447B61ED
S31520001D00F86879693A68BB6AFFF736FDF868796939
S31520001D104FF00102FFF78EFE0346012B03D1BB696C
S31520001D2003F10103BB613B6903F101033B613A699E
S31520001D307B689A42E0D3BB69002B09D144F29420F8
S31520001D40C2F2000044F28C01C2F2000100F04CFE07
S31520001D5007F12007BD4680BD80B495B000AFF8607E
S31520001D60B9607A6040F20803C5F200037B6140F255
S31520001D701003C5F20003BB6140F21403C5F2000351
S31520001D80FB6140F23003C5F200033B6240F23403AC
S31520001D90C5F200037B6240F2DC53FB64FB694FF023
S31520001DA0FF021A60FB6CA3F10603BB62FB684FEAD5
S31520001DB013237B63FB6803F0FF03BB633B6A7A6BE9
S31520001DC01A607B6ABA6B1A60FB6C4FEA1323FB63BB
S31520001DD0FB684FEA9303FB62FB684FEA83133B637E
S31520001DE07B69FA6A1A607B693A6B1A607B69FA6BBF
S31520001DF01A607B69FA6C1A604FF000033B6406E0B8
S31520001E007B693A6C1A603B6C03F101033B64BB6A45
S31520001E1003F101023B6C9A42F2D8BB694FF02002D3
S31520001E201A604FF000037B6406E0FB691B68BB6405
S31520001E30BB6C03F080037B647B6C002BF5D0FB69C5
S31520001E404FF080021A607B68002B11D14FF00003FF
S31520001E503B6406E0FB691B68BB643B6C03F1010332
S31520001E603B643A6C4FF6FE73C0F203039A42F1D9F3
S31520001E7007F15407BD4680BC704700BF90B5A9B096
S31520001E8000AF7860396044F25C03C2F2000307F1C8
S31520001E90280C1C460FCCACE80F0094E80700ACE8F1
S31520001EA00300ACF800200CF1020C4FEA12438CF828
S31520001EB0003044F27803C2F2000307F1140C1C46EA
S31520001EC00FCCACE80F002368ACF8003040F20C03CE
S31520001ED0C5F200037B6440F21003C5F20003BB6425
S31520001EE040F21403C5F20003FB6440F21C03C5F262
S31520001EF00003BB6540F23003C5F200033B6540F2A8
S31520001F003403C5F200037B6540F2DC53C7F89C30EE
S31520001F10FB6C4FF0FF021A607B684FEA1323BB6607
S31520001F207B6803F0FF03FB663B6DBA6E1A607B6D20
S31520001F30FA6E1A60BB6C4FF000021A60D7F89C301C
S31520001F40A3F10603FB657B684FEA93033B667B6838
S31520001F504FEA831303F0FF037B66D7F89C304FEAE2
S31520001F6013233B67D7F89C3003F0FF037B674FF0C2
S31520001F700003C7F88C3005E0BB6D1B6803F0100327
S31520001F80C7F88C30D7F88C3003F01003002BF3D031
S31520001F90FB6C4FF040021A604FF00003C7F8803008
S31520001FA07B6C1B68C7F88430D7F884203B6E9A4236
S31520001FB067D044F29420C2F2000044F2A801C2F293
S31520001FC0000100F011FD44F29420C2F2000044F218
S31520001FD0C001C2F2000100F007FDFB6C1B68C7F8C8
S31520001FE09430D7F8943007F10C0210461946FFF7C3
S31520001FF02BFE07F10C0344F29420C2F2000019468E
S315200020004FF0080200F07EFC44F29420C2F2000059
S3152000201044F2E001C2F2000100F0E6FC3B6E07F15B
S315200020200C0210461946FFF70FFE07F10C0344F287
S315200020309420C2F2000019464FF0080200F062FC1C
S3152000204044F29420C2F2000044F2F401C2F20001EC
S3152000205000F0CAFCD7F8843007F10C021046194666
S31520002060FFF7F2FD07F10C0344F29420C2F20000C0
S3152000207019464FF0080200F045FC4FF00103C7F85F
S3152000208080307B6C1B68C7F88430D7F884207B6E41
S315200020909A4267D044F29420C2F2000044F208111A
S315200020A0C2F2000100F0A0FC44F29420C2F200002B
S315200020B044F2C001C2F2000100F096FCFB6C1B68E2
S315200020C0C7F89430D7F8943007F10C021046194619
S315200020D0FFF7BAFD07F10C0344F29420C2F2000088
S315200020E019464FF0080200F00DFC44F29420C2F28B
S315200020F0000044F2E001C2F2000100F075FC7B6EA4
S3152000210007F10C0210461946FFF79EFD07F10C0356
S3152000211044F29420C2F2000019464FF0080200F063
S31520002120F1FB44F29420C2F2000044F2F401C2F220
S31520002130000100F059FCD7F8843007F10C02104654
S315200021401946FFF781FD07F10C0344F29420C2F2F1
S31520002150000019464FF0080200F0D4FB4FF00103AF
S31520002160C7F880307B6C1B68C7F88430D7F884208A
S315200021703B6F9A4267D044F29420C2F2000044F2A8
S315200021802011C2F2000100F02FFC44F29420C2F28A
S31520002190000044F2C001C2F2000100F025FCFB6CF5
S315200021A01B68C7F89430D7F8943007F10C02104614
S315200021B01946FFF749FD07F10C0344F29420C2F2B9
S315200021C0000019464FF0080200F09CFB44F29420D0
S315200021D0C2F2000044F2E001C2F2000100F004FC69
S315200021E03B6F07F10C0210461946FFF72DFD07F14C
S315200021F00C0344F29420C2F2000019464FF0080264
S3152000220000F080FB44F29420C2F2000044F2F40174
S31520002210C2F2000100F0E8FBD7F8843007F10C0287
S3152000222010461946FFF710FD07F10C0344F29420DF
S31520002230C2F2000019464FF0080200F063FB4FF08F
S315200022400103C7F880307B6C1B68C7F88430D7F849
S3152000225084207B6F9A4267D044F29420C2F2000019
S3152000226044F23811C2F2000100F0BEFB44F2942081
S31520002270C2F2000044F2C001C2F2000100F0B4FB39
S31520002280FB6C1B68C7F89430D7F8943007F10C0222
S3152000229010461946FFF7D8FC07F10C0344F29420A8
S315200022A0C2F2000019464FF0080200F02BFB44F260
S315200022B09420C2F2000044F2E001C2F2000100F0D4
S315200022C093FB7B6F07F10C0210461946FFF7BCFC07
S315200022D007F10C0344F29420C2F2000019464FF095
S315200022E0080200F00FFB44F29420C2F2000044F2F0
S315200022F0F401C2F2000100F077FBD7F8843007F131
S315200023000C0210461946FFF79FFC07F10C0344F216
S315200023109420C2F2000019464FF0080200F0F2FAAB
S315200023204FF00103C7F880304FF00003BB6778E019
S315200023307B6C1B68C7F88430BB6F03F0FF03FB6719
S31520002340D7F88420FB6F9A4267D044F29420C2F2D9
S31520002350000044F25011C2F2000100F045FB44F2A5
S315200023609420C2F2000044F2C001C2F2000100F043
S315200023703BFBFB6C1B68C7F89430D7F8943007F109
S315200023800C0210461946FFF75FFC07F10C0344F2D6
S315200023909420C2F2000019464FF0080200F0B2FA6B
S315200023A044F29420C2F2000044F2E001C2F200019D
S315200023B000F01AFBFB6F07F10C0210461946FFF7D7
S315200023C043FC07F10C0344F29420C2F200001946A4
S315200023D04FF0080200F096FA44F29420C2F2000070
S315200023E044F2F401C2F2000100F0FEFAD7F884307C
S315200023F007F10C0210461946FFF726FC07F10C03DD
S3152000240044F29420C2F2000019464FF0080200F070
S3152000241079FA4FF00103C7F88030BB6F03F101034F
S31520002420BB67FB6D03F10102BB6F9A4280D87B6CC0
S315200024301B68C7F884307B6C1B68C7F88430D7F8D4
S315200024408030012B0ED107F1280344F29420C2F2EA
S31520002450000019464FF01B0200F054FA4FF001031A
S315200024601846FFE707F1A407BD4690BD80B5ADF538
S31520002470856D00AF07F1180CACF10C0CCCF8000000
S3152000248007F10800016007F10801A1F104010A60C3
S315200024903A4613604FF00003C7F81C3407F10803CF
S315200024A0A3F104031B68C7F814344FF00003C7F8E0
S315200024B0143418E007F108031A68D7F814341344C3
S315200024C0C7F8183407F11803A3F10C033A46186825
S315200024D0D7F818141268FFF73FFCD7F8143403F125
S315200024E00103C7F8143407F10803A3F10403D7F84E
S315200024F014241B689A42DDD307F1280707F5806765
S31520002500BD4680BD80B588B000AFF860B9607A60FE
S315200025104FF00003BB617B683B614FF000033B61DA
S3152000252012E0BA683B6913447B61F8687969FFF762
S31520002530A5FC0346012B03D1BB6903F10103BB6153
S315200025403B6903F101033B613A697B689A42E8D310
S31520002550BB69002B09D144F29420C2F2000044F258
S315200025608C01C2F2000100F03FFA07F12007BD46B8
S3152000257080BD00BF80B5ADF5856D00AF07F1180CA5
S31520002580ACF10C0CCCF8000007F10800016007F153
S315200025900801A1F104010A603A4613604FF00003D6
S315200025A0C7F81C3407F10803A3F104031B68C7F816
S315200025B014344FF00003C7F8143414E04FF47F733B
S315200025C0C7F8183407F11803A3F10C033A46186824
S315200025D0D7F818141268FFF7BFFBD7F8143403F1A5
S315200025E00103C7F8143407F10803A3F10403D7F84D
S315200025F014241B689A42E1D307F1280707F5806760
S31520002600BD4680BD80B58AB000AFF860B9607A60FB
S315200026103B604FF00003BB614FF00F037B627B688A
S315200026203B614FF000033B6139E04FF000033B6212
S315200026300DE0BA683B6A13447B61F86879693A68A9
S315200026403B6BFFF799F83B6A03F101033B623A6A59
S315200026507B6A9A42EDD34FF00F037B624FF0000363
S315200026603B6214E0BA683B6A13447B61F868796977
S315200026704FF00102FFF7DEF90346012B03D1BB69B8
S3152000268003F10103BB613B6A03F101033B623A6A32
S315200026907B6A9A42E6D33B6903F101033B613A69BF
S315200026A07B689A42C1D3BB69002B09D144F294209E
S315200026B0C2F2000044F28C01C2F2000100F094F94B
S315200026C007F12807BD4680BD80B588B000AFF86009
S315200026D0B9607A603B607B68FB614FF00003BB61A9
S315200026E00DE0BA68BB6913447B61F86879693A687A
S315200026F0BB6AFFF741F8BB6903F10103BB61BA6905
S31520002700FB699A42EDD307F12007BD4680BD00BF85
S3152000271080B588B000AFF860B9607A604FF00003EA
S315200027207B617B68FB614FF00003BB6114E0BA68F4
S31520002730BB6913443B61F86839694FF00002FFF723
S3152000274079F90346012B03D17B6903F101037B61F0
S31520002750BB6903F10103BB61BA69FB699A42E6D3FF
S315200027607B69002B09D144F29420C2F2000044F286
S315200027708C01C2F2000100F037F907F12007BD46AF
S3152000278080BD00BF80B483B000AF0346FB714EF21C
S315200027900013CEF2000397F907204FEA5212F97977
S315200027A001F01F014FF0010000FA01F102F1600271
S315200027B043F8221007F10C07BD4680BC704700BFC6
S315200027C080B483B000AF78600B46FB707B6803F063
S315200027D070427B6823F07F4323F470034FEA431350
S315200027E01A44FB784FEA8303134403F100734FF036
S315200027F001021A6007F10C07BD4680BC704700BF76
S3152000280080B483B000AF78600B46FB707B6803F022
S3152000281070427B6823F07F4323F470034FEA43130F
S315200028201A44FB784FEA8303134403F100734FF0F5
S3152000283000021A6007F10C07BD4680BC704700BF36
S3152000284080B483B000AF78600B46FB707B6803F0E2
S3152000285070427B6823F07F4323F470034FEA4313CF
S315200028601A44FB784FEA8303134403F100731B6871
S31520002870DBB2184607F10C07BD4680BC704700BF87
S3152000288080B584B000AFF860B9601346FB71FA6872
S3152000289044F29423C2F200039A4207D0FA6844F223
S315200028A05423C2F200039A4200D000BEFB79F86896
S315200028B0B9681A4600F05CFAFB681B6803F130031E
S315200028C018464FF00301FFF79BFFFB681B6803F1D7
S315200028D0340318464FF00201FFF792FFFB681B688E
S315200028E003F1380318464FF00001FFF789FFFA6815
S315200028F043F20923C2F20003536207F11007BD46D3
S3152000290080BD00BF80B489B000AFF860B9607A603E
S315200029104FF000033B61FA6844F29423C2F20003AD
S315200029209A4207D0FA6844F25423C2F200039A422C
S3152000293000D000BEBB68002B00D100BE7B68002BF8
S3152000294000D100BEFA6844F29423C2F200039A42F0
S3152000295006D0FA6844F25423C2F200039A423DD1CB
S31520002960BB68002B3AD07B68002B37D0FB681B68EE
S315200029701B7DFB76FB685A7BFB7E42EA0303DAB2B9
S31520002980FB685A73FB7E03F02003002B23D04FF005
S315200029901003FB617B680F2B01D87B68FB614FF02E
S315200029A000037B610EE0FB681B68B9683A690A443C
S315200029B012781A703B6903F101033B617B6903F1CD
S315200029C001037B617A69FB699A42ECD37A687B6959
S315200029D0C3EB02037B607B68002BC7D107F124077A
S315200029E0BD4680BC704700BF80B487B000AF78601A
S315200029F039604FF00003FB607A6844F29423C2F2F8
S31520002A0000039A4207D07A6844F25423C2F20003A4
S31520002A109A4200D000BE3B68002B00D100BE7A68E7
S31520002A2044F29423C2F200039A4206D07A6844F212
S31520002A305423C2F200039A4237D13B68002B34D08C
S31520002A403A68FB6813441B78BB752BE07B681B68D0
S31520002A501B7DFB757B685A7BFB7D42EA0303DAB25A
S31520002A607B685A73FB7D03F02003002BEED04FF0DA
S31520002A7000033B6110E07B681B68BA7D1A703B69D6
S31520002A8003F101033B61FB6803F10103FB603A6834
S31520002A90FB6813441B78BB75BB7D002B02D03B69BA
S31520002AA00F2BE8D9BB7D002BD0D107F11C07BD46E3
S31520002AB080BC704780B487B000AFF860B9607A6098
S31520002AC04FF000033B614FF00003FB75FA6844F2B8
S31520002AD09423C2F200039A4207D0FA6844F25423A0
S31520002AE0C2F200039A4200D000BEBB68002B00D180
S31520002AF000BE7B68002B00D100BEFA6844F2942306
S31520002B00C2F200039A4206D0FA6844F25423C2F273
S31520002B1000039A4234D1BB68002B31D07B68002B4E
S31520002B202ED0FB681B681B7DFB75FB685A7BFB7DE3
S31520002B3042EA0303DAB2FB685A7317E0BA683B69C4
S31520002B401344FA6812681278D2B21A703B6903F1FC
S31520002B5001033B61FB681B681B7DFB75FB685A7B89
S31520002B60FB7D42EA0303DAB2FB685A73FB7D03F06E
S31520002B700103DBB2002B03D03A697B689A42DDD38E
S31520002B803B69184607F11C07BD4680BC704700BF4D
S31520002B90684620F007018D4689B500AF44F294209F
S31520002BA0C2F2000000F01AFABD46BDE8894085460B
S31520002BB0704700BF684620F007018D4689B500AFF3
S31520002BC044F25420C2F2000000F008FABD46BDE8E7
S31520002BD089408546704700BF80B588B000AF7860D1
S31520002BE039607A6844F29423C2F200039A4207D0ED
S31520002BF07A6844F25423C2F200039A4200D000BEFF
S31520002C007A6844F29423C2F200039A4207D07A6883
S31520002C1044F25423C2F200039A4240F0A4807B6817
S31520002C203A689A6000F03AFC7A6844F29423C2F239
S31520002C3000039A4206D144F23823C2F200031B68ED
S31520002C40FB6105E044F23C23C2F200031B68FB61F2
S31520002C50FB694FEAC3023B68B2FBF3F37B617B69F6
S31520002C604FEA53033B613B694FEA9313FB60FB68D2
S31520002C704FEA83133A69C3EB0203BB61FB684FEA51
S31520002C80C3137A69C3EB0202BB694FEA4303C3EB62
S31520002C900203BA691344BB61FA684FF6FF739A427E
S31520002CA000D900BEFA684FF6FF739A425BD8FB68DC
S31520002CB0012B31D97B681B6803F10C0318464FF0B2
S31520002CC00701FFF77DFD7B681B68FA684FEA122231
S31520002CD0D2B21A717B681B68FA68D2B21A707B6806
S31520002CE01B6803F10C0318464FF00701FFF788FD18
S31520002CF07B681B6803F1300318464FF00701FFF786
S31520002D005FFDBB69FF2B00D900BE7B681B68BA69D3
S31520002D10D2B283F83C2026E07B681B6803F10C03C3
S31520002D2018464FF00701FFF74BFD7B681B68FA68D2
S31520002D304FEA1222D2B21A717B681B68FA68D2B2A5
S31520002D401A707B681B6803F10C0318464FF00701C5
S31520002D50FFF756FD7B681B6803F1300318464FF0DA
S31520002D600701FFF74DFD07F12007BD4680BD00BFD7
S31520002D7080B584B000AFF860B9601346FB71FA687D
S31520002D8044F29423C2F200039A4207D0FA6844F22E
S31520002D905423C2F200039A4200D000BEFA6844F2DD
S31520002DA09423C2F200039A4224D1FB684FF080425A
S31520002DB01A60FB684FF00A021A7148F20003C4F247
S31520002DC0030348F20002C4F20302926C42F080022E
S31520002DD09A644FF00A00FFF7D5FC48F20003C4F2CC
S31520002DE0030348F20002C4F20302926C22F080022E
S31520002DF09A6425E0FA6840F20003C4F201031360E6
S31520002E00FB684FF00B021A7148F20003C4F2030369
S31520002E1048F20002C4F20302926C42F480729A6471
S31520002E204FF00B00FFF7AEFC48F20003C4F2030399
S31520002E3048F20002C4F20302926C22F480729A6471
S31520002E40FB681B684FF000021A71FB681B684FF085
S31520002E5000021A72FB681B6803F1080318464FF03C
S31520002E600101FFF7ADFCFB681B6803F10803184658
S31520002E704FF00201FFF7A4FCFB681B6803F108036F
S31520002E8018464FF00001FFF79BFCFB681B6803F117
S31520002E90100318464FF00401FFF7B2FCFB681B68CD
S31520002EA003F1100318464FF00501FFF7A9FCFB6854
S31520002EB01B6803F1340318464FF00101FFF7A0FC0D
S31520002EC0FB681B6803F1340318464FF00001FFF737
S31520002ED097FCFB681B6803F1380318464FF0010185
S31520002EE0FFF78EFCFB681B6803F1300318464FF092
S31520002EF00501FFF785FCFB681B6803F130031846C4
S31520002F004FF00601FFF77CFCFB681B6803F13003DA
S31520002F1018464FF00701FFF773FCFB681B6803F1A7
S31520002F20380318464FF00301FFF76AFCFB681B685D
S31520002F304FF0000283F84420FB681B684FF0000224
S31520002F4083F84820FB681B684FF0000283F84C206A
S31520002F50F868B968FFF740FEFB681B68FA791A73B0
S31520002F60FB68BA689A60FB68FA791A73FB684FF0B7
S31520002F7000025A61FB684FF000021A61FB684FF0AD
S31520002F8000029A61FB684FF000021A62FB684FF05C
S31520002F9000025A62FB684FF00002DA61FB684FF0CC
S31520002FA000029A62FB684FF00002DA62FB684FF07B
S31520002FB000021A63FB684FF000025A63FB684FF069
S31520002FC000029A63FB684FF00002DA63FB684FF059
S31520002FD000025A7307F11007BD4680BD80B584B044
S31520002FE000AF78607A6844F29423C2F200039A42D2
S31520002FF007D07A6844F25423C2F200039A4200D0E2
S3152000300000BE7A6844F29423C2F200039A4207D0A3
S315200030107A6844F25423C2F200039A4240F0EF80C9
S315200030207B681B681B7ADBB203F00F03FB73FB7B09
S315200030300C2B00F2D78001A252F823F07130002029
S31520003040E53100208F300020E9300020AD3000200F
S31520003050E5310020CB300020E5310020E53100208D
S31520003060E5310020E5310020E5310020AD3000209B
S315200030707B689B6A002B00D100BE7B689B6A002B75
S3152000308000F0B2807B689B6A78689847B7E07B68D7
S315200030905B6A002B00D100BE7B685B6A002B00F0C8
S315200030A0A5807B685B6A78689847A8E07B681B6A7E
S315200030B0002B00D100BE7B681B6A002B00F0988095
S315200030C07B681B6A7868984799E07B68DB69002BE8
S315200030D000D100BE7B68DB69002B00F08B807B680B
S315200030E0DB69786898478AE07B681B6803F12803C8
S315200030F018464FF00001FFF7A3FB0346002B0CD028
S315200031007B68DB6A002B00D100BE7B68DB6A002B64
S3152000311003D07B68DB6A786898477B681B6803F175
S31520003120280318464FF00101FFF78AFB0346002BC0
S315200031300CD07B681B6B002B00D100BE7B681B6B01
S31520003140002B03D07B681B6B786898477B681B68CD
S3152000315003F1280318464FF00201FFF771FB0346DF
S31520003160002B0CD07B685B6B002B00D100BE7B68EC
S315200031705B6B002B03D07B685B6B786898477B681A
S315200031801B6803F1280318464FF00301FFF758FB8D
S315200031900346002B0CD07B689B6B002B00D100BE16
S315200031A07B689B6B002B03D07B689B6B786898476A
S315200031B07B681B6803F1280318464FF00401FFF7CC
S315200031C03FFB0346002B17D07B68DB6B002B00D11F
S315200031D000BE7B68DB6B002B10D07B68DB6B7868CE
S315200031E098470CE000BE0AE000BF08E000BF06E0FA
S315200031F000BF04E000BF02E000BF00E000BF07F10F
S315200032001007BD4680BD00BF80B586B000AF786090
S315200032107A6844F29423C2F200039A4207D07A686D
S3152000322044F25423C2F200039A4200D000BE7B68C7
S315200032301B69002B00D100BE7B685B69002B00D187
S3152000324000BE7A6844F29423C2F200039A4206D062
S315200032507A6844F25423C2F200039A4255D17B681D
S315200032601B69002B51D07B685B69002B4DD07B6896
S315200032701B681B7DFB727B685A7BFB7A42EA030341
S31520003280DAB27B685A73FB7A03F02003002B29D02D
S315200032904FF010033B617B685A697B689B69C3EBDF
S315200032A002037B617B690F2B01D87B693B614FF061
S315200032B00003FB6012E07B681B687A6811697A68F4
S315200032C092690A4412781A707B689B6903F101029D
S315200032D07B689A61FB6803F10103FB60FA683B692E
S315200032E09A42E8D37B689A697B685B699A420CD1DB
S315200032F07B684FF000025A617B681B6803F1040368
S3152000330018464FF00101FFF77BFA07F11807BD4673
S3152000331080BD00BF80B483B000AF0346FB714EF280
S315200033200013CEF2000397F907204FEA5212F979DB
S3152000333001F01F014FF0010000FA01F102F1200215
S3152000334043F8221007F10C07BD4680BC704700BF2A
S3152000335080B483B000AF0346FB714EF20013CEF269
S31520003360000397F907204FEA5212F97901F01F015D
S315200033704FF0010000FA01F102F1600243F8221039
S3152000338007F10C07BD4680BC704700BF80B582B0F0
S3152000339000AF48F20003C4F2030348F20002C4F26D
S315200033A00302926C42F480129A6448F20003C4F23B
S315200033B0030348F20002C4F20302926C42F0F07258
S315200033C09A644FF000037B6017E07A6844F2E813B2
S315200033D0C2F200039B5C5BB21846FFF79BFF7A683C
S315200033E044F2E813C2F200039B5C5BB21846FFF777
S315200033F0AFFF7B6803F101037B607B681F2BE4D959
S3152000340048F20003C4F2030348F20002C4F20302A6
S31520003410926C22F0F0729A6448F20003C4F203031D
S3152000342048F20002C4F20302926C22F480129A64DB
S3152000343007F10807BD4680BD80B485B000AF0346BE
S315200034403960FB71FB79FB60FB681F2B00D900BE3E
S31520003450FB681F2B08D8FA6844F26813C2F20003EF
S3152000346053F822303A681A6007F11407BD4680BC2B
S31520003470704700BF80B500AF00F036F94EF6005316
S31520003480CEF200034EF60052CEF20002526942F40A
S3152000349000725A61FCF7CEFF80BD00BF80B588B0B0
S315200034A000AF48F20003C4F20303D3F8983003F0C8
S315200034B08063FB60FB68002B40F08B8048F20003A2
S315200034C0C4F20303D3F8983003F480537B617B69FD
S315200034D0002B3FD144F23423C2F200034BF6807214
S315200034E0C0F676021A6044F23823C2F2000345F68B
S315200034F0C072C0F23B421A6044F23C23C2F200037F
S3152000350045F6C072C0F23B421A6044F24023C2F232
S3152000351000034AF6E072C0F21D221A6044F24423E8
S31520003520C2F2000345F6C072C0F23B421A6044F272
S315200035304823C2F200034BF68072C0F676021A6068
S3152000354044F24C23C2F200034BF68072C0F6760298
S315200035501A6045E044F20823C2F2000307F1040290
S3152000356093E8030082E8030048F20003C4F2030351
S31520003570D3F89C304FEA931303F00703BB61BB6972
S3152000358007F12002134413F81C3CFB77FB7F012B29
S315200035900BD0022B0ED0002B14D100F025F80346B9
S315200035A03B61386900F042F81AE04FF4004000F021
S315200035B03DF815E044F24020C0F20F0000F036F846
S315200035C000BF0DE044F24020C0F20F0000F02EF8BC
S315200035D006E000F009F803463B61386900F026F85A
S315200035E007F12007BD4680BD80B483B000AF48F206
S315200035F00003C4F20303D3F8503103F004033B6005
S315200036003B68002B05D147F64003C0F27D137B6053
S3152000361004E04FF28003C0F2FA237B607B681846F1
S3152000362007F10C07BD4680BC704700BF80B483B04D
S3152000363000AF786044F23423C2F200037A681A603D
S3152000364044F23823C2F200037A681A6044F23C231B
S31520003650C2F200037A681A6044F24023C2F20003E1
S315200036604AF6E072C0F21D221A6044F24423C2F2E6
S3152000367000037A681A6044F24823C2F200037A688B
S315200036801A6044F24C23C2F200037A681A6007F1EA
S315200036900C07BD4680BC704780B483B000AF48F2AB
S315200036A00003C4F20303D3F84C317B607A684FF6EB
S315200036B002039A4206D04FF60203C0F201039A4251
S315200036C004D007E04FF001033B6006E04FF0020311
S315200036D03B6002E04FF000033B603B68184607F171
S315200036E00C07BD4680BC704780B582B000AFFFF79F
S315200036F0D3FF03467B607B68012B01D100F004F8E1
S3152000370007F10807BD4680BD80B400AF48F200032C
S31520003710C4F2030348F20002C4F20302D2F898204E
S3152000372042F48072C3F8982048F20003C4F20303DF
S3152000373048F20002C4F20302D2F8982022F08062F6
S31520003740C3F89820BD4680BC704700BF70B544F2D0
S31520003750282644F22825C2F20006C2F20005761B6E
S31520003760B61006D0002455F8243001349847A642D6
S31520003770F9D844F2282544F22C26C2F20005C2F2DA
S315200037800006761B00F044FDB61006D0002455F83E
S31520003790243001349847A642F9D870BD0A0D0A0D87
S315200037A0205072657373206E756D62657220666F28
S315200037B07220416374696F6E200A0D0A0D20312034
S315200037C020526561642046504741205265676973DF
S315200037D074657273200A0D20322020526573657439
S315200037E02052656365697665204649464F200A0D55
S315200037F0203320205265736574205472616E736D78
S315200038006974204649464F200A0D203420205472E0
S31520003810616E736D69742053696E676C65205061A3
S31520003820636B6574202D20494E5445524E414C20E1
S315200038304C6F6F706261636B200A0D203520205219
S315200038406563656976652053696E676C652050618E
S31520003850636B657420616E6420436865636B202DFD
S3152000386020494E5445524E414C204C6F6F70626138
S31520003870636B200A0D203620204C6F6F70626163C7
S315200038806B205061636B6574732066726F6D203890
S3152000389020746F20313032332042797465732026AC
S315200038A020436865636B202D20494E5445524E4176
S315200038B04C204C6F6F706261636B200A0D2037209D
S315200038C0205472616E736D69742053696E676C65DE
S315200038D0205061636B6574202D2045585445524E07
S315200038E0414C204C6F6F706261636B200A0D20384B
S315200038F02020526563656976652053696E676C651D
S31520003900205061636B657420616E64204368656333
S315200039106B202D2045585445524E414C204C6F6FFC
S31520003920706261636B200A0D203920205472616E0B
S31520003930736D6974205061636B6574732066726F52
S315200039406D203820746F20313032332042797465EF
S3152000395073202620436865636B202D2045585445E7
S31520003960524E414C204C6F6F706261636B200A0D82
S31520003970206120205472616E736D697420426F61DC
S315200039807264203220426F6172642053696E676CC4
S3152000399065205061636B6574200A0D2062202052D9
S315200039A065636569766520426F61726420322042C4
S315200039B06F6172642053696E676C65205061636B1A
S315200039C0657420616E6420436865636B200A0D2050
S315200039D06320205472616E736D697420426F617228
S315200039E064203220426F617264204D756C74697058
S315200039F06C65205061636B657473200A0D2064200A
S31520003A00205265636569766520426F617264203253
S31520003A1020426F617264204D756C7469706C6520EC
S31520003A205061636B657473200A0D206520205472E3
S31520003A30616E736D6974205061636B657420426C8E
S31520003A4061737465722E200A0D20662020526573DC
S31520003A5065742046504741204C6F6769632E200AC3
S31520003A600D20672020426C6173746572205061635B
S31520003A706B6574204C6F6F706261636B200A0D203A
S31520003A806920205472616E736D697420423242201F
S31520003A90426C6173746572205061636B6574200A91
S31520003AA00D206A2020526563656976652042324280
S31520003AB020426C6173746572205061636B6574205B
S31520003AC00A0D00000A0D0A0D000000000A0D0A0D5D
S31520003AD02052657365742052656365697665204654
S31520003AE049464F2E2E2E200A0D0000000A0D0A0DE3
S31520003AF0205265736574205472616E736D697420EB
S31520003B004649464F2E2E2E200A0D00000A0D0A0D7C
S31520003B10205472616E736D697474696E672053697F
S31520003B206E676C65205061636B6574202D20496E2D
S31520003B307465726E616C204C6F6F706261636B2E60
S31520003B402E2E200A0D0000000A0D0A0D2052656354
S31520003B5065697665205369676E6C65205061636B75
S31520003B60657420616E6420436865636B202D20494F
S31520003B706E7465726E616C204C6F6F706261636BE0
S31520003B802E2E2E200A0D00000A0D0A0D204C6F6FD6
S31520003B9070696E67204261636B205061636B657448
S31520003BA0732052616E67696E6720696E2053697A49
S31520003BB0652066726F6D2038204279746573207493
S31520003BC06F2032303038204279746573202D204999
S31520003BD06E7465726E616C204C6F6F706261636B80
S31520003BE02E2E2E20200A0D000A0D0A0D2054726159
S31520003BF06E736D697474696E672053696E676C6540
S31520003C00205061636B6574202D2045585445524ED3
S31520003C10414C204C6F6F706261636B2E2E2E200AF2
S31520003C200D0000000A0D0A0D205265636569766550
S31520003C302053696E676C65205061636B65742061E3
S31520003C406E6420436865636B202D20455854455289
S31520003C504E414C204C6F6F706261636B2E2E2E206E
S31520003C600A0D00000A0D0A0D204C6F6F70696E67F1
S31520003C70204261636B205061636B657473205261CF
S31520003C806E6765203820746F2032303038204279B4
S31520003C90746573202D2045585445524E414C204C76
S31520003CA06F6F706261636B2E2E2E20200A0D00002E
S31520003CB00A0D0A0D205472616E736D6974696E6700
S31520003CC020426F61726420746F20426F617264209B
S31520003CD053696E676C65205061636B65742E2E2E5A
S31520003CE0200A0D000A0D0A0D205265636569766962
S31520003CF06E6720426F61726420746F20426F61721A
S31520003D00642053696E676C65205061636B6574200F
S31520003D10616E6420436865636B2E2E2E200A0D008B
S31520003D200A0D0A0D205472616E736D697474696E82
S31520003D306720426F61726420746F20426F617264E3
S31520003D40204D756C7469706C65205061636B657469
S31520003D50732E2E2E200A0D000A0D0A0D20526563A1
S31520003D60656976696E6720426F61726420746F2080
S31520003D70426F617264204D756C7469706C65205059
S31520003D8061636B6574732E2E2E200A0D00000000D1
S31520003D900A0D0A0D205472616E736D69742050618C
S31520003DA0636B657420426C61737465722E200A0DF4
S31520003DB0000000000A0D0A0D205265736574204626
S31520003DC0504741204C6F6769632E200A0D00000082
S31520003DD00A0D0A0D20426C6173746572205061636E
S31520003DE06B6574204C6F6F706261636B200A0D00E7
S31520003DF00A0D0A0D205472616E736D697420423269
S31520003E004220426C6173746572205061636B6574E5
S31520003E10200A0D000A0D0A0D205265636569766534
S31520003E202042324220426C61737465722050616375
S31520003E306B6574200A0D00000A0D0A0D205072656C
S31520003E40737320616E79206E756D6265722E2E2ECB
S31520003E50200A0D0A0D0000000A0D20456E746572B9
S31520003E603A2020000A0D0A0D2020465047412052B4
S31520003E7065766973696F6E205265676973746572BA
S31520003E803A20202020202020307800000A0D2020F3
S31520003E9046504741205363726174636820506164C1
S31520003EA02052656769737465723A20202020307825
S31520003EB0000000000A0D20204650474120436F6E27
S31520003EC074726F6C2052656769737465723A20202C
S31520003ED02020202020203078000000000A0D2020FD
S31520003EE04650474120496E7465727275707420522F
S31520003EF0656769737465723A202020202020307807
S31520003F00000000000A0D20204650474120496E74CB
S31520003F10657272757074204D61736B205265676986
S31520003F20737465723A203078000000000A0D202054
S31520003F3046504741205374617475732052656769F2
S31520003F40737465723A20202020202020202030788B
S31520003F50000000000A0D202046504741204869678E
S31520003F60682041646472657373205265676973744F
S31520003F7065723A2020203078000000000A0D2020AB
S31520003F8046504741204C6F772041646472657373B5
S31520003F902052656769737465723A20202020307834
S31520003FA0000000000A0D20205458204649464F2084
S31520003FB0554E44455252554E20494E54455252551F
S31520003FC0505400000A0D20205458204649464F20C0
S31520003FD04F564552464C4F5720494E5445525255FE
S31520003FE0505400000A0D2020545820434F4C4C4971
S31520003FF053494F4E20494E54455252555054000075
S315200040000A0D20205258204649464F20554E4445F9
S315200040105252554E20494E54455252555054000046
S315200040200A0D20205258204649464F204F564552C9
S31520004030464C4F5720494E54455252555054000035
S315200040400A0D2020525820435243204552524F52A7
S3152000405020494E5445525255505400000A0D2021F5
S315200040602121212121204641494C454420525820D6
S315200040705041434B455400000A0D205041535320D4
S315200040805258205041434B45540000000A0D204110
S315200040904C4C205041434B4554532050415353459B
S315200040A0442E2E2E200A0D000A0D2048696768200E
S315200040B041646472657373204661696C2020000038
S315200040C020204650474120496E746572727570747F
S315200040D02052656769737465723A20202030780013
S315200040E02020202045787065637465643A2020205E
S315200040F0307800002020202041637475616C3A20BE
S3152000410020203078000000000A0D204C6F772041D7
S31520004110646472657373204661696C2020200000F8
S315200041200A0D2048696768204C656E6774682046CA
S3152000413061696C20202000000A0D204C6F77204CEE
S31520004140656E677468204661696C20202020000017
S315200041500A0D2044617461204661696C202020206C
S315200041602020202020200000003001400430014083
S31520004170083001400C30014010300140143001401D
S31520004180183001401C3001402030014024300140CD
S31520004190283001402C30014030300140343001407D
S315200041A0383001403C30014040300140443001402D
S315200041B0483001404C3001405030014054300140DD
S315200041C0583001405C30014060300140643001408D
S315200041D0683001406C30014070300140743001403D
S315200041E0783001407C300140323334353637383927
S315200041F03A3B3C3D3E3F4041424344454647484981
S315200042004A4B4C4D4E4F5051000100010202030310
S31520004210F8B500BFF8BC08BC9E467047F8B500BF8D
S31520004220F8BC08BC9E467047D5040020C104002077
S315200042300000000080BF7608C05F3B04C05F3B04DF
S31520004240E0AF1D02C05F3B0480BF760880BF7608C2
S7052000019148
