:1000000000000120910100007F0300008103000037
:100010008303000085030000870300000000000048
:100020000000000000000000000000008903000044
:100030008B030000000000008D0300008F03000010
:100040009103000093030000950300009703000054
:10005000990300009B0300009D0300009F03000024
:10006000A1030000A30300000D260000ED25000001
:10007000A9030000AB030000AD030000AF030000C4
:10008000B1030000B3030000B5030000B703000094
:10009000B9030000BB030000BD030000BF03000064
:1000A000C1030000C3030000C5030000C703000034
:1000B000C9030000CB030000CD030000CF03000004
:1000C000D1030000D3030000D5030000D7030000D4
:1000D000D9030000DB030000DD030000DF030000A4
:1000E000E1030000E3030000E5030000E703000074
:1000F000E9030000EB030000ED030000EF03000044
:10010000F1030000F3030000F5030000F703000013
:10011000F9030000FB030000FD030000FF030000E3
:1001200001040000030400000504000007040000AF
:10013000090400000B0400000D0400000F0400007F
:10014000110400001304000015040000170400004F
:10015000190400001B0400001D0400001F0400001F
:1001600021040000230400002504000027040000EF
:10017000290400002B0400002D0400002F040000BF
:100180003104000033040000000000000000000003
:100190004FF0000BDFF8BE020068DFF8B612096806
:1001A00001F0030100F01C00142801D14BF0020BF8
:1001B000002901D04BF0010BBBF1000F05D0A7487F
:1001C000A749DFF8722200F09FF8A64880470BF09D
:1001D000020ABAF1000F0CD0DFF86E02DFF86E12DF
:1001E00002680B680FB44FF000024FF0FF0302608B
:1001F0000B609D489D4A9E4B022808D1DFF83E12B5
:100200000A60DFF842120A60DFF836120B6001283C
:1002100008D1DFF82E120A60DFF82A120A60DFF830
:100220001E120B609348002809D193489349944AC1
:1002300000F032F893489449944A00F02DF894481D
:100240009449954A00F028F894489549DFF8E6214A
:1002500000F05AF8BBF1000F12D092489249DFF833
:10026000DA2100F051F80BF0020ABAF1000F07D0C2
:100270000FBC02600B6000BFAFF30080AFF30080E3
:10028000DFF828020FF2030E00474FF000004FF096
:100290000001DFF81CF2FEE72DE9F841884225D085
:1002A000B2EB010200D5FEE740EA010313F00303BD
:1002B00002D000F01DF819E04FF000039046121133
:1002C000F7D09A421CBFF0C8F0C103F10103F8D186
:1002D00008F00F08B8F1000F08D004780C7000F196
:1002E000010001F10101B8F10108F6D1BDE8F88182
:1002F00008B54FF0000303780B7000F1010001F125
:100300000101013AF7D108BD884237D000F0030659
:10031000002E14D04FF00405A5EB06044FF008079B
:1003200007FB06F8914669FA08F9002C07D080F817
:10033000009069FA07F900F10100013CF5E74FF080
:1003400000060F46091A88460911914614461546BB
:10035000B14206D018BFA0E8340206F10106B1424E
:10036000F8D108F00F08B8F1000F07D002704FEA7B
:10037000322200F10100B8F10108F4E77047FEE70E
:10038000FEE7FEE7FEE7FEE7FEE7FEE7FEE7FEE745
:10039000FEE7FEE7FEE7FEE7FEE7FEE7FEE7FEE735
:1003A000FEE7FEE7FEE7FEE7FEE7FEE7FEE7FEE725
:1003B000FEE7FEE7FEE7FEE7FEE7FEE7FEE7FEE715
:1003C000FEE7FEE7FEE7FEE7FEE7FEE7FEE7FEE705
:1003D000FEE7FEE7FEE7FEE7FEE7FEE7FEE7FEE7F5
:1003E000FEE7FEE7FEE7FEE7FEE7FEE7FEE7FEE7E5
:1003F000FEE7FEE7FEE7FEE7FEE7FEE7FEE7FEE7D5
:10040000FEE7FEE7FEE7FEE7FEE7FEE7FEE7FEE7C4
:10041000FEE7FEE7FEE7FEE7FEE7FEE7FEE7FEE7B4
:10042000FEE7FEE7FEE7FEE7FEE7FEE7FEE7FEE7A4
:10043000FEE7FEE7704700000000A2A2A2A2008033
:100440000340088003401080034030800340348024
:1004500003403880034018080240000000F00020EC
:1004600000000120892C00000000000000000000B6
:10047000010000000000000000000000000000007B
:1004800090010000C0040000C0040000A03700007C
:10049000A0370000000000202000002020000020E5
:1004A000B0000020B000002000F00020C92C0000A7
:1004B00045100000AFF30080AFF30080AFF3008081
:1004C00040F22003C2F200031A780AB90120187022
:1004D000704700BF40F20000C2F2000008B5036898
:1004E0002BB140F20003C0F2000303B1984708BDEE
:1004F0002DE9F84F40F2300540F234048C46C5F245
:1005000000044FEA102800F0FF0740F20801C5F28E
:100510000005C5F80080C5F20001276086014FEA9A
:100520001C2A8008BCF1050408600E60C1F800A018
:10053000C1F800C09A461FD001230026ACF106097D
:10054000A3420E6009F0030016D258B1012805D06D
:1005500002281CBF0B6002230B6001330B600133C8
:10056000A34209D2581C0B60DF1C0433451CA34274
:1005700008600D600F60F5D3012A74D040F21003BB
:10058000022AC5F2000375D02021196040F214053B
:1005900040F21007C5F20005C5F200074FF0200B2E
:1005A00010264FF001094FF080080DE014F0100FF5
:1005B0001ED114F0010F2AD114F0800F18BFC5F816
:1005C000008014F0B10F36D12C6814F0200FEDD05C
:1005D00040F2640042F61851C2F20000C0F200017D
:1005E000C5F800B001F0DCFE14F0100F3E60E0D062
:1005F00040F2640042F63851C2F20000C0F200013D
:100600002E6001F0CDFE14F0010F3E60D4D040F218
:10061000640042F65851C5F80090C2F20000C0F2E2
:10062000000101F0BDFE14F0800F18BFC5F8008076
:1006300014F0B10FC8D0BAF1000F12D140F2140378
:100640004FF6FF72C5F20003C0F203020AF1070A77
:10065000924519681968196819681968196819683C
:10066000F4D1BDE8F88F40F21003C5F20003302248
:100670001A608BE720321A6088E700BF10B540F29D
:10068000640042F6A45182B0C2F20000C0F2000140
:1006900001F086FE4FF0A0431B684FF0303201920C
:1006A00000926C4673B1072104E030321B0962549A
:1006B00008D0013903F00F02092AF6D937321B0995
:1006C0006254F6D140F26400C2F20000694608228A
:1006D00001F010FE40F2640042F6CC51C2F200007C
:1006E000C0F2000101F05CFE40F20401C5F200011D
:1006F0000B684FF030306060206073B1072104E078
:1007000030321B09625408D0013903F00F02092A64
:10071000F6D937321B096254F6D140F26400082240
:10072000C2F20000694601F0E5FD40F2640042F6C5
:10073000F451C2F20000C0F2000101F031FE40F2BB
:100740001003C5F200031B684FF030326260226074
:1007500073B1072104E030321B09625408D001391B
:1007600003F00F02092AF6D937321B096254F6D179
:1007700040F26400C2F200006946082201F0BAFDAE
:1007800040F2640042F61C61C2F20000C0F20001B7
:1007900001F006FE40F21401C5F200010B684FF0B3
:1007A00030306060206073B1072104E030321B09F3
:1007B000625408D0013903F00F02092AF6D9373202
:1007C0001B096254F6D140F264000822C2F2000014
:1007D000694601F08FFD40F2640042F64461C2F2C6
:1007E0000000C0F2000101F0DBFD40F21803C5F289
:1007F00000031B684FF030326260226073B1072142
:1008000004E030321B09625408D0013903F00F02B2
:10081000092AF6D937321B096254F6D140F2640036
:10082000C2F200006946082201F064FD40F2640053
:1008300042F66C61C2F20000C0F2000101F0B0FDAE
:1008400040F21C01C5F200010B684FF030306060CF
:10085000206073B1072104E030321B09625408D0D4
:10086000013903F00F02092AF6D937321B09625405
:10087000F6D140F264000822C2F20000694601F09D
:1008800039FD40F2640042F69461C2F20000C0F209
:10089000000101F085FD40F23003C5F200031B6842
:1008A0004FF030326260226073B1072104E03032D1
:1008B0001B09625408D0013903F00F02092AF6D946
:1008C00037321B096254F6D140F26400C2F20000D4
:1008D0006946082201F00EFD40F2640042F6BC6158
:1008E000C2F20000C0F2000101F05AFD40F23401F2
:1008F000C5F200010B684FF030306060206073B1CA
:10090000072104E030321B09625408D0013903F09A
:100910000F02092AF6D937321B096254F6D140F288
:100920006400C2F200006946082201F0E3FC02B054
:1009300010BD00BF2DE9F04F91B002AB0193019CB7
:1009400042F6745EC0F2000E80468946BEE80F0093
:100950000FC4A3469EE80700ABE8030009AF009769
:100960005E4642F69055DDF800B03280C0F20005D8
:100970004FEA124C0FCDABE80F0084F80AC02D8867
:1009800040F2140040F2300140F23402FF24C5F27C
:1009900000024FEA182A08F0FF0E40F21003C5F2D9
:1009A0000000C5F20001ABF800504FEA8816046061
:1009B000C5F20003C1F800A040F21C07C2F800E035
:1009C000002226401A60C5F200074FEA98084FEA55
:1009D000192509EA04043A6812F0100FFBD040F21E
:1009E000140A4020C5F2000A40F20C01CAF80000C7
:1009F000C5F200010F68474508BF4FF0000B00F03B
:100A0000908040F2640042F6E461C2F20000C0F25D
:100A1000000101F0C5FC40F2640042F6FC61C2F244
:100A20000000C0F2000101F0BBFCDAF800304FF02A
:100A300030320F920E920DF1380A83B1072105E092
:100A400030321B090AF8012009D0013903F00F02E6
:100A5000092AF5D937321B090AF80120F5D140F2ED
:100A60006400C2F200005146082201F043FC40F24B
:100A7000640042F61C71C2F20000C0F2000101F0F5
:100A80008FFC4FF03033CAF80430CAF80030B8F1A8
:100A9000000F12D0072206E030335FEA18180AF878
:100AA00002300AD0013A08F00F03092BF4D937338A
:100AB0005FEA18180AF80230F4D140F26400C2F27A
:100AC00000005146082201F015FC40F2640042F695
:100AD0003071C0F20001C2F2000001F061FC4FF081
:100AE0003031CAF80410CAF8001087B1072205E0B7
:100AF00030333F090AF8023009D0013A07F00F03FA
:100B0000092BF5D937333F090AF80230F5D140F205
:100B10006400C2F200005146082201F0EBFB4FF0E6
:100B2000010B40F20C00C5F200000768B74200F06C
:100B30008F8040F2640042F64471C2F20000C0F2BD
:100B4000000101F02DFC40F2640042F6FC61C2F2AB
:100B50000000C0F2000101F023FC40F21403C5F2D2
:100B600000031B684FF030320F920E920DF13808DF
:100B700083B1072105E030321B0908F8012009D0B4
:100B8000013903F00F02092AF5D937321B0908F899
:100B90000120F5D140F26400C2F200004146082273
:100BA00001F0A8FB40F2640042F61C71C0F20001A3
:100BB000C2F2000001F0F4FB4FF03031C8F804102D
:100BC000C8F8001086B1072205E03033360908F86E
:100BD000023009D0013A06F00F03092BF5D937335B
:100BE000360908F80230F5D140F26400C2F2000084
:100BF0004146082201F07EFB40F2640042F630716B
:100C00004FF03036C2F20000C0F2000101F0C8FB24
:100C1000C8F80460C8F8006087B1072205E03033E7
:100C20003F0908F8023009D0013A07F00F03092BF9
:100C3000F5D937333F0908F80230F5D140F26400A6
:100C4000C2F200004146082201F054FB4FF0010BB4
:100C500040F20C00C5F200000668AE4200F084804D
:100C600040F2640042F65C71C2F20000C0F2000182
:100C700001F096FB40F2640042F6FC61C2F2000013
:100C8000C0F2000101F08CFB40F21402C5F2000238
:100C900013684FF030370F970E970EAF73B10721DF
:100CA00004E030321B097A5408D0013903F00F02F6
:100CB000092AF6D937321B097A54F6D140F264007A
:100CC000C2F200003946082201F014FB40F2640031
:100CD00042F61C71C2F20000C0F2000101F060FB9C
:100CE0004FF030337B603B6075B1072204E0303356
:100CF0002D09BB5408D0013A05F00F03092BF6D992
:100D000037332D09BB54F6D140F26400C2F2000023
:100D10003946082201F0EEFA40F2640042F63071E2
:100D20004FF03035C2F20000C0F2000101F038FB94
:100D30007D603D6076B1072204E030333609BB5454
:100D400008D0013A06F00F03092BF6D937333609DC
:100D5000BB54F6D140F26400C2F2000039460822CA
:100D600001F0C8FA4FF0010B40F20C01C5F200018E
:100D70000D68A54200F0848040F2640042F6747170
:100D8000C2F20000C0F2000101F00AFB40F2640070
:100D900042F6FC61C2F20000C0F2000101F000FB6B
:100DA00040F21400C5F2000003684FF030360F9691
:100DB0000E960EAE73B1072104E030321B09725457
:100DC00008D0013903F00F02092AF6D937321B097E
:100DD0007254F6D140F264000822C2F2000031469B
:100DE00001F088FA40F2640042F61C71C2F2000081
:100DF000C0F2000101F0D4FA4FF03032726032607C
:100E000074B1072204E030332409B35408D0013A06
:100E100004F00F03092BF6D937332409B354F6D164
:100E200040F26400C2F200003146082201F062FA8A
:100E300040F2640042F63071C2F20000C0F20001DC
:100E400001F0AEFA4FF030337360336075B10722B2
:100E500004E030332D09B35408D0013A05F00F03F4
:100E6000092BF6D937332D09B354F6D140F264007B
:100E7000C2F200003146082201F03CFA4FF0010BAB
:100E8000B9F1050900F0BE8040F2140440F20C0AEA
:100E9000C5F200045B46C5F2000A4FF00008302797
:100EA0000EAEA346DAF8004008F0FF05AC4200F0B1
:100EB000A38040F2640042F68C71C2F20000C0F2DE
:100EC000000101F06DFA40F2640042F6FC61C2F2EA
:100ED0000000C0F2000101F063FADBF800308DF889
:100EE00038708DF839708DF83A708DF83B708DF848
:100EF0003C708DF83D708DF83E708DF83F7073B189
:100F0000072104E030321B09725408D0013903F084
:100F10000F02092AF6D937321B097254F6D140F272
:100F20006400C2F200003146082201F0E3F940F209
:100F3000640042F61C71C2F20000C0F2000101F030
:100F40002FFA8DF838708DF839708DF83A708DF869
:100F50003B708DF83C708DF83D708DF83E708DF8CB
:100F60003F7075B1072204E030332D09B35408D027
:100F7000013A05F00F03092BF6D937332D09B35485
:100F8000F6D140F26400C2F200003146082201F0BE
:100F9000B1F940F2640042F63071C2F20000C0F2D2
:100FA000000101F0FDF98DF838708DF839708DF879
:100FB0003A708DF83B708DF83C708DF83D708DF86F
:100FC0003E708DF83F7074B1072204E0303324097D
:100FD000B35408D0013A04F00F03092BF6D9373384
:100FE0002409B354F6D140F26400C2F20000314645
:100FF000082201F07FF9012308F10108C845FFF438
:1010000051AF9B4640F20C03C5F200031A681B68FF
:10101000BBF1000F0BD140F26400C2F2000009A93D
:10102000122201F067F9002011B0BDE8F08F40F204
:101030006400C2F2000002A91B2201F05BF95846CD
:10104000F2E700BF2DE9F04FADF58C6D81B00DF5E5
:101050008A673A1D0192019C43F2CC66C0F20006F9
:1010600096E8070084E8070001F0EEFC0020032169
:1010700001F036FD0120052101F032FD022001467C
:1010800001F02EFD0320014601F02AFD042003217A
:1010900001F026FD0520014601F022FD0620052174
:1010A00001F01EFD0720052101F01AFD0820052191
:1010B00001F016FD0920022101F012FD0A20022193
:1010C00001F00EFD0B20052101F00AFD0C2003218B
:1010D00001F006FD0D20052101F002FD0E20032187
:1010E00001F0FEFC0F20032101F0FAFC1020032187
:1010F00001F0F6FC1120032101F0F2FC1220032183
:1011000001F0EEFC1320022101F0EAFC142005217D
:1011100001F0E6FC1520052101F0E2FC1620052176
:1011200001F0DEFC1820052101F0DAFC1920032172
:1011300001F0D6FC1A20032101F0D2FC1C2005216D
:1011400001F0CEFC1F20032101F0CAFC40F2640034
:101150000322C2F200004FF4614101F045FC40F26D
:10116000640042F6C071C2F20000C0F2000101F05A
:1011700017F943F200050DF58A6340F26400191D6A
:101180000C22C4F20105C2F2000001F0B3F8D5F858
:10119000881040F6000321F0805BC4F20203C5F81A
:1011A00088B0002242F2DE751A609D6040F20F3571
:1011B000DD604FF0020AC125C3F810A05A619D619D
:1011C00040F69F15DD6143F233351A625D624FF6DA
:1011D000FF759D6247F27775DD6240F6FF751D630E
:1011E000012144F2422559639D630825DD634FF0D8
:1011F00033091835C3F840905D64A0359A64DA6409
:101200001D659D3D5D6540F235259D656425DD6567
:1012100040200324A4351D6670355D6641F64715F0
:10122000C3F86890DD6610251D674FF44C555A676A
:101230009D6740F214554FF4007CDA67C3F88020B4
:10124000C3F884501225C3F88820C3F88CC0C3F8B3
:101250009000C3F894504FF48045C3F898A048F22A
:10126000F808C3F89C504FF0070E40F20935C3F858
:10127000A080C3F8A4E0C3F8A880C3F8ACE0C3F82A
:10128000B0C0C3F8B410C3F8B820C3F8BC40C3F86A
:10129000C040C3F8C400C3F8C820C3F8CC20C3F8CA
:1012A000D020C3F8D420C3F8D8508025C3F8E0205C
:1012B00040F20147C3F8402144F21006C3F81C2253
:1012C000C3F82452753DC3F83042C3F83822C3F83E
:1012D0004022C3F84852C3F85C02C3F86072C3F8F6
:1012E0006462C3F868222132C3F88012C3F89802FE
:1012F000C3F89C72C3F8A062C3F8D802C3F8DC72CA
:10130000C3F8E062C3F8FC22183AC3F804439B46D2
:10131000C3F80813C3F80C13C3F81423C3F81C1341
:101320001960DBF8E4000028FBD040F21003C5F29E
:101330000003102440F2140040F230051C60C5F296
:101340000005022740F23402C5F2000042F6905E2A
:10135000006800262F60C5F2000242F6745840F281
:101360000C04A921C0F2000E0DF584650DF5886C02
:101370001160C0F200081E60CDF814E0C5F2000450
:1013800040F2A92A08270435CDF800C040F6FF7BBB
:1013900009AE40F264004FF48062C2F200003146B0
:1013A00001F03CF896F8009002460028F0D040F298
:1013B0006400C2F200003146A9F1310900F09AFF41
:1013C000B9F1380F00F28884DFE819F075046C0475
:1013D00057044204EF0356034103940504058604B1
:1013E00086048604860486048604860486048604AD
:1013F000860486048604860486048604860486049D
:10140000860486048604860486048604860486048C
:10141000860486048604860486048604860486047C
:10142000860486048604860486048604BB0491042C
:101430008606DC052206140321022D01390040F244
:10144000640043F27C61C2F20000C0F2000100239C
:10145000039300F0A5FF039907F57E69781FC24644
:1014600009F11A0904910690B846022201234FF4AB
:1014700073704146FFF73CF80123DF1803EB0801C6
:10148000022201234FF47370FFF732F807EB0801D3
:101490000222012301374FF47370FFF729F85F45EB
:1014A00018BF264626D07C1C07EB08010222012328
:1014B0004FF47370FFF71CF804EB080102220123BC
:1014C0004FF47370FFF714F8621C02EB080101235C
:1014D0000222FC1C4FF47370FFF70AF80437022253
:1014E000012304EB08014FF47370FFF701F85F4527
:1014F000D9D13446069E049FD446AE46BCE80F00C0
:10150000AEE80F0073469CE8070003C31946130CAE
:10151000AB760A8022682068731D002800F056868A
:10152000012220682168B0EB132F18BF012203F0BD
:10153000FF00884218BF0122002E48D020680123F6
:10154000711E002818BF1A469E4201F003013ED9C1
:10155000C1B101290DD0022904D02168994218BFD8
:1015600001220223206803F0FF0C604518BF01220E
:101570000133206803F0FF0E0133704518BF0122CC
:101580009E4224D9D4F800E0591C206803F0FF0CD7
:10159000E6450CBF94464FF0010C01F1010E2268A4
:1015A00001F0FF0188420CBF614601210EF0FF0EE1
:1015B00003F1030C206872450CBF0A4601220CF0AF
:1015C000FF0C0433604518BF01229E42DAD8012A7D
:1015D0002368236800F0FF8501364E458CD1039BBC
:1015E00004975F1C042F03977FF43FAF049E474688
:1015F000D046002E00F0538640F2640042F6C071DF
:10160000C2F20000C0F2000100F0CAFE0DF58A62CD
:1016100040F26400111DC2F200000C2200F06AFECC
:101620004FF4737AB4E640F2640043F24C61C2F2C4
:101630000000C0F200010023039300F0B1FE039903
:1016400007F57E6A781F0AF11A090491C2460690CE
:10165000B8460222012340F2AB204146FEF748FF84
:101660000122971802EB08010123022240F2AB206D
:10167000FEF73EFF07EB080102220123013740F28B
:10168000AB20FEF735FF5F4518BF264626D07C1CF1
:1016900007EB08010222012340F2AB20FEF728FFEE
:1016A00004EB08010222012340F2AB20FEF720FFE9
:1016B000621C02EB080101230222FC1C40F2AB2059
:1016C000FEF716FF04370222012304EB080140F263
:1016D000AB20FEF70DFF5F45D9D13446069E049F2F
:1016E000D446AE46BCE80F00AEE80F0073469CE857
:1016F000070003C31946130CAB760A8022682068E2
:10170000731DC02800F05D85012220682168B0EBC0
:10171000132F18BF012203F0FF00884218BF0122D7
:10172000002E48D020680123711E002818BF1A46D9
:101730009E4201F003013ED9C1B101290DD0022919
:1017400004D02168994218BF01220223206803F0C7
:10175000FF0C604518BF01220133206803F0FF0E23
:101760000133704518BF01229E4224D9D4F800E00D
:10177000591C206803F0FF0CE6450CBF94464FF05F
:10178000010C01F1010E226801F0FF0188420CBF3B
:10179000614601210EF0FF0E03F1030C2068724533
:1017A0000CBF0A4601220CF0FF0C0433604518BF41
:1017B00001229E42DAD8012A2368236800F021859D
:1017C00001364E458CD1039B04975F1C042F039771
:1017D0007FF43FAF049E4746D046002E00F06B8555
:1017E00040F2640042F6C071C2F20000C0F2000193
:1017F00000F0D6FD0DF58A6240F26400111DC2F2C0
:1018000000000C2200F076FD40F2AB2AC0E540F269
:10181000640043F21C610022C2F20000C0F2000129
:10182000039200F0BDFD039B07F57E697A1FC24657
:1018300009F11A0904930692B8460222012340F2E4
:10184000AA204146FEF754FE0123DF1803EB0801EE
:101850000222012340F2AA20FEF74AFE07EB08010C
:1018600002220123013740F2AA20FEF741FE5F4524
:1018700018BF264625D07C1C07EB08010222012355
:1018800040F2AA20FEF734FE04EB080102220123F5
:1018900040F2AA20FEF72CFE611C02220123FC1C50
:1018A000414440F2AA20FEF723FE0437022201231E
:1018B00004EB080140F2AA20FEF71AFE5F45DAD1D8
:1018C0003446069E049FD446AE46BCE80F00AEE800
:1018D0000F0073469CE8070003C31946130CAB7650
:1018E0000A8022682068731D802800F06584012228
:1018F00020682168B0EB132F18BF012203F0FF000E
:10190000884218BF0122002E48D020680123711E92
:10191000002818BF1A46B34201F003013ED2C1B1FC
:1019200001290DD0022904D02068984218BF012255
:101930000223206803F0FF0C604518BF0122013329
:10194000206803F0FF0E0133704518BF0122B34237
:1019500024D2D4F800E0591C206803F0FF0CE645BF
:101960000CBF94464FF0010C01F1010E226801F00A
:10197000FF0188420CBF614601210EF0FF0E03F10A
:10198000030C206872450CBF0A4601220CF0FF0CC4
:101990000433604518BF0122B342DAD3012A236819
:1019A000236800F0238401364E458CD1039B0497B5
:1019B0005F1C042F03977FF440AF049E4746D04638
:1019C000002E00F0848440F2640042F6C071C2F23E
:1019D0000000C0F2000100F0E3FC0DF58A6240F265
:1019E0006400111DC2F200000C2200F083FC40F2E2
:1019F000AA2ACDE440F2640043F20061C2F2000082
:101A0000C0F2000100F0CCFC43F20003C4F2010379
:101A10004FF08050C3F88800D3F8881040F264007B
:101A200021F08052C3F8882042F6C071C2F2000053
:101A3000C0F2000100F0B4FC0DF58A6140F26400D0
:101A4000C2F2000004310C2200F054FCA0E440F289
:101A5000640043F23441C2F20000C0F2000100F021
:101A60009FFC5046394602220123FEF741FD40F219
:101A7000640042F6C071D9E740F2640043F2D43109
:101A8000C0F200014FEA8A19C2F2000000F088FC9F
:101A900009F0FF064FEA9A027B1E00210796049286
:101AA0007E1F06930391B9460122771D50463946A1
:101AB0001346FEF71DFDC446AE46BCE80F00AEE877
:101AC0000F0073469CE8070003C31846130C0280FE
:101AD000AB76236807982168814200F0A283012336
:101AE00022682168B2EB172F18BF012307F0FF000F
:101AF00088420CBF1A460122002E42D020680123E2
:101B0000771E002818BF1A46B34207F0030138D2E7
:101B1000C1B101290DD0022904D020680223012877
:101B200018BF0122276803F0FF018F4218BF01226E
:101B30000133206803F0FF0C0133604518BF012218
:101B4000B3421ED22768591C206803F0FF0E774568
:101B500018BF012201F1010C276801F0FF01884242
:101B600018BF01220CF0FF0ED81C2168774518BF62
:101B7000012200F0FF0C0433614518BF0122B3427B
:101B8000E0D3012A2368236800F05C83DDF818C0E5
:101B90000136664588D1039E4F46002E00F06F83C4
:101BA00040F2640042F6C07140E740F2640043F244
:101BB0009431C2F20000C0F2000100F0F1FBC14616
:101BC000AE46B9E80F00AEE80F00734699E807008B
:101BD00003C3059EDDF800C01A804FEA12490FCEFC
:101BE000ACE80F0036886046068085F81A902368B6
:101BF0004FEA8A1E22680EF0FF0C944500F02E83F7
:101C0000012326682268B6EB172F18BF012307F0BF
:101C1000FF0090420CBF1A460122791F09D0002311
:101C2000206803F0FF0C0133604518BF01228B428E
:101C3000F6D340F26400012A2368C2F20000236850
:101C400000F028830DF58861122200F053FBA7E70E
:101C500040F2640043F25831C2F20000C0F20001C9
:101C600000F09EFB5046394601220023FEF740FC5F
:101C700040F2640042F6C071D8E640F2640043F2DC
:101C80003831C2F20000C0F2000100F089FB40F2DE
:101C90001003C5F20003102640F2640042F6C07142
:101CA0001E60C3E640F2640043F21831C2F2000045
:101CB000C0F20001E9E7FEF7E1FC40F2640043F204
:101CC0001031C2F20000C0F2000100F069FB40F2E6
:101CD000640042F6C071A9E640F2640043F2AC61D0
:101CE000C2F20000C0F2000100F05AFB58E740F2D7
:101CF000640043F23051C2F20000C0F2000100F073
:101D00004FFB40F2F9314FF42A70FEF713FE40F218
:101D1000640042F6C071C2F20000C0F2000100F09F
:101D20003FFB40F264000DF58A61C2F2000004310D
:101D30000C2200F0DFFA40F2A92A40F2F937FFF74F
:101D400027BB40F2640043F2FC41C2F20000C0F243
:101D5000000100F025FB40F21402C5F20002FF264C
:101D600040F2300140F234071660C5F20001C5F2BE
:101D70000007022040F20803A8260860C5F200030D
:101D80003E60AA224FF42A47032140F2F9301A603C
:101D90001F600022196018601A600132B2F57D7F61
:101DA000FAD140F21003C5F2000340F214022027DA
:101DB0001F60C5F20002106840F2140310F0800F9B
:101DC000C5F20003F7D0802240F2640042F6C071F1
:101DD0001A60A0E740F2640043F2B041C0F2000193
:101DE000C2F2000000F0DCFA4FEA8A1C0CF0FF0699
:101DF0004FEA9A017A1E0023049606917E1F0792ED
:101E00000393B946771D0222012350463946FEF757
:101E10006FFBC446AE46BCE80F00AEE80F00734649
:101E20009CE8070003C31946130C0A80AB762368AD
:101E300004982268824200F0EF8101232068216823
:101E4000B0EB172F18BF012307F0FF028A420CBF27
:101E50001A460122002E42D021680123771E002954
:101E600018BF1A46B34207F0030138D2C1B10129A5
:101E70000DD0022904D027680223012F18BF0122A8
:101E8000206803F0FF0E704518BF01220133276858
:101E900003F0FF0101338F4218BF0122B3421ED26B
:101EA0002768591C206803F0FF0E774518BF0122F0
:101EB00001F1010C276801F0FF01884218BF0122DF
:101EC0000CF0FF0ED81C2168774518BF012200F0E6
:101ED000FF0C0433614518BF0122B342E0D3012A4D
:101EE0002368236800F0A281DDF81CC00136664536
:101EF00088D150E640F2640043F27041C2F2000023
:101F0000C0F2000100F04CFAC446AE46BCE80F0037
:101F1000AEE80F0073469CE8070003C3059EDDF89A
:101F200000901A804FEA124C0FCEA9E80F00B6F8C5
:101F300000E04946A1F800E085F81AC023684FEA9E
:101F40008A19206809F0FF06864200F0CC8101233F
:101F500026682268B6EB172F18BF012307F0FF0190
:101F600091420CBF1A460122791F3FF462AE002352
:101F7000206803F0FF090133484518BF01228B4256
:101F8000F6D356E640F2640043F2A451C2F20000D8
:101F9000C0F2000100F004FA08214FF42A70FEF7A5
:101FA000C9FC0921012814BF002601264FF42A701C
:101FB000FEF7C0FC012808BF01364FF42A700A2141
:101FC000FEF7B8FC012808BF01364FF42A700B2138
:101FD000FEF7B0FC012802D0002E00F0458140F24F
:101FE000640042F6C071C2F20000C0F2000100F0CD
:101FF000D7F90DF58A6640F26400C2F20000311D87
:102000000C2200F077F940F2A92A0827FFF7C0B99F
:1020100040F2640043F2DC51C2F20000C0F2000161
:1020200000F0BEF940F2340740F2140140F2300CE7
:1020300040F2080340F21006C5F20001C5F2000CA0
:10204000C5F20007C5F20003C5F2000600204FF0FC
:10205000800EFF220A60FD3ACCF80020023A3A6076
:102060004FF40042C3F800E01A6003221A604FF4F4
:102070007F721A6000221A6001321A6092181A6088
:1020800040F2F73A0132524518BF049111D002F1E3
:10209000010A02F103090AF101011A60C3F800A064
:1020A00004321960C3F8009040F2F7394A45EED186
:1020B0000499202232609A460B6840F2140213F011
:1020C000800FC5F20002F7D00130B0F5803F5346D3
:1020D000C2F800E0BDD182E740F2640043F26C51E7
:1020E000C2F20000C0F2000140F2140A00F058F9F8
:1020F000C5F2000A40F2300C40F2340740F2080208
:1021000040F21006C5F2000CC5F20007C5F200024D
:10211000C5F2000603204FF0020ED146FF23C9F896
:102120000030573BCCF800E03B60023313604FF4C3
:102130002A431360411D00231360116013600133B3
:1021400000F1FF3A98420AF0030A23D9BAF1000FCE
:102150000DD0BAF1010F06D0BAF1020F1CBF136007
:1021600073461360013313600133984212D9CDF8DE
:102170001090136003F1010A03F1030904330AF11B
:1021800001019842C2F800A01160C2F80090F0D896
:10219000DDF810902023336049460B6813F0800F60
:1021A000FBD08946013040F214018023C5F20001C2
:1021B00007280B60B2D112E7AA3A18BF0122FFF735
:1021C00097BBAA3A18BF0122FFF79FBAF33A18BF8C
:1021D0000122FFF7A6B940F26400C2F200002946CE
:1021E0001B2200F087F80137FFF7F6B940F26400D0
:1021F000C2F2000029461B2200F07CF80137FFF7ED
:10220000D2BB40F26400C2F2000029461B2200F05B
:1022100071F80137FFF7D4BA06981B1A18BF0123CB
:102220000CE6049A9B1A18BF012359E440F264009B
:102230001A32C2F20000294600F05CF8039A531CDF
:10224000039351E640F264001A32C2F200002946BC
:1022500000F050F8039A531C039397E4B3EB9A0FE2
:102260000CBF00230123CCE440F2640042F6A471C9
:10227000C2F20000C0F2000100F092F8AFE640F2B6
:10228000640042F6A471C2F20000C0F2000100F046
:1022900087F885E429461A3200F02CF880E440F2F1
:1022A000640042F6A471C2F20000C0F2000100F026
:1022B00077F8FFF7A1B940F2640042F6A471C2F2C8
:1022C0000000C0F2000100F06BF8FFF789BA40F29D
:1022D000640042F6A471C2F20000C0F2000100F0F6
:1022E0005FF8FFF770BBB3EB9A0F0CBF002301231D
:1022F0002EE600BF40F26403C2F2000398422DE9CB
:10230000F00508D040F2240CC2F2000C604502D067
:10231000BDE8F00570470B1E18BF0123002A0CBF53
:10232000002303F00103002BF2D090F80D80D0F8C9
:1023300000A000259AF814C048EA0C081CF0200FF1
:1023400080F80D8023D00F2A24D910274E5D046811
:10235000012307F1FF3C26700CEA030605EB030C92
:102360004D19BB4211D236B1EE5C0223BB4226703E
:102370000CF1010C09D2EE5C01332670EE5C0133E6
:10238000BB4226700CF1020CF5D36546D21A002A26
:10239000D0D1BDE70AB11746D8E71346D21AF6E7FF
:1023A00040F26403C2F2000398422DE9F00508D020
:1023B00040F22402C2F20002904202D0BDE8F005D1
:1023C00070470029FAD00D78002DF7D0427B0468C1
:1023D0004FF0000C237D1A4313F0200FFAD0427304
:1023E00025B96346002DE9D09C46F3E7D0F800A05C
:1023F000002601EB0C0801368AF8005018F8065048
:1024000006EB0C032F1E18BF01270F2E8CBF0027D1
:1024100007F00107002FE5D0EDE700BF40F26403AD
:10242000C2F20003984270B409D040F2240CC2F208
:10243000000C604503D00023184670BC70470B1E8B
:1024400018BF0123002A0CBF002303F00103002B57
:10245000F1D0046890F80DC0237D43EA0C0C13F012
:10246000010F80F80DC0E6D000232578CD54046814
:10247000467B94F814C001334CEA06069A4294BF96
:1024800000250CF001054673002DEED1D4E700BF06
:1024900040F26403C2F20003984210B5044606D02D
:1024A00040F22400C2F20000844200D010BD226835
:1024B000117A01F00F0CBCF10C0FF7D801A151F803
:1024C0002CF000BF15250000AD2400000D250000F4
:1024D0001D25000005250000AD240000F9240000A2
:1024E000AD240000AD240000AD240000AD240000A8
:1024F000AD24000005250000E369002BD6D020465E
:10250000984710BD236A002BF9D1CFE7636A002BEF
:10251000F5D1CBE7A36A002BF1D1C7E7283222F02F
:102520007F4020F4700302F07041580101F1007CFB
:102530005CF8003013F0FF0F05D0E36A1BB12046B2
:1025400098472268283202F0704022F07F4C00F158
:1025500000732CF47001181D4901435813F0FF0F4C
:1025600005D0236B1BB1204698472268283202F021
:10257000704322F07F4C03F100702CF4700108309E
:102580004901435813F0FF0F05D0636B1BB1204680
:1025900098472268283202F0704322F07F4C2CF4D6
:1025A000700003F100730C334101585810F0FF0F15
:1025B00005D0A36B1BB1204698472268283222F031
:1025C0007F4C02F0704101F100722CF47003103264
:1025D0005801115811F0FF0F3FF468AFE36B002B67
:1025E0003FF464AF2046984760E700BF684620F09C
:1025F00007018D4601B540F22400C2F20000FFF74A
:1026000047FFBDE801408546704700BF684620F09F
:1026100007018D4601B540F26400C2F20000FFF7E9
:1026200037FFBDE801408546704700BF40F26403B4
:10263000C2F20003984270B407D040F22401C2F203
:102640000001884201D070BC70470469002CFAD0A8
:102650004369002BF7D0016890F80DC00A7D42EA6B
:102660000C0C12F0200F80F80DC0826929D09D1A41
:102670000F2D38D91025A41826786B1E0E7003F084
:102680000106012301329D42826119D946B194F8B5
:1026900001C0022301329D4281F800C082610FD93E
:1026A00014F803C0013281F800C00133826114F8CC
:1026B00003C0013301329D4281F800C08261EFD82E
:1026C00043699A42BFD102680021131D23F07F4C59
:1026D00003F0704202F100732CF4700204335201D3
:1026E00099504161AFE7002DC5D1EAE72DE9F04FE0
:1026F00040F264038FB0C2F200030B9248F2000272
:102700009842C4F2030204460D91906C4EF20011FF
:1027100000F0298140F48077CEF200014FF400668A
:102720009764C1F88061956C40F2000125F48070D7
:10273000C4F2010190640B222271216000220D4637
:102740000A7101F1100605F8082F01F1380A2AF084
:102750007F4B01F1340925F07F4726F07F4805F0D3
:10276000704506F070460AF0704ACDF810A0069544
:1027700029F07F4006F100750390019509F070493A
:10278000049DCDF81C90DDF80C9005F1007529F43E
:10279000700A0A952BF47009079DDDF818B0CDF882
:1027A00014900BF1007905F1007B049D01F1300CD0
:1027B0002CF07F4005F100750CF0704CCDF80CA0AA
:1027C00004950CF100750CF1007AAC46039DCDF830
:1027D00024A06D010395059D28F470086D010595F1
:1027E000069DCA4605F100750695019D4FEA4818F9
:1027F00014350195079D27F4700705F100750795BD
:10280000049D7F0104350495654614350895099D9E
:10281000CDF830801C3509950A9D4FF001080C3524
:102820000AF1080A09F104090A9506F1007649F847
:1028300007800C9D4AF80780DDF818A010364AF88A
:1028400007807251DDF80CA0019E0BF1040B725150
:102850004BF80A20DDF81CB0059D4BF80A20049EB9
:10286000DDF820A020F4700040010CF1180C72512A
:10287000DDF824B04AF800204CF80020DDF828C02C
:102880009C424BF800204CF8052081F8442081F848
:10289000482081F84C2079D040F22403C2F2000392
:1028A0009C4215D00B9D00200D7360730D9E6061DE
:1028B000A66025732061A06120626062E061A06271
:1028C000E06220636063A063E0630FB0BDE8F08F57
:1028D0000D9FA76000F00EF940F21801C2F200014E
:1028E0000A680D9ED700B7FBF6F2D3095708B3F577
:1028F000803F28BF2168D5D2012B216850D901F132
:102900000C0020F07F4C00F0704606F100702CF4B3
:10291000700A4FEA4A1E0D465FFA83F8A7EB831749
:102920001C300126C2F3C73A40F80E60A7EBC31370
:1029300081F804A005F8308B9A1825F07F4305F044
:10294000704523F47008A2EB470705F100751C35AC
:102950004FEA4818FFB2002340F80E3045F80860EF
:1029600081F83C709EE740F08007CEF200014FF402
:1029700080669764C1F88061956C4FF0804125F0C6
:10298000800090640A2222712160D7E60D9AA2602D
:1029900000F0B0F840F21401C2F200010A68A0E7AA
:1029A00001F10C0C2CF07F4E0CF070422EF47005EF
:1029B00002F100724FEA451E08460025DBB21C32C8
:1029C000012642F80E600D7100F8303B20F07F4C7C
:1029D00000F0704000F100762CF470031C365B01AF
:1029E00042F80E50F5505DE7F8B50446FFF77EFE5D
:1029F00022684FF6FF7302F1340002F13005C0F295
:102A00000F0305F07047383200F0704102EA030608
:102A100007F1007C1D4000EA030702F0704201F15B
:102A2000007142F22D607B010CF10C0C02F1007779
:102A30006D01002208317601C0F200004CF805203B
:102A40006062CA50BA51F8BD48F20002C4F20302F3
:102A50002DE9F005946C43F2D86644F48013936436
:102A6000906C4EF2001340F0F0719164C0F20006D9
:102A7000CEF2000300220127551CB45C16F805A015
:102A800004F01F000AF01F0117FA00F017FA01F115
:102A90004FFA8AF862B254094FEA581C6A1C04F1D2
:102AA000600A0CF1600820340CF1200C202A43F855
:102AB000240043F82A0043F82C1043F82810DBD1F7
:102AC00048F20003C4F203039A6C22F0F070986499
:102AD000996C21F480129A64BDE8F005704700BF3C
:102AE0001F289FBF43F2F863C0F2000353F8203061
:102AF000196070472DE9F00148F20003C4F20303A6
:102B0000D3F8982083B012F0806F19D1D3F89800D1
:102B100010F4805F4ED043F2787CC0F2000C6A461D
:102B20009CE8030082E80300D3F89C1002AFC1F3D5
:102B30008216BD1915F8084C012C00F081806AD26C
:102B4000D3F8500147F640084FF2800310F0040F0D
:102B5000C0F27D18C0F2FA2340F21C0540F21404C2
:102B600040F2180040F208074AF6E07C40F20C01FF
:102B700040F2100240F2040608BF4346C2F20005CC
:102B8000C2F20004C2F20000C2F20007C0F21D2C23
:102B9000C2F20001C2F20002C2F20006C7F800C091
:102BA00033602B60236003600B60136003B0BDE8EB
:102BB000F001704740F21C054BF6807340F214049C
:102BC00045F6C07240F2180040F2080C4AF6E07870
:102BD00040F20C0740F2100140F20406C0F6760302
:102BE000C0F23B42C2F20005C2F20004C2F2000091
:102BF000C2F2000CC0F21D28C2F20007C2F20001AE
:102C0000C2F20006CCF800803A6033602B6022608C
:102C100002600B60CAE744F2402340F21C0540F218
:102C2000140440F2180040F208074AF6E07C40F233
:102C30000C0140F2100240F20406C0F20F039DE7BF
:102C400040F21C0540F2140440F2180040F208075C
:102C50004AF6E07C40F20C0140F2100240F2040619
:102C6000C2F20005C2F20004C2F20000C2F2000784
:102C7000C0F21D2CC2F20001C2F20002C2F2000634
:102C80004FF400438AE700BF48F20003C4F2030395
:102C9000D3F84C114FF6020291420BD1D3F89800B1
:102CA00040F48072C3F89820D3F8981021F0806027
:102CB000C3F898004EF60053CEF200035A6942F46E
:102CC00000715961FDF7B6BB70B543F2987643F2D7
:102CD0009875C0F20006C0F20005761BB61006D04B
:102CE000002455F8243001349847A642F9D843F21D
:102CF000987543F29C76C0F20005C0F20006761B80
:102D000000F03EFDB61006D0002455F82430013402
:102D10009847A642F9D870BD0A0D20205458204685
:102D200049464F20554E44455252554E20494E5427
:102D300045525255505400000A0D20205458204648
:102D400049464F204F564552464C4F5720494E5406
:102D500045525255505400000A0D2020545820432B
:102D60004F4C4C4953494F4E20494E5445525255B1
:102D7000505400000A0D202121212121212046410B
:102D8000494C4544205258205041434B4554000083
:102D90000A0D2050415353205258205041434B4577
:102DA000540000000A0D0A0D2020465047412052D1
:102DB00065766973696F6E205265676973746572B1
:102DC0003A20202020202020307800000A0D2020EA
:102DD00046504741205363726174636820506164B8
:102DE0002052656769737465723A2020202030781C
:102DF000000000000A0D20204650474120436F6E1E
:102E000074726F6C2052656769737465723A202022
:102E10002020202020203078000000000A0D2020F3
:102E20004650474120496E74657272757074205225
:102E3000656769737465723A2020202020203078FD
:102E4000000000000A0D20204650474120496E74C2
:102E5000657272757074204D61736B20526567697D
:102E6000737465723A203078000000000A0D20204B
:102E700046504741205374617475732052656769E9
:102E8000737465723A202020202020202020307882
:102E9000000000000A0D2020465047412048696785
:102EA0006820416464726573732052656769737446
:102EB00065723A2020203078000000000A0D2020A2
:102EC00046504741204C6F772041646472657373AC
:102ED0002052656769737465723A2020202030782B
:102EE000000000000A0D2048696768204164647290
:102EF000657373204661696C2020000020204650D5
:102F0000474120496E74657272757074205265670E
:102F100069737465723A20202030780020202020C8
:102F200045787065637465643A202020307800002D
:102F30002020202041637475616C3A202020307875
:102F4000000000000A0D204C6F7720416464726518
:102F50007373204661696C20202000000A0D204810
:102F6000696768204C656E677468204661696C20EB
:102F7000202000000A0D204C6F77204C656E67748E
:102F800068204661696C2020202000000A0D204442
:102F9000617461204661696C20202020202020205F
:102FA000202000000A0D20414C4C205041434B454D
:102FB0005453205041535345442E2E2E200A0D00C9
:102FC0000A0D0A0D205072657373206E756D62656F
:102FD0007220666F7220416374696F6E200A0D0A59
:102FE0000D20312020526561642046504741205217
:102FF0006567697374657273200A0D203220205250
:103000006573657420526563656976652046494637
:103010004F200A0D203320205265736574205472AE
:10302000616E736D6974204649464F200A0D203445
:1030300020205472616E736D69742053696E676CE1
:1030400065205061636B6574202D20494E544552B4
:103050004E414C204C6F6F706261636B200A0D20F3
:10306000352020526563656976652053696E676C0B
:1030700065205061636B657420616E6420436865F0
:10308000636B202D20494E5445524E414C204C6FCD
:103090006F706261636B200A0D203620204C6F6FC9
:1030A000706261636B205061636B6574732066723C
:1030B0006F6D203820746F203130323320427974A4
:1030C0006573202620436865636B202D20494E548C
:1030D00045524E414C204C6F6F706261636B200A09
:1030E0000D203720205472616E736D69742053690E
:1030F0006E676C65205061636B6574202D204558A8
:103100005445524E414C204C6F6F706261636B208E
:103110000A0D203820205265636569766520536961
:103120006E676C65205061636B657420616E64200E
:10313000436865636B202D2045585445524E414CE1
:10314000204C6F6F706261636B200A0D2039202064
:103150005472616E736D6974205061636B65747332
:103160002066726F6D203820746F2031303233202A
:103170004279746573202620436865636B202D2097
:1031800045585445524E414C204C6F6F70626163FC
:103190006B200A0D206120205472616E736D69747A
:1031A00020426F617264203220426F61726420534A
:1031B000696E676C65205061636B6574200A0D2031
:1031C0006220205265636569766520426F61726492
:1031D000203220426F6172642053696E676C6520F3
:1031E0005061636B657420616E6420436865636B36
:1031F000200A0D206320205472616E736D69742063
:10320000426F617264203220426F617264204D759A
:103210006C7469706C65205061636B657473200A0F
:103220000D206420205265636569766520426F61D8
:103230007264203220426F617264204D756C746933
:10324000706C65205061636B657473200A0D206596
:1032500020205472616E736D6974205061636B65D8
:103260007420426C61737465722E200A0D206620F2
:103270002052657365742046504741204C6F676942
:10328000632E200A0D20672020426C6173746572E2
:10329000205061636B6574204C6F6F706261636B6B
:1032A0002041646472657373203D2030783241415F
:1032B000200A0D20682020426C61737465722050D2
:1032C00061636B6574204C6F6F706261636B20414A
:1032D000646472657373203D203078324142200A65
:1032E0000D20692020426C61737465722050616307
:1032F0006B6574204C6F6F706261636B2041646416
:1033000072657373203D203078334343200A0D00EB
:103310000A0D0A0D000000000A0D0A0D2052657307
:1033200065742052656365697665204649464F2E6F
:103330002E2E200A0D0000000A0D0A0D2052657382
:103340006574205472616E736D6974204649464FEE
:103350002E2E2E200A0D00000A0D0A0D2054726137
:103360006E736D697474696E672053696E676C65FE
:10337000205061636B6574202D20496E7465726EF8
:10338000616C204C6F6F706261636B2E2E2E200A71
:103390000D0000000A0D0A0D20526563656976650F
:1033A000205369676E6C65205061636B65742061A2
:1033B0006E6420436865636B202D20496E746572CE
:1033C0006E616C204C6F6F706261636B2E2E2E20CD
:1033D0000A0D00000A0D0A0D204C6F6F70696E67B0
:1033E000204261636B205061636B6574732052618E
:1033F0006E67696E6720696E2053697A6520667210
:103400006F6D203820427974657320746F203230DC
:103410003038204279746573202D20496E746572AE
:103420006E616C204C6F6F706261636B2E2E2E206C
:10343000200A0D000A0D0A0D205472616E736D6929
:103440007474696E672053696E676C6520506163A0
:103450006B6574202D2045585445524E414C204CEC
:103460006F6F706261636B2E2E2E200A0D000000BC
:103470000A0D0A0D20526563656976652053696EF1
:10348000676C65205061636B657420616E642043D6
:103490006865636B202D2045585445524E414C20A1
:1034A0004C6F6F706261636B2E2E2E200A0D000030
:1034B0000A0D0A0D204C6F6F70696E6720426163C0
:1034C0006B205061636B6574732052616E67652079
:1034D0003820746F20323030382042797465732080
:1034E0002D2045585445524E414C204C6F6F706210
:1034F00061636B2E2E2E20200A0D00000A0D0A0D8E
:10350000205472616E736D6974696E6720426F61D9
:10351000726420746F20426F6172642053696E6719
:103520006C65205061636B65742E2E2E200A0D0091
:103530000A0D0A0D20526563656976696E6720423F
:103540006F61726420746F20426F617264205369EE
:103550006E676C65205061636B657420616E6420DA
:10356000436865636B2E2E2E200A0D000A0D0A0D8E
:10357000205472616E736D697474696E6720426F56
:1035800061726420746F20426F617264204D756CAB
:103590007469706C65205061636B6574732E2E2E98
:1035A000200A0D000A0D0A0D2052656365697669CF
:1035B0006E6720426F61726420746F20426F617287
:1035C00064204D756C7469706C65205061636B6527
:1035D00074732E2E2E200A0D000000000A0D0A0D15
:1035E000205472616E736D6974205061636B6574F1
:1035F00020426C61737465722E200A0D0000000079
:103600000A0D0A0D2052657365742046504741200B
:103610004C6F6769632E200A0D0000000A0D0A0D29
:1036200020426C6173746572205061636B65742015
:103630004C6F6F706261636B204164647265737379
:10364000203D203078324141200A0D000A0D0A0D3C
:1036500020426C6173746572205061636B657420E5
:103660004C6F6F706261636B204164647265737349
:10367000203D203078324142200A0D000A0D0A0D0B
:1036800020426C6173746572205061636B657420B5
:103690004C6F6F706261636B204164647265737319
:1036A000203D203078334343200A0D000A0D0A0DD7
:1036B00020507265737320616E79206E756D62653E
:1036C000722E2E2E200A0D0A0D0000000A0D204534
:1036D0006E7465723A20200032333435363738390B
:1036E0003A3B3C3D3E3F40414243444546474849C2
:1036F0004A4B4C4D4E4F5051003001400430014078
:10370000083001400C3001401030014014300140BD
:10371000183001401C30014020300140243001406D
:10372000283001402C30014030300140343001401D
:10373000383001403C3001404030014044300140CD
:10374000483001404C30014050300140543001407D
:10375000583001405C30014060300140643001402D
:10376000683001406C3001407030014074300140DD
:10377000783001407C300140000100010202030367
:10378000F8B500BFF8BC08BC9E467047F8B500BF4E
:10379000F8BC08BC9E467047D5040000C104000078
:1037A0000000000080BF7608E0AF1D02C05F3B0450
:1037B00080BF7608C05F3B04C05F3B0480BF7608D3
:040000030000019167
:00000001FF
