:1000000000000120910100007F0300008103000037
:100010008303000085030000870300000000000048
:100020000000000000000000000000008903000044
:100030008B030000000000008D0300008F03000010
:100040009103000093030000950300009703000054
:10005000990300009B0300009D0300009F03000024
:10006000A1030000A3030000752300005523000036
:10007000A9030000AB030000AD030000AF030000C4
:10008000B1030000B3030000B5030000B703000094
:10009000B9030000BB030000BD030000BF03000064
:1000A000C1030000C3030000C5030000C703000034
:1000B000C9030000CB030000CD030000CF03000004
:1000C000D1030000D3030000D5030000D7030000D4
:1000D000D9030000DB030000DD030000DF030000A4
:1000E000E1030000E3030000E5030000E703000074
:1000F000E9030000EB030000ED030000EF03000044
:10010000F1030000F3030000F5030000F703000013
:10011000F9030000FB030000FD030000FF030000E3
:1001200001040000030400000504000007040000AF
:10013000090400000B0400000D0400000F0400007F
:10014000110400001304000015040000170400004F
:10015000190400001B0400001D0400001F0400001F
:1001600021040000230400002504000027040000EF
:10017000290400002B0400002D0400002F040000BF
:100180003104000033040000000000000000000003
:100190004FF0000BDFF8BE020068DFF8B612096806
:1001A00001F0030100F01C00142801D14BF0020BF8
:1001B000002901D04BF0010BBBF1000F05D0A7487F
:1001C000A749DFF8722200F09FF8A64880470BF09D
:1001D000020ABAF1000F0CD0DFF86E02DFF86E12DF
:1001E00002680B680FB44FF000024FF0FF0302608B
:1001F0000B609D489D4A9E4B022808D1DFF83E12B5
:100200000A60DFF842120A60DFF836120B6001283C
:1002100008D1DFF82E120A60DFF82A120A60DFF830
:100220001E120B609348002809D193489349944AC1
:1002300000F032F893489449944A00F02DF894481D
:100240009449954A00F028F894489549DFF8E6214A
:1002500000F05AF8BBF1000F12D092489249DFF833
:10026000DA2100F051F80BF0020ABAF1000F07D0C2
:100270000FBC02600B6000BFAFF30080AFF30080E3
:10028000DFF828020FF2030E00474FF000004FF096
:100290000001DFF81CF2FEE72DE9F841884225D085
:1002A000B2EB010200D5FEE740EA010313F00303BD
:1002B00002D000F01DF819E04FF000039046121133
:1002C000F7D09A421CBFF0C8F0C103F10103F8D186
:1002D00008F00F08B8F1000F08D004780C7000F196
:1002E000010001F10101B8F10108F6D1BDE8F88182
:1002F00008B54FF0000303780B7000F1010001F125
:100300000101013AF7D108BD884237D000F0030659
:10031000002E14D04FF00405A5EB06044FF008079B
:1003200007FB06F8914669FA08F9002C07D080F817
:10033000009069FA07F900F10100013CF5E74FF080
:1003400000060F46091A88460911914614461546BB
:10035000B14206D018BFA0E8340206F10106B1424E
:10036000F8D108F00F08B8F1000F07D002704FEA7B
:10037000322200F10100B8F10108F4E77047FEE70E
:10038000FEE7FEE7FEE7FEE7FEE7FEE7FEE7FEE745
:10039000FEE7FEE7FEE7FEE7FEE7FEE7FEE7FEE735
:1003A000FEE7FEE7FEE7FEE7FEE7FEE7FEE7FEE725
:1003B000FEE7FEE7FEE7FEE7FEE7FEE7FEE7FEE715
:1003C000FEE7FEE7FEE7FEE7FEE7FEE7FEE7FEE705
:1003D000FEE7FEE7FEE7FEE7FEE7FEE7FEE7FEE7F5
:1003E000FEE7FEE7FEE7FEE7FEE7FEE7FEE7FEE7E5
:1003F000FEE7FEE7FEE7FEE7FEE7FEE7FEE7FEE7D5
:10040000FEE7FEE7FEE7FEE7FEE7FEE7FEE7FEE7C4
:10041000FEE7FEE7FEE7FEE7FEE7FEE7FEE7FEE7B4
:10042000FEE7FEE7FEE7FEE7FEE7FEE7FEE7FEE7A4
:10043000FEE7FEE7704700000000A2A2A2A2008033
:100440000340088003401080034030800340348024
:1004500003403880034018080240000000F00020EC
:1004600000000120F1290000000000000000000051
:10047000010000000000000000000000000000007B
:1004800090010000C0040000C0040000103500000E
:100490001035000000000020200000202000002077
:1004A000B0000020B000002000F00020312A000041
:1004B00045100000AFF30080AFF30080AFF3008081
:1004C00040F22003C2F200031A780AB90120187022
:1004D000704700BF40F20000C2F2000008B5036898
:1004E0002BB140F20003C0F2000303B1984708BDEE
:1004F0002DE9F84F40F2300540F234048C46C5F245
:1005000000044FEA102800F0FF0740F20801C5F28E
:100510000005C5F80080C5F20001276086014FEA9A
:100520001C2A8008BCF1050408600E60C1F800A018
:10053000C1F800C09A461FD001230026ACF106097D
:10054000A3420E6009F0030016D258B1012805D06D
:1005500002281CBF0B6002230B6001330B600133C8
:10056000A34209D2581C0B60DF1C0433451CA34274
:1005700008600D600F60F5D3012A74D040F21003BB
:10058000022AC5F2000375D02021196040F214053B
:1005900040F21007C5F20005C5F200074FF0200B2E
:1005A00010264FF001094FF080080DE014F0100FF5
:1005B0001ED114F0010F2AD114F0800F18BFC5F816
:1005C000008014F0B10F36D12C6814F0200FEDD05C
:1005D00040F2640042F68021C2F20000C0F2000145
:1005E000C5F800B001F090FD14F0100F3E60E0D0AF
:1005F00040F2640042F6A021C2F20000C0F2000105
:100600002E6001F081FD14F0010F3E60D4D040F265
:10061000640042F6C021C5F80090C2F20000C0F2AA
:10062000000101F071FD14F0800F18BFC5F80080C3
:1006300014F0B10FC8D0BAF1000F12D140F2140378
:100640004FF6FF72C5F20003C0F203020AF1070A77
:10065000924519681968196819681968196819683C
:10066000F4D1BDE8F88F40F21003C5F20003302248
:100670001A608BE720321A6088E700BF10B540F29D
:10068000640042F60C3182B0C2F20000C0F20001F8
:1006900001F03AFD4FF0A0431B684FF03032019259
:1006A00000926C4673B1072104E030321B0962549A
:1006B00008D0013903F00F02092AF6D937321B0995
:1006C0006254F6D140F26400C2F20000694608228A
:1006D00001F0C4FC40F2640042F63431C2F2000082
:1006E000C0F2000101F010FD40F20401C5F200016A
:1006F0000B684FF030306060206073B1072104E078
:1007000030321B09625408D0013903F00F02092A64
:10071000F6D937321B096254F6D140F26400082240
:10072000C2F20000694601F099FC40F2640042F612
:100730005C31C2F20000C0F2000101F0E5FC40F2C1
:100740001003C5F200031B684FF030326260226074
:1007500073B1072104E030321B09625408D001391B
:1007600003F00F02092AF6D937321B096254F6D179
:1007700040F26400C2F200006946082201F06EFCFB
:1007800040F2640042F68431C2F20000C0F200017F
:1007900001F0BAFC40F21401C5F200010B684FF001
:1007A00030306060206073B1072104E030321B09F3
:1007B000625408D0013903F00F02092AF6D9373202
:1007C0001B096254F6D140F264000822C2F2000014
:1007D000694601F043FC40F2640042F6AC31C2F2DB
:1007E0000000C0F2000101F08FFC40F21803C5F2D6
:1007F00000031B684FF030326260226073B1072142
:1008000004E030321B09625408D0013903F00F02B2
:10081000092AF6D937321B096254F6D140F2640036
:10082000C2F200006946082201F018FC40F26400A0
:1008300042F6D431C2F20000C0F2000101F064FCC3
:1008400040F21C01C5F200010B684FF030306060CF
:10085000206073B1072104E030321B09625408D0D4
:10086000013903F00F02092AF6D937321B09625405
:10087000F6D140F264000822C2F20000694601F09D
:10088000EDFB40F2640042F6FC31C2F20000C0F21F
:10089000000101F039FC40F23003C5F200031B688F
:1008A0004FF030326260226073B1072104E03032D1
:1008B0001B09625408D0013903F00F02092AF6D946
:1008C00037321B096254F6D140F26400C2F20000D4
:1008D0006946082201F0C2FB40F2640042F624415E
:1008E000C2F20000C0F2000101F00EFC40F234013F
:1008F000C5F200010B684FF030306060206073B1CA
:10090000072104E030321B09625408D0013903F09A
:100910000F02092AF6D937321B096254F6D140F288
:100920006400C2F200006946082201F097FB02B0A1
:1009300010BD00BF2DE9F04F91B002AB0193019CB7
:1009400042F6DC2EC0F2000E80468946BEE80F005B
:100950000FC4A3469EE80700ABE8030009AF009769
:100960005E4642F6F825DDF800B03280C0F20005A0
:100970004FEA124C0FCDABE80F0084F80AC02D8867
:1009800040F2140040F2300140F23402FF24C5F27C
:1009900000024FEA182A08F0FF0E40F21003C5F2D9
:1009A0000000C5F20001ABF800504FEA8816046061
:1009B000C5F20003C1F800A040F21C07C2F800E035
:1009C000002226401A60C5F200074FEA98084FEA55
:1009D000192509EA04043A6812F0100FFBD040F21E
:1009E000140A4020C5F2000A40F20C01CAF80000C7
:1009F000C5F200010F68474508BF4FF0000B00F03B
:100A0000908040F2640042F64C41C2F20000C0F215
:100A1000000101F079FB40F2640042F66441C2F249
:100A20000000C0F2000101F06FFBDAF800304FF077
:100A300030320F920E920DF1380A83B1072105E092
:100A400030321B090AF8012009D0013903F00F02E6
:100A5000092AF5D937321B090AF80120F5D140F2ED
:100A60006400C2F200005146082201F0F7FA40F299
:100A7000640042F68441C2F20000C0F2000101F0BD
:100A800043FB4FF03033CAF80430CAF80030B8F1F5
:100A9000000F12D0072206E030335FEA18180AF878
:100AA00002300AD0013A08F00F03092BF4D937338A
:100AB0005FEA18180AF80230F4D140F26400C2F27A
:100AC00000005146082201F0C9FA40F2640042F6E3
:100AD0009841C0F20001C2F2000001F015FB4FF096
:100AE0003031CAF80410CAF8001087B1072205E0B7
:100AF00030333F090AF8023009D0013A07F00F03FA
:100B0000092BF5D937333F090AF80230F5D140F205
:100B10006400C2F200005146082201F09FFA4FF033
:100B2000010B40F20C00C5F200000768B74200F06C
:100B30008F8040F2640042F6AC41C2F20000C0F285
:100B4000000101F0E1FA40F2640042F66441C2F2B1
:100B50000000C0F2000101F0D7FA40F21403C5F220
:100B600000031B684FF030320F920E920DF13808DF
:100B700083B1072105E030321B0908F8012009D0B4
:100B8000013903F00F02092AF5D937321B0908F899
:100B90000120F5D140F26400C2F200004146082273
:100BA00001F05CFA40F2640042F68441C0F20001B8
:100BB000C2F2000001F0A8FA4FF03031C8F804107A
:100BC000C8F8001086B1072205E03033360908F86E
:100BD000023009D0013A06F00F03092BF5D937335B
:100BE000360908F80230F5D140F26400C2F2000084
:100BF0004146082201F032FA40F2640042F6984180
:100C00004FF03036C2F20000C0F2000101F07CFA71
:100C1000C8F80460C8F8006087B1072205E03033E7
:100C20003F0908F8023009D0013A07F00F03092BF9
:100C3000F5D937333F0908F80230F5D140F26400A6
:100C4000C2F200004146082201F008FA4FF0010B01
:100C500040F20C00C5F200000668AE4200F084804D
:100C600040F2640042F6C441C2F20000C0F200014A
:100C700001F04AFA40F2640042F66441C2F2000018
:100C8000C0F2000101F040FA40F21402C5F2000285
:100C900013684FF030370F970E970EAF73B10721DF
:100CA00004E030321B097A5408D0013903F00F02F6
:100CB000092AF6D937321B097A54F6D140F264007A
:100CC000C2F200003946082201F0C8F940F264007F
:100CD00042F68441C2F20000C0F2000101F014FAB1
:100CE0004FF030337B603B6075B1072204E0303356
:100CF0002D09BB5408D0013A05F00F03092BF6D992
:100D000037332D09BB54F6D140F26400C2F2000023
:100D10003946082201F0A2F940F2640042F69841F7
:100D20004FF03035C2F20000C0F2000101F0ECF9E2
:100D30007D603D6076B1072204E030333609BB5454
:100D400008D0013A06F00F03092BF6D937333609DC
:100D5000BB54F6D140F26400C2F2000039460822CA
:100D600001F07CF94FF0010B40F20C01C5F20001DB
:100D70000D68A54200F0848040F2640042F6DC4138
:100D8000C2F20000C0F2000101F0BEF940F26400BE
:100D900042F66441C2F20000C0F2000101F0B4F971
:100DA00040F21400C5F2000003684FF030360F9691
:100DB0000E960EAE73B1072104E030321B09725457
:100DC00008D0013903F00F02092AF6D937321B097E
:100DD0007254F6D140F264000822C2F2000031469B
:100DE00001F03CF940F2640042F68441C2F2000096
:100DF000C0F2000101F088F94FF0303272603260C9
:100E000074B1072204E030332409B35408D0013A06
:100E100004F00F03092BF6D937332409B354F6D164
:100E200040F26400C2F200003146082201F016F9D7
:100E300040F2640042F69841C2F20000C0F20001A4
:100E400001F062F94FF030337360336075B10722FF
:100E500004E030332D09B35408D0013A05F00F03F4
:100E6000092BF6D937332D09B354F6D140F264007B
:100E7000C2F200003146082201F0F0F84FF0010BF9
:100E8000B9F1050900F0BE8040F2140440F20C0AEA
:100E9000C5F200045B46C5F2000A4FF00008302797
:100EA0000EAEA346DAF8004008F0FF05AC4200F0B1
:100EB000A38040F2640042F6F441C2F20000C0F2A6
:100EC000000101F021F940F2640042F66441C2F2EF
:100ED0000000C0F2000101F017F9DBF800308DF8D6
:100EE00038708DF839708DF83A708DF83B708DF848
:100EF0003C708DF83D708DF83E708DF83F7073B189
:100F0000072104E030321B09725408D0013903F084
:100F10000F02092AF6D937321B097254F6D140F272
:100F20006400C2F200003146082201F097F840F256
:100F3000640042F68441C2F20000C0F2000101F0F8
:100F4000E3F88DF838708DF839708DF83A708DF8B7
:100F50003B708DF83C708DF83D708DF83E708DF8CB
:100F60003F7075B1072204E030332D09B35408D027
:100F7000013A05F00F03092BF6D937332D09B35485
:100F8000F6D140F26400C2F200003146082201F0BE
:100F900065F840F2640042F69841C2F20000C0F2E7
:100FA000000101F0B1F88DF838708DF839708DF8C6
:100FB0003A708DF83B708DF83C708DF83D708DF86F
:100FC0003E708DF83F7074B1072204E0303324097D
:100FD000B35408D0013A04F00F03092BF6D9373384
:100FE0002409B354F6D140F26400C2F20000314645
:100FF000082201F033F8012308F10108C845FFF485
:1010000051AF9B4640F20C03C5F200031A681B68FF
:10101000BBF1000F0BD140F26400C2F2000009A93D
:10102000122201F01BF8002011B0BDE8F08F40F251
:101030006400C2F2000002A91B2201F00FF858461A
:10104000F2E700BF2DE9F04FADF58A6D83B00DF5E5
:1010500088620C320192019B43F23444C0F20004D6
:1010600094E8070083E8070001F0A2FB00200321B9
:1010700001F0EAFB0120052101F0E6FB0220014618
:1010800001F0E2FB0320014601F0DEFB0420032116
:1010900001F0DAFB0520014601F0D6FB0620052110
:1010A00001F0D2FB0720052101F0CEFB082005212D
:1010B00001F0CAFB0920022101F0C6FB0A2002212F
:1010C00001F0C2FB0B20052101F0BEFB0C20032127
:1010D00001F0BAFB0D20052101F0B6FB0E20032123
:1010E00001F0B2FB0F20032101F0AEFB1020032121
:1010F00001F0AAFB1120032101F0A6FB122003211D
:1011000001F0A2FB1320022101F09EFB1420052117
:1011100001F09AFB1520052101F096FB1620052110
:1011200001F092FB1820052101F08EFB192003210C
:1011300001F08AFB1A20032101F086FB1C20052107
:1011400001F082FB1F20032101F07EFB40F26400CE
:101150000322C2F200004FF4614101F0F9FA40F2BB
:10116000640042F62851C2F20000C0F2000100F013
:10117000CBFF43F2000540F264000DF588610C31AD
:101180000C22C4F20105C2F2000000F067FFD5F89E
:10119000881040F6000321F0805BC4F20203C5F81A
:1011A00088B0002242F2DE751A609D6040F20F3571
:1011B000DD604FF0020AC125C3F810A05A619D619D
:1011C00040F69F15DD6143F233351A625D624FF6DA
:1011D000FF759D6247F27775DD6240F6FF751D630E
:1011E000012144F2422559639D630825DD634FF0D8
:1011F00033091835C3F840905D64A0359A64DA6409
:101200001D659D3D5D6540F235259D656425DD6567
:1012100040200324A4351D6670355D6641F64715F0
:10122000C3F86890DD6610251D674FF44C555A676A
:101230009D6740F214554FF4007CDA67C3F88020B4
:10124000C3F884501225C3F88820C3F88CC0C3F8B3
:101250009000C3F894504FF48045C3F898A048F22A
:10126000F808C3F89C504FF0070E40F20935C3F858
:10127000A080C3F8A4E0C3F8A880C3F8ACE0C3F82A
:10128000B0C0C3F8B410C3F8B820C3F8BC40C3F86A
:10129000C040C3F8C400C3F8C820C3F8CC20C3F8CA
:1012A000D020C3F8D420C3F8D8508025C3F8E0205C
:1012B00040F20147C3F8402144F21006C3F81C2253
:1012C000C3F82452753DC3F83042C3F83822C3F83E
:1012D0004022C3F84852C3F85C02C3F86072C3F8F6
:1012E0006462C3F868222132C3F88012C3F89802FE
:1012F000C3F89C72C3F8A062C3F8D802C3F8DC72CA
:10130000C3F8E062C3F8FC22183AC3F804439B46D2
:10131000C3F80813C3F80C13C3F81423C3F81C1341
:101320001960DBF8E460002EFBD040F21003C5F238
:101330000003102440F2140040F230071C60C5F294
:10134000000740F23402C5F2000042F6DC2C42F6FF
:10135000F82E0226006800253E60C5F2000240F229
:101360000C04A921C0F2000CC0F2000E0DF5826041
:101370000DF587671160CDF80CC01D60CDF814E045
:10138000C5F2000440F2A9254FF0080B00F10C094A
:10139000009707AE40F264004FF48062C2F2000092
:1013A000314600F0EFFE377802460028F1D040F2D7
:1013B0006400C2F200003146313F00F04FFE382F8A
:1013C00000F2AA83DFE817F097038E037903640322
:1013D0000E0379026402AA042504A803A803A80343
:1013E000A803A803A803A803A803A803A803A803A5
:1013F000A803A803A803A803A803A803A803A80395
:10140000A803A803A803A803A803A803A803A80384
:10141000A803A803A803A803A803A803A803A80374
:10142000A803A803A803A803DC03B3038C05F404F2
:10143000290537028D01E300390040F2640043F2D0
:10144000E431C2F20000C0F2000100264FF6FF773F
:1014500000F05AFEC0F20F074FEA1B280BF0FF0AFC
:10146000ABF1050504964FF473705946022201232F
:10147000FFF73EF8DDF80CC0CE46BCE80F00AEE842
:101480000F0073469CE8070003C31946130C0A803B
:1014900089F81A3021682068002800F08A85012127
:1014A0002268206842450CBF0A460122504518BFF9
:1014B0000122002D48D020680123691E002818BF92
:1014C0001A46AB4201F003013ED2C1B101290DD051
:1014D000022904D02168994218BF01220223206802
:1014E00003F0FF0C604518BF01220133206803F0B0
:1014F000FF0E0133704518BF0122AB4224D2D4F84D
:1015000000E0591C206803F0FF0CE6450CBF944630
:101510004FF0010C01F1010E226801F0FF01884239
:101520000CBF614601210EF0FF0E03F1030C206891
:1015300072450CBF0A4601220CF0FF0C04336045D3
:1015400018BF0122AB42DAD3012A2368236800F0D6
:1015500023850136BE4286D1049E002E00F05385BD
:1015600040F2640042F62851C2F20000C0F20001CD
:1015700000F0CAFD40F264000DF58861C2F200007F
:101580000C310C2200F06AFD4FF4737501E740F254
:10159000640043F2B431C2F20000C0F20001002640
:1015A0004FF6FF7700F0B0FDC0F20F074FEA1B289F
:1015B0000BF0FF0AABF1050504960222012340F26D
:1015C000AB205946FEF794FFDDF80CC0CE46BCE8D0
:1015D0000F00AEE80F0073469CE8070003C31946EE
:1015E000130C0A8089F81A3021682068C02800F09E
:1015F000EA8401212268206842450CBF0A46012284
:10160000504518BF0122002D48D020680123691ED3
:10161000002818BF1A469D4201F003013ED9C1B10E
:1016200001290DD0022904D02168994218BF012256
:101630000223206803F0FF0C604518BF012201332C
:10164000206803F0FF0E0133704518BF01229D4250
:1016500024D9D4F800E0591C206803F0FF0CE645BB
:101660000CBF94464FF0010C01F1010E226801F00D
:10167000FF0188420CBF614601210EF0FF0E03F10D
:10168000030C206872450CBF0A4601220CF0FF0CC7
:101690000433604518BF01229D42DAD8012A23682D
:1016A000236800F06C840136BE4286D1049F002F6F
:1016B00000F0B58440F2640042F62851C2F2000006
:1016C000C0F2000100F020FD40F264000DF58861D9
:1016D000C2F200000C310C2200F0C0FC40F2AB253D
:1016E00057E640F2640043F28431C2F20000C0F2D7
:1016F000000100264FF6FF7700F006FDC0F20F074D
:101700004FEA1B280BF0FF0AABF1050504960222F5
:10171000012340F2AA205946FEF7EAFEDDF80CC08C
:10172000CE46BCE80F00AEE80F0073469CE8070009
:1017300003C31946130C0A8089F81A3021682068FF
:10174000802800F03B8401212268236890450CBF6B
:101750000A4601229A4518BF0122002D48D0206870
:101760000123691E002818BF1A46AB4201F003018D
:101770003ED2C1B101290DD0022904D0216899427D
:1017800018BF01220223206803F0FF0C604518BF38
:1017900001220133206803F0FF0E0133704518BFAA
:1017A0000122AB4224D2D4F800E0591C206803F097
:1017B000FF0CE6450CBF94464FF0010C01F1010E01
:1017C000226801F0FF0188420CBF614601210EF042
:1017D000FF0E03F1030C206872450CBF0A4601227C
:1017E0000CF0FF0C0433604518BF0122AB42DAD382
:1017F000012A2368236800F0B6830136BE4286D1F1
:10180000049D002D00F0178440F2640042F6285138
:10181000C2F20000C0F2000100F076FC40F2640069
:101820000DF58861C2F200000C310C2200F016FCAC
:1018300040F2AA25ADE540F2640043F26831C2F2FD
:101840000000C0F2000143F2000600F05DFCC4F2AB
:1018500001064FF08050C6F88800D6F8881040F294
:10186000640021F08057C6F8887042F62851C2F211
:101870000000C0F2000100F047FC0DF5886140F265
:101880006400C2F200000C310C2200F0E7FB80E59E
:1018900040F2640043F29C11C2F20000C0F2000169
:1018A00000F032FC2846594602220123FEF720FEB2
:1018B00040F2640042F62851D9E740F2640043F256
:1018C0003C11C2F20000C0F2000100F01DFC012238
:1018D000284659461346FEF70BFEDDF80CA04F468E
:1018E000BAE80F000FC7B8469AE80700A8E8030057
:1018F000130C41460A8089F81A30AA01236820682F
:1019000002F0FF0C844500F07883012320682668EC
:10191000B0EB1B2F18BF01230BF0FF0EB6450CBF19
:101920001A460122BBF1050148D027680123ABF11B
:10193000060C002F18BF1A468B420CF003003DD254
:10194000C0B101280DD0022804D027680223012F3E
:1019500018BF0122206803F0FF08404518BF01228C
:101960000133266803F0FF0A0133564518BF0122F0
:101970008B4223D22768581C266803F0FF0847458E
:1019800018BF012200F1010E276800F0FF00864217
:101990000CBF94464FF0010C0EF0FF0ADA1C2668CB
:1019A00057450CBFE0464FF0010802F0FF02043338
:1019B00096420CBF424601228B42DBD3012A2368A8
:1019C000236800F0058340F2640042F60C51C2F235
:1019D0000000C0F2000100F097FB40F2640042F604
:1019E000285144E740F2640043F2FC01C2F20000D7
:1019F000C0F2000100F088FBDDF80C80CA46B8E8B0
:101A00000F00AAE80F00534698E8070003C3059E9D
:101A1000DDF800C01A804FEA124A0FCEACE80F0082
:101A2000B6F800E06746A7F800E089F81AA0A90117
:101A30002368266801F0FF08B04500F0D882012332
:101A400027682268B7EB1B2F18BF01230BF0FF019B
:101A500091420CBF1A460122BBF1050109D00023B7
:101A6000266803F0FF0E0133764518BF01228B4232
:101A7000F6D3012A2368236800F0AA8240F26400AA
:101A8000C2F200000DF58761122200F0E7FAA4E728
:101A900040F2640043F2C001C2F20000C0F2000153
:101AA00000F032FB2846594601220023FEF720FDB4
:101AB00040F2640042F62851D9E640F2640043F255
:101AC000A001C2F20000C0F2000100F01DFB40F2D4
:101AD0001003C5F20003102240F2640042F62851C0
:101AE0001A60C4E640F2640043F28001C2F20000D2
:101AF000C0F20001E9E7FEF7C1FD40F2640043F2E5
:101B00007801C2F20000C0F2000100F0FDFA40F2DC
:101B1000640042F62851AAE640F2640043F2144100
:101B2000C2F20000C0F2000100F0EEFA55E740F208
:101B3000640043F29821C2F20000C0F2000100F0FC
:101B4000E3FA40F2F9314FF42A70FEF7F3FE40F267
:101B5000640042F62851C2F20000C0F2000100F019
:101B6000D3FA40F264000DF58861C2F200000C3136
:101B70000C2200F073FA40F2A92540F2F93B08E488
:101B800040F2640043F26421C2F20000C0F200019E
:101B900000F0BAFA40F2140240F23001C5F200023D
:101BA000C5F20001FF26022540F2340740F2080387
:101BB0001660C5F200030D604FF42A42C5F200071B
:101BC000A820AA26032140F2F93538601E601A6069
:101BD000196000221D601A600132B2F57D7FFAD1D2
:101BE00040F21003C5F2000340F2140220201860F6
:101BF000C5F20002176840F2140317F0800FC5F217
:101C00000003F7D0802540F2640042F628511D60A1
:101C1000A1E740F2640043F21821C2F20000C0F2D2
:101C2000000100F071FA0222012328465946FEF70E
:101C30005FFCDDF80CA04F46BAE80F000FC7B846AE
:101C40009AE80700A8E80300130C41460A8089F8C7
:101C50001A30AA012368266802F0FF0EB64500F08C
:101C6000C081012326682068B6EB1B2F18BF012313
:101C70000BF0FF0C84450CBF1A460122BBF1050195
:101C80003FF49CAE27680123ABF1060E002F18BF6E
:101C90001A468B420EF00300BFF490AEC8B1012883
:101CA0000DD0022804D027680223012F18BF01227B
:101CB000206803F0FF0C604518BF0122013326683D
:101CC00003F0FF0E0133764518BF01228B42BFF4AB
:101CD00075AE2768581C266803F0FF08474518BFF3
:101CE000012200F1010E276800F0FF0086420CBFC0
:101CF00094464FF0010C0EF0FF0ADA1C2668574597
:101D00000CBFE0464FF0010802F0FF020433964298
:101D10000CBF424601228B42DBD34FE640F2640007
:101D200043F2D811C2F20000C0F2000100F0ECF959
:101D3000DDF80CA04E46BAE80F000FC6B0469AE890
:101D40000700A8E80300059F4046DDF800E0028098
:101D50004FEA124A0FCFAEE80F00B7F800C0734643
:101D6000A3F800C089F81AA0AE012368226806F023
:101D7000FF01914200F06B81012327682268B7EBD5
:101D80001B2F18BF01230BF0FF0191420CBF1A4615
:101D90000122BBF105013FF46CAE0023206803F083
:101DA000FF0C0133604518BF01228B42F6D360E679
:101DB00040F2640043F20C31C2F20000C0F20001B4
:101DC00000F0A2F908214FF42A70FEF7B3FD0128B4
:101DD00009D040F2640042F60C51C2F20000C0F299
:101DE000000100F091F940F2640042F62851C2F27D
:101DF0000000C0F2000100F087F940F264000DF528
:101E00008861C2F200000C310C2200F027F940F288
:101E1000A9254FF0080BFFF7BCBA40F2640043F26B
:101E20004431C2F20000C0F2000100F06DF940F24E
:101E3000300740F2140140F2340640F2080340F249
:101E40001005C5F20001C5F20007C5F20006C5F293
:101E50000003C5F2000500204FF0FF084FF0800C92
:101E60000222C1F800803A60023A32604FF4004228
:101E7000C3F800C01A6003221A604FF47F721A6020
:101E800000221A6001321A6092181A6040F2F73B81
:101E900001325A4511D002F1010E0EF1010B1A6008
:101EA00002F1030AC3F800E00432C3F800B040F2C4
:101EB000F73B5A45C3F800A0EDD120222A609E4688
:101EC0000B6840F2140213F0800FC5F20002F7D045
:101ED0000130B0F5803F7346C2F800C0C0D182E740
:101EE00040F2640043F2D421C2F20000C0F20001CB
:101EF00000F00AF940F21401FF2740F2300540F2E9
:101F00003400C5F200010F600226C5F20005C5F2DB
:101F10000000A82740F208032E60C5F20003076006
:101F20004FF42A45AA20002718601D601F6008375B
:101F30001F60083F40F21002781C1F60C5F20002CB
:101F400018601E60202616600A6840F2140312F022
:101F5000800FC5F20003F7D0802640F2640042F6FD
:101F600028511E6043E740F264001B22C2F20000C9
:101F7000494600F073F8049A531C04933DE440F280
:101F800064001B22C2F20000494600F067F8049A80
:101F9000531C0493FFF787BB40F264001B22C2F27C
:101FA0000000494600F05AF8049A531C0493FFF7C6
:101FB000D0BAF33918BF0121FFF772BAAA3918BF96
:101FC0000121FFF7C1BBAA3918BF0121FFF712BBDE
:101FD00040F26400C2F2000049461A3200F03EF8B6
:101FE000FBE4B3EB950F0CBF002301233AE6B3EB00
:101FF000950F0CBF0023012322E5B3EB950F0CBF17
:102000000023012382E440F2640042F60C51C2F244
:102010000000C0F2000100F077F8FFF7A1BA40F22B
:10202000640042F60C51C2F20000C0F2000100F060
:102030006BF8FFF73FBB40F2640042F60C51C2F26E
:102040000000C0F2000100F05FF8FFF7DDBBB3EB6A
:10205000950F0CBF002301238FE600BF40F26403FD
:10206000C2F2000398422DE9F00508D040F2240C9A
:10207000C2F2000C604502D0BDE8F00570470B1EAF
:1020800018BF0123002A0CBF002303F00103002B1B
:10209000F2D090F80D80D0F800A000259AF814C076
:1020A00048EA0C081CF0200F80F80D8023D00F2A7E
:1020B00024D910274E5D0468012307F1FF3C2670E8
:1020C0000CEA030605EB030C4D19BB4211D236B1E5
:1020D000EE5C0223BB4226700CF1010C09D2EE5CCF
:1020E00001332670EE5C0133BB4226700CF1020C0A
:1020F000F5D36546D21A002AD0D1BDE70AB11746FA
:10210000D8E71346D21AF6E740F26403C2F200039E
:1021100098422DE9F00508D040F22402C2F20002F4
:10212000904202D0BDE8F00570470029FAD00D7842
:10213000002DF7D0427B04684FF0000C237D1A433A
:1021400013F0200FFAD0427325B96346002DE9D071
:102150009C46F3E7D0F800A0002601EB0C080136FE
:102160008AF8005018F8065006EB0C032F1E18BF13
:1021700001270F2E8CBF002707F00107002FE5D0A5
:10218000EDE700BF40F26403C2F20003984270B46E
:1021900009D040F2240CC2F2000C604503D00023A9
:1021A000184670BC70470B1E18BF0123002A0CBFD5
:1021B000002303F00103002BF1D0046890F80DC058
:1021C000237D43EA0C0C13F0010F80F80DC0E6D01C
:1021D00000232578CD540468467B94F814C001335D
:1021E0004CEA06069A4294BF00250CF0010546739E
:1021F000002DEED1D4E700BF40F26403C2F2000329
:10220000984210B5044606D040F22400C2F2000005
:10221000844200D010BD2268117A01F00F0CBCF18D
:102220000C0FF7D801A151F82CF000BF7D2200005F
:102230001522000075220000852200006D2200009A
:102240001522000061220000152200001522000066
:102250001522000015220000152200006D2200004A
:10226000E369002BD6D02046984710BD236A002B87
:10227000F9D1CFE7636A002BF5D1CBE7A36A002B36
:10228000F1D1C7E7283222F07F4020F4700302F03A
:102290007041580101F1007C5CF8003013F0FF0F31
:1022A00005D0E36A1BB1204698472268283202F025
:1022B000704022F07F4C00F100732CF47001181D67
:1022C0004901435813F0FF0F05D0236B1BB1204683
:1022D00098472268283202F0704322F07F4C03F1C5
:1022E00000702CF4700108304901435813F0FF0FBF
:1022F00005D0636B1BB1204698472268283202F054
:10230000704322F07F4C2CF4700003F100730C3307
:102310004101585810F0FF0F05D0A36B1BB12046A8
:1023200098472268283222F07F4C02F0704101F178
:1023300000722CF4700310325801115811F0FF0F85
:102340003FF468AFE36B002B3FF464AF204698473F
:1023500060E700BF684620F007018D4601B540F2F6
:102360002400C2F20000FFF747FFBDE801408546A8
:10237000704700BF684620F007018D4601B540F266
:102380006400C2F20000FFF737FFBDE80140854658
:10239000704700BF40F26403C2F20003984270B479
:1023A00007D040F22401C2F20001884201D070BC83
:1023B00070470469002CFAD04369002BF7D00168FC
:1023C00090F80DC00A7D42EA0C0C12F0200F80F844
:1023D0000DC0826929D09D1A0F2D38D91025A41857
:1023E00026786B1E0E7003F00106012301329D4218
:1023F000826119D946B194F801C0022301329D428D
:1024000081F800C082610FD914F803C0013281F84D
:1024100000C00133826114F803C0013301329D42D0
:1024200081F800C08261EFD843699A42BFD1026847
:102430000021131D23F07F4C03F0704202F1007362
:102440002CF470020433520199504161AFE7002D22
:10245000C5D1EAE72DE9F04F40F264038FB0C2F234
:1024600000030B9248F200029842C4F203020446B1
:102470000D91906C4EF2001100F0298140F48077AC
:10248000CEF200014FF400669764C1F88061956C4C
:1024900040F2000125F48070C4F2010190640B2227
:1024A0002271216000220D460A7101F1100605F823
:1024B000082F01F1380A2AF07F4B01F1340925F089
:1024C0007F4726F07F4805F0704506F070460AF019
:1024D000704ACDF810A0069529F07F4006F10075EE
:1024E0000390019509F07049049DCDF81C90DDF82A
:1024F0000C9005F1007529F4700A0A952BF4700907
:10250000079DDDF818B0CDF814900BF1007905F1B6
:10251000007B049D01F1300C2CF07F4005F100752B
:102520000CF0704CCDF80CA004950CF100750CF17A
:10253000007AAC46039DCDF824A06D010395059D5E
:1025400028F470086D010595069DCA4605F10075D1
:102550000695019D4FEA481814350195079D27F40B
:10256000700705F100750795049D7F0104350495FA
:10257000654614350895099DCDF830801C350995C0
:102580000A9D4FF001080C350AF1080A09F1040907
:102590000A9506F1007649F807800C9D4AF80780F5
:1025A000DDF818A010364AF807807251DDF80CA04B
:1025B000019E0BF1040B72514BF80A20DDF81CB0A0
:1025C000059D4BF80A20049EDDF820A020F4700041
:1025D00040010CF1180C7251DDF824B04AF80020CB
:1025E0004CF80020DDF828C09C424BF800204CF845
:1025F000052081F8442081F8482081F84C2079D0CA
:1026000040F22403C2F200039C4215D00B9D00202F
:102610000D7360730D9E6061A66025732061A061DB
:1026200020626062E061A062E06220636063A06398
:10263000E0630FB0BDE8F08F0D9FA76000F00EF9CA
:1026400040F21801C2F200010A680D9ED700B7FBE4
:10265000F6F2D3095708B3F5803F28BF2168D5D2D9
:10266000012B216850D901F10C0020F07F4C00F0C3
:10267000704606F100702CF4700A4FEA4A1E0D46AF
:102680005FFA83F8A7EB83171C300126C2F3C73A21
:1026900040F80E60A7EBC31381F804A005F8308B57
:1026A0009A1825F07F4305F0704523F47008A2EBDB
:1026B000470705F100751C354FEA4818FFB20023A3
:1026C00040F80E3045F8086081F83C709EE740F015
:1026D0008007CEF200014FF480669764C1F88061F4
:1026E000956C4FF0804125F0800090640A222271A1
:1026F0002160D7E60D9AA26000F0B0F840F2140114
:10270000C2F200010A68A0E701F10C0C2CF07F4E28
:102710000CF070422EF4700502F100724FEA451E73
:1027200008460025DBB21C32012642F80E600D710E
:1027300000F8303B20F07F4C00F0704000F1007654
:102740002CF470031C365B0142F80E50F5505DE727
:10275000F8B50446FFF77EFE22684FF6FF7302F1DC
:10276000340002F13005C0F20F0305F07047383233
:1027700000F0704102EA030607F1007C1D4000EA08
:10278000030702F0704201F1007142F295307B01C3
:102790000CF10C0C02F100776D010022083176017A
:1027A000C0F200004CF805206062CA50BA51F8BD72
:1027B00048F20002C4F203022DE9F005946C43F2E2
:1027C000404644F480139364906C4EF2001340F042
:1027D000F0719164C0F20006CEF2000300220127DE
:1027E000551CB45C16F805A004F01F000AF01F0188
:1027F00017FA00F017FA01F14FFA8AF862B2540999
:102800004FEA581C6A1C04F1600A0CF1600820347D
:102810000CF1200C202A43F8240043F82A0043F846
:102820002C1043F82810DBD148F20003C4F2030354
:102830009A6C22F0F0709864996C21F480129A647A
:10284000BDE8F005704700BF1F289FBF43F26043FB
:10285000C0F2000353F82030196070472DE9F001F1
:1028600048F20003C4F20303D3F8982083B012F0B7
:10287000806F19D1D3F8980010F4805F4ED043F2E6
:10288000E04CC0F2000C6A469CE8030082E80300BA
:10289000D3F89C1002AFC1F38216BD1915F8084C8D
:1028A000012C00F081806AD2D3F8500147F640082D
:1028B0004FF2800310F0040FC0F27D18C0F2FA232B
:1028C00040F21C0540F2140440F2180040F20807E0
:1028D0004AF6E07C40F20C0140F2100240F204069D
:1028E00008BF4346C2F20005C2F20004C2F2000073
:1028F000C2F20007C0F21D2CC2F20001C2F20002B7
:10290000C2F20006C7F800C033602B60236003608A
:102910000B60136003B0BDE8F001704740F21C0586
:102920004BF6807340F2140445F6C07240F2180072
:1029300040F2080C4AF6E07840F20C0740F2100131
:1029400040F20406C0F67603C0F23B42C2F2000534
:10295000C2F20004C2F20000C2F2000CC0F21D2854
:10296000C2F20007C2F20001C2F20006CCF80080F9
:102970003A6033602B60226002600B60CAE744F269
:10298000402340F21C0540F2140440F2180040F2CB
:1029900008074AF6E07C40F20C0140F2100240F2D7
:1029A0000406C0F20F039DE740F21C0540F2140438
:1029B00040F2180040F208074AF6E07C40F20C01B1
:1029C00040F2100240F20406C2F20005C2F2000416
:1029D000C2F20000C2F20007C0F21D2CC2F20001D8
:1029E000C2F20002C2F200064FF400438AE700BFC1
:1029F00048F20003C4F20303D3F84C114FF602026D
:102A000091420BD1D3F8980040F48072C3F898201B
:102A1000D3F8981021F08060C3F898004EF6005368
:102A2000CEF200035A6942F400715961FDF702BD0C
:102A300070B543F2005643F20055C0F20006C0F2F2
:102A40000005761BB61006D0002455F8243001345A
:102A50009847A642F9D843F2005543F20456C0F213
:102A60000005C0F20006761B00F03EFDB61006D051
:102A7000002455F8243001349847A642F9D870BD97
:102A80000A0D20205458204649464F20554E4445B3
:102A90005252554E20494E54455252555054000002
:102AA0000A0D20205458204649464F204F56455283
:102AB000464C4F5720494E544552525550540000F1
:102AC0000A0D2020545820434F4C4C4953494F4E37
:102AD00020494E5445525255505400000A0D2021B1
:102AE0002121212121204641494C45442052582092
:102AF0005041434B455400000A0D20504153532090
:102B00005258205041434B45540000000A0D0A0D15
:102B1000202046504741205265766973696F6E20C8
:102B200052656769737465723A2020202020202046
:102B3000307800000A0D2020465047412053637230
:102B400061746368205061642052656769737465BD
:102B5000723A202020203078000000000A0D20204A
:102B60004650474120436F6E74726F6C2052656708
:102B700069737465723A202020202020202030784C
:102B8000000000000A0D20204650474120496E7485
:102B90006572727570742052656769737465723AF4
:102BA0002020202020203078000000000A0D202066
:102BB0004650474120496E74657272757074204D9D
:102BC00061736B2052656769737465723A2030785F
:102BD000000000000A0D2020465047412053746138
:102BE0007475732052656769737465723A2020208A
:102BF0002020202020203078000000000A0D202016
:102C00004650474120486967682041646472657393
:102C1000732052656769737465723A20202030789A
:102C2000000000000A0D202046504741204C6F77DD
:102C300020416464726573732052656769737465BB
:102C4000723A202020203078000000000A0D204831
:102C50006967682041646472657373204661696CBA
:102C60002020000020204650474120496E746572A4
:102C7000727570742052656769737465723A2020AA
:102C800020307800202020204578706563746564CA
:102C90003A202020307800002020202041637475E5
:102CA000616C3A2020203078000000000A0D204C92
:102CB0006F772041646472657373204661696C208C
:102CC000202000000A0D2048696768204C656E6767
:102CD0007468204661696C20202000000A0D204C99
:102CE0006F77204C656E677468204661696C2020A0
:102CF000202000000A0D2044617461204661696C47
:102D00002020202020202020202000000A0D20410B
:102D10004C4C205041434B45545320504153534554
:102D2000442E2E2E200A0D000A0D0A0D2050726529
:102D30007373206E756D62657220666F72204163D9
:102D400074696F6E200A0D0A0D20312020526561D2
:102D500064204650474120526567697374657273F9
:102D6000200A0D203220205265736574205265635D
:102D700065697665204649464F200A0D203320209C
:102D80005265736574205472616E736D6974204668
:102D900049464F200A0D203420205472616E736D15
:102DA00069742053696E676C65205061636B65744C
:102DB000202D20494E5445524E414C204C6F6F708F
:102DC0006261636B200A0D203520205265636569BE
:102DD00076652053696E676C65205061636B65741E
:102DE00020616E6420436865636B202D20494E543A
:102DF00045524E414C204C6F6F706261636B200AEC
:102E00000D203620204C6F6F706261636B20506123
:102E1000636B6574732066726F6D203820746F2049
:102E2000313032332042797465732026204368653F
:102E3000636B202D20494E5445524E414C204C6F1F
:102E40006F706261636B200A0D203720205472611D
:102E50006E736D69742053696E676C652050616391
:102E60006B6574202D2045585445524E414C204CE2
:102E70006F6F706261636B200A0D203820205265ED
:102E800063656976652053696E676C652050616380
:102E90006B657420616E6420436865636B202D2030
:102EA00045585445524E414C204C6F6F70626163DF
:102EB0006B200A0D203920205472616E736D697485
:102EC000205061636B6574732066726F6D203820CB
:102ED000746F20313032332042797465732026209C
:102EE000436865636B202D2045585445524E414C34
:102EF000204C6F6F706261636B200A0D206120208F
:102F00005472616E736D697420426F617264203215
:102F100020426F6172642053696E676C6520506156
:102F2000636B6574200A0D20622020526563656919
:102F3000766520426F617264203220426F61726454
:102F40002053696E676C65205061636B6574206106
:102F50006E6420436865636B200A0D206320205453
:102F600072616E736D697420426F617264203220E9
:102F7000426F617264204D756C7469706C6520508D
:102F800061636B657473200A0D20642020526563B1
:102F90006569766520426F617264203220426F61FC
:102FA0007264204D756C7469706C65205061636B40
:102FB000657473200A0D206520205472616E736D54
:102FC0006974205061636B657420426C6173746531
:102FD000722E200A0D2066202052657365742046EB
:102FE000504741204C6F6769632E200A0D206720EF
:102FF00020426C6173746572205061636B6574204C
:103000004C6F6F706261636B2041646472657373AF
:10301000203D203078324141200A0D206820204296
:103020006C6173746572205061636B6574204C6FC2
:103030006F706261636B2041646472657373203DDD
:10304000203078324142200A0D20692020426C61F4
:1030500073746572205061636B6574204C6F6F7080
:103060006261636B2041646472657373203D20303C
:1030700078334343200A0D000A0D0A0D00000000BA
:103080000A0D0A0D205265736574205265636569E7
:103090007665204649464F2E2E2E200A0D00000050
:1030A0000A0D0A0D205265736574205472616E73A7
:1030B0006D6974204649464F2E2E2E200A0D0000C1
:1030C0000A0D0A0D205472616E736D697474696E15
:1030D000672053696E676C65205061636B6574206F
:1030E0002D20496E7465726E616C204C6F6F70623A
:1030F00061636B2E2E2E200A0D0000000A0D0A0DB2
:103100002052656365697665205369676E6C65203A
:103110005061636B657420616E6420436865636B06
:10312000202D20496E7465726E616C204C6F6F703B
:103130006261636B2E2E2E200A0D00000A0D0A0D0F
:10314000204C6F6F70696E67204261636B20506125
:10315000636B6574732052616E67696E6720696E78
:103160002053697A652066726F6D20382042797429
:10317000657320746F203230303820427974657363
:10318000202D20496E7465726E616C204C6F6F70DB
:103190006261636B2E2E2E20200A0D000A0D0A0D8F
:1031A000205472616E736D697474696E672053691F
:1031B0006E676C65205061636B6574202D204558E7
:1031C0005445524E414C204C6F6F706261636B2EC0
:1031D0002E2E200A0D0000000A0D0A0D20526563F4
:1031E000656976652053696E676C65205061636B15
:1031F000657420616E6420436865636B202D2045F3
:10320000585445524E414C204C6F6F706261636B55
:103210002E2E2E200A0D00000A0D0A0D204C6F6F75
:1032200070696E67204261636B205061636B6574E7
:10323000732052616E6765203820746F2032303001
:1032400038204279746573202D2045585445524EDC
:10325000414C204C6F6F706261636B2E2E2E2020CC
:103260000A0D00000A0D0A0D205472616E736D691B
:1032700074696E6720426F61726420746F20426FC0
:103280006172642053696E676C65205061636B6581
:10329000742E2E2E200A0D000A0D0A0D2052656391
:1032A000656976696E6720426F61726420746F2071
:1032B000426F6172642053696E676C652050616370
:1032C0006B657420616E6420436865636B2E2E2EDF
:1032D000200A0D000A0D0A0D205472616E736D698B
:1032E0007474696E6720426F61726420746F20424B
:1032F0006F617264204D756C7469706C65205061EB
:10330000636B6574732E2E2E200A0D000A0D0A0DB4
:1033100020526563656976696E6720426F617264E9
:1033200020746F20426F617264204D756C746970F7
:103330006C65205061636B6574732E2E2E200A0D10
:10334000000000000A0D0A0D205472616E736D6951
:1033500074205061636B657420426C617374657294
:103360002E200A0D000000000A0D0A0D2052657380
:1033700065742046504741204C6F6769632E200AD0
:103380000D0000000A0D0A0D20426C617374657215
:10339000205061636B6574204C6F6F706261636B6A
:1033A0002041646472657373203D2030783241415E
:1033B000200A0D000A0D0A0D20426C6173746572BB
:1033C000205061636B6574204C6F6F706261636B3A
:1033D0002041646472657373203D2030783241422D
:1033E000200A0D000A0D0A0D20426C61737465728B
:1033F000205061636B6574204C6F6F706261636B0A
:103400002041646472657373203D203078334343F8
:10341000200A0D000A0D0A0D205072657373206199
:103420006E79206E756D6265722E2E2E200A0D0A41
:103430000D0000000A0D20456E7465723A202000D0
:1034400032333435363738393A3B3C3D3E3F4041E4
:1034500042434445464748494A4B4C4D4E4F5051D4
:103460000030014004300140083001400C30014080
:103470001030014014300140183001401C30014030
:103480002030014024300140283001402C300140E0
:103490003030014034300140383001403C30014090
:1034A0004030014044300140483001404C30014040
:1034B0005030014054300140583001405C300140F0
:1034C0006030014064300140683001406C300140A0
:1034D0007030014074300140783001407C30014050
:1034E0000001000102020303F8B500BFF8BC08BCEC
:1034F0009E467047F8B500BFF8BC08BC9E467047B2
:10350000D5040000C104000000000000000000001D
:103510000000000080BF7608E0AF1D02C05F3B04E2
:1035200080BF7608C05F3B04C05F3B0480BF760865
:040000030000019167
:00000001FF
