:1000000000000120910100007F0300008103000037
:100010008303000085030000870300000000000048
:100020000000000000000000000000008903000044
:100030008B030000000000008D0300008F03000010
:100040009103000093030000950300009703000054
:10005000990300009B0300009D0300009F03000024
:10006000A1030000A3030000A125000081250000DA
:10007000A9030000AB030000AD030000AF030000C4
:10008000B1030000B3030000B5030000B703000094
:10009000B9030000BB030000BD030000BF03000064
:1000A000C1030000C3030000C5030000C703000034
:1000B000C9030000CB030000CD030000CF03000004
:1000C000D1030000D3030000D5030000D7030000D4
:1000D000D9030000DB030000DD030000DF030000A4
:1000E000E1030000E3030000E5030000E703000074
:1000F000E9030000EB030000ED030000EF03000044
:10010000F1030000F3030000F5030000F703000013
:10011000F9030000FB030000FD030000FF030000E3
:1001200001040000030400000504000007040000AF
:10013000090400000B0400000D0400000F0400007F
:10014000110400001304000015040000170400004F
:10015000190400001B0400001D0400001F0400001F
:1001600021040000230400002504000027040000EF
:10017000290400002B0400002D0400002F040000BF
:100180003104000033040000000000000000000003
:100190004FF0000BDFF8BE020068DFF8B612096806
:1001A00001F0030100F01C00142801D14BF0020BF8
:1001B000002901D04BF0010BBBF1000F05D0A7487F
:1001C000A749DFF8722200F09FF8A64880470BF09D
:1001D000020ABAF1000F0CD0DFF86E02DFF86E12DF
:1001E00002680B680FB44FF000024FF0FF0302608B
:1001F0000B609D489D4A9E4B022808D1DFF83E12B5
:100200000A60DFF842120A60DFF836120B6001283C
:1002100008D1DFF82E120A60DFF82A120A60DFF830
:100220001E120B609348002809D193489349944AC1
:1002300000F032F893489449944A00F02DF894481D
:100240009449954A00F028F894489549DFF8E6214A
:1002500000F05AF8BBF1000F12D092489249DFF833
:10026000DA2100F051F80BF0020ABAF1000F07D0C2
:100270000FBC02600B6000BFAFF30080AFF30080E3
:10028000DFF828020FF2030E00474FF000004FF096
:100290000001DFF81CF2FEE72DE9F841884225D085
:1002A000B2EB010200D5FEE740EA010313F00303BD
:1002B00002D000F01DF819E04FF000039046121133
:1002C000F7D09A421CBFF0C8F0C103F10103F8D186
:1002D00008F00F08B8F1000F08D004780C7000F196
:1002E000010001F10101B8F10108F6D1BDE8F88182
:1002F00008B54FF0000303780B7000F1010001F125
:100300000101013AF7D108BD884237D000F0030659
:10031000002E14D04FF00405A5EB06044FF008079B
:1003200007FB06F8914669FA08F9002C07D080F817
:10033000009069FA07F900F10100013CF5E74FF080
:1003400000060F46091A88460911914614461546BB
:10035000B14206D018BFA0E8340206F10106B1424E
:10036000F8D108F00F08B8F1000F07D002704FEA7B
:10037000322200F10100B8F10108F4E77047FEE70E
:10038000FEE7FEE7FEE7FEE7FEE7FEE7FEE7FEE745
:10039000FEE7FEE7FEE7FEE7FEE7FEE7FEE7FEE735
:1003A000FEE7FEE7FEE7FEE7FEE7FEE7FEE7FEE725
:1003B000FEE7FEE7FEE7FEE7FEE7FEE7FEE7FEE715
:1003C000FEE7FEE7FEE7FEE7FEE7FEE7FEE7FEE705
:1003D000FEE7FEE7FEE7FEE7FEE7FEE7FEE7FEE7F5
:1003E000FEE7FEE7FEE7FEE7FEE7FEE7FEE7FEE7E5
:1003F000FEE7FEE7FEE7FEE7FEE7FEE7FEE7FEE7D5
:10040000FEE7FEE7FEE7FEE7FEE7FEE7FEE7FEE7C4
:10041000FEE7FEE7FEE7FEE7FEE7FEE7FEE7FEE7B4
:10042000FEE7FEE7FEE7FEE7FEE7FEE7FEE7FEE7A4
:10043000FEE7FEE7704700000000A2A2A2A2008033
:100440000340088003401080034030800340348024
:1004500003403880034018080240000000F00020EC
:10046000000001201D2C0000000000000000000022
:10047000010000000000000000000000000000007B
:1004800090010000C0040000C004000040370000DC
:100490004037000000000020200000202000002045
:1004A000B0000020B000002000F000205D2C000013
:1004B00045100000AFF30080AFF30080AFF3008081
:1004C00040F22003C2F200031A780AB90120187022
:1004D000704700BF40F20000C2F2000008B5036898
:1004E0002BB140F20003C0F2000303B1984708BDEE
:1004F0002DE9F84F40F2300540F234048C46C5F245
:1005000000044FEA102800F0FF0740F20801C5F28E
:100510000005C5F80080C5F20001276086014FEA9A
:100520001C2A8008BCF1050408600E60C1F800A018
:10053000C1F800C09A461FD001230026ACF106097D
:10054000A3420E6009F0030016D258B1012805D06D
:1005500002281CBF0B6002230B6001330B600133C8
:10056000A34209D2581C0B60DF1C0433451CA34274
:1005700008600D600F60F5D3012A74D040F21003BB
:10058000022AC5F2000375D02021196040F214053B
:1005900040F21007C5F20005C5F200074FF0200B2E
:1005A00010264FF001094FF080080DE014F0100FF5
:1005B0001ED114F0010F2AD114F0800F18BFC5F816
:1005C000008014F0B10F36D12C6814F0200FEDD05C
:1005D00040F2640042F6AC41C2F20000C0F20001F9
:1005E000C5F800B001F0A6FE14F0100F3E60E0D098
:1005F00040F2640042F6CC41C2F20000C0F20001B9
:100600002E6001F097FE14F0010F3E60D4D040F24E
:10061000640042F6EC41C5F80090C2F20000C0F25E
:10062000000101F087FE14F0800F18BFC5F80080AC
:1006300014F0B10FC8D0BAF1000F12D140F2140378
:100640004FF6FF72C5F20003C0F203020AF1070A77
:10065000924519681968196819681968196819683C
:10066000F4D1BDE8F88F40F21003C5F20003302248
:100670001A608BE720321A6088E700BF10B540F29D
:10068000640042F6385182B0C2F20000C0F20001AC
:1006900001F050FE4FF0A0431B684FF03032019242
:1006A00000926C4673B1072104E030321B0962549A
:1006B00008D0013903F00F02092AF6D937321B0995
:1006C0006254F6D140F26400C2F20000694608228A
:1006D00001F0DAFD40F2640042F66051C2F200001F
:1006E000C0F2000101F026FE40F20401C5F2000153
:1006F0000B684FF030306060206073B1072104E078
:1007000030321B09625408D0013903F00F02092A64
:10071000F6D937321B096254F6D140F26400082240
:10072000C2F20000694601F0AFFD40F2640042F6FB
:100730008851C2F20000C0F2000101F0FBFD40F25E
:100740001003C5F200031B684FF030326260226074
:1007500073B1072104E030321B09625408D001391B
:1007600003F00F02092AF6D937321B096254F6D179
:1007700040F26400C2F200006946082201F084FDE4
:1007800040F2640042F6B051C2F20000C0F2000133
:1007900001F0D0FD40F21401C5F200010B684FF0EA
:1007A00030306060206073B1072104E030321B09F3
:1007B000625408D0013903F00F02092AF6D9373202
:1007C0001B096254F6D140F264000822C2F2000014
:1007D000694601F059FD40F2640042F6D851C2F278
:1007E0000000C0F2000101F0A5FD40F21803C5F2BF
:1007F00000031B684FF030326260226073B1072142
:1008000004E030321B09625408D0013903F00F02B2
:10081000092AF6D937321B096254F6D140F2640036
:10082000C2F200006946082201F02EFD40F2640089
:1008300042F60061C2F20000C0F2000101F07AFD50
:1008400040F21C01C5F200010B684FF030306060CF
:10085000206073B1072104E030321B09625408D0D4
:10086000013903F00F02092AF6D937321B09625405
:10087000F6D140F264000822C2F20000694601F09D
:1008800003FD40F2640042F62861C2F20000C0F2AB
:10089000000101F04FFD40F23003C5F200031B6878
:1008A0004FF030326260226073B1072104E03032D1
:1008B0001B09625408D0013903F00F02092AF6D946
:1008C00037321B096254F6D140F26400C2F20000D4
:1008D0006946082201F0D8FC40F2640042F65061FB
:1008E000C2F20000C0F2000101F024FD40F2340128
:1008F000C5F200010B684FF030306060206073B1CA
:10090000072104E030321B09625408D0013903F09A
:100910000F02092AF6D937321B096254F6D140F288
:100920006400C2F200006946082201F0ADFC02B08A
:1009300010BD00BF2DE9F04F91B002AB0193019CB7
:1009400042F6085EC0F2000E80468946BEE80F00FF
:100950000FC4A3469EE80700ABE8030009AF009769
:100960005E4642F62455DDF800B03280C0F2000544
:100970004FEA124C0FCDABE80F0084F80AC02D8867
:1009800040F2140040F2300140F23402FF24C5F27C
:1009900000024FEA182A08F0FF0E40F21003C5F2D9
:1009A0000000C5F20001ABF800504FEA8816046061
:1009B000C5F20003C1F800A040F21C07C2F800E035
:1009C000002226401A60C5F200074FEA98084FEA55
:1009D000192509EA04043A6812F0100FFBD040F21E
:1009E000140A4020C5F2000A40F20C01CAF80000C7
:1009F000C5F200010F68474508BF4FF0000B00F03B
:100A0000908040F2640042F67861C2F20000C0F2C9
:100A1000000101F08FFC40F2640042F69061C2F2E6
:100A20000000C0F2000101F085FCDAF800304FF060
:100A300030320F920E920DF1380A83B1072105E092
:100A400030321B090AF8012009D0013903F00F02E6
:100A5000092AF5D937321B090AF80120F5D140F2ED
:100A60006400C2F200005146082201F00DFC40F281
:100A7000640042F6B061C2F20000C0F2000101F071
:100A800059FC4FF03033CAF80430CAF80030B8F1DE
:100A9000000F12D0072206E030335FEA18180AF878
:100AA00002300AD0013A08F00F03092BF4D937338A
:100AB0005FEA18180AF80230F4D140F26400C2F27A
:100AC00000005146082201F0DFFB40F2640042F6CC
:100AD000C461C0F20001C2F2000001F02BFC4FF033
:100AE0003031CAF80410CAF8001087B1072205E0B7
:100AF00030333F090AF8023009D0013A07F00F03FA
:100B0000092BF5D937333F090AF80230F5D140F205
:100B10006400C2F200005146082201F0B5FB4FF01C
:100B2000010B40F20C00C5F200000768B74200F06C
:100B30008F8040F2640042F6D861C2F20000C0F239
:100B4000000101F0F7FB40F2640042F69061C2F24E
:100B50000000C0F2000101F0EDFB40F21403C5F209
:100B600000031B684FF030320F920E920DF13808DF
:100B700083B1072105E030321B0908F8012009D0B4
:100B8000013903F00F02092AF5D937321B0908F899
:100B90000120F5D140F26400C2F200004146082273
:100BA00001F072FB40F2640042F6B061C0F2000155
:100BB000C2F2000001F0BEFB4FF03031C8F8041063
:100BC000C8F8001086B1072205E03033360908F86E
:100BD000023009D0013A06F00F03092BF5D937335B
:100BE000360908F80230F5D140F26400C2F2000084
:100BF0004146082201F048FB40F2640042F6C4611D
:100C00004FF03036C2F20000C0F2000101F092FB5A
:100C1000C8F80460C8F8006087B1072205E03033E7
:100C20003F0908F8023009D0013A07F00F03092BF9
:100C3000F5D937333F0908F80230F5D140F26400A6
:100C4000C2F200004146082201F01EFB4FF0010BEA
:100C500040F20C00C5F200000668AE4200F084804D
:100C600040F2640042F6F061C2F20000C0F20001FE
:100C700001F060FB40F2640042F69061C2F20000B5
:100C8000C0F2000101F056FB40F21402C5F200026E
:100C900013684FF030370F970E970EAF73B10721DF
:100CA00004E030321B097A5408D0013903F00F02F6
:100CB000092AF6D937321B097A54F6D140F264007A
:100CC000C2F200003946082201F0DEFA40F2640068
:100CD00042F6B061C2F20000C0F2000101F02AFB4E
:100CE0004FF030337B603B6075B1072204E0303356
:100CF0002D09BB5408D0013A05F00F03092BF6D992
:100D000037332D09BB54F6D140F26400C2F2000023
:100D10003946082201F0B8FA40F2640042F6C46194
:100D20004FF03035C2F20000C0F2000101F002FBCA
:100D30007D603D6076B1072204E030333609BB5454
:100D400008D0013A06F00F03092BF6D937333609DC
:100D5000BB54F6D140F26400C2F2000039460822CA
:100D600001F092FA4FF0010B40F20C01C5F20001C4
:100D70000D68A54200F0848040F2640042F60871DC
:100D8000C2F20000C0F2000101F0D4FA40F26400A7
:100D900042F69061C2F20000C0F2000101F0CAFA0E
:100DA00040F21400C5F2000003684FF030360F9691
:100DB0000E960EAE73B1072104E030321B09725457
:100DC00008D0013903F00F02092AF6D937321B097E
:100DD0007254F6D140F264000822C2F2000031469B
:100DE00001F052FA40F2640042F6B061C2F2000033
:100DF000C0F2000101F09EFA4FF0303272603260B2
:100E000074B1072204E030332409B35408D0013A06
:100E100004F00F03092BF6D937332409B354F6D164
:100E200040F26400C2F200003146082201F02CFAC0
:100E300040F2640042F6C461C2F20000C0F2000158
:100E400001F078FA4FF030337360336075B10722E8
:100E500004E030332D09B35408D0013A05F00F03F4
:100E6000092BF6D937332D09B354F6D140F264007B
:100E7000C2F200003146082201F006FA4FF0010BE1
:100E8000B9F1050900F0BE8040F2140440F20C0AEA
:100E9000C5F200045B46C5F2000A4FF00008302797
:100EA0000EAEA346DAF8004008F0FF05AC4200F0B1
:100EB000A38040F2640042F62071C2F20000C0F24A
:100EC000000101F037FA40F2640042F69061C2F28C
:100ED0000000C0F2000101F02DFADBF800308DF8BF
:100EE00038708DF839708DF83A708DF83B708DF848
:100EF0003C708DF83D708DF83E708DF83F7073B189
:100F0000072104E030321B09725408D0013903F084
:100F10000F02092AF6D937321B097254F6D140F272
:100F20006400C2F200003146082201F0ADF940F23F
:100F3000640042F6B061C2F20000C0F2000101F0AC
:100F4000F9F98DF838708DF839708DF83A708DF8A0
:100F50003B708DF83C708DF83D708DF83E708DF8CB
:100F60003F7075B1072204E030332D09B35408D027
:100F7000013A05F00F03092BF6D937332D09B35485
:100F8000F6D140F26400C2F200003146082201F0BE
:100F90007BF940F2640042F6C461C2F20000C0F284
:100FA000000101F0C7F98DF838708DF839708DF8AF
:100FB0003A708DF83B708DF83C708DF83D708DF86F
:100FC0003E708DF83F7074B1072204E0303324097D
:100FD000B35408D0013A04F00F03092BF6D9373384
:100FE0002409B354F6D140F26400C2F20000314645
:100FF000082201F049F9012308F10108C845FFF46E
:1010000051AF9B4640F20C03C5F200031A681B68FF
:10101000BBF1000F0BD140F26400C2F2000009A93D
:10102000122201F031F9002011B0BDE8F08F40F23A
:101030006400C2F2000002A91B2201F025F9584603
:10104000F2E700BF2DE9F04FADF58C6D81B00DF5E5
:101050008A673A1D0192019C43F26066C0F2000665
:1010600096E8070084E8070001F0B8FC002003219F
:1010700001F000FD0120052101F0FCFC02200146E9
:1010800001F0F8FC0320014601F0F4FC04200321E8
:1010900001F0F0FC0520014601F0ECFC06200521E2
:1010A00001F0E8FC0720052101F0E4FC08200521FF
:1010B00001F0E0FC0920022101F0DCFC0A20022101
:1010C00001F0D8FC0B20052101F0D4FC0C200321F9
:1010D00001F0D0FC0D20052101F0CCFC0E200321F5
:1010E00001F0C8FC0F20032101F0C4FC10200321F3
:1010F00001F0C0FC1120032101F0BCFC12200321EF
:1011000001F0B8FC1320022101F0B4FC14200521E9
:1011100001F0B0FC1520052101F0ACFC16200521E2
:1011200001F0A8FC1820052101F0A4FC19200321DE
:1011300001F0A0FC1A20032101F09CFC1C200521D9
:1011400001F098FC1F20032101F094FC40F26400A0
:101150000322C2F200004FF4614101F00FFC40F2A3
:10116000640042F65471C2F20000C0F2000101F0C6
:10117000E1F843F200050DF58A6340F26400191DA1
:101180000C22C4F20105C2F2000001F07DF8D5F88E
:10119000881040F6000321F0805BC4F20203C5F81A
:1011A00088B0002242F2DE751A609D6040F20F3571
:1011B000DD604FF0020AC125C3F810A05A619D619D
:1011C00040F69F15DD6143F233351A625D624FF6DA
:1011D000FF759D6247F27775DD6240F6FF751D630E
:1011E000012144F2422559639D630825DD634FF0D8
:1011F00033091835C3F840905D64A0359A64DA6409
:101200001D659D3D5D6540F235259D656425DD6567
:1012100040200324A4351D6670355D6641F64715F0
:10122000C3F86890DD6610251D674FF44C555A676A
:101230009D6740F214554FF4007CDA67C3F88020B4
:10124000C3F884501225C3F88820C3F88CC0C3F8B3
:101250009000C3F894504FF48045C3F898A048F22A
:10126000F808C3F89C504FF0070E40F20935C3F858
:10127000A080C3F8A4E0C3F8A880C3F8ACE0C3F82A
:10128000B0C0C3F8B410C3F8B820C3F8BC40C3F86A
:10129000C040C3F8C400C3F8C820C3F8CC20C3F8CA
:1012A000D020C3F8D420C3F8D8508025C3F8E0205C
:1012B00040F20147C3F8402144F21006C3F81C2253
:1012C000C3F82452753DC3F83042C3F83822C3F83E
:1012D0004022C3F84852C3F85C02C3F86072C3F8F6
:1012E0006462C3F868222132C3F88012C3F89802FE
:1012F000C3F89C72C3F8A062C3F8D802C3F8DC72CA
:10130000C3F8E062C3F8FC22183AC3F804439B46D2
:10131000C3F80813C3F80C13C3F81423C3F81C1341
:101320001960DBF8E4000028FBD040F21003C5F29E
:101330000003102440F214011C60C5F2000140F2C9
:1013400030050868C5F2000540F2340242F6245E1A
:10135000022028600027C5F2000242F6085640F23B
:101360000C04A921C0F2000E0DF584650DF5886C02
:101370001160C0F200061F60CDF81CE0C5F2000449
:1013800040F2A9274FF0080A0435CDF800C00DF14E
:10139000240840F264004FF48062C2F2000041462B
:1013A00001F006F898F8009002460028EFD040F2CD
:1013B00064004146C2F20000A9F1310800F064FF68
:1013C000B8F1380F00F24484DFE818F03104280443
:1013D0001304FE03A4030303EE025805C0044204F1
:1013E00042044204420442044204420442044204CD
:1013F00042044204420442044204420442044204BD
:1014000042044204420442044204420442044204AC
:10141000420442044204420442044204420442049C
:1014200042044204420442044204420477044D044C
:101430004D06A305EA05C102E9011101390040F298
:10144000640043F210614FF6FF77C2F20000C0F271
:101450000001029700F06EFF029A0AF1020B0AF1F6
:1014600003084FF00009C0F20F020AF1010CAAF1C3
:101470000503CDF810B0CDF814800292CDF80CC061
:10148000CB4606930AF1FF3837464FF47370514646
:1014900002220123FFF72CF84FF473700399022204
:1014A0000123FFF725F84FF47370049902220123FA
:1014B000FFF71EF84FF47370059902220123FFF71E
:1014C00017F8069EBC46AE46BCE80F00AEE80F001B
:1014D00073469CE8070003C31946130CAB760A80D9
:1014E00022682068731D002800F0398601222068D8
:1014F0002168B0EB132F18BF012203F0FF008842D0
:1015000018BF0122002E48D020680123711E002838
:1015100018BF1A46B34201F003013ED2C1B10129FE
:101520000DD0022904D02168994218BF012202235C
:10153000206803F0FF0C604518BF012201332068CA
:1015400003F0FF0E0133704518BF0122B34224D2CD
:10155000D4F800E0591C206803F0FF0CE6450CBFEE
:1015600094464FF0010C01F1010E226801F0FF01D9
:1015700088420CBF614601210EF0FF0E03F1030CFF
:10158000206872450CBF0A4601220CF0FF0C0433A0
:10159000604518BF0122B342DAD3012A23682368C9
:1015A00000F0E285013646458CD1029E09F1010921
:1015B000B1457FF46AAF3E46BBF1000F00F03986BB
:1015C00040F2640042F65471C2F20000C0F2000121
:1015D00000F0B0FE0DF58A6740F26400391DC2F2DA
:1015E00000000C2200F050FE4FF47377CFE640F27B
:1015F000640043F2E0514FF6FF77C2F20000C0F200
:101600000001029700F096FE029A0AF1020B0AF11D
:1016100003084FF00009C0F20F020AF1010CAAF111
:101620000503CDF810B0CDF80C800292CDF814C0AF
:10163000CB4606930AF1FF38374640F2AB205146BD
:1016400002220123FEF754FF40F2AB20059902224B
:101650000123FEF74DFF40F2AB2004990222012343
:10166000FEF746FF40F2AB20039902220123FEF76A
:101670003FFF069EBC46AE46BCE80F00AEE80F003A
:1016800073469CE8070003C31946130CAB760A8027
:1016900022682068731DC02800F05C850122206844
:1016A0002168B0EB132F18BF012203F0FF0088421E
:1016B00018BF0122002E48D020680123711E002887
:1016C00018BF1A469E4201F003013ED9C1B101295B
:1016D0000DD0022904D02168994218BF01220223AB
:1016E000206803F0FF0C604518BF01220133206819
:1016F00003F0FF0E0133704518BF01229E4224D92A
:10170000D4F800E0591C206803F0FF0CE6450CBF3C
:1017100094464FF0010C01F1010E226801F0FF0127
:1017200088420CBF614601210EF0FF0E03F1030C4D
:10173000206872450CBF0A4601220CF0FF0C0433EE
:10174000604518BF01229E42DAD8012A2368236827
:1017500000F02285013646458CD1029E09F101092F
:10176000B1457FF46AAF3E46BBF1000F00F06D85D6
:1017700040F2640042F65471C2F20000C0F200016F
:1017800000F0D8FD0DF58A6740F26400391DC2F201
:1017900000000C2200F078FD40F2AB27F7E540F2A4
:1017A000640043F2B0514FF6FF73C2F20000C0F282
:1017B0000001029300F0BEFDDDF808B00AF1020856
:1017C000C0F20F0BAAF105074FF000090AF1010C56
:1017D0000AF10302CDF808B0CDF810800697CDF8D5
:1017E00014C00392CB460AF1FF38374640F2AA20D4
:1017F000514602220123FEF77BFE40F2AA20059902
:1018000002220123FEF774FE40F2AA20049902226C
:101810000123FEF76DFE40F2AA2003990222012364
:10182000FEF766FE069EBC46AE46BCE80F00AEE87C
:101830000F0073469CE8070003C3100C1A80A876BB
:1018400022682168731D802900F07F8401222068AE
:101850002168B0EB132F18BF012203F0FF0088426C
:1018600018BF0122002E48D020680123711E0028D5
:1018700018BF1A46B34201F003013ED2C1B101299B
:101880000DD0022904D02168994218BF01220223F9
:10189000206803F0FF0C604518BF01220133206867
:1018A00003F0FF0E0133704518BF0122B34224D26A
:1018B000D4F800E0591C206803F0FF0CE6450CBF8B
:1018C00094464FF0010C01F1010E226801F0FF0176
:1018D00088420CBF614601210EF0FF0E03F1030C9C
:1018E000206872450CBF0A4601220CF0FF0C04333D
:1018F000604518BF0122B342DAD3012A2368236866
:1019000000F03E84013646458DD1029E09F1010961
:10191000B1457FF46BAF3E46BBF1000F00F0A184F0
:1019200040F2640042F65471C2F20000C0F20001BD
:1019300000F000FD0DF58A6740F26400391DC2F227
:1019400000000C2200F0A0FC40F2AA271FE540F2A4
:10195000640043F29451C2F20000C0F2000100F0B2
:10196000E9FC43F20003C4F201034FF08050C3F8D6
:101970008800D3F8881040F2640021F08052C3F848
:10198000882042F65471C2F20000C0F2000100F05B
:10199000D1FC0DF58A6140F26400C2F2000004310E
:1019A0000C2200F071FCF2E440F2640043F2C83112
:1019B000C2F20000C0F2000100F0BCFC3846514603
:1019C00002220123FEF794FD40F2640042F65471B6
:1019D000D9E740F2640043F26831C0F20001C2F27C
:1019E000000000F0A7FCB9010AF1FF3B01F0FF0382
:1019F0004FEA970CCDF810B00393CDF808C0AAF1C8
:101A000005084FF0000BD146012208F1050A3846BF
:101A100051461346FEF76CFDB446AE46BCE80F00D7
:101A2000AEE80F0073469CE8070003C31946130C89
:101A30000A80AB76236803982268904200F0BD8349
:101A4000012320682168B0EB1A2F18BF01230AF088
:101A5000FF028A420CBF1A460122B8F1000F45D09E
:101A600021680123002918BF1A4608F1FF3A4345AF
:101A70000AF003013AD2C1B101290DD0022904D0E4
:101A800020680223012818BF0122206803F0FF0A02
:101A9000504518BF01220133206803F0FF010133D4
:101AA000884218BF0122434520D2D4F800E0591CD7
:101AB000206803F0FF0AD64518BF012201F1010C8E
:101AC000D4F800A001F0FF01884218BF01220CF0F9
:101AD000FF0ED81C2168F24518BF012200F0FF0C50
:101AE0000433614518BF01224345DED3012A236830
:101AF000236800F07283049B08F10108984583D1A4
:101B0000CA46BBF1000F00F0848340F2640042F645
:101B1000547138E740F2640043F22831C2F2000009
:101B2000C0F2000100F006FCB346AC46BBE80F0073
:101B3000ACE80F00E1469BE80700A9E80300DDF8E8
:101B40001CE04946DDF800800A804FEA124BBEE8EF
:101B50000F00A8E80F00BEF800C04346A3F800C07D
:101B600085F81AB0BA012368206802F0FF098145A0
:101B700000F03E83012322682068B2EB1A2F18BFC1
:101B800001230AF0FF0E86450CBF1A460122BAF166
:101B900005010AD00023D4F8009003F0FF080133B8
:101BA000C14518BF01228B42F5D340F26400012ADF
:101BB0002368C2F20000236800F036830DF58861C7
:101BC000122200F061FBA0E740F2640043F2EC2136
:101BD000C2F20000C0F2000100F0ACFB38465146F2
:101BE00001220023FEF784FC40F2640042F65471A7
:101BF000C9E640F2640043F2CC21C2F20000C0F218
:101C0000000100F097FB40F21003C5F20003102220
:101C100040F2640042F654711A60B4E640F2640087
:101C200043F2AC21C2F20000C0F20001E9E7FEF786
:101C300025FD40F2640043F2A421C2F20000C0F28C
:101C4000000100F077FB40F2640042F654719AE61E
:101C500040F2640043F24061C2F20000C0F20001B1
:101C600000F068FB51E740F2640043F2C441C2F265
:101C70000000C0F2000100F05DFB40F2F9314FF4CA
:101C80002A70FEF757FE40F2640042F65471C2F229
:101C90000000C0F2000100F04DFB0DF58A6740F234
:101CA0006400391DC2F200000C2200F0EDFA40F28F
:101CB000A92740F2F93AFFF76ABB40F2640043F209
:101CC0009041C2F20000C0F2000100F033FB40F28C
:101CD0001400C5F20000FF2740F2300140F2340248
:101CE0000760C5F20001C5F200020220A82740F2F9
:101CF00008030860C5F200031760AA2103224FF40D
:101D00002A4040F2F937196018601A601F600022FB
:101D10001A600132B2F57D7FFAD140F21003C5F2AC
:101D2000000340F2140220211960C5F2000210687D
:101D300040F2140310F0800FC5F20003F7D08022A8
:101D400040F2640042F654711A60A0E740F2640069
:101D500043F24441C2F20000C0F2000100F0EAFA8E
:101D6000BA014FEA970902F0FF030AF1FF3CCDF8F0
:101D70000C900293AAF10508CDF810C04FF0000BAB
:101D8000D14608F1050A0222012338465146FEF7E2
:101D9000AFFBB446AE46BCE80F00AEE80F0073469A
:101DA0009CE8070003C31946130C0A80AB7623682E
:101DB00002992068884200F0FB8101232268216893
:101DC000B2EB1A2F18BF01230AF0FF0088420CBFA4
:101DD0001A460122B8F1000F45D02068012308F10E
:101DE000FF3A002818BF1A4643450AF003013AD2C9
:101DF000C1B101290DD0022904D020680223012895
:101E000018BF0122206803F0FF0C604518BF0122B3
:101E10000133206803F0FF0E0133704518BF012223
:101E2000434520D2D4F800E0591C206803F0FF0A93
:101E3000D64518BF012201F1010CD4F800A001F031
:101E4000FF01884218BF01220CF0FF0ED81C216848
:101E5000F24518BF012200F0FF0C0433614518BFA2
:101E600001224345DED3012A2368236800F0AA81BA
:101E7000049B08F10108984583D141E640F26400D3
:101E800043F20441C2F20000C0F20001B146A8468C
:101E900000F050FAB9E80F00A8E80F00434699E8AF
:101EA000070003C3DDF81CE0DDF800C01A804FEA2C
:101EB0001249BEE80F00ACE80F00BEF800B0614662
:101EC000A1F800B085F81A90B8012368226800F0E4
:101ED000FF08904500F0D181012320682268B0EB13
:101EE0001A2F18BF01230AF0FF0191420CBF1A46B6
:101EF0000122BAF105013FF458AE0023D4F800E006
:101F000003F0FF0B0133DE4518BF01228B42F5D3EE
:101F10004BE640F2640043F23851C2F20000C0F2D6
:101F2000000100F007FA08214FF42A70FEF702FDC5
:101F30000921012814BF002701274FF42A70FEF75A
:101F4000F9FC012808BF01374FF42A700A21FEF777
:101F5000F1FC012808BF01374FF42A700B21FEF76E
:101F6000E9FC012802D0002F00F0488140F2640013
:101F700042F65471C2F20000C0F2000100F0DAF93A
:101F80000DF58A6740F26400391DC2F200000C2290
:101F900000F07AF940F2A9274FF0080AFFF7F7B9E5
:101FA00040F2640043F27051C2F20000C0F200013E
:101FB00000F0C0F940F2100740F2140140F2300E78
:101FC00040F2340C40F20803C5F20001C5F2000EE5
:101FD000C5F2000CC5F20003C5F2000700204FF067
:101FE000800A40F2F738FF220A60FD3ACEF800205E
:101FF000023ACCF800204FF40042C3F800A01A6067
:1020000003221A604FF47F721A6000221A600132B4
:102010001A6092181A600132424518BF03910FD01E
:102020001A6002F1010902F1030B043209F1010106
:102030004245C3F800901960C3F800B0F0D103998D
:1020400020223A6099460B6840F2140213F0800F88
:10205000C5F20002F7D00130B0F5803F4B46C2F820
:1020600000A0C0D182E740F2640043F20051C2F206
:102070000000C0F2000140F2140900F05BF9C5F263
:10208000000940F2300E40F2340C40F2080240F2F7
:102090001007C5F2000EC5F2000CC5F20002C5F231
:1020A000000703204FF00208CB46FF21CBF80010B9
:1020B0005739CEF80080CCF80010023111600123AE
:1020C0004FF42A41116000F10509002100F1FF3AA7
:1020D000834211600AF0030AC2F80090116022D214
:1020E000BAF1000F0DD0BAF1010F06D0BAF1020F0C
:1020F0001CBF1360434613600133136001338342F6
:1021000011D25946136003F1010A03F103090433A4
:102110000AF1010B8342C2F800A0C2F800B0C2F875
:102120000090EFD38B4620233B6059460B6813F099
:10213000800FFBD08B46013040F214018023C5F2A2
:10214000000107280B60B0D110E7AA3A18BF01229E
:10215000FFF77DBBAA3A18BF0122FFF7A0BAF33AF6
:1021600018BF0122FFF7C3B940F26400C2F20000B9
:1021700029461B2200F088F80BF1010BFFF712BA79
:1021800040F26400C2F2000029461B2200F07CF8F5
:102190000BF1010BFFF7B6BB40F26400C2F2000086
:1021A00029461B2200F070F80BF1010BFFF7D2BAA1
:1021B000039A9B1A18BF012300E602981B1A18BF46
:1021C00001233EE440F26400C2F2000029461A32C4
:1021D00000F05AF80BF1010B4AE640F26400C2F23B
:1021E000000029461A3200F04FF80BF1010B82E48F
:1021F000B3EB970F0CBF00230123BCE440F2640053
:1022000042F63871C2F20000C0F2000100F092F80C
:10221000ACE640F2640042F63871C2F20000C0F24F
:10222000000100F087F870E429461A3200F02CF81B
:102230006BE440F2640042F63871C2F20000C0F272
:10224000000100F077F8FFF7BBB940F2640042F6F6
:102250003871C2F20000C0F2000100F06BF8FFF725
:1022600087BA40F2640042F63871C2F20000C0F250
:10227000000100F05FF8FFF753BBB3EB970F0CBF03
:102280000023012329E600BF40F26403C2F20003E9
:1022900098422DE9F00508D040F2240CC2F2000C5F
:1022A000604502D0BDE8F00570470B1E18BF012342
:1022B000002A0CBF002303F00103002BF2D090F89A
:1022C0000D80D0F800A000259AF814C048EA0C0848
:1022D0001CF0200F80F80D8023D00F2A24D910275E
:1022E0004E5D0468012307F1FF3C26700CEA0306EB
:1022F00005EB030C4D19BB4211D236B1EE5C022343
:10230000BB4226700CF1010C09D2EE5C0133267041
:10231000EE5C0133BB4226700CF1020CF5D365462E
:10232000D21A002AD0D1BDE70AB11746D8E7134622
:10233000D21AF6E740F26403C2F2000398422DE994
:10234000F00508D040F22402C2F20002904202D00E
:10235000BDE8F00570470029FAD00D78002DF7D0C0
:10236000427B04684FF0000C237D1A4313F0200FCA
:10237000FAD0427325B96346002DE9D09C46F3E7B5
:10238000D0F800A0002601EB0C0801368AF80050B6
:1023900018F8065006EB0C032F1E18BF01270F2E4E
:1023A0008CBF002707F00107002FE5D0EDE700BF45
:1023B00040F26403C2F20003984270B409D040F2C4
:1023C000240CC2F2000C604503D00023184670BCF8
:1023D00070470B1E18BF0123002A0CBF002303F017
:1023E0000103002BF1D0046890F80DC0237D43EA6F
:1023F0000C0C13F0010F80F80DC0E6D000232578F7
:10240000CD540468467B94F814C001334CEA0606A8
:102410009A4294BF00250CF001054673002DEED1C1
:10242000D4E700BF40F26403C2F20003984210B543
:10243000044606D040F22400C2F20000844200D0DC
:1024400010BD2268117A01F00F0CBCF10C0FF7D807
:1024500001A151F82CF000BFA92400004124000084
:10246000A1240000B12400009924000041240000B0
:102470008D2400004124000041240000412400007C
:10248000412400004124000099240000E369002B4E
:10249000D6D02046984710BD236A002BF9D1CFE74C
:1024A000636A002BF5D1CBE7A36A002BF1D1C7E714
:1024B000283222F07F4020F4700302F0704158016E
:1024C00001F1007C5CF8003013F0FF0F05D0E36AE7
:1024D0001BB1204698472268283202F0704022F053
:1024E0007F4C00F100732CF47001181D4901435812
:1024F00013F0FF0F05D0236B1BB1204698472268CD
:10250000283202F0704322F07F4C03F100702CF46B
:10251000700108304901435813F0FF0F05D0636B79
:102520001BB1204698472268283202F0704322F0FF
:102530007F4C2CF4700003F100730C3341015858A8
:1025400010F0FF0F05D0A36B1BB1204698472268FF
:10255000283222F07F4C02F0704101F100722CF41D
:10256000700310325801115811F0FF0F3FF468AF9B
:10257000E36B002B3FF464AF2046984760E700BF51
:10258000684620F007018D4601B540F22400C2F2F2
:102590000000FFF747FFBDE801408546704700BFD8
:1025A000684620F007018D4601B540F26400C2F292
:1025B0000000FFF737FFBDE801408546704700BFC8
:1025C00040F26403C2F20003984270B407D040F2B4
:1025D0002401C2F20001884201D070BC7047046936
:1025E000002CFAD04369002BF7D0016890F80DC099
:1025F0000A7D42EA0C0C12F0200F80F80DC08269AF
:1026000029D09D1A0F2D38D91025A41826786B1EB5
:102610000E7003F00106012301329D42826119D937
:1026200046B194F801C0022301329D4281F800C0F6
:1026300082610FD914F803C0013281F800C0013360
:10264000826114F803C0013301329D4281F800C059
:102650008261EFD843699A42BFD102680021131DFD
:1026600023F07F4C03F0704202F100732CF47002EF
:102670000433520199504161AFE7002DC5D1EAE71B
:102680002DE9F04F40F264038FB0C2F200030B92C9
:1026900048F200029842C4F2030204460D91906C85
:1026A0004EF2001100F0298140F48077CEF2000153
:1026B0004FF400669764C1F88061956C40F20001A8
:1026C00025F48070C4F2010190640B222271216014
:1026D00000220D460A7101F1100605F8082F01F1DC
:1026E000380A2AF07F4B01F1340925F07F4726F0A4
:1026F0007F4805F0704506F070460AF0704ACDF844
:1027000010A0069529F07F4006F100750390019511
:1027100009F07049049DCDF81C90DDF80C9005F18E
:10272000007529F4700A0A952BF47009079DDDF8ED
:1027300018B0CDF814900BF1007905F1007B049DE1
:1027400001F1300C2CF07F4005F100750CF0704C5D
:10275000CDF80CA004950CF100750CF1007AAC4694
:10276000039DCDF824A06D010395059D28F4700804
:102770006D010595069DCA4605F100750695019DFA
:102780004FEA481814350195079D27F4700705F1A5
:1027900000750795049D7F01043504956546143541
:1027A0000895099DCDF830801C3509950A9D4FF09C
:1027B00001080C350AF1080A09F104090A9506F125
:1027C000007649F807800C9D4AF80780DDF818A0CC
:1027D00010364AF807807251DDF80CA0019E0BF10B
:1027E000040B72514BF80A20DDF81CB0059D4BF824
:1027F0000A20049EDDF820A020F4700040010CF1B6
:10280000180C7251DDF824B04AF800204CF8002072
:10281000DDF828C09C424BF800204CF8052081F8D8
:10282000442081F8482081F84C2079D040F22403DC
:10283000C2F200039C4215D00B9D00200D73607303
:102840000D9E6061A66025732061A06120626062B8
:10285000E061A062E06220636063A063E0630FB0A8
:10286000BDE8F08F0D9FA76000F00EF940F218014F
:10287000C2F200010A680D9ED700B7FBF6F2D30939
:102880005708B3F5803F28BF2168D5D2012B2168B6
:1028900050D901F10C0020F07F4C00F0704606F199
:1028A00000702CF4700A4FEA4A1E0D465FFA83F856
:1028B000A7EB83171C300126C2F3C73A40F80E601D
:1028C000A7EBC31381F804A005F8308B9A1825F004
:1028D0007F4305F0704523F47008A2EB470705F12C
:1028E00000751C354FEA4818FFB2002340F80E303F
:1028F00045F8086081F83C709EE740F08007CEF212
:1029000000014FF480669764C1F88061956C4FF0C8
:10291000804125F0800090640A2222712160D7E670
:102920000D9AA26000F0B0F840F21401C2F200016A
:102930000A68A0E701F10C0C2CF07F4E0CF07042FD
:102940002EF4700502F100724FEA451E084600257C
:10295000DBB21C32012642F80E600D7100F8303BEC
:1029600020F07F4C00F0704000F100762CF47003F2
:102970001C365B0142F80E50F5505DE7F8B5044691
:10298000FFF77EFE22684FF6FF7302F1340002F17A
:102990003005C0F20F0305F07047383200F0704187
:1029A00002EA030607F1007C1D4000EA030702F07B
:1029B000704201F1007142F2C1507B010CF10C0C2C
:1029C00002F100776D01002208317601C0F20000AB
:1029D0004CF805206062CA50BA51F8BD48F20002B6
:1029E000C4F203022DE9F005946C43F26C6644F4E2
:1029F00080139364906C4EF2001340F0F071916478
:102A0000C0F20006CEF2000300220127551CB45C80
:102A100016F805A004F01F000AF01F0117FA00F0D5
:102A200017FA01F14FFA8AF862B254094FEA581CBA
:102A30006A1C04F1600A0CF1600820340CF1200CCF
:102A4000202A43F8240043F82A0043F82C1043F8C6
:102A50002810DBD148F20003C4F203039A6C22F081
:102A6000F0709864996C21F480129A64BDE8F005C6
:102A7000704700BF1F289FBF43F28C63C0F2000362
:102A800053F82030196070472DE9F00148F2000337
:102A9000C4F20303D3F8982083B012F0806F19D1E9
:102AA000D3F8980010F4805F4ED043F20C7CC0F253
:102AB000000C6A469CE8030082E80300D3F89C10EF
:102AC00002AFC1F38216BD1915F8084C012C00F0B5
:102AD00081806AD2D3F8500147F640084FF2800354
:102AE00010F0040FC0F27D18C0F2FA2340F21C056A
:102AF00040F2140440F2180040F208074AF6E07C65
:102B000040F20C0140F2100240F2040608BF4346B6
:102B1000C2F20005C2F20004C2F20000C2F20007D5
:102B2000C0F21D2CC2F20001C2F20002C2F2000685
:102B3000C7F800C033602B60236003600B60136034
:102B400003B0BDE8F001704740F21C054BF68073FE
:102B500040F2140445F6C07240F2180040F2080C2E
:102B60004AF6E07840F20C0740F2100140F2040609
:102B7000C0F67603C0F23B42C2F20005C2F2000486
:102B8000C2F20000C2F2000CC0F21D28C2F200071F
:102B9000C2F20001C2F20006CCF800803A60336055
:102BA0002B60226002600B60CAE744F2402340F2CF
:102BB0001C0540F2140440F2180040F208074AF6DF
:102BC000E07C40F20C0140F2100240F20406C0F238
:102BD0000F039DE740F21C0540F2140440F2180078
:102BE00040F208074AF6E07C40F20C0140F2100285
:102BF00040F20406C2F20005C2F20004C2F2000074
:102C0000C2F20007C0F21D2CC2F20001C2F20002A3
:102C1000C2F200064FF400438AE700BF48F2000307
:102C2000C4F20303D3F84C114FF6020291420BD1C8
:102C3000D3F8980040F48072C3F89820D3F8981025
:102C400021F08060C3F898004EF60053CEF20003E6
:102C50005A6942F400715961FDF7ECBB70B543F25B
:102C60002C7643F22C75C0F20006C0F20005761BEC
:102C7000B61006D0002455F8243001349847A642F7
:102C8000F9D843F22C7543F23076C0F20005C0F259
:102C90000006761B00F03EFDB61006D0002455F865
:102CA000243001349847A642F9D870BD0A0D20207F
:102CB0005458204649464F20554E44455252554E91
:102CC00020494E5445525255505400000A0D2020C0
:102CD0005458204649464F204F564552464C4F5770
:102CE00020494E5445525255505400000A0D2020A0
:102CF000545820434F4C4C4953494F4E20494E5451
:102D000045525255505400000A0D20212121212105
:102D100021204641494C4544205258205041434BC4
:102D2000455400000A0D2050415353205258205062
:102D300041434B45540000000A0D0A0D2020465027
:102D40004741205265766973696F6E2052656769E5
:102D5000737465723A2020202020202030780000F3
:102D60000A0D202046504741205363726174636806
:102D7000205061642052656769737465723A20203F
:102D800020203078000000000A0D202046504741E6
:102D900020436F6E74726F6C20526567697374653F
:102DA000723A2020202020202020307800000000CF
:102DB0000A0D20204650474120496E746572727595
:102DC00070742052656769737465723A2020202000
:102DD00020203078000000000A0D20204650474196
:102DE00020496E74657272757074204D61736B202A
:102DF00052656769737465723A203078000000008C
:102E00000A0D202046504741205374617475732089
:102E100052656769737465723A2020202020202053
:102E200020203078000000000A0D20204650474145
:102E30002048696768204164647265737320526535
:102E40006769737465723A202020307800000000B2
:102E50000A0D202046504741204C6F772041646482
:102E6000726573732052656769737465723A2020C6
:102E700020203078000000000A0D20486967682093
:102E800041646472657373204661696C20200000A0
:102E900020204650474120496E74657272757074E7
:102EA0002052656769737465723A2020203078007B
:102EB0002020202045787065637465643A202020C6
:102EC000307800002020202041637475616C3A2026
:102ED00020203078000000000A0D204C6F77204140
:102EE000646472657373204661696C202020000061
:102EF0000A0D2048696768204C656E677468204633
:102F000061696C20202000000A0D204C6F77204C56
:102F1000656E677468204661696C2020202000007F
:102F20000A0D2044617461204661696C20202020D4
:102F300020202020202000000A0D20414C4C205051
:102F400041434B455453205041535345442E2E2E5C
:102F5000200A0D000A0D0A0D205072657373206E51
:102F6000756D62657220666F7220416374696F6E61
:102F7000200A0D0A0D203120205265616420465040
:102F8000474120526567697374657273200A0D208A
:102F900032202052657365742052656365697665D9
:102FA000204649464F200A0D203320205265736584
:102FB00074205472616E736D6974204649464F20C7
:102FC0000A0D203420205472616E736D6974205391
:102FD000696E676C65205061636B6574202D2049B4
:102FE0004E5445524E414C204C6F6F706261636B82
:102FF000200A0D20352020526563656976652053CF
:10300000696E676C65205061636B657420616E64E6
:1030100020436865636B202D20494E5445524E4134
:103020004C204C6F6F706261636B200A0D2036205C
:10303000204C6F6F706261636B205061636B6574CD
:10304000732066726F6D203820746F2031303233F8
:10305000204279746573202620436865636B202DB8
:1030600020494E5445524E414C204C6F6F70626166
:10307000636B200A0D203720205472616E736D69D6
:10308000742053696E676C65205061636B657420B2
:103090002D2045585445524E414C204C6F6F706264
:1030A00061636B200A0D20382020526563656976C4
:1030B000652053696E676C65205061636B65742091
:1030C000616E6420436865636B202D20455854452C
:1030D000524E414C204C6F6F706261636B200A0D41
:1030E000203920205472616E736D697420506163C1
:1030F0006B6574732066726F6D203820746F203199
:10310000303233204279746573202620436865632A
:103110006B202D2045585445524E414C204C6F6F2A
:10312000706261636B200A0D206120205472616E11
:10313000736D697420426F617264203220426F6146
:1031400072642053696E676C65205061636B6574AF
:10315000200A0D2062202052656365697665204251
:103160006F617264203220426F6172642053696E15
:10317000676C65205061636B657420616E642043E9
:103180006865636B200A0D206320205472616E73A2
:103190006D697420426F617264203220426F6172E7
:1031A00064204D756C7469706C65205061636B654B
:1031B0007473200A0D20642020526563656976656A
:1031C00020426F617264203220426F617264204D30
:1031D000756C7469706C65205061636B65747320E5
:1031E0000A0D206520205472616E736D6974205041
:1031F00061636B657420426C61737465722E200A82
:103200000D2066202052657365742046504741208A
:103210004C6F6769632E200A0D20672020426C6185
:1032200073746572205061636B6574204C6F6F70AE
:103230006261636B2041646472657373203D20306A
:1032400078324141200A0D20682020426C6173745D
:103250006572205061636B6574204C6F6F706261A2
:10326000636B2041646472657373203D2030783253
:103270004142200A0D20692020426C6173746572FE
:10328000205061636B6574204C6F6F706261636B7B
:103290002041646472657373203D2030783343436A
:1032A000200A0D000A0D0A0D000000000A0D0A0D8B
:1032B00020526573657420526563656976652046A2
:1032C00049464F2E2E2E200A0D0000000A0D0A0D31
:1032D000205265736574205472616E736D69742039
:1032E0004649464F2E2E2E200A0D00000A0D0A0DCB
:1032F000205472616E736D697474696E67205369CE
:103300006E676C65205061636B6574202D20496E7B
:103310007465726E616C204C6F6F706261636B2EAE
:103320002E2E200A0D0000000A0D0A0D20526563A2
:1033300065697665205369676E6C65205061636BC3
:10334000657420616E6420436865636B202D20499D
:103350006E7465726E616C204C6F6F706261636B2E
:103360002E2E2E200A0D00000A0D0A0D204C6F6F24
:1033700070696E67204261636B205061636B657496
:10338000732052616E67696E6720696E2053697A97
:10339000652066726F6D20382042797465732074E1
:1033A0006F2032303038204279746573202D2049E7
:1033B0006E7465726E616C204C6F6F706261636BCE
:1033C0002E2E2E20200A0D000A0D0A0D20547261A7
:1033D0006E736D697474696E672053696E676C658E
:1033E000205061636B6574202D2045585445524E22
:1033F000414C204C6F6F706261636B2E2E2E200A41
:103400000D0000000A0D0A0D20526563656976659E
:103410002053696E676C65205061636B6574206131
:103420006E6420436865636B202D204558544552D7
:103430004E414C204C6F6F706261636B2E2E2E20BC
:103440000A0D00000A0D0A0D204C6F6F70696E673F
:10345000204261636B205061636B6574732052611D
:103460006E6765203820746F203230303820427902
:10347000746573202D2045585445524E414C204CC4
:103480006F6F706261636B2E2E2E20200A0D00007C
:103490000A0D0A0D205472616E736D6974696E674E
:1034A00020426F61726420746F20426F61726420E9
:1034B00053696E676C65205061636B65742E2E2EA8
:1034C000200A0D000A0D0A0D2052656365697669B0
:1034D0006E6720426F61726420746F20426F617268
:1034E000642053696E676C65205061636B6574205E
:1034F000616E6420436865636B2E2E2E200A0D00DA
:103500000A0D0A0D205472616E736D697474696ED0
:103510006720426F61726420746F20426F61726431
:10352000204D756C7469706C65205061636B6574B7
:10353000732E2E2E200A0D000A0D0A0D20526563EF
:10354000656976696E6720426F61726420746F20CE
:10355000426F617264204D756C7469706C652050A7
:1035600061636B6574732E2E2E200A0D000000001F
:103570000A0D0A0D205472616E736D6974205061DA
:10358000636B657420426C61737465722E200A0D42
:10359000000000000A0D0A0D205265736574204674
:1035A000504741204C6F6769632E200A0D000000D0
:1035B0000A0D0A0D20426C617374657220506163BC
:1035C0006B6574204C6F6F706261636B2041646443
:1035D00072657373203D203078324141200A0D001E
:1035E0000A0D0A0D20426C6173746572205061638C
:1035F0006B6574204C6F6F706261636B2041646413
:1036000072657373203D203078324142200A0D00EC
:103610000A0D0A0D20426C6173746572205061635B
:103620006B6574204C6F6F706261636B20416464E2
:1036300072657373203D203078334343200A0D00B8
:103640000A0D0A0D20507265737320616E79206E29
:10365000756D6265722E2E2E200A0D0A0D00000077
:103660000A0D20456E7465723A20200032333435DD
:10367000363738393A3B3C3D3E3F40414243444572
:10368000464748494A4B4C4D4E4F5051003001403F
:1036900004300140083001400C300140103001403E
:1036A00014300140183001401C30014020300140EE
:1036B00024300140283001402C300140303001409E
:1036C00034300140383001403C300140403001404E
:1036D00044300140483001404C30014050300140FE
:1036E00054300140583001405C30014060300140AE
:1036F00064300140683001406C300140703001405E
:1037000074300140783001407C30014000010001FC
:1037100002020303F8B500BFF8BC08BC9E46704720
:10372000F8B500BFF8BC08BC9E467047D504000041
:10373000C1040000000000000000000000000000C4
:103740000000000080BF7608E0AF1D02C05F3B04B0
:1037500080BF7608C05F3B04C05F3B0480BF760833
:040000030000019167
:00000001FF
