:0200000460009A
:1000000000000120910100607F0300608103006017
:100010008303006085030060870300600000000028
:1000200000000000000000000000000001960060D9
:100030008B0300600000000091960060D596006080
:10004000910300600D3F006095030060970300601E
:10005000E92000609B0300609D03006005210060B3
:10006000A1030060A30300605D14006099140060A8
:10007000BD620060AB030060AD030060AF030060D1
:10008000B1030060B3030060B5030060A515006014
:10009000B9030060BB030060BD030060BF030060E4
:1000A000C1030060C3030060C5030060C7030060B4
:1000B000C9030060CB030060CD030060CF03006084
:1000C000D1030060D3030060D5030060D703006054
:1000D000D9030060DB030060DD030060DF03006024
:1000E000E1030060E3030060E5030060E7030060F4
:1000F000E9030060EB030060ED030060EF030060C4
:10010000F1030060F3030060F5030060F703006093
:1001100055440060B944006021450060FF03006061
:10012000010400600304006005040060070400602F
:10013000090400600B0400600D0400600F040060FF
:1001400011040060130400601504006017040060CF
:10015000190400601B0400601D0400601F0400609F
:10016000210400602304006025040060270400606F
:10017000290400602B0400602D0400602F0400603F
:100180003104006033040060000000000000000043
:100190004FF0000BDFF8BE020068DFF8B612096806
:1001A00001F0030100F01C00142801D14BF0020BF8
:1001B000002901D04BF0010BBBF1000F05D0A7487F
:1001C000A749DFF8722200F09FF8A64880470BF09D
:1001D000020ABAF1000F0CD0DFF86E02DFF86E12DF
:1001E00002680B680FB44FF000024FF0FF0302608B
:1001F0000B609D484FF000024FF00103022808D128
:10020000DFF83A120A60DFF83E120A60DFF83212B5
:100210000B60012808D1DFF82A120A60DFF82612E5
:100220000A60DFF81A120B609048002809D1904844
:100230009049914A00F030F890489149914A00F075
:100240002BF891489149924A00F026F8914892493A
:10025000DFF8E22100F058F8BBF1000F10D08F4812
:100260008F49DFF8D62100F04FF80BF0020ABAF1FF
:10027000000F05D00FBC02600B6000BFAFF3008021
:10028000DFF820020FF2030E00474FF000004FF09E
:100290000001DFF814F2FEE72DE9F841884225D08D
:1002A000B2EB010200D5FEE740EA010313F00303BD
:1002B00002D000F01DF819E04FF000039046121133
:1002C000F7D09A421CBFF0C8F0C103F10103F8D186
:1002D00008F00F08B8F1000F08D004780C7000F196
:1002E000010001F10101B8F10108F6D1BDE8F88182
:1002F00008B54FF0000303780B7000F1010001F125
:100300000101013AF7D108BD884237D000F0030659
:10031000002E14D04FF00405A5EB06044FF008079B
:1003200007FB06F8914669FA08F9002C07D080F817
:10033000009069FA07F900F10100013CF5E74FF080
:1003400000060F46091A88460911914614461546BB
:10035000B14206D018BFA0E8340206F10106B1424E
:10036000F8D108F00F08B8F1000F07D002704FEA7B
:10037000322200F10100B8F10108F4E77047FEE70E
:10038000FEE7FEE7FEE7FEE7FEE7FEE7FEE7FEE745
:10039000FEE7FEE7FEE7FEE7FEE7FEE7FEE7FEE735
:1003A000FEE7FEE7FEE7FEE7FEE7FEE7FEE7FEE725
:1003B000FEE7FEE7FEE7FEE7FEE7FEE7FEE7FEE715
:1003C000FEE7FEE7FEE7FEE7FEE7FEE7FEE7FEE705
:1003D000FEE7FEE7FEE7FEE7FEE7FEE7FEE7FEE7F5
:1003E000FEE7FEE7FEE7FEE7FEE7FEE7FEE7FEE7E5
:1003F000FEE7FEE7FEE7FEE7FEE7FEE7FEE7FEE7D5
:10040000FEE7FEE7FEE7FEE7FEE7FEE7FEE7FEE7C4
:10041000FEE7FEE7FEE7FEE7FEE7FEE7FEE7FEE7B4
:10042000FEE7FEE7FEE7FEE7FEE7FEE7FEE7FEE7A4
:10043000FEE7FEE7704700000000A2A2A2A2008033
:100440000340088003401080034030800340348024
:1004500003403880034018080240000000F00020EC
:10046000000001205D22006000000000000000008C
:10047000000000600000006090010060B0040060B7
:10048000B0040060084601601046016000000020D2
:10049000400A0020400A0020B0C70020B0C700205A
:1004A00000F000201D050060E5560060000000001F
:1004B00010B5054C237833B9044B13B10448AFF39E
:1004C00000800123237010BD400A002000000000BE
:1004D000DC4501600C4B43B10C4810B50C49AFF33F
:1004E00000800C48036823B910BD0A48036833B97B
:1004F0007047094B002BF7D0BDE810401847064B5A
:10050000002BF5D0184700BF00000000DC4501605B
:10051000440A0020000000200000000070B50F4ECB
:100520000F4D761BB61018BF002405D0013455F8C6
:10053000043B9847A642F9D10A4E0B4D14F04EF8F1
:10054000761BB61018BF002406D0013455F8043BC2
:100550009847A642F9D170BD70BD00BFF445016057
:10056000F4450160FC450160F445016070B4860704
:1005700046D0541E002A41D0CAB2034602E014F10C
:10058000FF343BD303F8012B9D07F8D1032C2ED960
:10059000CDB245EA05250F2C45EA054519D9264671
:1005A00003F11002103E0F2E42F8105C42F80C5C72
:1005B00042F8085C42F8045C02F11002F2D8A4F19F
:1005C000100222F00F0204F00F041032032C134427
:1005D0000DD91E462246043A032A46F8045BFAD88F
:1005E000221F22F003020432134404F003042CB14E
:1005F000C9B21C4403F8011B9C42FBD170BC70477C
:1006000014460346C2E700BF024B13B1024800F094
:1006100005B870470000000029060060002301466D
:100620001A46184600F01EB838B50A4C0A4D641B2D
:10063000A4100AD004F18043013B05EB8305013C83
:1006400055F804399847002CF9D1BDE8384013F02B
:10065000CBBF00BF00460160FC450160704700BF92
:10066000704700BF2DE9F8432C4D06462868984690
:100670000F469146FFF7F2FF294B1C68D4F848312A
:10068000002B3ED05A681F2A1CDC02F1010E76B105
:10069000012103EB8204C4F88890D3F888019140CB
:1006A0000843022EC3F88801C4F8088123D002321F
:1006B000C3F804E0286843F82270FFF7D1FF002058
:1006C000BDE8F883174B0BB34FF4C870AFF300804D
:1006D0000346D8B10020D4F848114FF0010E5860FD
:1006E00019600246C4F84831C3F88801C3F88C0188
:1006F000002EDCD0CCE7D3F88C010143C3F88C1179
:10070000D5E704F5A673C4F84831BBE72868FFF7BE
:10071000A7FF4FF0FF30BDE8F88300BF3004002092
:10072000EC320160000000000E4A10B51368ABB156
:1007300069461844884209D80B490C4C0968A14203
:1007400001D0884202D81060184610BD00F012F89F
:100750000C224FF0FF330260184610BD04490B46CF
:100760001160E5E75C0A002034040020ADDEFECA1B
:10077000B0C70020014B1868704700BF040000207C
:100780002DE9F04F01F10B06162E83B0054640F21D
:100790009E8036F0070600F1BD80B14200F2BA80BB
:1007A00000F090FAB6F5FC7FC0F08582730A00F085
:1007B000B880042B00F26C81B30903F1390003F116
:1007C000380EC100B84F39444C680839A14206D1EF
:1007D0000CE0002A80F2AB80E468A14206D0636896
:1007E00023F003039A1B0F2AF3DD70463C69DFF800
:1007F000CCE2744500F09E81636823F003039A1BEA
:100800000F2A00F38381002AC7F814E0C7F810E02C
:1008100080F29180B3F5007F80F054810122DB08E3
:1008200079684FEAA30C134457F8338002FA0CF2AC
:1008300007EBC30C0A43ACF10801E160C4F808807F
:100840007A6047F83340C8F80C40012483109C407C
:1008500094427DD8144206D120F003006400144273
:1008600000F10400FAD007EBC009CC468046DCF862
:100870000C309C4507D15FE1002A80F26D81DB6876
:100880009C4500F05981596821F003018A1B0F2A09
:10089000F2DDDC68D3F808C046F0010828461E44A3
:1008A00042F00105C3F80480CCF80C40C4F808C03D
:1008B0007E613E61C6F80CE0C6F808E075605A50EB
:1008C000009300F005FA009B03F108041EE01029D4
:1008D00020D800F0F7F9102618230220724F3B446D
:1008E0005C68A3F10802944200F02F816368E1681C
:1008F00023F0030323445A68A66842F00102F16022
:1009000028468E605A6000F0E3F90834204603B0B0
:10091000BDE8F08F00240C2320462B6003B0BDE817
:10092000F08F40204FF400714FF03F0E4AE7234410
:100930005A68E168E0E723445A68284642F0010219
:100940005A60083400F0C4F9204603B0BDE8F08FC7
:10095000BC68636823F00308B04504D3A8EB060322
:100960000F2B00F38580DFF85891504BD9F8002009
:100970001B680132334404EB080A00F0548103F58C
:1009800080530F3323F47F6B2BF00F0B594628460F
:1009900000F0A4F9411C024600F0FB80824500F201
:1009A000F680434B19685944196000F04C81D9F81E
:1009B000000001301BBFA2EB0A0A5144C9F8002015
:1009C000196012F0070100F01481C1F10800C1F5AF
:1009D00080510244083102EB0B09C9F30B09A1EB6A
:1009E0000909494628460193009200F077F9431C13
:1009F0009DE80C0000F04281801A484440F001005C
:100A00001968BC424944BA601960506017D0B8F107
:100A10000F0F40F2FA804FF0050C6268A8F10C004D
:100A200020F0070002F0010204EB000E02430F2841
:100A30006260CEF804C0CEF808C000F216811D4BEB
:100A4000BC681A68914288BF19601B4B1A689142B2
:100A5000626888BF196022F003029642A2EB060387
:100A600001D80F2B04DC284600F032F900244DE7B2
:100A700046F0010243F00103264462602846BE604E
:100A80000834736000F024F9204603B0BDE8F08F0D
:100A9000142B70D9542B00F2A280330B03F16F009A
:100AA00003F16E0EC1008DE638040020900A00208C
:100AB000600A0020880A00208C0A002040040020E0
:100AC000400800205A0A042A5BD9142A00F2AE809A
:100AD00002F15C01C9005B3207EB010C7958ACF103
:100AE000080C8C4500F088804A6822F0030293428B
:100AF00073D289688C45F7D1DCF80C307A68E360F2
:100B0000C4F808C09C60CCF80C409EE646F0010C8E
:100B100042F001012644C4F804C028467E613E61CB
:100B2000C6F80CE0C6F808E07160E25000F0D0F8BA
:100B30000834EBE67A6888E608F1010818F0030F3C
:100B40000CF1080C7FF493AE2DE0DC68A34208BFE3
:100B500002303FF44BAEC9E61C4619444A68DB68D4
:100B600054F8086F42F001024A602846F3609E6024
:100B700000F0AEF8CAE603F15C0003F15B0EC100C1
:100B800020E69A0902F13901C9003832A4E7BC42D3
:100B900054D0BC68626822F003025EE759F8083955
:100BA000994540F0868010F0030F00F1FF30F5D139
:100BB0007B6823EA04037B6064009C423FF6C8AE76
:100BC000002C3FF4C5AE1C4240467FF44CAE64009E
:100BD0001C4200F10400FAD045E68C468CE7B3F5E0
:100BE000AA7F15D8F30B03F1780003F1770EC1004B
:100BF000E8E54FF48051EEE601217B68921001FA9E
:100C000002F21A437A60634679E7012353602AE7C8
:100C100040F25452934222D8B30C03F17D0003F109
:100C20007C0EC100CEE503F1100BAFE6542A29D8A3
:100C30001A0B02F16F01C9006E324DE7204B1968A3
:100C400059441960B3E6CAF30B0000287FF4AFAE35
:100C500008EB0B03BA6843F001035360EFE67F2013
:100C60004FF47E714FF07E0EACE504F1080128468A
:100C7000009300F0C5F8009B1968E0E601204FF0F2
:100C80000009BDE6B2F5AA7F05D8DA0B02F17801BA
:100C9000C900773220E740F254518A4205D89A0CB5
:100CA00002F17D01C9007C3216E74FF47E717E228D
:100CB00012E77B6880E7F00806F108030EE600BF44
:100CC000600A00200148FFF7C9BC00BFB8B8002087
:100CD0000148FFF7C5BC00BFB8B8002038B50023F5
:100CE000064C054608462360FFF71EFD431C00D056
:100CF00038BD2368002BFBD02B6038BDCCB800205A
:100D00000020704720F0030110F00300C0F1000044
:100D100051F8043B00F1040C4FEACC0C6FF00002D8
:100D20001CBF22FA0CF213434FF0010C4CEA0C2CBE
:100D30004CEA0C4CA3EB0C0222EA030212EACC129E
:100D400004BF51F8043B0430F4D0C2F1000102EAC0
:100D50000102B2FA82F2C2F11F0200EBD200704728
:100D6000F8B50C46234F0646FFF7ACFFBB68C4F549
:100D70007E615D680F3125F00305294421F47F6110
:100D800021F00F01A1F58054B4F5805F07DB00214D
:100D90003046FFF7A3FFBB682B44984204D030468F
:100DA000FFF796FF0020F8BD61423046FFF796FF3F
:100DB00001300DD0104BBA6819682D1B45F00105A4
:100DC0003046091B55601960FFF782FF0120F8BD0E
:100DD00000213046FFF782FFBA68831A0F2BDEDD51
:100DE000064C0549246843F00103001B536008606A
:100DF000D5E700BF38040020600A0020400800202A
:100E0000002944D02DE9F0410D468046FFF75AFFF6
:100E100055F8047C6949A5F1080427F00103E2189C
:100E20008E685068B24220F003005ED0FE0750602A
:100E30000BD455F8087C01F1080EE41BA5683B446F
:100E400075456DD0E768EF60BD6015186D68ED07FA
:100E50003ED543F001026260E350B3F5007F17D244
:100E60000122DB0898104D68134451F8337082401A
:100E700001EBC3002A430838E060A7604A6041F8EC
:100E80003340FC604046BDE8F041FFF721BF7047AA
:100E90005A0A042A52D89A0902F13907FF0002F1CE
:100EA0003805C819CA59083890424FD0516821F006
:100EB00003018B4232D292689042F7D1C368A0609E
:100EC000E3609C60C4604046BDE8F041FFF700BFAE
:100ED00095683B4F0344BD4240D0D06843F00102C7
:100EE000E86085606260E350B7E7FF07034407D41A
:100EF00055F8085C641BE268A0682B44C2609060EF
:100F0000304A43F001001268606093428C60B9D3AC
:100F10002D4B40461968FFF723FFB3E71046CDE796
:100F200011184968C90744D491680344D26843F052
:100F30000100CA6091606060E350A3E7142A16D8EC
:100F400002F15C07FF0002F15B05AAE70123AA108A
:100F50004D6893402B434B600346B0E743F00102DA
:100F60004C610C61E560A5606260E3508AE7542A39
:100F700006D81A0B02F16F07FF0002F16E0590E729
:100F8000B2F5AA7F06D8DA0B02F17807FF0002F16A
:100F9000770586E740F25450824206D89A0C02F157
:100FA0007D07FF0002F17C057BE74FF47E777E250D
:100FB00077E743F001016160136063E738040020C4
:100FC0004004002044080020900A00200123420928
:100FD00000F01F0003FA00F0014B43F822007047B5
:100FE00000E100E00122430900F01F0002FA00F0D6
:100FF000024A603342F82300704700BF00E100E07E
:10100000054B890003EA401300F0704018430123A8
:1010100001F1007143507047E0FFFF01054B89006B
:1010200003EA401300F070401843002301F10071FF
:1010300043507047E0FFFF01054B890003EA40136E
:1010400000F07040184301F100714058C0B2704781
:10105000E0FFFF011B4BF0B4984203D01A4A9042C4
:1010600000D000BE066906B900BE426902B900BEE2
:10107000984202D0144B984222D10EB302B30468B6
:10108000417B237DDBB219439B06417309D48369FD
:101090009A4215D1002301214361201DF0BCFFF7C6
:1010A000BDBF83690025D31A102B28BF10239D4292
:1010B000EDD081690135775C013127708161F6E7F8
:1010C000F0BC704710B90020D0B800202DE9F041E5
:1010D0006A4F0446B8420D461646694B14D0694A19
:1010E000904200D000BE684A4FF4006122600B229B
:1010F00022719A6C42F480729A64644AC2F8801138
:101100009A6C22F4807210E04FF0804202600A2252
:101110004FF4806102719A6C42F080029A645B4ADB
:10112000C2F880119A6C22F080029A640022206832
:101130000121027100F8082FFFF762FF20680221E9
:101140000830FFF75DFF206811460830FFF758FFB1
:10115000206804211030FFF761FF2068052110305E
:10116000FFF75CFF206801213430FFF757FF20684C
:1011700011463430FFF752FF206801213830FFF765
:101180004DFF206805213030FFF748FF2068062119
:101190003030FFF743FF206807213030FFF73EFF74
:1011A000206803213830FFF739FF2368BC4283F8F9
:1011B000442083F8482083F84C2017D0314B9C42C0
:1011C00014D000BE23681E73002326736373A560CA
:1011D00063612361A36123626362E361A362E362EB
:1011E00023636363A363E363BDE8F081A56001F05B
:1011F00055F8BC420CBF264B264B1A68D200B2FBF6
:10120000F5F2D309B3F5803FDBD2012B2068DFB2C2
:1012100022D99B01C3EB520302F07F0807210C3057
:10122000A8EB0308FFF7ECFE2068C2F3C732027197
:10123000072100F80C7BFFF7F1FE20680721303012
:10124000FFF7DEFEB8F1FF0F00D900BE22685FFA9B
:1012500088F382F83C30B5E707210C30FFF7D0FE69
:10126000002320680721037100F80C7BFFF7D6FEEE
:10127000206807213030FFF7D1FEA3E710B9002026
:1012800000800340D0B800200000014000E100E0F1
:10129000580800205C08002010B504460068037A56
:1012A00003F00F030C2B0BD8DFE803F0070B0C1235
:1012B0000E0A100A0A0A0A0A0E00A36A002B3FD17E
:1012C00000BE10BD636AF9E7236AF7E7E369F5E753
:1012D00000212830FFF7B0FE10B1E36A23BB00BE47
:1012E000206801212830FFF7A7FE10B1236BF3B966
:1012F00000BE206802212830FFF79EFE10B1636B0C
:10130000C3B900BE206803212830FFF795FE10B155
:10131000A36B93B900BE206804212830FFF78CFE30
:101320000028CED0E36BC9E720469847D8E720468F
:101330009847DEE720469847E4E720469847EAE7E3
:101340002046BDE8104018470E4B10B598420446A1
:1013500003D00D4B984200D000BE2046FFF7B6FEEA
:10136000206803213030FFF759FE20680221343015
:10137000FFF754FE206800213830FFF74FFE034B83
:10138000636210BD10B90020D0B800205510006075
:101390000346174830B5834203D0164CA34200D011
:1013A00000BE01B900BE02B900BE834202D011489E
:1013B000834218D1B9B1C2B11868047D587BE4B238
:1013C000204358730020E40710D5904200D130BD6F
:1013D0001C6824780C541C685D7B247D0130E4B2C9
:1013E00025435D73EFE7002030BD104630BD00BFE0
:1013F00010B90020D0B80020164B10B59842044612
:1014000003D01548844200D000BE01B900BEC02AF6
:1014100000D900BE9C4202D00F4B9C4218D1B9B1FA
:10142000C02A15D8216221680B7A03F03F031A43C2
:101430000A7294F90400FFF7D5FD206800210430FA
:10144000FFF7DEFD94F90400BDE81040FFF7BEBDD4
:1014500010BD00BF10B90020D0B80020684620F0B1
:1014600007018D4601B50948FFF716FF084B1B68B9
:101470003BB14FF08052074B1A60BFF34F8FBFF361
:101480006F8FBDE801408546704700BF10B900204E
:10149000940A002004ED00E0684620F007018D4624
:1014A00001B50348FFF7F8FEBDE8014085467047E7
:1014B000D0B80020114B10B59842044619D0104BFB
:1014C000984200D000BEB1B19C4216D100236162A7
:1014D0002361636194F90400FFF784FD2068012112
:1014E0000430FFF78DFD94F90400BDE81040FFF7CC
:1014F0006DBD0029EAD100BE10BD10BD10B900209D
:10150000D0B8002010B5064C0146236833B1054A17
:10151000106898470023044A2360137010BD00BF71
:10152000A00A0020B00A0020BD0A00200C4B13B511
:101530001A6822F004021A605A6802F0010201924D
:101540000022019C0CB18A4202D1104602B010BDAB
:10155000845C01321C615C6804F001040194F0E7D2
:1015600000600140024B1B6803B11847704700BF81
:10157000980A002008B5084B1B7863B1074B188800
:1015800080B2FFF7BFFF064B1A6842F001021A60F3
:101590001A68D207FCD408BDBD0A0020B80A002092
:1015A00000600140F8B5684B5D689A68EDB215407F
:1015B000AA0748D5654C18692378052B65D8DFE85C
:1015C00003F040404003193907043CD5604BC0B2DA
:1015D0001B78984211D100235E4A5F49138013881B
:1015E00009689BB2C854138801339BB2138004234B
:1015F000237028E0060403D5C0B2FFF7B3FF22E052
:10160000544B56491A88098892B28A4208D2524EDF
:101610001A88366892B2B0541A88013292B21A808F
:101620001A8892B291420ED1188880B2FFF76AFFF1
:101630000023DDE7010406D4474B1B6858700220E5
:10164000F4E70204D8D4EB0728D5404C237826468B
:10165000022B24D0052B40D0012B6AD1404D2B8882
:101660009BB2002B34D03F4E2988376889B2384668
:10167000FFF75CFF2B889BB2984208D22B881B1A7D
:101680009BB238442B803060F8BD0020CEE70023A9
:101690002B80354B1B68CBB102232370F8BD324D34
:1016A0002B68ABB1314E29683068FFF73FFF2B68DC
:1016B000984206D22B681B1A2B60336803443360B0
:1016C000F8BD214A936823F0010393600323E4E704
:1016D00000BEBDE8F840FFF74DBF234D2B6873B93E
:1016E000234B1B68ABB12148984728602B6833B95E
:1016F000154A936823F001039360032323702B683A
:101700005BB9114A936823F001039360032333709C
:10171000F8BD00BEFFF72EFFF1E7144C29682068E2
:10172000FFF704FF2A682368121A03442A60236023
:10173000F8BD054A0020936823F001039360FFF78A
:10174000E1FE0023A9E700BF00600140BC0A0020C1
:101750009C0A0020B80A0020B00A0020BA0A002023
:101760009E0A0020A80A0020A40A0020AC0A00203B
:10177000B40A0020074A10B5536813F0010303D0E0
:1017800000BE0020002110BD1846146A526A204392
:10179000114610BD007001400122014B1A607047D4
:1017A000007001400222034B1A601A68D207FCD471
:1017B000704700BF00700140074908B54B6883427D
:1017C00009D00B68DB0705D5FFF7ECFF0123486064
:1017D0000B6008BD486008BD00700140F8B50446C4
:1017E0000D461746FFF7C6FF0F4BA9425E6808BFBC
:1017F000A04206F0010600D300BE0EB100BEF8BD47
:1018000008224FF0FF31012F1A6018BF0A205961DA
:1018100008BF0E209961DC601D61FFF7CDFF042237
:10182000014B1A60F8BD00BF007001401022034B4D
:101830001A601A689206FCD4704700BF007001401D
:10184000B1F1806F10B501D300BE10BDFFF7AAFF44
:10185000082302220F4C012823600F4BC3F880207D
:10186000C3F880214FF480730C4A2360D2F888308B
:1018700043F00103C2F888304FF000030CBF6060F2
:101880006360E36023616361A361FFF7CFFFA16041
:1018900010BD00BF0070014000E100E00080034087
:1018A0000222014B1A60704700E100E04FF48072A1
:1018B000014B1A60704700BF007001400A4B1A7854
:1018C000D00706D50020094922F00102C1F8FC0129
:1018D0001A701A78910706D50020054922F00202F5
:1018E000C1F8FC011A707047BE0A002000000860B1
:1018F00000000C60094B82B053F82030D3F820214F
:101900000192019AD107F9D5D3F820210192019AC9
:10191000D207F9D5019802B0704700BFF0320160DC
:101920000F4B82B01A680F4B120953F82010012395
:101930000192C1F8FC31D1F8FC21052A07D0019AA7
:10194000013A0192019A002AF3D1052005E0064AE6
:101950008340107803430020137002B0704700BF2B
:1019600048080020F0320160BE0A0020F8B50E4E93
:101970000546B0420F4611D80020FFF7D1FF0446BC
:1019800050B93D44B54207D90120FFF7C9FF0528EA
:10199000044601D1FFF792FF2046F8BD0120BDE8C3
:1019A000F840FFF7BDBF00BFFFFF03002DE9F04F78
:1019B00087B002914FF602019146624A0190D2F837
:1019C0004C21C0F3120022F480328A4208BF002367
:1019D000039300EB0903B3F5002F05D300BE0626E1
:1019E000304607B0BDE8F08F4946FFF7BFFF064617
:1019F0000028F5D14F46DFF85CA1002F59D1FFF741
:101A00005DFFEDE7002304F1C042C4F3840BA0079F
:101A100022F07F0218BF0BF1010B9B450AD003F1A6
:101A2000200C52F823005AF828100133202B41F8DB
:101A30002C00F2D100216019C0F384035AF828B0B9
:101A40000093C3F1200C02EB8302009B52F82100AB
:101A50000B44013120338C454BF82300F5D148E08D
:101A600050F8282003EB010B11F801EB5A4482F8DF
:101A700080E048E024F0805424F07F0444F0805457
:101A8000CBF8484140460093FFF734FF0590059A94
:101A9000009B1A4250D1AF42B1D97F1BADE79906E6
:101AA00005D413F0100F14BF03260226A5E7042661
:101AB000A3E7002EA3D1019BA9EB070E03EB0E05B4
:101AC000C5F31204E30901333A19B3EBD21F88BFFF
:101AD0003D461D4B9CBF05F07F05C5F180059C422E
:101AE00086BFA4F580244FF001084FF00008802D38
:101AF00088D1029A04F07F0302EB0E0C61469B1A18
:101B00001248A3EB0E03A1EB0C029542A8D850F8A3
:101B100028B0039B4046CBF8403124F0006323F00B
:101B20007F0343F00063CBF84831FFF7E3FE0590F5
:101B3000059A074B1A429DD0DBF820315A03AED5E7
:101B400001265AE700800340FFFF0300F0320160E6
:101B50003E000400F83201600123420900F01F003A
:101B600003FA00F0014B43F82200704700E100E067
:101B700090F8683013B1012283699A6070470000C1
:101B8000AC4B37B59842044603D0AB4B984200D0DB
:101B900000BE626913798DF807309DF80730DBB21B
:101BA000682B67D05AD8302B00F024812FD8182BFF
:101BB0001FD019D8082B00F0C580102B00F0C28070
:101BC0000023A26953612372E36494F83C30012B33
:101BD00004BF022384F83C3094F85C30012B12D10E
:101BE000022384F85C300EE0202B00F00381282BC8
:101BF000E6D1A36A616A8B4280F0C380216A581CD7
:101C0000A062CB5C13720022A369DA60D4E0482B97
:101C100000F0F0800CD8382BA26900F0AF80402B88
:101C2000CED1636B012B40F2DB8001239360EAE7A6
:101C3000582B00F0EB80602B1FD0502BC0D1A36B32
:101C4000216B581CA063127ACA54636BA26B013BD0
:101C50009A42D8D30022A3699A60D4E7A02B00F05F
:101C60000F812DD8802B00F0F98015D8702B04D06F
:101C7000782BA5D1012384F871300423237200232B
:101C8000A169A3654869E360012210B14B6184F842
:101C9000712084F85C20B6E7902B00F0DF80982B51
:101CA00001D0882B8CD101220021A3699A60217276
:101CB00084F85C1094F871100029A4D05A61A2E74E
:101CC000B82B05D029D8A82B02D0B02B7FF478AF41
:101CD0009DF80730A82B0CD1052323720123002087
:101CE000A16984F85C304D69E06015B1486184F801
:101CF0007130E36CA16C8B422FBFFF235D1C606CC5
:101D0000E56438BFC35C1372E36C99423FF67BAF66
:101D10000023A2699360E36475E7C82B05D0D82B34
:101D200000F0DB80C02B7FF44BAF00210122A369C0
:101D3000E1649A6084F85C1094F87110002900F056
:101D4000C480C1E00021A069237941611372E36A74
:101D5000C0F8003173B9A36294F8713013B1002355
:101D600084F8713094F87230227A9A423FF44BAF83
:101D7000237248E7012B08BFA163EDE701235361FC
:101D800041E7237A032B03D10123A269E362F6E73B
:101D90000023227C237202F0010284F870208AB9A9
:101DA0000121A36920461961FFF7E2FE002284F8B1
:101DB0003C2000297FF427AF63691B798DF8073039
:101DC00003B030BD012094F91120510902F01F0227
:101DD00000FA02F21948203140F821201946E5E7BF
:101DE00001D1002322E7012393601361002384F8CB
:101DF0003C30BDE70122A3691A61022384F83C301C
:101E0000002323722046FFF7B3FEFCE6117AA36B92
:101E1000226BD154237C03F0010384F870307BB92A
:101E20000121A36920461961FFF7A2FE0022227258
:101E3000BDE700BF50B90020C4B9002000E100E0B8
:101E4000012194F911305A0903F01F0301FA03F339
:101E50002749203241F822300021E7E7206D60B1A8
:101E6000A16D636D994208D2137A4A1CDBB2A26558
:101E70004354E26803EB0223E360A26D636DE7E67F
:101E8000237A042B23D1236EA26D9A4204BFE36808
:101E9000E364636E3BB192B2216D2046984730B93E
:101EA0002046FFF765FE0122A3699A6004E0002343
:101EB000A269936084F86830002384F85C3094F859
:101EC000713013B10122A3695A61002350E7002346
:101ED0002046E364FFF74CFEEEE700232372E36441
:101EE00094F85C30012B04BF022384F85C3089E74E
:101EF00000E100E0294B2DE9F041984204460D46EF
:101F00001646984603D0264B984200D000BEEFF309
:101F10001087012383F31088742200212046FEF7E6
:101F200025FB44451F4B27D10422102162741E4A11
:101F300062611E4AA2619A6C42F400629A641C4A71
:101F4000C2F880119A6C22F400629A64A369690055
:101F5000C6F380022160E361DA61C6F340025A6091
:101F6000626906F00106C9B21E60117301229A610E
:101F700087F31088BDE8F0810722802162740D4A42
:101F800062610D4AA2619A6C42F480529A64084AD6
:101F9000C2F880119A6C22F48052D6E750B9002022
:101FA000C4B900200080034000200040000004422B
:101FB00000E100E00020014000002442F7B5314C70
:101FC000089DA042BDF8246003D02F4CA04200D051
:101FD00000BE03B900BE02B900BE002E4ED100BE45
:101FE000002D49D100BE002E46D0002B44D0EFF387
:101FF0001084012787F3108890F808E00327BEF1CA
:10200000000F00D1077202620122490041600021E5
:1020100043629DF8283080F83C20037490F85C30CF
:10202000C162DBB2934218BF83698162816380F829
:1020300072700563466318BF5A6190F8702008BF3C
:1020400080F87130012A90F9111010D100258369B0
:10205000DD60436901F01F001B7982408DF8073075
:102060009DF8073009484B09603340F823200846A3
:10207000FFF772FD84F3108803B0F0BD002DB4D1DA
:10208000B0E700BF50B90020C4B9002000E100E073
:10209000036C5BB18B429DBF032380F83C3000236F
:1020A0005B1A9CBF037280F87130036470470000B4
:1020B00038B50B4B0546984203D00A4B984200D0E6
:1020C00000BE296495F83C40E4B2012C204606D1BC
:1020D00008F04EFC21462846FFF7DAFFF2E738BD4C
:1020E00050B90020C4B90020684620F007018D4691
:1020F00001B50348FFF744FDBDE801408546704740
:1021000050B90020684620F007018D4601B503480C
:10211000FFF736FDBDE8014085467047C4B9002091
:10212000144B10B59A6C012042F480129A649A6C98
:10213000114C42F0F0729A6400221357013203F0FE
:102140001F015B099B0003F1604300FA01F103F5F5
:102150006143202AC3F88010C3F88011EDD1054BEC
:102160009A6C22F0F0729A649A6C22F480129A644B
:1021700010BD00BF00800340803301601F2801D9DB
:1021800000BE7047024B53F820301960704700BF03
:10219000003301601F2810B501D900BE10BD012217
:1021A000064C8240D4F8883001F0010123EA020392
:1021B00001FA00F01843C4F8880010BD0030014057
:1021C0001F2801D900BE7047094B53F8202013681F
:1021D00043F0080313600122064B1B56590903F014
:1021E0001F0302FA03F3044A42F82130704700BF8C
:1021F000003301608033016000E100E01F2803D953
:1022000000BEBFF34F8F7047012303FA00F0024B6B
:10221000C3F88000F5E700BF00300140074B084AD3
:102220001860084B1860084B1860084B1A60084B80
:102230001860084B1860084B186070474808002069
:10224000E0AF1D02580800205C0800206008002054
:102250004C08002050080020540800204FF60202CD
:102260000C4BD3F84C11914206D00B4A536943F4FE
:1022700000735361FEF7DEB8D3F8982042F4807201
:10228000C3F89820D3F8982022F08062C3F89820F1
:10229000EBE700BF0080034000ED00E0254B82B07B
:1022A000D3F8982012F080623BD1D3F89810C9047B
:1022B00012D4214B214A22491360224A22480A6043
:1022C00022490A602249086022490A60224A1360B2
:1022D000224A136002B070478DF800208DF802206A
:1022E000022201218DF804208DF8052003228DF8AB
:1022F00001108DF803108DF806208DF80720D3F813
:102300009C2002A9C2F382120A4412F8082C012A66
:1023100002D006D3124801E04FF4004002B0FFF7AC
:102320007DBFD3F850310F4813F0040F0E4B18BF88
:102330001846F3E70080034080BF76084808002075
:1023400058080020C05F3B04E0AF1D025C0800207D
:10235000600800204C08002050080020540800208D
:1023600040420F0040787D0180F0FA0210B5002352
:102370004FF6FF74013989B2A14203D183EA2343A6
:1023800098B210BD425C03EB4313134403EBC2133A
:10239000F0E711B10B78082B15D00379062B18D86C
:1023A000DFE803F00404080C0E0E0800806800EB60
:1023B00082007047806800EBC200704780687047F9
:1023C000806810447047CB68806803FB02008A680D
:1023D000F7E70020704770472DE9F04F87B0039072
:1023E0000C4617460AB10023136009F0E1F9039B7C
:1023F00093F90010CAB210444278100720D45B2928
:1024000040F0CD800133D4F80880039309F0D0F96F
:10241000039B93F90010CAB21044457815F00805E3
:1024200011D15D292E4600F0B280A946DFF87CB1BB
:1024300063699E420ADB0FB1039B3B600C2022E0E4
:1024400001330393D1E701330393DFE72378CDF81A
:1024500014900B2B30D8DFE803F05A6971067B9695
:102460002F4F4F96969609F0A3F9039B1A781044C4
:102470004278110744BF01330393039B93F9002073
:10248000222A03D00F2007B0BDE8F08F0133039359
:10249000636843F80580A368E268A8EB03039342EE
:1024A000F0DA039B93F90020222A1CD10133039315
:1024B00008F1010808F8019C09F07AF9039B01363C
:1024C0001A7810444278120744BF01330393039BE8
:1024D00093F900205D2A5AD02C2A05F1040554D125
:1024E00001330393A4E7002ACCD05A1C039293F93A
:1024F000003008F8013BCEE703AB00932246334699
:102500006168039800F054F80028D5D0BBE700229A
:1025100005A90398D4F804A00BF016F84AF80500B2
:10252000059B039A934220D11520ACE7002205A910
:102530000398D4F804A00BF0D3F8EFE7636805A97B
:10254000039803EBC60A0AF047FFCAE90001E7E770
:10255000DDF80CA004221449504609F0C5FC30B93E
:10256000012162680AF1040391550393A4E705224F
:102570005946504609F0B8FC00289DD162680AF11E
:1025800005039055F1E70E207DE70D207BE72369D9
:1025900003B11E602FB1039B00203B6073E70A204C
:1025A00071E738466FE700BF043401600934016009
:1025B0002DE9F04F95B01E9F059004910192039371
:1025C0000FB100233B600026049B03F1200555F862
:1025D000203CA5F12004C3B9984699461D46A94E52
:1025E0000293059B93F90030002B3AD109F0E0F8F3
:1025F000059B1A781044407810F0080040F00282E1
:10260000002F00F04E823B609CE02B7C8BB9039A3C
:1026100001992046FFF7BDFE58B115F81C3C062B6A
:1026200007D8DFE803F00404080D181B0800236A2C
:1026300003603835CBE72B6803606B684360F8E7CD
:10264000019B33B11B78082B03D0039B002B00F3B5
:1026500026820670EDE72B780370EAE795F90030E3
:10266000FAE7082D00F22A82DFE815F03100430076
:102670005D009500CE00EB0032010900BE01DFF8DD
:1026800008B2029B94F804A0002B00F04A81BAF132
:10269000030F40F042812379033BDBB2082B00F2A9
:1026A000158240F28D1222FA03F3DB0740F10E820D
:1026B000D4F82CA0BAF1000F00F07F81DFF8C8B188
:1026C000DAF80000002840F0698112203AE009F0B1
:1026D0006FF8059A92F90010CBB2184443781B07A3
:1026E00000F1EC817B2900F0D48107B13A60012030
:1026F00028E009F05DF8059B93F90020D1B2084469
:102700004178080700F1DA81222A05D107B13B6040
:102710000DF130090225D1E17D2A00F0CF8107B10A
:102720003B6002200EE0B9F1000F00F0B681222BD1
:1027300027D10023049C09F1010589F800302068A5
:1027400018B9032015B0BDE8F08F0CA909F090FA74
:10275000002800F0A8813834F1E70A2B04D1206A60
:10276000FEF7D0FA8046A5E1062B07D00B2B05D04B
:10277000E36A002B18BF4FF400789BE14FF4007818
:1027800098E10DF14E02914580F0858189F8003085
:1027900009F1010992E109F00BF8DDF814E09EF966
:1027A0000030DAB21044427812F0080240F086811C
:1027B0003A2B00F083815B2B217910D1092904D0B9
:1027C0000FB1C7F800E00520BCE705AA04F1080135
:1027D0007046FFF701FE0028B4D108256EE10929F3
:1027E00004D10FB1C7F800E00620ABE7222B264941
:1027F00004D101233160029304255FE1481C30605D
:102800000B700292062559E13268002A00F04581DA
:102810005C2B00F03C81222B05D1531C336000233C
:10282000137007254AE1184901F2FF10824201D9CD
:10283000072087E741448A42FAD8511C316013705F
:102840003CE13268002A00F028816E2B1ED008DCA3
:10285000622B02F101010ED0662B10D0511C3160A9
:102860000BE0742B16D0752B18D0722BF6D1531C9D
:1028700033600D2301E0082331601370BCE7316041
:102880000C23FAE7C00A0020C40A0020531C33605E
:102890000A23F2E7531C33600923EEE7002308A85C
:1028A000059AD15639B1511C059192F90020C254B4
:1028B0000133042BF4D1059B07AA013B86490593FC
:1028C00009F014F933685A1C3260079A1A7093E7BA
:1028D0003368002B00F0E18008F06AFF059B93F954
:1028E0000030DAB210444278110703D42C2B01D007
:1028F0007D2B0CD1002233681A70059B93F90020C0
:102900007D2A01D02C2A8CD1013B059389E73268BE
:1029100072498A4291D9082014E7BAF1060F3FF4B0
:10292000BAAE6F49584609F0A3F920B16D4958462F
:1029300009F09EF918B9BAF1040F00F0C38008F04D
:1029400037FF9BF80030184443785A071CD52E21D6
:10295000584609F019F9A0B1BAF1020F14D1029B3F
:10296000002B7FF498AE22790A2A05D84FF48963A8
:10297000D340D80700F1AE80E36A002B3FF498AE55
:10298000A8E0BAF1010FEAD9A06B0028E7D00CA9A2
:1029900009F06EF90028E2D1383472E6594609F0A0
:1029A00067F910B10AF1080A8AE6DAF804304E4AEB
:1029B00040F201214D4809F029F8039A0199204677
:1029C000FFF7E7FC824678B123790A2B0CD8DFE8C1
:1029D00003F006061C283B450B0B0B0B520043482B
:1029E00008F0D0FECAF8000008F0E2FE059B93F95B
:1029F0000020D1B20844417809075FD42C2A48D07E
:102A00007D2A40D101330593F0E5384808F0B6FE41
:102A100014AB63E90A0103CBCAF80000CAF804103A
:102A2000E2E7019B2BB11B78082B02D0039B002B04
:102A300035DCDFF8B8B0A26A5946504609F0A4FA6E
:102A400000238BF80032CFE72549284809F010F918
:102A5000B0FA80F040098AF80000C5E7DFF88CB0D2
:102A60005846FEF74FF901283FF6E2AE9BF90030D9
:102A70008AF80030B8E71D49206A09F0F9F8002803
:102A8000B2D010205EE607B13B6009205AE605256A
:102A900014E0012512E0042054E6162052E611202D
:102AA00050E638464EE62379032B7FF456AEA36AF0
:102AB00003F1FF38A94603250C4B3360059B013316
:102AC00005938EE5029B002B3FF44DAFE36A002B8C
:102AD0007FF4EEAD132035E6FC330160C30C00201B
:102AE000043401600934016001340160C40A00202B
:102AF000002307B500921A46FFF75AFD03B05DF8B0
:102B000004FB000010B5044698B05C22074901A8F8
:102B100008F0A2FE631E152B9DBF18AB03EB8404C7
:102B200054F85C0C024818B010BD00BFA03301601F
:102B30000F340160094B0A4918680A68086009489F
:102B400082EAC2220168196007490B68036083EAC0
:102B5000D340504080EA1220086070476C08002083
:102B600068080020700800206408002070B5054641
:102B70000026E0B10C2006F033FC044606604660F7
:102B80000672012007F096F9206058B129462846C0
:102B900007F0BCF8606010B12572204670BD206857
:102BA00006F0ACFC204606F0A9FC0024F5E704463C
:102BB000F3E708B54FF0FF31406807F093FA0128BA
:102BC00008D04FF0A00383F31188BFF36F8FBFF3DA
:102BD0004F8FFEE708BD08B5002340681A46194626
:102BE00007F0B2F8012808D04FF0A00383F3118852
:102BF000BFF36F8FBFF34F8FFEE708BD38B54FF0BF
:102C0000FF310546006807F06DFA00242B7A9C42DC
:102C100000D338BD4FF0FF31686807F063FA012830
:102C200008D04FF0A00383F31188BFF36F8FBFF379
:102C30004F8FFEE70134E9E738B504460025237AD3
:102C40009D424FF000031A4619460DD3206807F045
:102C50007BF8012818D04FF0A00383F31188BFF34D
:102C60006F8FBFF34F8FFEE7606807F06DF80128A4
:102C700008D04FF0A00383F31188BFF36F8FBFF329
:102C80004F8FFEE70135DAE738BDF8B506460F4647
:102C9000154622B118B111B10024AC4202D14FF057
:102CA000FF30F8BD57F82410304608F0E1FF08B1B6
:102CB0000134F2E72046F8BD10B50B4612B1013AD7
:102CC00005D1027013F9012B002AFBD105E013F99D
:102CD000014B00F8014B002CF1D1581A013810BDFE
:102CE000BFF34F8F0549064BCA6802F4E0621343F5
:102CF000CB60BFF34F8F00BFFDE700BF00ED00E0EA
:102D00000400FA0508B510460121002200F09EFDDE
:102D1000002008BD10B5012104461046002200F035
:102D200095FD90F90030572B06D0772B09D0064936
:102D3000204609F07BF802E0012001F076FC00203B
:102D400010BD0020F9E700BF0039016010B5012176
:102D500004461046002200F079FD90F90030532B14
:102D60001CD008DC4F2B0ED0522B11D00E49204620
:102D700009F05CF80AE0722B0ED0732B12D06F2B87
:102D8000F4D1002000E0012001F03DFC002010BD46
:102D9000012001F02FFCF9E70020FAE7012001F003
:102DA0003BFCF3E70020FAE7003901601FB5130E82
:102DB0000293C2F307430193C2F307230093D3B2F4
:102DC000024A08F023FE05B05DF804FBB537016048
:102DD0002DE9F04100269046012537468CB0294662
:102DE0000022404600F032FD014638B1012D27D1C6
:102DF00004F034FA07460135042DF0D1492C34D1C2
:102E00000E22354902A8FFF757FF762006F0E8FAB0
:102E10000446002836D007F061FC49F64042A28201
:102E2000052222769622626000227621A26002AA02
:102E300020602761E182034600920196274A43E021
:102E4000022D02D190F90040D5E74E2C04D1152275
:102E500006A8FFF731FFCEE7442C03D108F092FC1F
:102E60000646C8E704F0FAF9FAE74E2C0ED102AD97
:102E70000E221B492846FFF71FFF822006F0B0FAFA
:102E8000044668B900200CB0BDE8F081432C02D1A3
:102E90000E221449B6E7442CB7D10E221249B1E7ED
:102EA00007F01CFC49F64042A282052222769622B7
:102EB0006260002282210346A26006AA2060276188
:102EC000E1820192094A009504F1190008F09EFD83
:102ED000204601F0EFFCD5E7B03801607F37016094
:102EE000BB380160C4380160D138016047370160E8
:102EF00070B516460124002588B0214600223046D0
:102F000000F0A4FC014638B1012C27D104F0A6F949
:102F100005460134042CF0D16C2006F061FA044619
:102F2000C8B107F0DBFB49F64042A28201222276BB
:102F30000A22626000226C21A26002AA206003467D
:102F40002561E18204F119000092084A08F05EFD53
:102F5000204601F0AFFC002008B070BD022CD8D193
:102F6000152202A8FFF7A8FED3E700BF17370160BC
:102F70002DE9F34116460124124FDFF84C80002260
:102F80002146304600F062FC0546019030B1012C2C
:102F900008D104F063F90134042CF0D1002002B010
:102FA000BDE8F081394608F0CDFD18B901A800F060
:102FB00029FDF0E74146284608F0C4FD0028EAD183
:102FC000F4E700BF3A390160C93C0160FFF7D0BFA8
:102FD0002DE9F74305460F460020DFF84C80461CDC
:102FE00002F068FB044688B107F04EFF8146204698
:102FF00007F07AFB4B46009042463946284608F0D7
:1030000005FD284600F0F2FD3046E8E706F0AEFA8E
:1030100000F002FE034800F0E9FD20462C7003B0EA
:10302000BDE8F083F9380160DF38016030B593B056
:10303000FEF7A0FB04460D4612A961E910450025E4
:1030400008220F4800F058FD029B0E4804F0FF04D0
:10305000190AA4FB002300FB0533120A42EA0362AB
:10306000039B009241EA0363074A322105A808F056
:10307000CDFC05A800F0BAFD002013B030BD00BFA4
:103080009938016040420F00A138016037B51546FC
:1030900002210022284600F0D9FB019098B101A836
:1030A00000F0B0FC84B200220121284600F0CEFBE3
:1030B000019028B1012C214638BF012101F0D0FD3B
:1030C000002003B030BD0824EDE700002DE9F043F7
:1030D00089B0164602AA1546464B03F1100714465E
:1030E00018685968083303C4BB422246F7D11868F0
:1030F0009B882060A38000220121304600F0A6FBBF
:1031000008AF47F8200D90F90030242B1CD1013076
:103110000090384600F0BCFC20F00304002202219D
:10312000304600F093FB0090384600F06BFC10B383
:1031300080004FF03D084FF024090619B4421CD31B
:10314000002009B0BDE8F083302B10D190F9014088
:1031500008F02EFB2044437803F00303012B08BF43
:103160002034782C03D1009B02330093D1E73846FA
:1031700000F048FCD0E70420DBE7210E01A8019510
:1031800000F0A7FCC4F3074101A800F0A2FCC4F3BF
:10319000072101A800F09DFCE1B201A800F099FC14
:1031A000019B01A85A1C019283F80080019B5A1CC4
:1031B000019283F8009054F8047B390E00F089FCEA
:1031C000C7F3074101A800F084FCC7F3072101A859
:1031D00000F07FFC01A8F9B200F07BFC019B2846BF
:1031E0005A1C01920A221A700022019B1A7000F0E8
:1031F000FDFCA3E70137016070B505468CB01046B1
:103200000E460022012100F021FB01462F4808F064
:1032100099FC044670B900F02BFF2D4A2D4B314626
:10322000002818BF13462C4A284608F0EFFB20461A
:103230000CB070BD294C2268511C2160052A41D870
:10324000DFE802F003111A252D34022269462448D2
:1032500000F08CFEBDF80030224A3146284608F0C6
:10326000D5FB0120E4E704221F480DEB020100F02A
:103270007DFE019B1D4AF0E7042202A91C4800F0D4
:1032800075FE029A31462846FFF790FDE9E71522C0
:1032900003A9184800F06AFE03AB174ADDE70422D1
:1032A00009A9164800F062FE099AEBE702220AA972
:1032B000134800F05BFEBDF82830124A314628461C
:1032C00008F0A4FB00202060B2E700BF5C3801607A
:1032D000523801605738016061380160C80C002025
:1032E00000C003606D38016004C003607538016080
:1032F00008C003600CC003607F38016024C0036015
:1033000028C003608938016010B5012104461046C9
:10331000002200F09BFA90F90030522B29D00FDCEC
:10332000312B30D006DC302B2BD01849204608F04A
:103330007DFD17E0422B22D0472BF6D1082019E063
:10334000662B11D005DC612B09D0622BEDD1012059
:1033500010E0672B11D0722BE7D110200AE001207A
:1033600001F03BF9002010BD152001F00DF90020FF
:10337000F6E7202001F008F9F4E70420FAE702203C
:10338000F8E71520F6E72A20F4E700BF00390160CE
:103390002DE9F74314460D460A4628490646FFF72D
:1033A0008BFC00220121204600F050FA019010B35E
:1033B00003F054FF002280460221204600F046FA26
:1033C0000190C0B101A800F01DFB0022814603213D
:1033D000204600F03BFA019068B1FDF793FC00F144
:1033E0001D07384605F0FCFF044640B92A4614493B
:1033F0003046FFF761FC002003B0BDE8F0833A4699
:1034000001991930FFF758FCC4F81080A4F8149003
:10341000204601F0BBFA40B92A460A493046FFF778
:103420004BFC204606F06AF8E5E7FFF76BFB064A1F
:1034300003462946304608F0E9FAF2E721380160F0
:103440002C3801603F3801604A380160F7B51646F4
:1034500005460F4600220121304600F0F7F90446E8
:1034600010B108F08FF9044600220221304600F026
:10347000EDF998B9012C0DD1042215480DEB02018C
:1034800000F074FD019A39462846FFF78FFC0020B2
:1034900003B0F0BD03F018FC0190F3E703F0DEFE8B
:1034A000019078B10422012C0DEB020103D10848F0
:1034B00000F0A2FDEBE7074800F09EFD019803F045
:1034C00009FCE4E70449284608F0B0FCDFE700BF48
:1034D00024C0036008C003601138016030B50446A1
:1034E00087B010460D460022012100F0AFF90146D9
:1034F00058B115226846FFF7DFFB68460AF006F967
:1035000015226946084800F077FD694615220648ED
:1035100000F02CFD6B46054A2946204608F076FA55
:10352000002007B030BD00BF0CC00360053801604B
:10353000F8B51646054600220121304600F086F90E
:1035400020B92E49284608F071FC28E090F9004087
:1035500008F02EF92044437803F00303012B08BF41
:10356000203464B2672C05D0732C0DD0632C0DD0A1
:103570002349E7E7002730460022022100F066F9E0
:10358000064628B91F49DDE70127F4E70227F2E7DD
:103590001D4908F0D7FA20B9384602F099F9002001
:1035A000F8BD1A49304608F0CDFA30B9A4F17301DC
:1035B0004842484100F044FFF1E71549304608F021
:1035C000C1FA30B9A4F173025442124B54411C7039
:1035D000E5E71149304608F0B5FA0028DFD00F4979
:1035E000304608F0AFFA30B9A4F17303584258419D
:1035F00001F05AF9D3E70A49A4E700BFC5370160D3
:10360000D0370160DC370160E7370160EC370160DB
:10361000F1370160D40E00206E3B0160F537016088
:10362000F937016008B51C4800F076F81B4800F037
:1036300073F81B4800F070F81A4800F06DF81A484B
:1036400000F06AF8194800F067F8194800F064F8CB
:10365000184800F061F8184800F05EF8174800F0CC
:103660005BF8174800F058F8164800F055F816486F
:1036700000F052F8154800F04FF8154800F04CF8EB
:10368000144800F049F8144800F046F8BDE8084036
:10369000124800F041B800BF883B0160A83B0160C0
:1036A000C83B0160D83B0160E83B0160F83B01602A
:1036B000083C0160183C0160283C0160383C016016
:1036C000583C0160683C0160783C0160883C0160C6
:1036D000B83B0160483C0160983B0160983C016048
:1036E00013B50A4C23680BB9094B236023681B6888
:1036F0005A6800921B68074A08F088F923685868DE
:103700002060003018BF012002B010BDD00E002094
:10371000780800200B3D016038B5054640B94FF0F0
:10372000A00383F31188BFF36F8FBFF34F8FFEE7C2
:10373000082005F055FE044640B94FF0A00383F37E
:103740001188BFF36F8FBFF34F8FFEE705F06AFF5D
:1037500000236360044B25601A681C60546005F008
:1037600083FF012038BD00BF740800202DE9F04719
:103770002F4D80462B680E4617467BB10124D5F8A5
:103780000090B9F1000F4AD0002C3BD1294B2A4AB6
:103790003946304608F03AF92C603DE0274B2B6063
:1037A0002C68002CEAD0D4F80090D9F800A050463C
:1037B000FDF7A8FA18F90030024633F020031FD1B4
:1037C0005146404608F090FBD0B999F90C30002BD7
:1037D000D4DB044608F1FF3111F9012F32B908B1E9
:1037E000013C64B21B1B5C425C41C8E7202A05D146
:1037F0000028F1D1013464B20120EDE70020EBE7AD
:103800006368CCE7D9F8003042469B6839463046B9
:10381000984704460028BFD02046BDE8F087054BF6
:10382000074A3946304608F0F1F84C46F4E700BF45
:10383000CC0E0020E63C0160A83C01607808002026
:10384000CB3C016000487047CC0C002070B550B9EB
:103850004FF0A00383F31188BFF36F8FBFF34F8F37
:10386000FEE7344608E000258D421FD0044610F9DB
:10387000013BCBB1202BF9D1264616F9013B20465E
:10388000202BEED083B10135A942EDD121460B1B8F
:1038900011F9010B30F02000F9D1002B14BF2046A4
:1038A000002002B1136070BD1846FAE700200346FD
:1038B000F7E70F2808D94FF0A00383F31188BFF36F
:1038C0006F8FBFF34F8FFEE7092894BF303037303A
:1038D00040B2704707B501220DF10301FDF758FD15
:1038E000012809D10023074802AA42F8043D0DF13E
:1038F0000301006806F0F0FA019A034B1A6003B066
:103900005DF804FBA80F0020940A00201A4B10B5A4
:10391000984208D04FF0A00383F31188BFF36F8F54
:10392000BFF34F8FFEE70368417B1A7DD2B211438C
:10393000920641731ED51020104A547811788C429B
:103940000BD10F4A043302EA431203F070431343CE
:10395000002203F100735A6010BD013810F0FF001F
:1039600008D0517811448978197051780131C9B261
:103970005170E2E710BD00BF10B9002038BA002036
:10398000E0FFFF0138B50546104C2378627801331B
:10399000DBB2934216D00E4B1A680E4B043203EA88
:1039A000421302F070421343002203F100735A6085
:1039B00022782244957022780132D2B222700122FC
:1039C0005A6038BD012006F0D3FFDEE738BA002088
:1039D00010B90020E0FFFF0110B5441E631C02D0A7
:1039E00014F9010F00B910BDFFF7CCFFF6E7000096
:1039F00008B506F073FE024B1B68184408BD00BFF3
:103A0000A00F002030B5002401460A25204609B148
:103A10000B6803B930BD1A78303AD2B2092A04D9FA
:103A2000002CF7D101330B60F1E7013305FB0020D7
:103A30000B600124EBE70000036870B543B94FF059
:103A4000A00383F31188BFF36F8FBFF34F8FFEE79F
:103A500029B930221A7003680133036070BD0A224D
:103A600000251646094CB1FBF4F30BB104FB13110E
:103A7000B4FBF6F403B935B1056830332B7001257A
:103A8000036801330360013AEDD170BD00CA9A3B6F
:103A900010B50246E0B10068D0B10020116891F97C
:103AA0000030A3F13004092C04D804EB00100131DC
:103AB0001160F3E7A3F14104052C03D8373B03EB76
:103AC0000010F4E7A3F16104052C01D8573BF6E799
:103AD00010BD024610B504680809FFF7EAFE207021
:103AE000146801F00F00631C1360FFF7E2FE6070C2
:103AF00013680133136010BD2DE9F04F394F91B0B9
:103B000006460D4638680021144606F0EBFAB84622
:103B100000285ED0FFF76CFF5B2301460DF109071B
:103B200001A88DF808300197FFF786FF019B0DF182
:103B300008095A1C01925D221A700022019B484616
:103B40001A70FFF749FF16B13046FFF745FF002D09
:103B500008BF002400264FF0200A234BCDF8049024
:103B60001B78BBB14FF0300BF1B201A801978DF873
:103B700008B0FFF7AEFF019B591C019183F800B01C
:103B8000019B5A1C01923A221A70019B5A1C019205
:103B900083F800A0013605F1100B4CB1013CA4B232
:103BA00015F8011B01A8FFF794FF0CB1AB4513D129
:103BB0000A22019B48461A80FFF70EFF14B1B6F5A2
:103BC000807FCAD10023D8F800001A46194606F0B3
:103BD000BBF811B0BDE8F08F019B591C019183F82F
:103BE00000A0DAE7A40F0020D40E002070B5094C25
:103BF00005460021206806F075FA50B12846FFF707
:103C0000EBFE002320681A46BDE87040194606F016
:103C10009BB870BDA40F00201FB504AB01AC43F8E6
:103C2000104D01461846FFF707FF0022009B204673
:103C30001A70FFF7DBFF04B010BD000070B5094C2F
:103C400005460021206806F04DFA50B12846FFF7DE
:103C500099FE002320681A46BDE87040194606F018
:103C600073B870BDA40F00202DE9F743FFF7EAFDFC
:103C7000064640B94FF0A00383F31188BFF36F8F5E
:103C8000BFF34F8FFEE7FFF7CDFC0024DFF8BC80C9
:103C90002A4D2B4F4FF0FF320DF10701D8F80000ED
:103CA00006F07CF90128F5D19DF90700FFF7C6FF62
:103CB0009DF907300A2B01D00D2B29D10A20FFF7DF
:103CC000BDFF24B9642239462846FEF7F5FF4FF0C0
:103CD000000986F800904FF4007231462846FFF73D
:103CE00045FD96F90030044613B13046FFF77EFFDC
:103CF000002CEED1642229463846FEF7DDFF65220E
:103D000021462846FCF732FC0E48FFF76FFFC1E75B
:103D1000082B06D1002CBDD00023013CE4B22B556A
:103D2000B8E7A3F12002D2B25E2AB3D8632C03D83D
:103D30002B550134E4B2ADE70348E6E7D50E002089
:103D40003A0F00209F3D0160D43D0160A80F002084
:103D50001FB50DF1050300935B238DF80430FFF7C9
:103D600047FE01466846FFF767FE009B01A85A1C04
:103D700000925D221A700022009B1A70FFF736FF36
:103D800005B05DF804FB000013B5204C03224FF48E
:103D9000E1312046FDF7D8FA012006F08BF81C4BE4
:103DA0001C4918602046FDF785FB002201211920DF
:103DB00005F088FFA022184B18491860184B2046C0
:103DC00083F80A230022FDF717FB0623154C4FF456
:103DD000FA721549009301940023144806F01AFB67
:103DE000206801F007FC1248FFF700FF1148FFF7B9
:103DF000FDFE03224FF4E1310F48FDF7A5FA012043
:103E000002B0BDE8104006F055B800BF10B9002060
:103E1000A40F00200D390060A80F0020D5380060E5
:103E200000E100E03CBB0020983D0160693C00607F
:103E30004C3D01607B3D0160D0B8002000000000D7
:103E40002DE97043064600F05FF8294D04462B68C3
:103E500023F001032B6072B6BFF34F8FBFF36F8F58
:103E600006F0F8FF30B92B6843F001032B6062B60F
:103E7000BDE8708302280CD1BFF34F8F30BFBFF372
:103E80006F8F62B61A4A136843F001031360BDE8EE
:103E90007083FDF76FFC8046304689460EF0BCFC0F
:103EA00011A3D3E900230EF057FE0FF08BF850EA70
:103EB000010304BF0120002110EB08004FF00002B5
:103EC00041EB0901FDF78AFCBFF34F8F30BFBFF311
:103ED0006F8F00F019F8001B864238BF304606F09D
:103EE00025FCCEE7AFF3008000000000001DF03F8E
:103EF00010E000E0034B0520197881F001011970F2
:103F0000FEF748B9B00F0020FDF734BC08B5FDF747
:103F1000CDFC0449D1E90023013243F10003C1E99A
:103F2000002308BDB80F002013B520210020FDF7A5
:103F300087FCFDF731FCFDF7B3FC084A084C136918
:103F40001B2143F004031361064B01220093064832
:103F5000236807F09FFA206002B010BD00ED00E07A
:103F6000AC0F0020F53E0060D83D0160F8B5164B5F
:103F7000044698420F4608D84FF0A00383F31188F7
:103F8000BFF36F8FBFF34F8FFEE7104B86189E4233
:103F900008D94FF0A00383F31188BFF36F8FBFF3ED
:103FA0004F8FFEE70A4D2868FEF703FE791EB442E4
:103FB00004D12868FEF70FFE0120F8BD14F8013B7C
:103FC00001F8013FF3E700BFFFBF0360FFDF0360BD
:103FD000C00F002008B50420FEF7C8FD044B186090
:103FE00000F07CF8BDE808400248FFF7FFBD00BFC5
:103FF000C00F0020F03D0160F8B51A4B044698420E
:104000000F46164608D84FF0A00383F31188BFF37C
:104010006F8FBFF34F8FFEE7134B82189A4208D978
:104020004FF0A00383F31188BFF36F8FBFF34F8F5F
:10403000FEE70E4D2868FEF7E1FD002332463946C3
:104040002046FDF7B3FC40B14FF0A00383F3118885
:10405000BFF36F8FBFF34F8FFEE72868FEF7ECFDCD
:104060000120F8BDFFBF0360FFDF0360C00F002029
:10407000F0B585B06A466F46144B03F1100514463F
:1040800018685968083303C4AB422246F7D1104C74
:10409000104D2068FEF7B2FD0F4E00231022394666
:1040A0002846FDF783FC40B14FF0A00383F311884D
:1040B000BFF36F8FBFF34F8FFEE71035B542ECD1E2
:1040C0002068FEF7B9FD012005B0F0BDE03D0160BC
:1040D000C00F002000C00360F0DF036000B589B0AE
:1040E00002220DF10A012448FFF740FFBDF80A3013
:1040F000012B30D007D34FF6FF72934207D0012037
:1041000009B05DF804FBFFF7B3FF00B900BE1B4B1D
:1041100008A941F8143D04221948FFF76DFF194B17
:1041200008A941F8103D04221748FFF765FF174B17
:10413000152218681B79069006A915488DF81C30C1
:10414000FFF75AFF4FF0FF3308A941F80C3D042256
:104150001048FFF751FF4FF4967308A921F81C3D52
:1041600002220D48FFF748FF022208A921F8182D66
:104170000148FFF741FFC2E700C0036011AE7C5B5E
:1041800004C00360C0A801FF08C00360FB3D0160DC
:104190000CC0036024C0036028C003602DE9F04315
:1041A000DFF8748089B007464FF0FF31D8F800007F
:1041B00005F098FF012805464FF0000427D19A2307
:1041C00008AA02F8093D062306AE019358210346CA
:1041D0000294104800960694ADF81C40FDF7EEFEE0
:1041E00005210C48FDF764FF8146234622462146FF
:1041F000D8F8000005F0A8FDB9F1000F07D1069826
:10420000B38838602846BB8009B0BDE8F0832046FB
:10421000FAE700BFC4B90020C40F00202DE9F04325
:104220001F4F8BB006464FF0FF31386805F05AFF3C
:104230000128804631D14FF0100906AD4A460021D1
:104240002846FCF793F9002480230AAA02F8113DBE
:1042500058214346134802948DE82002FDF7AEFE34
:1042600005211048FDF724FF8046234622462146BB
:10427000386805F069FDB8F1000F0ED133460AAC7D
:104280002A4603CAA24218605960154603F1080382
:10429000F6D101200BB0BDE8F0830020FAE700BFA3
:1042A000C40F0020C4B9002008B5022203210B4826
:1042B000FDF720FE012005F0FDFD094B186040B917
:1042C0004FF0A00383F31188BFF36F8FBFF34F8FBD
:1042D000FEE70448BDE80840FFF788BCC4B90020E9
:1042E000C40F0020003E016000232DE9F04F89B08B
:1042F00005AD02220DF10A014C4805936B60AB60DD
:10430000ADF80C308DF80E304FF0FF36FFF72EFE73
:10431000DFF824A1DFF824B1334604AA4FF0FF31BF
:10432000002006F01DFF06F0D9F9002407464FF0E3
:10433000FF360DF10C090499600021FA00F818F01D
:10434000010842D02046FFF767FC1FFA84F8584660
:10435000FFF74CFC0021404601F0F8F899F80010F6
:104360000131C9B2012989F8001020D145F8247023
:1043700055F82410BDF80A20781A90424AD399F8CB
:104380000080B8F1020F0CD12046FFF745FC284809
:10439000FFF72CFC4146A0B201F0D8F8002289F8C2
:1043A00000200134032C09F10109C4D1B4E7032929
:1043B000DED120460191FFF72FFC1E48FFF716FCC7
:1043C0000199404601F0C2F8D2E7022282400A4237
:1043D000CED099F800100131C9B2032989F8001034
:1043E00002D989F80080C3E755F82400BDF80A20F7
:1043F000A7EB000E96450CD30229C0D12046FFF74B
:104400000BFC5046FFF7F2FB0121A0B201F09EF831
:10441000E7E7014699F8000001380128C1D8D21B0E
:104420000A44964228BF1646BBE700BF28C0036077
:10443000203E0160143E01601B3E01600D3E0160A4
:10444000034B10B1186806F0BDB8186806F03EBB03
:1044500044BB00201FB5144B04AAD3F88430134882
:1044600013F0040F4FF0000342F8043D00924FF0A8
:10447000010214BF02211146006806F01FFF02204E
:10448000FDF7BCFE4FF48012094BC3F88421039B57
:104490003BB14FF08052074B1A60BFF34F8FBFF311
:1044A0006F8F05B05DF804FB0030014040BB002079
:1044B00000E100E004ED00E01FB5154B04AAD3F8BD
:1044C0008430144813F0080F4FF0000342F8043D05
:1044D000009218BF08214FF0010208BF04210068B4
:1044E00006F0ECFE0320FDF789FE4FF400120A4BA4
:1044F000C3F88421039B3BB14FF08052074B1A60F5
:10450000BFF34F8FBFF36F8F05B05DF804FB00BFA3
:104510000030014040BB002000E100E004ED00E07D
:104520001FB5154B04AAD3F88430144813F0100FAC
:104530004FF0000342F8043D009218BF20214FF0D5
:10454000010208BF1021006806F0B8FE0420FDF744
:1045500055FE4FF480020A4BC3F88421039B3BB104
:104560004FF08052074B1A60BFF34F8FBFF36F8F2E
:1045700005B05DF804FB00BF0030014040BB0020E7
:1045800000E100E004ED00E0820610B5044603D52A
:1045900001211E20FDF7FEFDE30603D500211E20AC
:1045A000FDF7F8FD200703D501211D20FDF7F2FDE1
:1045B000610703D500211D20FDF7ECFDA20703D5FF
:1045C00001211F20FDF7E6FDE30705D5BDE81040FA
:1045D00000211F20FDF7DEBD10BD10B504460146C9
:1045E0000820FDF7D7FD24B1BDE810401520FFF7E6
:1045F000CBBF10BD0128014602D10520FDF7CABD81
:104600000028FAD070470128014602D10620FDF7A4
:10461000C1BD0028FAD070470128014602D1072009
:10462000FDF7B8BD0028FAD070470128014601D136
:10463000FDF7B0BD08B90120FAE7704730B589B081
:10464000FDF76EFD05210120FDF798FD05210846C7
:10465000FDF794FD05210620FDF790FD05210720BB
:10466000FDF78CFD05210820FDF788FD05211D20A3
:10467000FDF784FD05211E20FDF780FD05211F208B
:10468000FDF77CFD0120FFF7A8FF2020FFF77CFF4E
:104690001020FFF779FF0820FFF776FF0420FFF7CF
:1046A00073FF0220FFF770FF02A915222F48FFF7C2
:1046B0005DFC2F4902A807F0DBFAF0B90120FFF7F3
:1046C00099FF0120FFF79FFF0120FFF7A5FF0723B8
:1046D000284C0093019400234FF49B7226492748ED
:1046E00005F098FE012813D04FF0A00383F3118842
:1046F000BFF36F8FBFF34F8FFEE7214902A807F08A
:10470000B7FA01460028E2D10120FDF743FDDEE7BC
:10471000206800F06FFFA0254FF48013194C822110
:1047200084F8345302206360FDF728FD0220FDF772
:1047300047FD4FF4001384F8355382216360032052
:10474000FDF71CFD0320FDF73BFD4FF480038221A4
:1047500084F8365304206360FDF710FD0420FDF754
:104760002FFD002006F004F909B030BD0CC0036035
:10477000263E016040BB00202F3E0160E942006000
:104780002B3E016000E100E009490B6823B11A6883
:104790008242DA6802D10A6018467047002AFBD0CC
:1047A00011688842FAD1D168D9601346F4E700BF96
:1047B000A8150020F0B5082489B036480294FFF708
:1047C00015FA02211122084602F0F2FA431C0546AE
:1047D00008D14FF0A00383F31188BFF36F8FBFF3AD
:1047E0004F8FFEE744F29C03224606A9ADF81A302B
:1047F00002F0B8FB024640B14FF0A00383F31188EA
:10480000BFF36F8FBFF34F8FFEE74FF0FF3108AB61
:1048100043F8141D00900146284602F063FE40B1A3
:104820004FF0A00383F31188BFF36F8FBFF34F8F57
:10483000FEE71848FFF7DAF900F028FE164C174E8D
:1048400004F1190740F2DD5200211348FBF78EFEF8
:1048500002AB019304AB00934FF4B86200233946D6
:10486000284602F021FB0028ECDD059BE082236155
:10487000337853B1FFF76CFA0948FFF7B7F90948E5
:10488000FFF7B4F90A20FFF7D9F9204600F05EFBE4
:10489000D8E700BF653E0160C90F002080080020F6
:1048A000763E0160E20F0020014B1870704700BF98
:1048B0008008002070B51C4C05464FF0FF31606841
:1048C00005F010FC0128204608D04FF0A00383F328
:1048D0001188BFF36F8FBFF34F8FFEE70023EB60AC
:1048E000236893B92560002340681A46194605F0ED
:1048F0002BFA01280ED04FF0A00383F31188BFF3E9
:104900006F8FBFF34F8FFEE71346DA68002AFBD1A3
:10491000DD60E8E70023BDE8704004480222194644
:10492000006806F061BC00BFA8150020B01500208B
:1049300038B5154C05464FF0FF31606805F0D2FBE5
:10494000012808D04FF0A00383F31188BFF36F8FC5
:10495000BFF34F8FFEE72846FFF716FF08B104F0BC
:10496000CDFD002360681A46194605F0EDF90128CF
:1049700008D04FF0A00383F31188BFF36F8FBFF30C
:104980004F8FFEE738BD00BFA815002030B52B4B78
:1049900085B01B7804465BB1FFF7DAF92848FFF7CA
:1049A00025F904F11900FFF721F90A20FFF746F96C
:1049B00042F20F73A28A9A4206D1204600F0C6FA4C
:1049C0000446204605B030BD022123690846039302
:1049D000130A43EA02231122ADF80A3002F0E8F983
:1049E000431C054608D14FF0A00383F31188BFF3A1
:1049F0006F8FBFF34F8FFEE7042301220093002146
:104A0000104B02F06FFD034640B14FF0A00383F35B
:104A10001188BFF36F8FBFF34F8FFEE70821E28A43
:104A2000019169440091284604F1190102F0C7FA86
:104A30000446284602F0A0FBC3E700BF8008002020
:104A40005A3E0160A43E0160F0B59DB007460B469A
:104A50006D466A46174C04F1200E2E4620686168A8
:104A6000083403C674453546F7D149F640412068FD
:104A700000243060ADF838104B210F4D0DF13D0092
:104A80000993ADF83A100A940B940C940D9706F024
:104A9000BDFF4FF0FF31686805F024FB09A8FFF760
:104AA00075FF234622462146686805F04DF91DB082
:104AB000F0BD00BF363E0160A81500202DE9F04191
:104AC000274D2848FFF792F84FF0FF372E4639461A
:104AD000012006F013FB4FF0FF31686805F002FB80
:104AE000012808D04FF0A00383F31188BFF36F8F24
:104AF000BFF34F8FFEE705F0F1FD07462C68B4B910
:104B000033682246002B2146234670680CBF4FF0C5
:104B1000FF37012705F018F90128D8D04FF0A0037E
:104B200083F31188BFF36F8FBFF34F8FFEE7A36846
:104B30006268FB1A9342D4F80C800CD92046FFF728
:104B400025FF237E013BDBB2237633B92068FFF7D4
:104B50001BFE04F0D3FC4446D1E7A760FBE700BF8F
:104B6000A8150020833E01607FB5234B1C78002CE4
:104B700040D10120187005F09DF9204B586040B9D4
:104B80004FF0A00383F31188BFF36F8FBFF34F8FF4
:104B9000FEE705251A4E0095019623464FF4C8728C
:104BA0001849194805F036FC012808D04FF0A00339
:104BB00083F31188BFF36F8FBFF34F8FFEE7306829
:104BC00000F018FD03AB0193009523464FF4FA72F1
:104BD0000E490F4805F01EFC012808D04FF0A00335
:104BE00083F31188BFF36F8FBFF34F8FFEE70398F6
:104BF00000F000FD04B070BDC80F0020A815002013
:104C0000B0150020923E0160BD4A00609B3E0160ED
:104C1000B547006010B5044686B0152269460648BF
:104C2000FFF7A4F96946204606F08CFFB0FA80F041
:104C3000400906B010BD00BF0CC0036007B50346B5
:104C4000ADF8061030B905480A220DF106010068DA
:104C500005F07AF803B05DF804FB00BFB81500203A
:104C600000232DE9F3410D46ADF80630064640B964
:104C70004FF0A00383F31188BFF36F8FBFF34F8F03
:104C8000FEE702F0EBFA044605F028FD2946074648
:104C90000A22204601F0D0FC85B2BDB31C48FEF7C5
:104CA000A5FF3046FEF7A2FF1A48FEF79FFF2846F1
:104CB000FEF7B2FF2020FEF7C1FFDFF86880164E36
:104CC0004FF47A720DF10601D8F8000005F066F98C
:104CD0000128044615D1BDF8060085420BD105F028
:104CE000FDFCC01BFEF798FF0C48FEF77FFF204637
:104CF00002B0BDE8F081FEF78FFF3046FEF776FF89
:104D0000DEE70748FEF772FF0024F0E72C46EEE7E7
:104D1000FE3E0160043F0160083F0160953801607C
:104D2000133F0160B815002008B530B90548FEF7FB
:104D30005DFFBDE80840FFF717BF0348BDE8084026
:104D4000FEF754BFEA3E0160F33E0160F0B593B058
:104D500005A8FFF723FA624D20B10598BDF8183079
:104D60002860AB803A275F4A0BAB10685168128904
:104D700003C312AC1A80002112220DF136000DF18E
:104D80003506FBF7F3FB44F82C6D29782046FEF737
:104D9000A0FE079B20465A1C07921F706978FEF7F9
:104DA00098FE079B20465A1C07921F70A978FEF7B1
:104DB00090FE079B20465A1C07921F70E978FEF769
:104DC00088FE079B20465A1C07921F702979FEF720
:104DD00080FE079B20465A1C07921F706979FEF7D8
:104DE00078FE0A22079B0BA81A80FEF7FFFE04221A
:104DF00003A93D48FFF7BAF89DF80C30C02B1CBF43
:104E000000230393039B013B033315D92046FFF78F
:104E100005FA88B110212046FDF7A8FA4FF6FF5396
:104E2000B0FBF3F202FB1300000400F1007040F449
:104E3000284040F0C00003902E272C4A2C4C039BA6
:104E40001068516823600BAB03C3127A00211A70FB
:104E500030461122FBF78AFB12AE0DAB46F8383D07
:104E600021783046FEF7E8FD049B30465A1C049238
:104E70001F706178FEF7E0FD049B30465A1C0492D7
:104E80001F70A178FEF7D8FD049B30465A1C04928F
:104E90001F70E178FEF7D0FD0A22049B0BA81A8050
:104EA000FEF7A4FE00220221052004F00BFF114BA7
:104EB000186040B94FF0A00383F31188BFF36F8FE0
:104EC000BFF34F8FFEE70C4A0C4900950C4B204670
:104ED00001F0E0FA0B4B186800F08CFB13B0F0BD4A
:104EE00081080020A83E016008C00360C43E016044
:104EF000B4150020B8150020E23E0160E63E0160D6
:104F0000DE3E01607C190020044608B5FEF720FF54
:104F10000B48FEF76BFE21682069FFF795FD4FF403
:104F20007A7005F025FDBFF34F8F0649064BCA681E
:104F300002F4E0621343CB60BFF34F8F00BFFDE785
:104F40001140016000ED00E00400FA052DE9F04F8A
:104F50001F2406464FF003094FF0010AADF52D7DE1
:104F60000DAF224600213846FBF700FBA8220021A6
:104F70002EA8FBF7FBFADFF8B882A44B06F119055F
:104F80000DF10C0B00222EA928462E9338948DF893
:104F9000BC903097CDF8F0808DF8F4A0CDF8F8B043
:104FA000FDF7A6FD97F90030044623B3DBF8003087
:104FB000974C33602146384606F05AFE8346F8B9CE
:104FC0000146A82258A8FBF7D1FA904B15AE58938A
:104FD0000A235A4658A9284660948DF86431CDF8C2
:104FE00098818DF89CA16896FDF782FD044610B962
:104FF0003068FFF79DFC20460DF52D7DBDE8F08F54
:105000008449384606F034FE0446002840F0B88053
:1050100015234FF00F0B1A46014615A8019309AF4F
:10502000FBF7A4FA21465A4605A8FBF79FFA21464A
:105030005A463846FBF79AFA21464FF4A87258A808
:10504000FBF794FA0A22714B8DF86421724A589347
:10505000704B7492714A609315AB76938292019B68
:105060006F4ACDF898817E93909205AB22460DF160
:10507000100858A928468DF89CA1CDF8A0818DF87C
:10508000D4918DF80C928493CDF830B28DF844927F
:105090009297CDF868B2FDF72BFD04460028AAD1FF
:1050A00005A800F09DF9421C054602D14FF0FF34DF
:1050B000A1E704225B493846FDF7E7FD431CF5D024
:1050C000012D28D0022D40D09DB9032811D8DFE84A
:1050D00000F0091D1D020120FFF7A7FA0122524B23
:1050E0001A7006E0504B1D784DB901201870FFF77B
:1050F0009CFAD8F800103069FFF7A6FC7BE7012D79
:1051000004D10020FFF791FA2846F0E70020FFF7CE
:105110008CFA0022E3E70328EBD8DFE800F009115E
:1051200011020020FFF76FFA01223F4B5A70E0E7AF
:105130003D4D687820B9FFF766FA01236B70D8E718
:105140000120FFF760FA0022EFE70328D1D8DFE85B
:1051500000F0091212020220FFF716FA0122324B68
:105160009A70C6E7304DAB782BB90220FFF70CFAE6
:105170000123AB70BDE70120FFF706FA0022EEE73E
:105180002A4C3846214606F073FD8346002851D14B
:1051900015AF014664223846FBF7E8F9E02259468C
:1051A00058A8FBF7E3F9194BCDF8988158930A23D7
:1051B0008DF86431194B0DF12408749309238DF88F
:1051C000D4311AAB78934B2379932DAB7A93052383
:1051D0005A4658A9284660948DF89CA1CDF8A08124
:1051E0008DF8D89177977B93FDF782FC04460028D1
:1051F0007FF401AF05463B6E9D42BFF47AAF57F88E
:105200002510306900F00CF90135F4E71C3F01600E
:10521000303F0160343F01603A3F01603F3F016031
:10522000453F016088080020BC1500204B3F01600D
:10523000243F01605749384606F01AFD834600288E
:105240003DD115AF014664223846FBF78FF9E022C5
:10525000594658A8FBF78AF94F4BCDF898815893D7
:105260000A238DF864314D4B0DF124087493092302
:105270008DF8D4311AAB78934B2379932DAB7A9375
:1052800005235A4658A9284660948DF89CA1CDF86C
:10529000A0818DF8D89177977B93FDF729FC044680
:1052A00000287FF4A8AE05463B6E9D42BFF421AFB7
:1052B00057F82510306900F0B3F80135F4E73849A4
:1052C000384606F0D5FC0446002859D1014609901D
:1052D000302258A8FBF74AF93248FEF787FC4146CE
:1052E000284606F0DBFF18B109AA2F4906F0FEFB9D
:1052F0002E49284606F0D2FF50B15AAA2C4906F092
:10530000F5FB012804D104225AA92A48FEF774FEAD
:105310002949284606F0C2FF80B15BAA274906F05A
:10532000E5FB01280AD100235BA88DF8813108F044
:10533000EDF915225BA92248FEF75EFE21492846B9
:1053400006F0ACFF50B161AA1F4906F0CFFB01285F
:1053500004D1042261A91D48FEF74EFE1C492846CF
:1053600006F09CFF50B115AA1A4906F0BFFB0128B0
:1053700004D1022215A91848FEF73EFE0999BAE6A3
:105380001649384606F074FC00287FF48FAE30468C
:10539000FFF7BAFD543F01601C3F01603F3F0160D1
:1053A000613F01606E3F01607C3F0160B038016089
:1053B000923F016008C00360BB380160A23F0160FA
:1053C0000CC00360C4380160DD3F016024C003608D
:1053D000D1380160F43F016028C003600C400160D7
:1053E00010220149FDF751BC98080020002330B578
:1053F0000A4A92F8F841A34202D34FF0FF3030BD81
:1054000002EBC3056D68854205D112F833508D4219
:1054100001D1184630BD0133EDE700BFC0150020B3
:10542000F0B505468DB008460F46FFF7D9FF431C7F
:10543000064624D001462846FFF7D8FF00281BDA8D
:10544000104C94F8F8213D2A19D804F8326004EB86
:10545000C2022B46556028210B4A009702A806F08D
:10546000D5FA02A8FEF7C2FB0A20FEF7E7FB94F884
:10547000F831013384F8F83101200DB0F0BD00207F
:10548000FBE700BFC01500201940016030B58BB0AC
:10549000042203A92648FEF769FD039B01332AD0A5
:1054A00004A915222348FEF761FD234904A806F04C
:1054B000DFFB90B9002332255A6852429A6062207D
:1054C00003F08EFF0446C0B94FF0A00383F31188A8
:1054D000BFF36F8FBFF34F8FFEE7184904A806F0A4
:1054E000C7FB28B900235A68312552429A60E6E783
:1054F0001348FEF77BFB0BB030BD05F0EFF8039AC5
:105500006221226149F64042A282FF222276642271
:10551000034620606260E1820A4A009504F11900A6
:1055200006F074FA2046FFF7C5F90748E1E700BF27
:1055300024C003600CC00360263E01602B3E016066
:105540002B40016038400160724001602DE9F04F4E
:105550008846002585B0234EDFF894A0039096F886
:10556000F8319D4202DB05B0BDE8F08F16F83590AA
:10557000039BEF00994533D11B4B53F82900FBF7F0
:10558000C1FB04465AF82800FBF7BCFB204400F19D
:10559000680B584603F024FF044608B305F09EF854
:1055A00037442060034678680F4A206149F640403E
:1055B000A082642020760F2060600020A0605AF84E
:1055C0002800A4F816B0019052F8292059460092FC
:1055D00004F11900054A06F019FA2046FFF76AF9A6
:1055E0000135BCE7C0150020980800207F4001600D
:1055F0008808002010B5044640B94FF0A00383F39B
:105600001188BFF36F8FBFF34F8FFEE704F00AF8E6
:10561000074A136D132B06D90648FEF7E7FABDE8D3
:10562000104004F021B842F8234001331365F6E737
:1056300048BB00200741016007B505F067F8FFF798
:10564000D9FFFEF771FCFEF79FFBFEF7C3FCFEF7E8
:10565000F5FFFEF729FEFFF779FB03F087FFFEF762
:10566000DBFA1048FEF7C2FA0F48FEF7BFFA0F4BFD
:1056700009201B68D968FCF7AEFE0D4A0621684672
:1056800006F0C4F9062800DC00BE002005F01EFA72
:105690004FF0A00383F31188BFF36F8FBFF34F8FD9
:1056A000FEE700BFED400160E63C01600400002021
:1056B000F6400160054B1A6D824204D9132802D8C6
:1056C00053F8200070470020704700BF48BB0020FF
:1056D0004FF0A00383F31188BFF36F8FBFF34F8F99
:1056E000FEE77047174A13B5D368174C23F4E063FD
:1056F0001B041B0C43F0BF6343F40033D36004234B
:10570000019400934FF4C87200231049104804F02C
:1057100081FE012808D04FF0A00383F31188BFF366
:105720006F8FBFF34F8FFEE72068FFF763FF04F032
:105730008BFF4FF0A00383F31188BFF36F8FBFF38C
:105740004F8FFEE700ED00E0BC170020E540016050
:105750003956006007B570B100230090074802AACF
:1057600042F8043D6946006804F0B6FB019B13B1A2
:105770000122034B1A6003B05DF804FBE41700201C
:10578000E0180020002330B50F4D85B02C68019043
:105790000E4801340291039201A96A460068009301
:1057A0002C6004F099FB40B94FF0A00383F31188FB
:1057B000BFF36F8FBFF34F8FFEE7009B13B1012242
:1057C000034B1A6005B030BD80C70020E0170020F1
:1057D000E0180020F0B52C4D2C4E87B0AF1F4FF0D5
:1057E000FF3203A9306804F0D9FB0128F7D1284B18
:1057F000284A196813680133C81A3AD1136003980C
:1058000000F072FF01282FD1234B1B789BB106A813
:1058100040F8185D0499FEF70FF9009B38465A1CB2
:1058200000920A221A700022009B1A70BDF8102004
:105830000399FEF761F90521049800F06FF9044619
:1058400090B10399049A806906F006F8049B05213B
:10585000E361012301A88DF80430029400F0B0FE4A
:1058600010B9204600F036F90021039800F086FCBC
:10587000B5E7094B11601B78002BC0D0FEF7CCF9BF
:105880000648FEF7B3F9BAE7AE080020E01700209B
:1058900080C70020D8170020C01700201B410160DE
:1058A00007B5094D094C4FF0FF3201A9286804F0F3
:1058B00075FB0128F7D1019810B100F00BF9F2E760
:1058C0002046FEF793F9EEE7E41700202741016038
:1058D0000128054B02D1187018787047022804BFC0
:1058E00000221A70F8E700BFC0170020002307B598
:1058F00002A901F8013D0DF106008DF8063000F017
:1059000059F9431E5842584103B05DF804FB0000AA
:1059100010B58EB003A800F0BDF900240A2303A837
:1059200003938DF8164000F035FA2D4800F058FD2D
:1059300021462C4800F022FC21462B482B4C00F03D
:105940001DFC2B4800F046FD226872B90421072097
:1059500004F0B8F9206040B94FF0A00383F3118838
:10596000BFF36F8FBFF34F8FFEE7224C2368A3B9BD
:1059700009220194009220496422204804F04AFD43
:10598000206840B94FF0A00383F31188BFF36F8FF5
:10599000BFF34F8FFEE7FFF72DFE00220C210320FF
:1059A00004F090F9164C174B18602368A3B909222C
:1059B0000194009214496422144804F02BFD2068DD
:1059C00040B94FF0A00383F31188BFF36F8FBFF38B
:1059D0004F8FFEE7FFF70EFEFFF788FF0EB010BDFA
:1059E000855700609CBB002090C10020E417002078
:1059F00055570060E817002033410160A15800604E
:105A0000DC170020E01700203B410160D557006003
:105A100070B5C4698569002914BF02460022214679
:105A2000284600F0F9FB084B06461B7853B1074A9D
:105A300014212346064805F0E9FFA2B2294604488E
:105A4000FEF75AF8304670BDC01700204341016090
:105A5000C11700202DE9F041174C256826462DBBC3
:105A60000621084604F052F9206040B94FF0A00327
:105A700083F31188BFF36F8FBFF34F8FFEE70F489B
:105A800004F014F80E4CDFF8348004F1D807A56157
:105A9000204604F016F8E46021464046243404F021
:105AA0001FF8BC42F3D10622064B1A603068003062
:105AB00018BF0120BDE8F081DC180020F01700209D
:105AC00004180020EC17002010B10C3803F016BDAC
:105AD0007047000070B505468069FFF7F5FF0023A9
