:0200000460009A
:1000000000000120910100607F0300608103006017
:100010008303006085030060870300600000000028
:10002000000000000000000000000000B19500602A
:100030008B03006000000000419600608596006020
:1000400091030060C92E0060950300609703006073
:10005000691D00609B0300609D0300604D1D0060F2
:10006000A1030060A3030060E91F0060CD1F0060D2
:1000700019610060AB030060AD030060AF03006076
:10008000B1030060B3030060B5030060591E006057
:10009000B9030060BB030060BD030060BF030060E4
:1000A000C1030060C3030060C5030060C7030060B4
:1000B000C9030060CB030060CD030060CF03006084
:1000C000D1030060D3030060D5030060D703006054
:1000D000D9030060DB030060DD030060DF03006024
:1000E000E1030060E3030060E5030060E7030060F4
:1000F000E9030060EB030060ED030060EF030060C4
:10010000F1030060F3030060F5030060F703006093
:10011000DD2C0060752C00600D2C0060FF0300607A
:10012000010400600304006005040060070400602F
:10013000090400600B0400600D0400600F040060FF
:1001400011040060130400601504006017040060CF
:10015000190400601B0400601D0400601F0400609F
:10016000210400602304006025040060270400606F
:10017000290400602B0400602D0400602F0400603F
:100180003104006033040060000000000000000043
:100190004FF0000BDFF8BE020068DFF8B612096806
:1001A00001F0030100F01C00142801D14BF0020BF8
:1001B000002901D04BF0010BBBF1000F05D0A7487F
:1001C000A749DFF8722200F09FF8A64880470BF09D
:1001D000020ABAF1000F0CD0DFF86E02DFF86E12DF
:1001E00002680B680FB44FF000024FF0FF0302608B
:1001F0000B609D484FF000024FF00103022808D128
:10020000DFF83A120A60DFF83E120A60DFF83212B5
:100210000B60012808D1DFF82A120A60DFF82612E5
:100220000A60DFF81A120B609048002809D1904844
:100230009049914A00F030F890489149914A00F075
:100240002BF891489149924A00F026F8914892493A
:10025000DFF8E22100F058F8BBF1000F10D08F4812
:100260008F49DFF8D62100F04FF80BF0020ABAF1FF
:10027000000F05D00FBC02600B6000BFAFF3008021
:10028000DFF820020FF2030E00474FF000004FF09E
:100290000001DFF814F2FEE72DE9F841884225D08D
:1002A000B2EB010200D5FEE740EA010313F00303BD
:1002B00002D000F01DF819E04FF000039046121133
:1002C000F7D09A421CBFF0C8F0C103F10103F8D186
:1002D00008F00F08B8F1000F08D004780C7000F196
:1002E000010001F10101B8F10108F6D1BDE8F88182
:1002F00008B54FF0000303780B7000F1010001F125
:100300000101013AF7D108BD884237D000F0030659
:10031000002E14D04FF00405A5EB06044FF008079B
:1003200007FB06F8914669FA08F9002C07D080F817
:10033000009069FA07F900F10100013CF5E74FF080
:1003400000060F46091A88460911914614461546BB
:10035000B14206D018BFA0E8340206F10106B1424E
:10036000F8D108F00F08B8F1000F07D002704FEA7B
:10037000322200F10100B8F10108F4E77047FEE70E
:10038000FEE7FEE7FEE7FEE7FEE7FEE7FEE7FEE745
:10039000FEE7FEE7FEE7FEE7FEE7FEE7FEE7FEE735
:1003A000FEE7FEE7FEE7FEE7FEE7FEE7FEE7FEE725
:1003B000FEE7FEE7FEE7FEE7FEE7FEE7FEE7FEE715
:1003C000FEE7FEE7FEE7FEE7FEE7FEE7FEE7FEE705
:1003D000FEE7FEE7FEE7FEE7FEE7FEE7FEE7FEE7F5
:1003E000FEE7FEE7FEE7FEE7FEE7FEE7FEE7FEE7E5
:1003F000FEE7FEE7FEE7FEE7FEE7FEE7FEE7FEE7D5
:10040000FEE7FEE7FEE7FEE7FEE7FEE7FEE7FEE7C4
:10041000FEE7FEE7FEE7FEE7FEE7FEE7FEE7FEE7B4
:10042000FEE7FEE7FEE7FEE7FEE7FEE7FEE7FEE7A4
:10043000FEE7FEE7704700000000A2A2A2A2008033
:100440000340088003401080034030800340348024
:1004500003403880034018080240000080FF00205D
:10046000000001206D1C0060000000000000000082
:10047000000000600000006090010060B0040060B7
:10048000B0040060F84501600046016000000020F3
:10049000400A0020400A002060C7002060C70020FA
:1004A00080FF00201D050060415500600000000035
:1004B00010B5054C237833B9044B13B10448AFF39E
:1004C00000800123237010BD400A002000000000BE
:1004D000C04501600C4B43B10C4810B50C49AFF35B
:1004E00000800C48036823B910BD0A48036833B97B
:1004F0007047094B002BF7D0BDE810401847064B5A
:10050000002BF5D0184700BF00000000C045016077
:10051000440A0020000000200000000070B50F4ECB
:100520000F4D761BB61018BF002405D0013455F8C6
:10053000043B9847A642F9D10A4E0B4D14F040F8FF
:10054000761BB61018BF002406D0013455F8043BC2
:100550009847A642F9D170BD70BD00BFD845016073
:10056000D8450160E0450160D845016070B4860758
:1005700046D0541E002A41D0CAB2034602E014F10C
:10058000FF343BD303F8012B9D07F8D1032C2ED960
:10059000CDB245EA05250F2C45EA054519D9264671
:1005A00003F11002103E0F2E42F8105C42F80C5C72
:1005B00042F8085C42F8045C02F11002F2D8A4F19F
:1005C000100222F00F0204F00F041032032C134427
:1005D0000DD91E462246043A032A46F8045BFAD88F
:1005E000221F22F003020432134404F003042CB14E
:1005F000C9B21C4403F8011B9C42FBD170BC70477C
:1006000014460346C2E700BF024B13B1024800F094
:1006100005B870470000000029060060002301466D
:100620001A46184600F01EB838B50A4C0A4D641B2D
:10063000A4100AD004F18043013B05EB8305013C83
:1006400055F804399847002CF9D1BDE8384013F02B
:10065000BDBF00BFE4450160E0450160704700BFD9
:10066000704700BF2DE9F8432C4D06462868984690
:100670000F469146FFF7F2FF294B1C68D4F848312A
:10068000002B3ED05A681F2A1CDC02F1010E76B105
:10069000012103EB8204C4F88890D3F888019140CB
:1006A0000843022EC3F88801C4F8088123D002321F
:1006B000C3F804E0286843F82270FFF7D1FF002058
:1006C000BDE8F883174B0BB34FF4C870AFF300804D
:1006D0000346D8B10020D4F848114FF0010E5860FD
:1006E00019600246C4F84831C3F88801C3F88C0188
:1006F000002EDCD0CCE7D3F88C010143C3F88C1179
:10070000D5E704F5A673C4F84831BBE72868FFF7BE
:10071000A7FF4FF0FF30BDE8F88300BF3004002092
:100720009C320160000000000E4A10B51368ABB1A6
:1007300069461844884209D80B490C4C0968A14203
:1007400001D0884202D81060184610BD00F012F89F
:100750000C224FF0FF330260184610BD04490B46CF
:100760001160E5E75C0A002034040020ADDEFECA1B
:1007700060C70020014B1868704700BF04000020CC
:100780002DE9F04F01F10B06162E83B0054640F21D
:100790009E8036F0070600F1BD80B14200F2BA80BB
:1007A00000F090FAB6F5FC7FC0F08582730A00F085
:1007B000B880042B00F26C81B30903F1390003F116
:1007C000380EC100B84F39444C680839A14206D1EF
:1007D0000CE0002A80F2AB80E468A14206D0636896
:1007E00023F003039A1B0F2AF3DD70463C69DFF800
:1007F000CCE2744500F09E81636823F003039A1BEA
:100800000F2A00F38381002AC7F814E0C7F810E02C
:1008100080F29180B3F5007F80F054810122DB08E3
:1008200079684FEAA30C134457F8338002FA0CF2AC
:1008300007EBC30C0A43ACF10801E160C4F808807F
:100840007A6047F83340C8F80C40012483109C407C
:1008500094427DD8144206D120F003006400144273
:1008600000F10400FAD007EBC009CC468046DCF862
:100870000C309C4507D15FE1002A80F26D81DB6876
:100880009C4500F05981596821F003018A1B0F2A09
:10089000F2DDDC68D3F808C046F0010828461E44A3
:1008A00042F00105C3F80480CCF80C40C4F808C03D
:1008B0007E613E61C6F80CE0C6F808E075605A50EB
:1008C000009300F005FA009B03F108041EE01029D4
:1008D00020D800F0F7F9102618230220724F3B446D
:1008E0005C68A3F10802944200F02F816368E1681C
:1008F00023F0030323445A68A66842F00102F16022
:1009000028468E605A6000F0E3F90834204603B0B0
:10091000BDE8F08F00240C2320462B6003B0BDE817
:10092000F08F40204FF400714FF03F0E4AE7234410
:100930005A68E168E0E723445A68284642F0010219
:100940005A60083400F0C4F9204603B0BDE8F08FC7
:10095000BC68636823F00308B04504D3A8EB060322
:100960000F2B00F38580DFF85891504BD9F8002009
:100970001B680132334404EB080A00F0548103F58C
:1009800080530F3323F47F6B2BF00F0B594628460F
:1009900000F0A4F9411C024600F0FB80824500F201
:1009A000F680434B19685944196000F04C81D9F81E
:1009B000000001301BBFA2EB0A0A5144C9F8002015
:1009C000196012F0070100F01481C1F10800C1F5AF
:1009D00080510244083102EB0B09C9F30B09A1EB6A
:1009E0000909494628460193009200F077F9431C13
:1009F0009DE80C0000F04281801A484440F001005C
:100A00001968BC424944BA601960506017D0B8F107
:100A10000F0F40F2FA804FF0050C6268A8F10C004D
:100A200020F0070002F0010204EB000E02430F2841
:100A30006260CEF804C0CEF808C000F216811D4BEB
:100A4000BC681A68914288BF19601B4B1A689142B2
:100A5000626888BF196022F003029642A2EB060387
:100A600001D80F2B04DC284600F032F900244DE7B2
:100A700046F0010243F00103264462602846BE604E
:100A80000834736000F024F9204603B0BDE8F08F0D
:100A9000142B70D9542B00F2A280330B03F16F009A
:100AA00003F16E0EC1008DE638040020900A00208C
:100AB000600A0020880A00208C0A002040040020E0
:100AC000400800205A0A042A5BD9142A00F2AE809A
:100AD00002F15C01C9005B3207EB010C7958ACF103
:100AE000080C8C4500F088804A6822F0030293428B
:100AF00073D289688C45F7D1DCF80C307A68E360F2
:100B0000C4F808C09C60CCF80C409EE646F0010C8E
:100B100042F001012644C4F804C028467E613E61CB
:100B2000C6F80CE0C6F808E07160E25000F0D0F8BA
:100B30000834EBE67A6888E608F1010818F0030F3C
:100B40000CF1080C7FF493AE2DE0DC68A34208BFE3
:100B500002303FF44BAEC9E61C4619444A68DB68D4
:100B600054F8086F42F001024A602846F3609E6024
:100B700000F0AEF8CAE603F15C0003F15B0EC100C1
:100B800020E69A0902F13901C9003832A4E7BC42D3
:100B900054D0BC68626822F003025EE759F8083955
:100BA000994540F0868010F0030F00F1FF30F5D139
:100BB0007B6823EA04037B6064009C423FF6C8AE76
:100BC000002C3FF4C5AE1C4240467FF44CAE64009E
:100BD0001C4200F10400FAD045E68C468CE7B3F5E0
:100BE000AA7F15D8F30B03F1780003F1770EC1004B
:100BF000E8E54FF48051EEE601217B68921001FA9E
:100C000002F21A437A60634679E7012353602AE7C8
:100C100040F25452934222D8B30C03F17D0003F109
:100C20007C0EC100CEE503F1100BAFE6542A29D8A3
:100C30001A0B02F16F01C9006E324DE7204B1968A3
:100C400059441960B3E6CAF30B0000287FF4AFAE35
:100C500008EB0B03BA6843F001035360EFE67F2013
:100C60004FF47E714FF07E0EACE504F1080128468A
:100C7000009300F0C5F8009B1968E0E601204FF0F2
:100C80000009BDE6B2F5AA7F05D8DA0B02F17801BA
:100C9000C900773220E740F254518A4205D89A0CB5
:100CA00002F17D01C9007C3216E74FF47E717E228D
:100CB00012E77B6880E7F00806F108030EE600BF44
:100CC000600A00200148FFF7C9BC00BF2CBB002010
:100CD0000148FFF7C5BC00BF2CBB002038B500237E
:100CE000064C054608462360FFF71EFD431C00D056
:100CF00038BD2368002BFBD02B6038BD40BB0020E3
:100D00000020704720F0030110F00300C0F1000044
:100D100051F8043B00F1040C4FEACC0C6FF00002D8
:100D20001CBF22FA0CF213434FF0010C4CEA0C2CBE
:100D30004CEA0C4CA3EB0C0222EA030212EACC129E
:100D400004BF51F8043B0430F4D0C2F1000102EAC0
:100D50000102B2FA82F2C2F11F0200EBD200704728
:100D6000F8B50C46234F0646FFF7ACFFBB68C4F549
:100D70007E615D680F3125F00305294421F47F6110
:100D800021F00F01A1F58054B4F5805F07DB00214D
:100D90003046FFF7A3FFBB682B44984204D030468F
:100DA000FFF796FF0020F8BD61423046FFF796FF3F
:100DB00001300DD0104BBA6819682D1B45F00105A4
:100DC0003046091B55601960FFF782FF0120F8BD0E
:100DD00000213046FFF782FFBA68831A0F2BDEDD51
:100DE000064C0549246843F00103001B536008606A
:100DF000D5E700BF38040020600A0020400800202A
:100E0000002944D02DE9F0410D468046FFF75AFFF6
:100E100055F8047C6949A5F1080427F00103E2189C
:100E20008E685068B24220F003005ED0FE0750602A
:100E30000BD455F8087C01F1080EE41BA5683B446F
:100E400075456DD0E768EF60BD6015186D68ED07FA
:100E50003ED543F001026260E350B3F5007F17D244
:100E60000122DB0898104D68134451F8337082401A
:100E700001EBC3002A430838E060A7604A6041F8EC
:100E80003340FC604046BDE8F041FFF721BF7047AA
:100E90005A0A042A52D89A0902F13907FF0002F1CE
:100EA0003805C819CA59083890424FD0516821F006
:100EB00003018B4232D292689042F7D1C368A0609E
:100EC000E3609C60C4604046BDE8F041FFF700BFAE
:100ED00095683B4F0344BD4240D0D06843F00102C7
:100EE000E86085606260E350B7E7FF07034407D41A
:100EF00055F8085C641BE268A0682B44C2609060EF
:100F0000304A43F001001268606093428C60B9D3AC
:100F10002D4B40461968FFF723FFB3E71046CDE796
:100F200011184968C90744D491680344D26843F052
:100F30000100CA6091606060E350A3E7142A16D8EC
:100F400002F15C07FF0002F15B05AAE70123AA108A
:100F50004D6893402B434B600346B0E743F00102DA
:100F60004C610C61E560A5606260E3508AE7542A39
:100F700006D81A0B02F16F07FF0002F16E0590E729
:100F8000B2F5AA7F06D8DA0B02F17807FF0002F16A
:100F9000770586E740F25450824206D89A0C02F157
:100FA0007D07FF0002F17C057BE74FF47E777E250D
:100FB00077E743F001016160136063E738040020C4
:100FC0004004002044080020900A002011B10B7852
:100FD000082B15D00379062B18D8DFE803F004049A
:100FE000080C0E0E0800806800EB820070478068D5
:100FF00000EBC200704780687047806810447047FB
:10100000CB68806803FB02008A68F7E7002070471E
:1010100090F8683013B1012283699A60704700002C
:10102000AC4B37B59842044603D0AB4B984200D046
:1010300000BE626913798DF807309DF80730DBB286
:10104000682B67D05AD8302B00F024812FD8182B6A
:101050001FD019D8082B00F0C580102B00F0C280DB
:101060000023A26953612372E36494F83C30012B9E
:1010700004BF022384F83C3094F85C30012B12D179
:10108000022384F85C300EE0202B00F00381282B33
:10109000E6D1A36A616A8B4280F0C380216A581C42
:1010A000A062CB5C13720022A369DA60D4E0482B03
:1010B00000F0F0800CD8382BA26900F0AF80402BF4
:1010C000CED1636B012B40F2DB8001239360EAE712
:1010D000582B00F0EB80602B1FD0502BC0D1A36B9E
:1010E000216B581CA063127ACA54636BA26B013B3C
:1010F0009A42D8D30022A3699A60D4E7A02B00F0CB
:101100000F812DD8802B00F0F98015D8702B04D0DA
:10111000782BA5D1012384F8713004232372002396
:10112000A169A3654869E360012210B14B6184F8AD
:10113000712084F85C20B6E7902B00F0DF80982BBC
:1011400001D0882B8CD101220021A3699A602172E1
:1011500084F85C1094F871100029A4D05A61A2E7B9
:10116000B82B05D029D8A82B02D0B02B7FF478AFAC
:101170009DF80730A82B0CD10523237201230020F2
:10118000A16984F85C304D69E06015B1486184F86C
:101190007130E36CA16C8B422FBFFF235D1C606C30
:1011A000E56438BFC35C1372E36C99423FF67BAFD2
:1011B0000023A2699360E36475E7C82B05D0D82BA0
:1011C00000F0DB80C02B7FF44BAF00210122A3692C
:1011D000E1649A6084F85C1094F87110002900F0C2
:1011E000C480C1E00021A069237941611372E36AE0
:1011F000C0F8003173B9A36294F8713013B10023C1
:1012000084F8713094F87230227A9A423FF44BAFEE
:10121000237248E7012B08BFA163EDE70123536167
:1012200041E7237A032B03D10123A269E362F6E7A6
:101230000023227C237202F0010284F870208AB914
:101240000121A36920461961FFF7E2FE002284F81C
:101250003C2000297FF427AF63691B798DF80730A4
:1012600003B030BD012094F91120510902F01F0292
:1012700000FA02F21948203140F821201946E5E72A
:1012800001D1002322E7012393601361002384F836
:101290003C30BDE70122A3691A61022384F83C3087
:1012A000002323722046FFF7B3FEFCE6117AA36BFE
:1012B000226BD154237C03F0010384F870307BB996
:1012C0000121A36920461961FFF7A2FE00222272C4
:1012D000BDE700BF201900209419002000E100E0C4
:1012E000012194F911305A0903F01F0301FA03F3A5
:1012F0002749203241F822300021E7E7206D60B114
:10130000A16D636D994208D2137A4A1CDBB2A265C3
:101310004354E26803EB0223E360A26D636DE7E6EA
:10132000237A042B23D1236EA26D9A4204BFE36873
:10133000E364636E3BB192B2216D2046984730B9A9
:101340002046FFF765FE0122A3699A6004E00023AE
:10135000A269936084F86830002384F85C3094F8C4
:10136000713013B10122A3695A61002350E70023B1
:101370002046E364FFF74CFEEEE700232372E364AC
:1013800094F85C30012B04BF022384F85C3089E7B9
:1013900000E100E00C4B13B51A6822F004021A6059
:1013A0005A6802F0010201920022019C0CB18A42AB
:1013B00002D1104602B010BD845C01321C615C6831
:1013C00004F001040194F0E70060014010B5054C01
:1013D000014623682BB1002098470023024A23606E
:1013E000137010BD980A0020AC0A002008B5084B05
:1013F0001B7863B1074B188880B2FFF7E7FF064BF5
:101400001A6842F001021A601A68D207FCD408BDBB
:10141000AC0A0020A80A002000600140054B8900AA
:1014200003EA401300F07040184301F10071405886
:10143000C0B27047E0FFFF0110B504460068037AB0
:1014400003F00F030C2B0BD8DFE803F0070B0C1293
:101450000E0A100A0A0A0A0A0E00A36A002B3FD1DC
:1014600000BE10BD636AF9E7236AF7E7E369F5E7B1
:1014700000212830FFF7D2FF10B1E36A23BB00BE82
:10148000206801212830FFF7C9FF10B1236BF3B9A1
:1014900000BE206802212830FFF7C0FF10B1636B47
:1014A000C3B900BE206803212830FFF7B7FF10B191
:1014B000A36B93B900BE206804212830FFF7AEFF6C
:1014C0000028CED0E36BC9E720469847D8E72046EE
:1014D0009847DEE720469847E4E720469847EAE742
:1014E0002046BDE8104018471B4BF0B4984203D08B
:1014F0001A4A904200D000BE066906B900BE426991
:1015000002B900BE984202D0144B984222D10EB3C9
:1015100002B30468417B237DDBB219439B06417310
:1015200009D483699A4215D1002301214361201D0A
:10153000F0BC03F0A9BB83690025D31A102B28BF88
:1015400010239D42EDD081690135775C0131277010
:101550008161F6E7F0BC7047081A0020481A0020A5
:101560002DE9F04F97B0DDF8808005460791049291
:101570000693B8F1000F02D00023C8F8003000270E
:10158000079B03F1200656F8203CA6F12004BBB9C6
:1015900099461E469C4F0593039395F90030002B06
:1015A00000F0CB82082E00F24383DFE816F05D00E6
:1015B00071009000C700D201EF012F023500B80280
:1015C000337C8BB9069A04992046FFF7FFFC58B18B
:1015D00016F81C3C062B07D8DFE803F00404080DBE
:1015E000181B0800236A03603836CCE733680360B1
:1015F00073684360F8E7049B33B11B78082B03D072
:10160000069B002B00F305830770EDE7337803702A
:10161000EAE796F90030FAE7DFF8F0B1059B94F8B5
:1016200004A0002B00F01882BAF1030F40F01082E2
:101630002379033BDBB2082B00F2008340F28D12CA
:1016400022FA03F3D80740F1F982D4F82CA0BAF1BA
:10165000000F00F04D82DFF8B4B1DAF80000002886
:1016600040F0378212203FE00AF07AF895F9002026
:10167000D3B218444378190700F1DA827B2A00F0CC
:10168000C082B8F1000F01D0C8F8005001202BE053
:101690000AF066F895F90030DAB210444278120781
:1016A00000F1C682222B08D1B8F1000F01D0C8F892
:1016B00000500EAB03930226BAE27D2B00F0B882F5
:1016C000B8F1000F01D0C8F8005002200CE0039AD6
:1016D000002A00F09C82222B25D10023079C561C57
:1016E0001370206818B9032017B0BDE8F08F0EA959
:1016F0000AF0D4F9002800F090823834F1E70A2B80
:1017000004D1206AFFF7FEFA81468DE2062B07D04E
:101710000B2B05D0E36A002B18BF4FF4007983E24E
:101720004FF4007980E203990DF15602914280F066
:101730006A820B700B460133039379E20AF010F8CA
:1017400095F90030DAB21044427812F0080240F005
:101750006F823A2B00F06C825B2B217940F0E280A3
:10176000092906D0B8F1000F01D0C8F800500520B3
:10177000BAE7099509F0F4FF099B93F90010CAB282
:101780001044427815071AD45B2940F03E82013399
:10179000D4F810A0099309F0E3FF099B93F9001016
:1017A000CAB21044457815F008050BD15D292E46C4
:1017B00000F0B280E3699E4207DB0C2094E701331E
:1017C0000993D7E701330993E5E700230C93237AC4
:1017D0000B2B35D8DFE803F0606F7706819C34541B
:1017E000549C9C9C09F0BCFF099B1A7810444278D9
:1017F000100744BF01330993099B93F90020222A63
:1018000006D00F2070E700BFB00A0020B40A002005
:1018100001330993E36843F805A023696269AAEBE1
:1018200003039342EDDA099B93F90020222A1ED18B
:10183000013309934FF000030AF1010A0AF8013C51
:1018400009F08EFF099B01361A781044427811077F
:1018500044BF01330993099B93F900205D2A5BD0B3
:101860002C2A05F1040555D101330993A2E7002A7A
:10187000C7D05A1C099293F900300AF8013BCCE713
:1018800009AB009304F108023346E1680998FFF7B9
:1018900067FE0028D4D027E700220CA90998D4F8C5
:1018A0000CB00BF081FA4BF805000C9B099A93429F
:1018B00020D1152018E700220CA90998D4F80CB003
:1018C0000BF03EFBEFE7E3680CA9099803EBC60BAE
:1018D0000BF0B2F9CBE90001E7E7DDF824B0042210
:1018E000A44958460EF0F4FD30B90121E2680BF12D
:1018F000040391550993A3E705229F4958460EF02A
:10190000E7FD00289CD1E2680BF105039055F1E753
:101910000E20E9E60D20E7E6A36903B11E60099DEC
:10192000082685E1092906D1B8F1000F01D0C8F8D1
:1019300000500620D8E6222B904904D101233960BB
:101940000593042674E1481C38600B700592062646
:101950006EE13A68002A00F05A815C2B00F04F815A
:10196000222B05D1531C3B600023137007265FE137
:10197000824901F2FF10824201D90720B4E64944AE
:101980008A42FAD8511C3960137051E13A68002A32
:1019900000F03D816E2B1AD008DC622B02F10101B0
:1019A0000ED0662B10D0511C39600BE0742B12D076
:1019B000752B14D0722BF6D1531C3B600D2301E024
:1019C000082339601370BCE739600C23FAE7531C15
:1019D0003B600A23F6E7531C3B600923F2E72A46E3
:1019E00000230AA815F9131029B112F9011BC154DB
:1019F0000133042BF6D1551E614908AA0FF0A4FE4D
:101A00003B685A1C3A60089A1A709AE73B68002BA8
:101A100000F0FD8009F0A4FE95F90030DAB2104420
:101A20004278120703D42C2B01D07D2B0AD100223F
:101A30003B681A7095F900307D2B01D02C2B95D185
:101A4000013D93E73A684F498A429BD908204BE60B
:101A5000BAF1060F3FF4ECAD464958460AF01EF8BD
:101A600020B1454958460AF019F818B9BAF1040FDF
:101A700000F0E08009F074FE9BF8003018444378D1
:101A80005B071CD52E2158460FF0ACFEA0B1BAF171
:101A9000020F14D1059B002B7FF4CAAD22790A2ACC
:101AA00005D84FF48963D340D90700F1CB80E36AAE
:101AB000002B3FF4CAADC5E0BAF1010FEAD9A06B23
:101AC0000028E7D00EA909F0E9FF0028E2D1383458
:101AD000A4E5594609F0E2FF10B10AF1080ABCE595
:101AE000DAF80430284A40F20121244809F066FF60
:101AF000069A04992046FFF769FA824678B123795D
:101B00000A2B0CD8DFE803F006062942555F0B0BC1
:101B10000B0B6C00194809F00DFECAF8000009F023
:101B20001FFE95F90030DAB21044427812077FD4D4
:101B30002C2B66D07D2B5BD101352C4609F010FE95
:101B4000237801351844407810F00800F5D1B8F139
:101B5000000F60D0C8F80040C6E5084809F0E6FD6F
:101B600016AB63E90A0103CBCAF80000CAF80410F7
:101B7000D5E700BF2033016025330160B40A00209F
:101B80002B330160B30C002030330160049B2BB178
:101B90001B78082B02D0069B002B3ADCDFF8ACB098
:101BA000A26A594650460FF091FE00238BF800328E
:101BB000B5E72549254809F071FFB0FA80F04009E2
:101BC0008AF80000ABE7DFF884B05846FFF79AF8D0
:101BD00001283FF6D2AE9BF900308AF800309EE72C
:101BE0001A49206A09F05AFF002898D010207BE596
:101BF000B8F1000F01D0C8F80050092074E505269F
:101C000016E0012614E004206EE50A206CE516209B
:101C10006AE5112068E5404666E52379032B7FF4E9
:101C20006EADA36A03F1FF3903960326074B3B60B1
:101C30000135B2E4059B002B3FF430AFE36A002B83
:101C40007FF403AD13204FE520330160B40A002078
:101C5000034B1860034B1860034B1860704700BFBC
:101C60009C080020A0080020A40800204FF60202D3
:101C70000C4BD3F84C11914206D00B4A536943F4F4
:101C800000735361FEF7D6BBD3F8982042F48072FC
:101C9000C3F89820D3F8982022F08062C3F89820E7
:101CA000EBE700BF0080034000ED00E01F2810B507
:101CB00001D900BE10BD0122064C8240D4F8883004
:101CC00001F0010123EA020301FA00F01843C4F80D
:101CD000880010BD003001401F2801D900BE7047A8
:101CE000024B53F820301960704700BFA0320160EA
:101CF0000122430900F01F0002FA00F0024A60339B
:101D000042F82300704700BF00E100E001234209D0
:101D100000F01F0003FA00F0014B43F82200704767
:101D200000E100E01F2801D900BE7047054B53F8C1
:101D30002020136843F008031360034B1856FFF785
:101D4000E5BF00BFA032016001340160684620F0A9
:101D500007018D4601B50348FFF762F9BDE8014070
:101D60008546704794190020684620F007018D468B
:101D700001B50348FFF754F9BDE8014085467047B7
:101D800020190020094B82B053F82030D3F82021CD
:101D90000192019AD107F9D5D3F820210192019A35
:101DA000D207F9D5019802B0704700BFE840016042
:101DB0000A4B1A78D00706D50020094922F0010203
:101DC000C1F8FC011A701A78910706D50020054960
:101DD00022F00202C1F8FC011A707047AB0A002021
:101DE0000000086000000C600F4B82B01A680F4BB7
:101DF000120953F8201001230192C1F8FC31D1F8E7
:101E0000FC21052A07D0019A013A0192019A002A81
:101E1000F3D1052005E0064A8340107803430020F3
:101E2000137002B0704700BF9C080020E8400160BA
:101E3000AB0A0020074A10B5536813F0010303D022
:101E400000BE0020002110BD1846146A526A2043CB
:101E5000114610BD00700140F8B5544B5C689A689B
:101E6000E4B21440A50729D5514D1B692A78052AEB
:101E70004BD8DFE802F023232303174518041DD5B0
:101E80004C4ADBB21278934218D100214A4A1180A1
:101E9000118889B20B70138801339BB2138004231D
:101EA0002B700BE0190409D4434B1A881E88B6B274
:101EB00026B9188880B2FFF789FA2E70E30730D56B
:101EC0003B4C23782546022B2CD0052B48D0012BE8
:101ED00062D13A4D2B889BB2002B3CD0384F2988D9
:101EE0003E6889B23046FFF755FA2B889BB298427C
:101EF00010D22B8806441B1A9BB22B803E60F8BD83
:101F00001A04DBD400235B70FFDE0020FFF75EFACB
:101F10000023C5E700232B802A4B1B68CBB102238B
:101F20002370F8BD274D2B68ABB1274E2968306868
:101F3000FFF730FA2B68984206D22B681B1A2B60E9
:101F4000336803443360F8BD184A936823F00103F3
:101F500093600323E4E700BEBDE8F840FFF746BA0C
:101F6000184C236813B900BEFFF740FA23683BB949
:101F70000E4A936823F00103936003232B70F8BD8E
:101F8000114D21682868FFF705FA22682B68121A9C
:101F9000034422602B60F8BD044A0020936823F0BC
:101FA00001039360FFF712FA0023B9E700600140D4
:101FB000AA0A0020940A0020A80A0020960A0020FD
:101FC000A00A00209C0A0020A40A0020684620F0F5
:101FD00007018D4601B50348FFF72EFABDE8014021
:101FE00085467047481A0020684620F007018D4654
:101FF00001B50948FFF720FA084B1B683BB14FF0C9
:102000008052074B1A60BFF34F8FBFF36F8FBDE84D
:1020100001408546704700BF081A00202C0F0020A1
:1020200004ED00E070474FF0A00383F31188BFF385
:102030006F8FBFF34F8FFEE72DE9F04F88461746AD
:10204000002585B0284EDFF8A890DFF8A8A0029000
:1020500096F8F8319D4202DB05B0BDE8F08FEB0049
:10206000039316F835B0029B9B453BD159F82B00E2
:10207000FEF748FE04465AF82800FEF743FE2118F2
:102080006831B1F5B86F08D34FF0A00383F311881E
:10209000BFF36F8FBFF34F8FFEE70846039107F042
:1020A00077F90446F0B1EB00076033445A680399AE
:1020B000026149F640428282642202763222426004
:1020C000A7F13202826059F82B305AF82820C182D9
:1020D00001920093054A3B46193009F06FFC2046F7
:1020E00000F008FD0135B3E7180D00209B330160B7
:1020F000580800204808002010B5044608B903F02D
:10210000E9F907F067FA084A136D132B06D9074857
:1021100002F052FEBDE8104007F07EBA42F82340BC
:1021200001331365F6E700BFBC0C0020A434016046
:1021300080B598B008F0C2FAFFF7DEFF0222C14B6B
:102140001A601A6812F00102FBD1082102201960FE
:10215000BD49C1F88000C1F880014FF48071BB48CF
:102160001960D0F8881041F00101C0F888105A6059
:10217000DA601A615A619A6110221A60B14B1C68C8
:1021800014F02004FBD1202201260227DFF8B892A8
:102190009A60AF4A1E60C9F800701369AD4D43F0F4
:1021A00004031361AC4B324600932B681B21AB48F0
:1021B00009F048F92860AA4DDFF8F082284602F0BD
:1021C00055FF28680321303002F05EFD286839464B
:1021D000343002F059FD28682146383002F054FDB1
:1021E0003046C5F8248007F03DFE9E4B2C611860F8
:1021F0009D4B95F904006B626C61FFF779FD2868CF
:102200003146043002F082FD95F90400FFF77EFDAF
:1022100031462246192007F02DFD944B1860A0236B
:1022200089F80A33924B2A682B62137A95F90400D5
:1022300003F03F031372FFF75BFD2868214604306B
:1022400002F064FD95F90400FFF760FD0623894D57
:102250004FF4FA728849019500938848234608F0A4
:10226000B1F82868FFF748FF854D864802F0A4FDC5
:10227000854802F0A1FD284602F0F8FE28680321F7
:10228000303002F001FD28683946343002F0FCFCA1
:1022900028682146383002F0F7FC3046C5F8248023
:1022A00007F0E0FD0C2007F073F805460460446079
:1022B0000472304607F0D6FD2860002800F0BC808C
:1022C0000421084607F0FAFC6860002800F0B1809D
:1022D00004232B726D4B02221D6011AD29466C4800
:1022E00000F0A2FDBDF84430012B00F00B81C0F0DE
:1022F000E180022B00F00F814FF6FF72934200F055
:10230000DD800127634802F057FD504BDFF8A081C4
:102310009A6C4D4E42F480129A649A6C42F0F072BC
:102320009A6414F908000134430900F01F0207FA07
:1023300002F2203346F82320FFF7DAFC202CF0D1FC
:10234000424B05219A6C012022F0F0729A649A6C3B
:1023500022F480129A64FFF7BFFC05210846FFF7BC
:10236000BBFC05210620FFF7B7FC05210720FFF77E
:10237000B3FC05210820FFF7AFFC05211120FFF772
:10238000ABFC05211220FFF7A7FC05211D20FFF75C
:10239000A3FC05211E20FFF79FFC05211F20FFF74E
:1023A0009BFC01210820FFF781FC152000F005FCB3
:1023B000204600F002FC102000F0FFFB082000F097
:1023C000FCFB042000F0F9FB022000F0F6FB0120EA
:1023D00000F0F3FB152229462F4800F025FD2F4978
:1023E000284609F05BFB0446002840F0AC8001461B
:1023F0000520FFF75BFC00F0BFFB21460720FFF73D
:1024000055FC0723264C0093019400234FF49B7244
:102410002449254807F0D6FF0128804600F0A68011
:102420004FF0A00383F31188BFF36F8FBFF34F8F7B
:10243000FEE7286807F03AF8284607F037F8002545
:1024400048E700BF0070014000E100E00080034069
:1024500000ED00E0140D0020352A006021340160F9
:10246000081A0020180F0020A54C0060280F00203B
:10247000492A0060100D002029340160B932006043
:10248000481A00204F3301607E330160140F002092
:1024900000C00360303401600CC003603B34016055
:1024A000B80C00204834016005350060E914006074
:1024B0000134016000F046FC00B900BE794B18A958
:1024C00041F8383D0422784800F072FC774B18A997
:1024D00041F83C3D0422764800F06AFC754B152219
:1024E00018681B790B900BA973488DF8303000F0F9
:1024F0005FFC4FF0FF3318A941F8403D04226F48BC
:1025000000F056FC4FF4967318A921F8483D0222BA
:102510006B4800F04DFC002618A901F8546D01220B
:10252000684800F045FC18A901F8586D012266487A
:1025300000F03EFC032318A921F84C3D0222634819
:1025400000F036FCDDE66249284609F0A7FA10B92A
:1025500000F00EFB55E75F49284609F09FFA002876
:102560007FF44FAF0A2000F00BFB4AE72068FFF72B
:10257000C3FDA0264FF48013574C822184F83463A6
:1025800002206360FFF7A8FB0220FFF7CBFB4FF4AC
:10259000001384F83563822163600320FFF79CFBFE
:1025A0000320FFF7BFFB4FF4800384F836638221DA
:1025B00063600420FFF790FB0DAF0420FFF7B2FB30
:1025C000424639463F4800F02FFC9DF83440012C2C
:1025D00005D100F0CDFA21462046FFF767FB012226
:1025E0003946394800F020FC9DF83430012B01D1E8
:1025F00000F0C2FA002008F093F9EFF310860123EF
:1026000083F31088354C742200212046FDF7AEFF7D
:10261000334B9C42334B32D1042210216274324A34
:102620006261324AA2619A6C42F400629A642A4A58
:10263000C2F880119A6C22F4006206214FF0000962
:1026400001209A64A3696269E3612160C3F81C9068
:102650005860C3F800901173986186F3108807F0F2
:1026600001FC234B18609846002847D14FF0A00387
:1026700083F31188BFF36F8FBFF34F8FFEE70722FD
:10268000802162741B4A62611B4AA2619A6C42F407
:1026900080529A64104AC2F880119A6C22F48052D7
:1026A000CBE700BF11AE7C5B04C00360C0A801FF94
:1026B00008C003606E3401600CC0036024C0036076
:1026C00028C003602AC003602BC0036000C0036001
:1026D000403401604434016000E100E094190020BE
:1026E0002019002000800340002000400000044228
:1026F000200F00200020014000002442C04802F0CA
:102700005BFB4FF0FF31D8F8000007F0C3FC012855
:10271000BC4E62D19A23CDF84490A5F804908DF870
:102720001030EFF3108980F31088227A032302B966
:10273000237284F87230B02304AA226201226360FB
:102740000023062184F83C20E362A362A363237480
:1027500094F85C306262DBB2934218BFA3692563D0
:10276000616314BF5A6184F8713094F87030012BA2
:102770000CD10022A369DA60636994F911001B7916
:102780008DF811309DF81130FFF7B2FA94F911006D
:10279000FFF7BCFA89F3108802F07CFE0023814623
:1027A0001A461946D8F8000007F0A6FAB9F1000F4A
:1027B00013D19DF844C09DF845E09DF846009DF872
:1027C00047109DF848209DF8493086F800C086F8EB
:1027D00001E0B070F170327173712B464FF03A091D
:1027E000894A10685168128903C300211A800DF1CB
:1027F0004E001222FDF7BAFE0DF14D033178384636
:102800000D9302F0EFF80D9B38465A1C0D9283F899
:102810000090717802F0E6F80D9B38465A1C0D9234
:1028200083F80090B17802F0DDF80D9B38465A1C11
:102830000D9283F80090F17802F0D4F80D9B3846A1
:102840005A1C0D9283F80090317902F0CBF80D9B61
:1028500038465A1C0D9283F80090717902F0C2F844
:102860000A220D9B28461A8002F0A6FA042207A924
:10287000664800F0D9FA9DF81C30C02B1CBF00231D
:102880000793079B013B033374D94FF0FF31D8F80E
:10289000000007F0FFFB012882466BD110220021C7
:1028A0002846FDF763FE80238DF81230EFF3108980
:1028B0008AF31088227A032302B9237284F87230D3
:1028C000B0230DF112022262012263600023102165
:1028D00084F83C20E362A362A363237494F85C3021
:1028E0006262DBB2934218BFA3692563616314BFC0
:1028F0005A6184F8713094F87030012B0CD10022A9
:10290000A369DA60636994F911001B798DF81330BB
:102910009DF81330FFF7ECF994F91100FFF7F6F981
:1029200089F3108802F0B6FD002304461A461946C2
:10293000D8F8000007F0E0F9E4B995E80F0087E85F
:102940000F00204610234FF6FF71013B9BB28B42D4
:102950002BD14FF6FF5280EA204080B2B0FBF2F359
:1029600002FB1300000400F1007040F4284040F026
:10297000C0000790079A264C26492260284602F09C
:1029800091F8284602F018FA00220221052007F0EB
:1029900071F9214B186090B94FF0A00383F31188AF
:1029A000BFF36F8FBFF34F8FFEE718AA1A4412F8D8
:1029B0002C2C00EB4010104400EBC210C5E7174A66
:1029C00017490096174B204603F0B2FE164B1868C5
:1029D000FFF792FB06F0A2FD02F01FFA134802F087
:1029E000EBF9134802F0E8F9002008F047F84FF03F
:1029F000A00383F31188BFF36F8FBFF34F8FFEE700
:102A00004F340160680800203333016008C0036060
:102A10001C0F00205C340160240F00209C340160F6
:102A2000A034016098340160541C002065340160BA
:102A3000DC330160034B0520197881F00101197026
:102A4000FFF734B9D71700201B4B37B5984208D091
:102A50001A4B984205D000BE019A194B1A6003B078
:102A600030BD002421460568427B2B7DDBB21A4332
:102A700042739DF80320DB0718D569B10CB18DF8BE
:102A8000032000230F4802AA42F8043D0DF1030180
:102A9000006807F0F9F9DFE72A782B7D417BDBB28C
:102AA000194341730121D2B20C46E4E70CB18DF811
:102AB00003200029D0D0E4E7081A0020481A00209B
:102AC0002C0F0020280F002009490B6823B11A6839
:102AD0008242DA6802D10A6018467047002AFBD0A9
:102AE00011688842FAD1D168D9601346F4E700BF73
:102AF000FC17002070B51C4C05464FF0FF31606894
:102B000007F0C8FA0128204608D04FF0A00383F34D
:102B10001188BFF36F8FBFF34F8FFEE70023EB6089
:102B2000236893B92560002340681A46194607F0C8
:102B3000E3F801280ED04FF0A00383F31188BFF310
:102B40006F8FBFF34F8FFEE71346DA68002AFBD181
:102B5000DD60E8E70023BDE8704004480222194622
:102B6000006808F019BB00BFFC17002008180020FF
:102B700000210120FFF79AB801210620FFF796B83F
:102B800010B50446E00703D501211120FFF78EF8A8
:102B9000A10703D500211120FFF788F8620703D5AC
:102BA00001211220FFF782F8230705D5BDE8104068
:102BB00000211220FFF77AB810BD820610B5044636
:102BC00003D501211E20FFF771F8E30603D500218C
:102BD0001E20FFF76BF8200703D501211D20FFF70A
:102BE00065F8610703D500211D20FFF75FF8A207F4
:102BF00003D501211F20FFF759F8E30705D5BDE8EC
:102C0000104000211F20FFF751B810BD1FB5154C13
:102C100004AAD4F88430144813F0100F4FF00003C6
:102C200042F8043D009218BF20214FF0010208BF76
:102C30001021006808F01AFB1023C4F88030BFF39D
:102C40004F8F4FF48002094BC3F88421039B3BB1A3
:102C50004FF08052064B1A60BFF34F8FBFF36F8F58
:102C600004B010BD00300140B80C002000E100E0CD
:102C700004ED00E01FB5154C04AAD4F884301448C4
:102C800013F0080F4FF0000342F8043D009218BF04
:102C900008214FF0010208BF0421006808F0E6FA9D
:102CA0000823C4F88030BFF34F8F4FF40012094B54
:102CB000C3F88421039B3BB14FF08052064B1A604E
:102CC000BFF34F8FBFF36F8F04B010BD00300140D2
:102CD000B80C002000E100E004ED00E01FB5154C49
:102CE00004AAD4F88430144813F0040F4FF0000302
:102CF00042F8043D00924FF0010214BF0221114638
:102D0000006808F0B3FA0423C4F88030BFF34F8F93
:102D10004FF48012094BC3F88421039B3BB14FF061
:102D20008052074B1A60BFF34F8FBFF36F8F04B011
:102D300010BD00BF00300140B80C002000E100E0F1
:102D400004ED00E0F0B585B06A466F46144B03F120
:102D50001005144618685968083303C4AB4222466C
:102D6000F7D1104C104D206800F0A4FF0F4E102238
:102D70003946284602F0AEFA40B14FF0A00383F383
:102D80001188BFF36F8FBFF34F8FFEE71035B54249
:102D9000EDD1206800F065FF012005B0F0BD00BF57
:102DA000B8340160140F002000C00360F0DF03603E
:102DB000F8B51A4B044698420F46164608D84FF00D
:102DC000A00383F31188BFF36F8FBFF34F8FFEE72C
:102DD000134B82189A4208D94FF0A00383F311884D
:102DE000BFF36F8FBFF34F8FFEE70E4D286800F0E3
:102DF00061FF32463946204602F06CFA40B14FF08E
:102E0000A00383F31188BFF36F8FBFF34F8FFEE7EB
:102E1000286800F026FF0120F8BD00BFFFBF036057
:102E2000FFDF0360140F0020F8B5244B04469842DE
:102E30000F4608D84FF0A00383F31188BFF36F8FBC
:102E4000BFF34F8FFEE71E4B86189E4208D94FF006
:102E5000A00383F31188BFF36F8FBFF34F8FFEE79B
:102E6000184D4FF0FF312B68586807F013F901280F
:102E700008D04FF0A00383F31188BFF36F8FBFF327
:102E80004F8FFEE7791EB44211D1002328681A46FD
:102E90001946406806F030FF01280DD04FF0A0031E
:102EA00083F31188BFF36F8FBFF34F8FFEE714F8E2
:102EB000013B01F8013FE6E7F8BD00BFFFBF03603B
:102EC000FFDF0360140F00204FF48072054B0649AA
:102ED0001A60D1E90023013243F10003C1E9002364
:102EE000704700BF00700140E017002000000000A4
:102EF000F8B50746FEF79EFF3B4C0646236823F0D5
:102F00000103236072B6BFF34F8FBFF36F8F07F0DB
:102F100079FF28B9236843F00103236062B6F8BD46
:102F200002280BD1BFF34F8F30BFBFF36F8F62B654
:102F30002D4A136843F001031360F8BDFEF77AFFD2
:102F4000044638460D460DF0B9FE25A3D3E900230B
:102F50000EF054F810F07EF950EA010304BF01208E
:102F6000002124184D41FEF765FF204BA9425A6805
:102F700008BFA04202F0010200D300BE72B100BE41
:102F8000BFF34F8F30BFBFF36F8FFEF753FF801B30
:102F9000874238BF384607F0A1FBC8E708221A600D
:102FA0004FF0FF325A619A61DC601D615A680A2A4B
:102FB0000CD01A68D1070DD502221A600B4B1A6883
:102FC000D207FCD40A225A6001221A600422074B5D
:102FD0001A60D5E70A225A60F8E700BFAFF3008015
:102FE00000000000001DF03F10E000E00070014014
:102FF000082480B5354888B0029401F0DDFE022136
:103000001122084604F038F8431C054608D14FF059
:10301000A00383F31188BFF36F8FBFF34F8FFEE7D9
:1030200044F29C03224604A9ADF8123004F0FEF8E5
:10303000024640B14FF0A00383F31188BFF36F8FB6
:10304000BFF34F8FFEE74FF0FF3108AB43F8141D7D
:1030500000900146284604F0A9FB40B14FF0A003C0
:1030600083F31188BFF36F8FBFF34F8FFEE71748CD
:1030700001F0A2FE164C174E04F1190740F2DD5282
:1030800000211348FDF772FA02AB019306AB0093DF
:103090004FF4B86200233946284604F069F8002846
:1030A000ECDD079BE0822361337853B101F09AFE97
:1030B000094801F081FE094801F07EFE0A2001F076
:1030C00059FE204601F010F8D8E700BF1135016025
:1030D000FA110020D81700202235016013120020B9
:1030E00030B52B4B85B01B7804465BB101F07AFEFE
:1030F000284801F061FE04F1190001F05DFE0A208C
:1031000001F038FE42F20F73A28A9A4206D120469D
:1031100000F0EAFF0446204605B030BD02212369D5
:1031200008460393130A43EA02231122ADF80A303A
:1031300003F0A2FF431C054608D14FF0A00383F320
:103140001188BFF36F8FBFF34F8FFEE70423012277
:1031500000930021104B04F029FB034640B14FF0CF
:10316000A00383F31188BFF36F8FBFF34F8FFEE788
:103170000821E28A019169440091284604F119016D
:1031800004F081F80446284604F05AF9C3E700BF6A
:10319000D817002006350160643901602E4E80B5D5
:1031A0002E4801F009FE4FF0FF353746DFF8B090AA
:1031B0002946012007F07AFF4FF0FF31706806F0D2
:1031C00069FF012808D04FF0A00383F31188BFF3F3
:1031D0006F8FBFF34F8FFEE707F058FA80463468D1
:1031E000B4B93B682246002B2146234678680CBFC1
:1031F0004FF0FF35012506F07FFD0128D8D04FF0B4
:10320000A00383F31188BFF36F8FBFF34F8FFEE7E7
:10321000A3686268A8EB03039342D4F80CA015D905
:103220002046FFF75DFF257E013DEDB225767DB995
:103230002068FFF749FC04462B4602222946D9F8AC
:10324000000007F0A9FF204606F030F95446C7E712
:10325000C4F80880FAE700BFFC1700202F35016092
:103260000418002030B549F6404295B000240B46C2
:1032700001914C210E4D0590ADF818200DF11D0067
:103280000C4AADF81A1002940394049408F096FBCB
:103290004FF0FF31686806F0FDFE01A8FFF720FF40
:1032A000234622462146686806F026FD15B030BD4B
:1032B000FC170020E13401602DE98748734801F0D4
:1032C000B3FE734801F0B0FE724801F0ADFE7248E3
:1032D00001F0AAFE714801F0A7FE714801F0A4FEBA
:1032E000704801F0A1FE704801F09EFE6F4801F0A9
:1032F0009BFE6F4801F098FE6E4801F095FE6E4807
:1033000001F092FE6D4801F08FFE6D4801F08CFED9
:103310006C4801F089FE6C4801F086FE6B4801F0B4
:1033200083FE6B4801F080FE00246A4E6A4D4FF028
:10333000FF320DF10701306806F008FE0128F6D1D2
:103340009DF9070001F016FD9DF907300A2B02D008
:103350000D2B40F081800A2001F00CFD24B964227D
:103360005E495F4800F081FB4FF000085D4F3B680D
:1033700085F8008083B10124D7F80090B9F1000FDF
:1033800061D0002C3ED1584B584A4FF4007128466A
:1033900008F014FB3C6040E0554BDFF844913B6083
:1033A0003C68002CE7D0D4F800A0DAF800B058460A
:1033B000FDF7A8FC19F90030024633F020031ED1B6
:1033C000594648460DF084F8C8B99AF90C30002BDC
:1033D000D1DB0446474911F9012F32B908B1013C4C
:1033E00064B21B1B5C425C41C6E7202A05D1002861
:1033F000F1D1013464B20120EDE70020EBE763680E
:103400003B60CDE7D9F80030354A9B684FF4007136
:103410002846984704460028BCD095F9003013B1DF
:10342000284601F0C9FC002CA1D164222C492B486C
:1034300000F01BFB652221462948FDF797F82E482E
:1034400001F0BAFC73E7284B2C4A4FF40071284670
:1034500008F0B4FA4C46E0E7082B08D1002C3FF402
:1034600066AF0022013C1E4BE4B21A555FE7A3F1A0
:103470002002D2B25E2A3FF65AAF632C04D8184A13
:1034800013550134E4B252E71D48D9E754380160BE
:1034900074380160A4380160B4380160C438016038
:1034A000D4380160E4380160F43801600439016007
:1034B00014390160343901604439016054390160C4
:1034C0006839016084380160243901606438016022
:1034D00078390160280F0020FA0F0020950F002096
:1034E000300F0020DC170020DC3301603E35016026
:1034F000700800202F0F00207C35016061350160CD
:10350000B135016000232DE9804889B005AF022262
:103510000DF10A014A4805937B60BB60ADF80C30A1
:103520008DF80E304FF0FF38FFF77EFCDFF81CA15E
:10353000DFF81CB1434604AA4FF0FF31002007F02A
:10354000E7FD07F0A3F8002406464FF0FF3803AD6F
:103550000499600021FA00F313F0010942D02978A0
:1035600001315FFA81F9B9F1010F85F800902AD194
:10357000204601F052FC334801F01EFC3246002187
:10358000A0B2FEF759FD47F8246057F82400BDF8B3
:103590000A30321A9A4249D3297802290DD120469D
:1035A000019101F03AFC284801F006FC32460199ED
:1035B000A0B2FEF741FD00232B700134032C05F16E
:1035C0000105C5D1B6E7B9F1030FDED1204601F000
:1035D00024FC584601F0F0FB32464946A0B2FEF703
:1035E0002BFDD2E7022282400A42CED02978013157
:1035F000C9B20329297002D985F80090C5E757F8A8
:103600002400BDF80A20A6EB000E96450DD3022932
:10361000C2D1204601F001FC504601F0CDFB3246FC
:103620000121A0B2FEF708FDE6E713462A78013A29
:10363000012AC2D89B1B0344984528BF9846BCE783
:1036400028C00360C8340160DB340160D6340160F7
:10365000CF34016070B505468CB010460E4601218E
:1036600001F041FF01463A480EF09AF8044670B95D
:10367000FFF768FB374A384B3146002818BF13461E
:10368000364A284608F09AF920460CB070BD344CF2
:103690002268511C2160072A57D8DFE802F0041184
:1036A0001A262E363F49022269462E48FFF7BCFBF8
:1036B000BDF800302C4A3146284608F07FF912E068
:1036C00004222A480DEB0201FFF7AEFB019B284ABA
:1036D000F1E7042202A92748FFF7A6FB029A264930
:1036E000284601F0DFF90120CFE7152203A923487E
:1036F000FFF79AFB03AB224ADDE7042209A9214820
:10370000FFF792FB099A2049EAE702220AA91F481B
:10371000FFF78AFBBDF828301D4ACCE701220DF1E6
:103720002A011C48FFF780FB9DF82A301A4AC2E79D
:1037300001220DF12B011948FFF776FB9DF82B3084
:10374000174A3146284608F039F9002020609CE7E6
:10375000B43D0160AA3D0160AF3D0160B93D01602B
:10376000EC17002000C00360C53D016004C0036089
:10377000CD3D016008C003605C3401600CC0036093
:10378000D73D016024C00360A63F016028C00360EC
:10379000E13D01602AC00360F13D01602BC0036080
:1037A000F93D016010B501210446104601F09BFE71
:1037B00090F90030572B06D0772B0AD006492046C7
:1037C00008F04AFA03E001210846FEF76FFA0020EC
:1037D00010BDFFF7CDF9FAE7373E016010B50121C2
:1037E0000446104601F07FFE90F90030532B1DD0A7
:1037F00008DC4F2B10D0522B13D00F49204608F075
:103800002BFA07E0722B0FD0732B12D06F2BF4D151
:10381000FFF7B2F9002010BD00210620FEF746FA9E
:10382000F8E700210520F9E70121FBE70121072046
:10383000F4E70021FBE700BF373E016010B501212E
:103840000446104601F04FFE90F90030522B2ED066
:103850000FDC312B33D006DC302B1DD0194920462C
:1038600008F0FAF921E0422B27D0472BF6D10820A7
:103870001EE0662B12D005DC612B09D0622BEDD146
:10388000012015E0672B16D0722BE7D110200FE036
:1038900001210820FEF70AFA152009E01520FFF79C
:1038A0008CF900210820FEF701FA002010BD20202D
:1038B000FFF783F9F9E70420FAE70220F8E72A2066
:1038C000F6E700BF373E016073B50546012110469B
:1038D000164601F008FE044610B107F02BFF04461F
:1038E0000221304601F0FFFDA8B9012C0DD10422C0
:1038F00015480DEB0201FFF797FA019A1349284684
:1039000001F0D0F8002002B070BD03F041FB104977
:1039100002460190F3E703F005FE019078B104221E
:10392000012C0DEB020103D10748FFF741FAE9E74B
:103930000848FFF73DFA019803F030FBE2E706493B
:10394000284608F089F9DDE724C00360A63F01603E
:103950005C34016008C00360773A0160F8B501216A
:1039600006461046174601F0BEFD20B931493046E3
:1039700008F072F927E090F9004007F0F1FE2044CA
:10398000437803F00303012B08BF203464B2672C93
:1039900005D0732C0CD0632C0CD02749E7E7002509
:1039A0003846022101F09FFD074628B92349DEE78A
:1039B0000125F5E70225F3E721490DF0F1FE20B9D5
:1039C000284601F0B3FE0020F8BD1E4938460DF030
:1039D000E7FE38B9732C02D106F0CCFDF3E707F00F
:1039E0004DF8F0E7184938460DF0DAFE30B9A4F189
:1039F00073025442154B54411C70E4E71449384695
:103A00000DF0CEFE48B9012D02D1124B1D70DAE740
:103A1000022DD8D10F4B1870D5E70F4938460DF05D
:103A2000BFFE28B9A4F173035C425C410B4BE3E792
:103A30000B499CE72B3A0160363A0160423A01603B
:103A40004D3A0160523A0160573A01600E19002068
:103A500039380160E81700205B3A0160D817002070
:103A60005F3A016008B500F089FA10B50B4612B153
:103A7000013A05D1027013F9012B002AFBD105E0B0
:103A800013F9014B00F8014B002CF1D1581A013801
:103A900010BD00002DE9F043144699B00A460E46C9
:103AA0002C490746FFF7E1FF0121204601F01BFDED
:103AB000009000B303F036FD02218046204601F05D
:103AC00012FD0090B8B1684601F024F80321814648
:103AD000204601F008FD009068B1FDF713F900F1F0
:103AE0001D05284605F054FC044640B932461A49E3
:103AF0003846FFF7BAFF002019B0BDE8F0832A4628
:103B000000991930FFF7B1FFC4F81080A4F81490A1
:103B10002046FFF7E5FA054640B932460F493846D8
:103B2000FFF7A3FF204605F0C1FCE4E75C220C4947
:103B300001A807F069FE6B1E152B9DBF18AB03EBA8
:103B4000850555F85C3C074B074A3146384607F077
:103B500035FFE7E7A83A0160B33A0160C63A016071
:103B600088390160873A0160D13A016030B5044676
:103B700087B00D461046012101F0B5FC014658B151
:103B800015226846FFF771FF684609F0EFF9152224
:103B900069460848FFF70CF9694615220548FFF702
:103BA00043F96B46044A2946204607F007FF0020E8
:103BB00007B030BD0CC003606B3A016070B51646AB
:103BC0000124002588B02146304601F08CFC0146D6
:103BD00038B1012C27D103F0A5FC05460134042C93
:103BE000F1D16D2005F0D4FB0446C8B106F04EFDBE
:103BF00049F64042A282012222760A226260002215
:103C00006D21A26002AA206003462561E18204F1D1
:103C100019000092074A07F0D1FE2046FEF76AFF1E
:103C2000002008B070BD022CD8D1152202A8FFF7E1
:103C30001CFFD3E7FA390160F8B506460F46154672
:103C40005AB150B149B1002457F82410304607F05A
:103C500025FF20B10134AC42F6D14FF0FF342046AD
:103C6000F8BD38B504460025237A9D424FF0000385
:103C70001A4619460DD3206806F03EF8012818D0E0
:103C80004FF0A00383F31188BFF36F8FBFF34F8F03
:103C9000FEE7606806F030F8012808D04FF0A00376
:103CA00083F31188BFF36F8FBFF34F8FFEE70135AA
:103CB000DAE738BD38B54FF0FF310546006806F049
:103CC000E9F900242B7A9C4200D338BD4FF0FF3134
:103CD000686806F0DFF9012808D04FF0A00383F3ED
:103CE0001188BFF36F8FBFF34F8FFEE70134E9E711
:103CF000094B0A4918680A680860094882EAC22222
:103D00000168196007490B68036083EAD34050409B
:103D100080EA122008607047800800207C0800209C
:103D200084080020780800202DE9F04389B0164669
:103D300002AA1546454B03F1100714461868596846
:103D4000083303C4BB422246F7D118689B88206021
:103D5000A3800121304601F0C6FB08AF47F8200DD3
:103D600090F90030242B1BD101300090384600F030
:103D70004CFE20F003040221304601F0B4FB009019
:103D8000384600F0C7FE10B380004FF03D084FF0FA
:103D900024090619B4421CD3002009B0BDE8F08301
:103DA000302B10D190F9014007F0DAFC2044437821
:103DB00003F00303012B08BF2034782C03D1009BB0
:103DC00002330093D2E7384600F0A4FED1E7042086
:103DD000DBE7210E01A8019500F004FEC4F30741C2
:103DE00001A800F0FFFDC4F3072101A800F0FAFDCF
:103DF000E1B201A800F0F6FD019B01A85A1C019256
:103E000083F80080019B5A1C019283F8009054F8BB
:103E1000047B390E00F0E6FDC7F3074101A800F06E
:103E2000E1FDC7F3072101A800F0DCFD01A8F9B20C
:103E300000F0D8FD019B28465A1C01920A221A70F4
:103E40000022019B1A7000F0B7FFA3E7E43901607C
:103E500030B593B0FDF7EEFF04460D4612A961E9B7
:103E60001045002508220F4801F064F8029B0E4817
:103E700004F0FF04190AA4FB002300FB0533120A17
:103E800042EA0362039B009241EA0363074A32213C
:103E900005A807F093FD05A800F08EFF002013B0E1
:103EA00030BD00BF203E016040420F00283E01604F
:103EB000F7B502211046154601F015FB00900028C9
:103EC00045D0684600F026FE84B22846012101F064
:103ED0000AFB05460090002836D00023019303F02A
:103EE00021FB074606F0D2FB012C214606464FF087
:103EF0000A0238BF0121384602F002FD044618B319
:103F0000184800F059FF284600F056FF164800F008
:103F100053FF204600F081FF202000F02BFF134FBD
:103F2000134D4FF47A7201A9386806F00FF8012892
:103F300015D1019884420CD106F0A8FB801B00F03B
:103F40006CFF0C4800F038FF002003B0F0BD0824DF
:103F5000BBE700F062FF284600F02EFFE1E70648CD
:103F6000F0E700BF023E0160083E0160240F002020
:103F70000C3E0160ED3D0160173E0160BFF34F8FC5
:103F80000549064BCA6802F4E0621343CB60BFF3F5
:103F90004F8F00BFFDE700BF00ED00E00400FA0511
:103FA00007B50346ADF8061030B905480A220DF1F1
:103FB0000601006805F0A0FE03B05DF804FB00BF39
:103FC000240F00202DE9F04FDFB00DAE80466422B3
:103FD00000213046FCF7CAFAE022002126A8FCF7AF
:103FE000C5FA3A4B0DF1080926930A238DF89C3047
:103FF000374B26A92E93374B08F119003493012330
:104000008DF8D430344BCDF8D890429309238DF8F5
:104010000C3103238DF8103112AB46934B23479399
:1040200025AB489305234993002300931A464596F0
:10403000FDF796FA074660B90546DFF8A8A0274CB9
:10404000336E9D4209D3D9F80010D8F81000FFF75D
:1040500009F938465FB0BDE8F08F56F825B0102258
:1040600051465846FFF7E8FD431C20D00021D8F800
:10407000103094F8F821C0B291421ADB3D2A16D8CC
:1040800004F8320004EBC20253602821144ACDF830
:1040900000B003A807F092FC03A800F08DFE0A20F0
:1040A00000F068FE94F8F831013384F8F8310135F6
:1040B000C6E704EBC10EDEF804E0734503D114F843
:1040C00031E08645F3D00131D6E700BF503F0160B3
:1040D000583F0160613F01606D3F0160180D002095
:1040E000733F0160580800202DE9F04F1F24ADF503
:1040F0001F7D0DF160092246054600214846FCF768
:1041000035FAA822002120A8FCF730FAB44B4FF072
:10411000030820934FF001038DF8BC300023B14F0A
:1041200005F1190600931A460DF1200A20A9304620
:104130002A948DF88480CDF888902E97CDF8C0A071
:10414000FDF70EFA99F900300446002B00F0378194
:10415000DAF80030A44C2B602146484607F09EFC5C
:10416000824600284AD10146A8224AA8FCF7FEF957
:104170009B4B12AD4A930A238DF82C314FF001036B
:10418000CDF800A08DF86431524653464AA9304616
:10419000529458975A95FDF7E3F90446002840F0E9
:1041A0000E810220FEF709FD2E68904D4FF0FF3181
:1041B000686805F06FFF012808D04FF0A00383F373
:1041C0001188BFF36F8FBFF34F8FFEE73046FEF7C6
:1041D0007BFC08B105F06AF9002368681A461946A5
:1041E00005F08AFD012800F0EA804FF0A00383F378
:1041F0001188BFF36F8FBFF34F8FFEE77C494846AE
:1042000007F04CFC0446002840F011814FF00F0BE2
:1042100012AB0146152218460DF1280A03930DF141
:104220003809FCF7A3F921465A465046FCF79EF997
:1042300021465A464846FCF799F921464FF4A872A0
:104240004AA8FCF793F9664B0A224A93684B8DF80B
:104250002C2152934FF001038DF86431039B654A82
:10426000689315237093644B58977493634B6692CD
:10427000829300942346224609AF4AA930465A97B2
:104280008DF89C818DF8D481CDF8D8A1CDF8F8B106
:104290008DF80C82CDF81092CDF830B2FDF760F9B0
:1042A0000446002840F08B80102255495046FFF705
:1042B000C3FC421C064600F0458104225149484691
:1042C000FFF7BAFC431C00F03D81012E23D0022EE3
:1042D00031D0002E47D1032845D8DFE800F002187E
:1042E0001804FEF745FC01210846FDF7DFFC032614
:1042F00039682869FEF7B6FF013E232006F010FB5F
:10430000042E5CD8DFE806F0668654608C00FEF769
:104310002FFC0426ECE7032825D8DFE800F002068E
:104320000602FEF729FC0126E2E700210620FDF740
:10433000BDFC0226DCE7032815D8DFE800F00216F2
:104340001602314B1A79042A07D9002210201A715B
:10435000FEF733FC0A20FEF713FC0820FEF72DFCC5
:104360000120FEF70DFC0026C2E7274E3379B04648
:10437000ABB106F08BF93368C01AB0F57A6F0ED284
:1043800033790133DBB2052B337114BF00260526C8
:104390000420FEF712FC0220FEF7F2FBA8E701233F
:1043A00088F8043006F072F90026C8F80000EFE73C
:1043B000012207A98DF81C201448FEF7F9FC2046BD
:1043C0000DF51F7DBDE8F08F002301228DF8183018
:1043D00006A9F1E7012205A98DF814200C48ECE7A5
:1043E000503F0160613F0160483E0160FC170020C2
:1043F0004C3E0160523E01606D3F0160573E0160DE
:104400005808002048080020F41700202AC0036044
:104410002BC00360002301228DF8103004A9DDE7D2
:104420002020FEF7CAFB0520FEF7AAFBC7E7474995
:10443000484607F033FB20B92846FFF7C3FD044682
:10444000BDE74349484607F029FB18B92846FFF75E
:10445000B9FDF4E73F49484607F020FB0446002831
:104460005CD101460E9030224AA8FCF77FF83A480A
:1044700000F0A2FC394630460DF0B2FB18B10EAA8E
:1044800036490DF061F9364930460DF0A9FB50B1BF
:104490004CAA34490DF058F9012804D104224CA942
:1044A0003148FEF785FC314930460DF099FB80B16B
:1044B0004DAA2F490DF048F901280AD100234DA833
:1044C0008DF8493108F052FD15224DA92948FEF713
:1044D0006FFC294930460DF083FB50B153AA2749A0
:1044E0000DF032F9012804D1042253A92448FEF723
:1044F0005FFC244930460DF073FB50B112AA2249EB
:104500000DF022F9012804D1022212A91F48FEF75A
:104510004FFC0E992869FEF7A5FE50E71C49484656
:1045200007F0BCFA70B900F05DFC1A4800F044FCDA
:1045300029682869FEF796FE4FF47A7006F0F0F9C4
:10454000FFF71CFD4FF0FF3439E700BF583F016013
:104550005D3E01606A3E0160773E0160853E01601C
:104560009A3E0160A53E016008C00360B53E01604F
:10457000BE3E01600CC00360F93E0160063F016071
:1045800024C003601D3F01602B3F016028C0036011
:10459000433F0160483F016070B5054686B0152273
:1045A00069461048FEF740FC6946284607F076FA4F
:1045B0000646B0FA80F40C4800F0FEFB684600F0B6
:1045C000FBFB002E14BF21203D2000F0D3FB28462A
:1045D00000F0F2FB64090A2000F0CCFB204606B094
:1045E00070BD00BF0CC00360274001607FB500288C
:1045F00067D1364800F0E0FB354B1C78002C5ED1CB
:104600000120187005F02EFC324B586040B94FF075
:10461000A00383F31188BFF36F8FBFF34F8FFEE7C3
:1046200005252D4E0095019623464FF4C8722B495F
:104630002B4805F0C7FE012808D04FF0A00383F3F4
:104640001188BFF36F8FBFF34F8FFEE73068FDF720
:1046500053FD03AB0193009523464FF4FA722149B1
:10466000214805F0AFFE012808D04FF0A00383F3E6
:104670001188BFF36F8FBFF34F8FFEE71B4E039878
:10468000FDF73AFD8DE8600023464FF49672184915
:10469000184805F097FE012808D04FF0A00383F3D7
:1046A0001188BFF36F8FBFF34F8FFEE70398FDF7BD
:1046B00023FD234602222146306806F06DFD04B03A
:1046C00070BD0D4800F078FBF9E700BFF73F0160CF
:1046D000F0170020FC17002008180020004001609F
:1046E0009D31006009400160F12F00600418002036
:1046F00012400160FD4600601C40016080B54F48DB
:104700008EB000F059FBDFF85C814D4F4D4EFFF746
:10471000EFFA43F2C821B0FBF1F303FB11004FF4B1
:104720007A7101FB0080B0FBF1F1012006F0BEFCC4
:1047300006A915223846FEF777FB06A9424807F07E
:10474000ADF90028E3D0404801F088FE0490012034
:10475000FEF733FA049B002BD9D00220FEF72DFA86
:10476000042203A93046FEF75FFB049A039B9A429A
:104770000BD0364906A800F095F906A800F01CFBFE
:10478000042204A93046FEF713FB042205A9304693
:10479000FEF74AFB059B0133B9D006A9152238461E
:1047A000FEF742FB2A4906A807F078F9D8B1294953
:1047B00006A807F073F9D0B1274906A807F06EF9EB
:1047C0000028A4D14FF033092D25632004F0E0FD2B
:1047D000044680B94FF0A00383F31188BFF36F8FB5
:1047E000BFF34F8FFEE74FF032090546EDE74FF07C
:1047F00031092325E9E705F049FF059B2060236186
:1048000049F64043A3820A2323766423636005F0BC
:104810003DFF63216368E182ED1A0544A560CDF890
:10482000009023680D4A04F1190007F0C7F82046EC
:10483000FEF760F90A4800F0BFFA68E7863F0160BA
:104840000CC0036024C00360973F0160A23F016079
:104850003B3401604034016044340160AF3F01608B
:10486000EA3F0160008793030F2808D94FF0A003A7
:1048700083F31188BFF36F8FBFF34F8FFEE70928D3
:1048800094BF3030373040B27047000013B50A4C47
:1048900023680BB9094B236023681B685A68009290
:1048A0001B68074A07F08AF82368586820600030C0
:1048B00018BF012002B010BD14190020700800209C
:1048C000A24001602DE9F0410026904601253746BF
:1048D0008CB02946404600F006FE014638B1012D55
:1048E00027D102F01FFE07460135042DF1D1492CD6
:1048F00034D10E22354902A8FFF7B7F8772004F02B
:1049000047FD0446002836D005F0C0FE49F6404277
:10491000A282052222769622626000227721A2607E
:1049200002AA20602761E182034600920196284A8C
:1049300043E0022D02D190F90040D5E74E2C04D17E
:10494000152206A8FFF791F8CEE7442C03D106F014
:10495000F1FE0646C8E702F0E5FDFAE74E2C0ED15F
:1049600002AD0E221B492846FFF77FF8822004F093
:104970000FFD044668B900200CB0BDE8F081432C5F
:1049800002D10E221449B6E7442CB7D10E221349A6
:10499000B1E705F07BFE49F64042A282052222766D
:1049A00096226260002282210346A26006AA20604D
:1049B0002761E18201920A4A009504F1190006F08C
:1049C000FDFF2046FEF796F8D5E700BF9A3E01604E
:1049D0006B400160B53E0160F93E01601D3F016022
:1049E00033400160024610B504680809FFF73CFF38
:1049F0002070146801F00F00631C1360FFF734FF90
:104A0000607013680133136010BD30B50246D8B131
:104A10000068C8B10020146894F90030D9B2A1F13F
:104A20003005092D05D8303B013403EB001014602C
:104A3000F1E7A1F14105052D01D8373BF4E76139D4
:104A4000052901D8573BEFE730BD0000036870B57A
:104A500043B94FF0A00383F31188BFF36F8FBFF307
:104A60004F8FFEE729B930221A70036801330360C3
:104A700070BD0A2200251646094CB1FBF4F30BB1B8
:104A800004FB1311B4FBF6F403B935B105683033F8
:104A90002B700125036801330360013AEDD170BD2D
:104AA00000CA9A3B37B51446019001394B1C02D01D
:104AB00011F9013F4BBB2E25E1B201A8FFF7C6FF5C
:104AC000019BC4F307215A1C019201A81D70FFF736
:104AD000BDFF019BC4F307415A1C019201A81D7040
:104AE000FFF7B4FF019B01A85A1C0192210E1D7013
:104AF000FFF7ACFF019B5A1C01920A221A70002298
:104B0000019B1A70019803B030BD019A501C0190AE
:104B10001370CBE730B5002401460A25204609B1C1
:104B20000B6803B930BD1A78303AD2B2092A04D9D9
:104B3000002CF7D101330B60F1E7013305FB0020B6
:104B40000B600124EBE700002DE9F74F00259146AB
:104B50000126A8462C46DFF888A0DFF888B0314649
:104B6000484600F0C0FC0746019038B1012E15D12F
:104B700002F0D8FC80460136042EF0D1154BC3F864
:104B800000800DB1144B1D6024B10E2C134B19D8AD
:104B90000F221A60002003B0BDE8F08F51460CF0E0
:104BA000FFFD20B901A8FFF7B5FF0546E3E7594629
:104BB00038460CF0F5FD0028DDD101A8FFF7AAFF6B
:104BC0000446D8E7B4F5B86F02D94FF4B862E0E70D
:104BD0001C60DFE71C1900209008002098080020C6
:104BE000BF3601605F3501602DE9F74F0025914622
:104BF0000126A8462C46DFF888A0DFF888B03146A9
:104C0000484600F070FC0746019038B1012E15D1DE
:104C100002F088FC80460136042EF0D1154BC3F813
:104C200000800DB1144B1D6024B10E2C134B19D80C
:104C30000F221A60002003B0BDE8F08F51460CF03F
:104C4000AFFD20B901A8FFF765FF0546E3E7594628
:104C500038460CF0A5FD0028DDD101A8FFF75AFF6A
:104C60000446D8E7B4F5B86F02D94FF4B862E0E76C
:104C70001C60DFE7181900208C0800209408002031
:104C8000BF3601605F350160054B890003EA4013C0
:104C900000F070401843002301F100714350704749
:104CA000E0FFFF01174B10B4984208D04FF0A0036B
:104CB00083F31188BFF36F8FBFF34F8FFEE7046854
:104CC000427B237DDBB21A439B06427317D510212A
:104CD0000D4B58781A78904204D1201D012110BC48
:104CE000FFF7D2BF013911F0FF0108D05A781A44FA
:104CF000927822705A780132D2B25A70E9E710BC29
:104D0000704700BF081A00200C180020054B8900CE
:104D100003EA401300F070401843012301F10071D1
:104D200043507047E0FFFF0138B505460F4C23782C
:104D300062780133DBB2934213D00D4A012110682F
:104D40000430FFF7A1FF2378106823449D70237877
:104D500001210133DBB223700430BDE83840FFF796
:104D6000D5BF012005F0DCFDE1E700BF0C180020F5
:104D7000081A002070B5094C05460021206805F08E
:104D800089F950B12846FFF7CFFF002320681A4663
:104D9000BDE87040194604F0AFBF70BD180F002089
:104DA00010B5441E631C02D014F9010F00B910BDE8
:104DB000FFF7BAFFF6E7000070B5094C0546002181
:104DC000206805F067F950B12846FFF7E9FF002396
:104DD00020681A46BDE87040194604F08DBF70BDCA
:104DE000180F00201FB50DF1050300935B238DF80C
:104DF000043005F04BFC01466846FFF727FE009B98
:104E000001A85A1C00925D221A700022009B1A70A1
:104E1000FFF7D2FF05B05DF804FB1FB504AB01AC92
:104E200043F8104D01461846FFF710FE0022009B84
:104E300020461A70FFF7C0FF04B010BD30B5012145
:104E400085B0104600F04FFB02F06CFB02214FF4DE
:104E50001453039011220846ADF80A3002F00CF901
:104E6000431C044601D100F035FB05F00FFC08237C
:104E700011490546086001936B4400930422002306
:104E8000204602F000FA40B90C48FFF795FF204693
:104E900002F0D6FA002005B030BD0428F7D1FFF7A4
:104EA000A1FF0748FFF788FF2846FFF7B6FF0A2053
:104EB000FFF760FFEBE700BF0F190020CC40016057
:104EC000E14001602DE9F347054688460024164F6E
:104ED000DFF85C903B6DA34219D9142C17D0013434
:104EE00007EB840353F8046C8EB1304605F0A4FF41
:104EF0008246304605F0D0FB534600904A46414674
:104F0000284606F05BFD2846FFF756FFE2E704F06F
:104F100005FBFFF782FF0548FFF74EFF00202870D2
:104F200002B0BDE8F08700BFBC0C0020C5400160A6
:104F3000AB4001602DE9F04F394F91B006460D4668
:104F400038680021144605F0A5F8B84600285ED060
:104F500005F09CFB5B2301460DF1090701A88DF8C4
:104F600008300197FFF772FD019B0DF108095A1CEB
:104F700001925D221A700022019B48461A70FFF7C9
:104F80000FFF16B13046FFF70BFF002D08BF0024BE
:104F900000264FF0200A234BCDF804901B78BBB1BC
:104FA0004FF0300BF1B201A801978DF808B0FFF770
:104FB00019FD019B591C019183F800B0019B5A1CFB
:104FC00001923A221A70019B5A1C019283F800A0A8
:104FD000013605F1100B4CB1013CA4B215F8011BD0
:104FE00001A8FFF7FFFC0CB15D4513D10A22019B1C
:104FF00048461A80FFF7D4FE14B1B6F5807FCAD1B7
:105000000023D8F800001A46194604F075FE11B0C6
:10501000BDE8F08F019B591C019183F800A0DAE7ED
:10502000180F00200E19002038B5054608B900F009
:1050300051FA082004F0ACF9044640B94FF0A0033F
:1050400083F31188BFF36F8FBFF34F8FFEE704F038
:10505000C1FA00236360044B25601A681C60546029
:1050600004F0DAFA012038BD88080020F7B58C4E2C
:105070000446B0428B4B14D08B4A904200D000BE05
:105080008A4A4FF4006122600B2222719A6C42F42A
:1050900080729A64864AC2F880119A6C22F48072F7
:1050A00010E04FF0804202600A224FF480610271EA
:1050B0009A6C42F080029A647D4AC2F880119A6C20
:1050C00022F08002002520689A640121057100F811
:1050D000085FFFF71BFE206802210830FFF716FE6D
:1050E000206829460830FFF711FE2068042110309F
:1050F000FFF7CAFD206805211030FFF7C5FD2068C5
:1051000001213430FFF7C0FD206829463430FFF715
:10511000BBFD206801213830FFF7B6FD206805216E
:105120003030FFF7B1FD206806213030FFF7ACFDCD
:10513000206807213030FFF7A7FD206803213830B1
:10514000FFF7A2FD2368B44283F8445083F8485027
:1051500083F84C501AD0544B9C4217D000BE032306
:10516000226813734FF4E13223730023A26063615A
:105170002361A36123626362E361A362E362236349
:105180006363A363E363637303B0F0BD4FF4E13380
:10519000A360444BD3F8982012F0806265D1D3F815
:1051A0009810C9043CD4434A434B1A60434B444AC9
:1051B0001360444A1360B4424FF461060CBF404B85
:1051C000404B20681B68DB00B3FBF6F6012EF7B2FC
:1051D00054D94FF46135B3FBF5F5A5EB86124FF4C6
:1051E000E135B3FBF5F507210C3005F07F05AD1A6D
:1051F000FFF78CFD2068C6F307260671072100F82B
:105200000C7BFFF741FD206807213030FFF77EFD62
:10521000FF2D00D900BE2368EDB283F83C509EE715
:105220008DF800208DF80220022201218DF8042043
:105230008DF8052003228DF801108DF803108DF8EC
:1052400006208DF80720D3F89C2002A9C2F3821211
:105250000A4412F8082C012A02D006D31A4801E0A9
:105260004FF40040FCF7F4FCA5E7D3F850311748A1
:1052700013F0040F164B18BF1846F3E707210C3044
:10528000FFF744FD002320680721037100F80C7B21
:10529000FFF7FAFC206807213030FFF7F5FC5EE7E6
:1052A000081A002000800340481A00200000014036
:1052B00000E100E080BF76089C080020C05F3B044E
:1052C000A0080020A408002040420F0040787D0183
:1052D00080F0FA022DE9F04F694B87B0D3F84C31DA
:1052E000C0F312039E18B6F5002F02900391914669
:1052F00005D300BE0625284607B0BDE8F08F614CF7
:10530000A3425FD80020FCF76FFD05460028F2D1CC
:10531000A6424ED84F460025DFF874A1002F4ED08C
:10532000002D4CD1029BA9EB070E03EB0E06C6F332
:105330001204E30901333A19B3EBD21F88BF3E468A
:10534000504B9CBF06F07F06C6F180069C4286BF8C
:10535000A4F580244FF001084FF00008802E38D1CA
:10536000039A04F07F0302EB0E0C61469B1A464839
:10537000A3EB0E03A1EB0C02B24258D3002350F86A
:1053800028B04046CBF8403124F0006323F07F037F
:1053900043F00063CBF84831FCF7F4FC0590059A24
:1053A0003A4B1A424DD0DBF820315A035ED5012525
:1053B000B4E70120FCF718FD0528054606D1FCF7E7
:1053C000F7FC98E70120FCF70FFD0546002DA1D062
:1053D00091E7002304F1C042C4F3840BA00722F03C
:1053E0007F0218BF0BF1010B9B450AD003F1200C83
:1053F00052F823005AF828100133202B41F82C00D2
:10540000F2D10021A019C0F384035AF828B0019307
:10541000C3F1200C02EB8302019B52F821000B44E4
:10542000013120338C454BF82300F5D198E750F833
:10543000282003EB010B11F801EB5A4482F880E0BD
:1054400098E724F0805424F07F0444F08054CBF893
:10545000484140460193FCF795FC0590059A019B55
:105460001A42A0D1B742AAD9BF1B57E7990605D463
:1054700013F0100F14BF032502254FE704254DE755
:1054800000800340FFFF0300E84001603E0004008D
:10549000F0400160052370B5032600250C4C236401
:1054A00094F83C00C0B2012811D105F039FA236C00
:1054B000002BF5D0012B87BF03F1FF33236484F861
:1054C0003C6025729CBF84F871502564E8E770BD8C
:1054D000941900204FF0A00383F31188BFF36F8F5E
:1054E000BFF34F8FFEE738B508BBFFF7F3FF234646
:1054F0001C4614F9010B08B32028F8D11D4615F9F4
:10550000014B1846202C0ED0ACB101328A4210D18A
:1055100090F90020411C32F0200206D1984214BFBD
:105520001846002038BD2B46E8E70846F0E7002281
:1055300019B10346DCE7204638BD104638BD0000EF
:1055400007B5174A174CD368174923F4E0631B04C7
:105550001B0C43F0BF6343F40033D3600423019476
:1055600000934FF4C8720023104804F02BFF012869
:1055700008D04FF0A00383F31188BFF36F8FBFF300
:105580004F8FFEE72068FCF7B7FD05F035F84FF0C8
:10559000A00383F31188BFF36F8FBFF34F8FFEE734
:1055A00000ED00E0881A0020F84001603121006021
:1055B00007B570B100230090074802AA42F8043DE5
:1055C0006946006804F060FC019B13B10122034BA3
:1055D0001A6003B05DF804FBB01A0020AC1B002079
:1055E000002330B50F4D85B02C6801900E48013472
:1055F0000291039201A96A46006800932C6004F0AE
:1056000043FC40B94FF0A00383F31188BFF36F8FC1
:10561000BFF34F8FFEE7009B13B10122034B1A60CB
:1056200005B030BD28C70020AC1A0020AC1B0020FC
:10563000F0B52C4D2C4E87B0AF1F4FF0FF3203A9B1
:10564000306804F083FC0128F7D1284B284A1968F8
:1056500013680133C81A3AD11360039801F0A8F90E
:1056600001282FD1234B1B789BB106A840F8185D69
:105670000499FFF7EBF9009B38465A1C00920A2266
:105680001A700022009B1A70BDF810200399FFF7D2
:1056900051FC0521049800F06FF9044690B103997C
:1056A000049A806906F0B0F8049B0521E3610123A8
:1056B00001A88DF80430029401F0E6F810B92046F4
:1056C00000F036F90021039800F086FCB5E7094B9D
:1056D00011601B78002BC0D0FFF79FFB0648FFF737
:1056E0006BFBBAE7AE080020AC1A002028C70020E8
:1056F000A41A00208C1A00200041016007B5094D52
:10570000094C4FF0FF3201A9286804F01FFC012862
:10571000F7D1019810B100F00BF9F2E72046FFF73E
:105720004BFBEEE7B01A00200C4101600128054B4D
:1057300002D1187018787047022804BF00221A702E
:10574000F8E700BF8C1A0020002307B502A901F872
:10575000013D0DF106008DF8063000F059F9431EA9
:105760005842584103B05DF804FB000010B58EB0FC
:1057700003A800F0BDF900240A2303A803938DF8C1
:10578000164000F035FA2D4800F058FD21462C480F
:1057900000F022FC21462B482B4C00F01DFC2B482E
:1057A00000F046FD226872B90421072004F062FA75
:1057B000206040B94FF0A00383F31188BFF36F8FCF
:1057C000BFF34F8FFEE7224C2368A3B9092201944F
:1057D000009220496422204804F0F4FD206840B97A
:1057E0004FF0A00383F31188BFF36F8FBFF34F8F88
:1057F000FEE7FCF781FC00220C21032004F03AFABA
:10580000164C174B18602368A3B909220194009223
:1058100014496422144804F0D5FD206840B94FF0C3
:10582000A00383F31188BFF36F8FBFF34F8FFEE7A1
:10583000FCF762FCFFF788FF0EB010BDE155006079
:1058400044BB002038C10020B01A0020B1550060D0
:10585000B41A002018410160FD560060A81A00200B
:10586000AC1A0020204101603156006070B5C46957
:105870008569002914BF024600222146284600F00F
:10588000F9FB084B06461B7853B1074A14212346FF
:10589000064806F093F8A2B229460448FFF74AFBEF
:1058A000304670BD8C1A0020284101608D1A0020FE
:1058B0002DE9F041174C256826462DBB06210846E8
:1058C00004F0FCF9206040B94FF0A00383F3118885
:1058D000BFF36F8FBFF34F8FFEE70F4804F0BEF8A2
:1058E0000E4CDFF8348004F1D807A561204604F09F
:1058F000C0F8E46021464046243404F0C9F8BC42B4
:10590000F3D10622064B1A603068003018BF012020
:10591000BDE8F081A81B0020BC1A0020D01A00208E
:10592000B81A002010B10C3803F0C0BD7047000059
:1059300070B505468069FFF7F5FF0023AB6103F002
:1059400049FE0B4C2E69A64203D02946204604F09E
:1059500093F803F061FEA64208D0BDE87040002332
:1059600004481A461946006804F0C6B970BD00BF65
:10597000BC1A0020A81B0020431E402B98BF4220C9
:1059800070B5841CA3071C4B18BF44F003041868AF
:1059900018BF013404F07EFB012825D1174E03F017
:1059A00019FEF368DD68284604F089F803F034FE38
:1059B000134B326819688A4238BF1A60AB6943B129
:1059C0004FF0A00383F31188BFF36F8FBFF34F8FA6
:1059D000FEE77CB104F10C0003F0DAFC0646A86196
:1059E00020B92846FFF7A4FF002503E046F80C5B2A
:1059F000AE61EC61284670BDA81B0020BC1A0020D7
:105A0000B81A0020014B1868704700BFBC1A00206C
:105A1000F7B505460C460DF106000DF1070103F040
:105A2000E7FA002852D02E4B2E499DF80620D3F8D5
:105A30008C600B781746934232D02B4B012AC6F369
:105A40008206D3F838E015D14EF4803EC3F838E032
:105A5000D3F804E0022E2EF4407EC3F804E0D3F81D
:105A600004E04EF4807EC3F804E011D0002A08BFA1
:105A700001220DE02EF4803E022AC3F838E0E7D17F
:105A80005E6826F440765E605E6846F400765E608E
:105A9000134ED6F88C3023F003031A43C6F88C203B
:105AA0000F7012499DF807200B78934209D00E4BD6
:105AB0005E686AB926F001065E60DE6D46F4800617
:105AC000DE650A7005B12F7004B1227003B0F0BD1D
:105AD00046F001065E60DE6D26F48006F0E700BF4A
